{
	"DEX.sol": {
		"DEX": {
			"abi": [
				{
					"inputs": [],
					"stateMutability": "nonpayable",
					"type": "constructor"
				},
				{
					"anonymous": false,
					"inputs": [],
					"name": "liquidityChangeEvent",
					"type": "event"
				},
				{
					"inputs": [],
					"name": "addLiquidity",
					"outputs": [],
					"stateMutability": "payable",
					"type": "function"
				},
				{
					"inputs": [
						{
							"internalType": "uint256",
							"name": "_tokenAmount",
							"type": "uint256"
						},
						{
							"internalType": "uint256",
							"name": "_feeNumerator",
							"type": "uint256"
						},
						{
							"internalType": "uint256",
							"name": "_feeDenominator",
							"type": "uint256"
						},
						{
							"internalType": "address",
							"name": "_erc20token",
							"type": "address"
						},
						{
							"internalType": "address",
							"name": "_etherPricer",
							"type": "address"
						}
					],
					"name": "createPool",
					"outputs": [],
					"stateMutability": "payable",
					"type": "function"
				},
				{
					"inputs": [],
					"name": "decimals",
					"outputs": [
						{
							"internalType": "uint256",
							"name": "",
							"type": "uint256"
						}
					],
					"stateMutability": "view",
					"type": "function"
				},
				{
					"inputs": [],
					"name": "erc20Address",
					"outputs": [
						{
							"internalType": "address",
							"name": "",
							"type": "address"
						}
					],
					"stateMutability": "view",
					"type": "function"
				},
				{
					"inputs": [
						{
							"internalType": "address",
							"name": "",
							"type": "address"
						}
					],
					"name": "etherLiquidityForAddress",
					"outputs": [
						{
							"internalType": "uint256",
							"name": "",
							"type": "uint256"
						}
					],
					"stateMutability": "view",
					"type": "function"
				},
				{
					"inputs": [],
					"name": "etherPricer",
					"outputs": [
						{
							"internalType": "address",
							"name": "",
							"type": "address"
						}
					],
					"stateMutability": "view",
					"type": "function"
				},
				{
					"inputs": [],
					"name": "feeDenominator",
					"outputs": [
						{
							"internalType": "uint256",
							"name": "",
							"type": "uint256"
						}
					],
					"stateMutability": "view",
					"type": "function"
				},
				{
					"inputs": [],
					"name": "feeNumerator",
					"outputs": [
						{
							"internalType": "uint256",
							"name": "",
							"type": "uint256"
						}
					],
					"stateMutability": "view",
					"type": "function"
				},
				{
					"inputs": [],
					"name": "feesEther",
					"outputs": [
						{
							"internalType": "uint256",
							"name": "",
							"type": "uint256"
						}
					],
					"stateMutability": "view",
					"type": "function"
				},
				{
					"inputs": [],
					"name": "feesToken",
					"outputs": [
						{
							"internalType": "uint256",
							"name": "",
							"type": "uint256"
						}
					],
					"stateMutability": "view",
					"type": "function"
				},
				{
					"inputs": [],
					"name": "getDEXinfo",
					"outputs": [
						{
							"internalType": "address",
							"name": "",
							"type": "address"
						},
						{
							"internalType": "string",
							"name": "",
							"type": "string"
						},
						{
							"internalType": "string",
							"name": "",
							"type": "string"
						},
						{
							"internalType": "address",
							"name": "",
							"type": "address"
						},
						{
							"internalType": "uint256",
							"name": "",
							"type": "uint256"
						},
						{
							"internalType": "uint256",
							"name": "",
							"type": "uint256"
						},
						{
							"internalType": "uint256",
							"name": "",
							"type": "uint256"
						},
						{
							"internalType": "uint256",
							"name": "",
							"type": "uint256"
						},
						{
							"internalType": "uint256",
							"name": "",
							"type": "uint256"
						},
						{
							"internalType": "uint256",
							"name": "",
							"type": "uint256"
						},
						{
							"internalType": "uint256",
							"name": "",
							"type": "uint256"
						},
						{
							"internalType": "uint256",
							"name": "",
							"type": "uint256"
						}
					],
					"stateMutability": "view",
					"type": "function"
				},
				{
					"inputs": [],
					"name": "getEtherPrice",
					"outputs": [
						{
							"internalType": "uint256",
							"name": "",
							"type": "uint256"
						}
					],
					"stateMutability": "view",
					"type": "function"
				},
				{
					"inputs": [],
					"name": "getPoolLiquidityInUSDCents",
					"outputs": [
						{
							"internalType": "uint256",
							"name": "",
							"type": "uint256"
						}
					],
					"stateMutability": "view",
					"type": "function"
				},
				{
					"inputs": [],
					"name": "getTokenPrice",
					"outputs": [
						{
							"internalType": "uint256",
							"name": "",
							"type": "uint256"
						}
					],
					"stateMutability": "view",
					"type": "function"
				},
				{
					"inputs": [],
					"name": "i",
					"outputs": [
						{
							"internalType": "uint256",
							"name": "",
							"type": "uint256"
						}
					],
					"stateMutability": "view",
					"type": "function"
				},
				{
					"inputs": [],
					"name": "k",
					"outputs": [
						{
							"internalType": "uint256",
							"name": "",
							"type": "uint256"
						}
					],
					"stateMutability": "view",
					"type": "function"
				},
				{
					"inputs": [
						{
							"internalType": "address",
							"name": "from",
							"type": "address"
						},
						{
							"internalType": "uint256",
							"name": "amount",
							"type": "uint256"
						},
						{
							"internalType": "address",
							"name": "erc20",
							"type": "address"
						}
					],
					"name": "onERC20Received",
					"outputs": [
						{
							"internalType": "bool",
							"name": "",
							"type": "bool"
						}
					],
					"stateMutability": "nonpayable",
					"type": "function"
				},
				{
					"inputs": [
						{
							"internalType": "uint256",
							"name": "amountEther",
							"type": "uint256"
						}
					],
					"name": "removeLiquidity",
					"outputs": [],
					"stateMutability": "nonpayable",
					"type": "function"
				},
				{
					"inputs": [],
					"name": "reset",
					"outputs": [],
					"stateMutability": "pure",
					"type": "function"
				},
				{
					"inputs": [
						{
							"internalType": "address",
							"name": "p",
							"type": "address"
						}
					],
					"name": "setEtherPricer",
					"outputs": [],
					"stateMutability": "nonpayable",
					"type": "function"
				},
				{
					"inputs": [
						{
							"internalType": "bytes4",
							"name": "interfaceId",
							"type": "bytes4"
						}
					],
					"name": "supportsInterface",
					"outputs": [
						{
							"internalType": "bool",
							"name": "",
							"type": "bool"
						}
					],
					"stateMutability": "pure",
					"type": "function"
				},
				{
					"inputs": [],
					"name": "symbol",
					"outputs": [
						{
							"internalType": "string",
							"name": "",
							"type": "string"
						}
					],
					"stateMutability": "view",
					"type": "function"
				},
				{
					"inputs": [
						{
							"internalType": "address",
							"name": "",
							"type": "address"
						}
					],
					"name": "tokenLiquidityForAddress",
					"outputs": [
						{
							"internalType": "uint256",
							"name": "",
							"type": "uint256"
						}
					],
					"stateMutability": "view",
					"type": "function"
				},
				{
					"inputs": [],
					"name": "x",
					"outputs": [
						{
							"internalType": "uint256",
							"name": "",
							"type": "uint256"
						}
					],
					"stateMutability": "view",
					"type": "function"
				},
				{
					"inputs": [],
					"name": "y",
					"outputs": [
						{
							"internalType": "uint256",
							"name": "",
							"type": "uint256"
						}
					],
					"stateMutability": "view",
					"type": "function"
				},
				{
					"stateMutability": "payable",
					"type": "receive"
				}
			],
			"devdoc": {
				"kind": "dev",
				"methods": {
					"onERC20Received(address,uint256,address)": {
						"details": "Whenever an {IERC20} amount is transferred to this contract from `from`, this function is called. It must return true to confirm the token transfer. If false is returned the transfer will be reverted. The selector can be obtained in Solidity with `IERC20Receiver.onERC20Received.selector`."
					},
					"supportsInterface(bytes4)": {
						"details": "Returns true if this contract implements the interface defined by `interfaceId`. See the corresponding https://eips.ethereum.org/EIPS/eip-165#how-interfaces-are-identified[EIP section] to learn more about how these ids are created. This function call must use less than 30 000 gas."
					}
				},
				"version": 1
			},
			"evm": {
				"assembly": "    /* \"DEX.sol\":317:9737  contract DEX is IDEX {... */\n  mstore(0x40, 0x80)\n    /* \"DEX.sol\":1683:1801  constructor () {... */\n  callvalue\n  dup1\n  iszero\n  tag_1\n  jumpi\n  0x00\n  dup1\n  revert\ntag_1:\n  pop\n    /* \"DEX.sol\":1722:1727  false */\n  0x00\n    /* \"DEX.sol\":1708:1719  poolCreated */\n  dup1\n  0x00\n    /* \"DEX.sol\":1708:1727  poolCreated = false */\n  0x0100\n  exp\n  dup2\n  sload\n  dup2\n  0xff\n  mul\n  not\n  and\n  swap1\n  dup4\n  iszero\n  iszero\n  mul\n  or\n  swap1\n  sstore\n  pop\n    /* \"DEX.sol\":1748:1758  msg.sender */\n  caller\n    /* \"DEX.sol\":1737:1745  deployer */\n  0x00\n  0x01\n    /* \"DEX.sol\":1737:1758  deployer = msg.sender */\n  0x0100\n  exp\n  dup2\n  sload\n  dup2\n  0xffffffffffffffffffffffffffffffffffffffff\n  mul\n  not\n  and\n  swap1\n  dup4\n  0xffffffffffffffffffffffffffffffffffffffff\n  and\n  mul\n  or\n  swap1\n  sstore\n  pop\n    /* \"DEX.sol\":1789:1794  false */\n  0x00\n    /* \"DEX.sol\":1768:1786  adjustingLiquidity */\n  dup1\n  0x15\n    /* \"DEX.sol\":1768:1794  adjustingLiquidity = false */\n  0x0100\n  exp\n  dup2\n  sload\n  dup2\n  0xff\n  mul\n  not\n  and\n  swap1\n  dup4\n  iszero\n  iszero\n  mul\n  or\n  swap1\n  sstore\n  pop\n    /* \"DEX.sol\":317:9737  contract DEX is IDEX {... */\n  dataSize(sub_0)\n  dup1\n  dataOffset(sub_0)\n  0x00\n  codecopy\n  0x00\n  return\nstop\n\nsub_0: assembly {\n        /* \"DEX.sol\":317:9737  contract DEX is IDEX {... */\n      mstore(0x40, 0x80)\n      jumpi(tag_1, lt(calldatasize, 0x04))\n      shr(0xe0, calldataload(0x00))\n      dup1\n      0x9c8f9f23\n      gt\n      tag_28\n      jumpi\n      dup1\n      0xca7c4dba\n      gt\n      tag_29\n      jumpi\n      dup1\n      0xe5aa3d58\n      gt\n      tag_30\n      jumpi\n      dup1\n      0xe5aa3d58\n      eq\n      tag_24\n      jumpi\n      dup1\n      0xe8078d94\n      eq\n      tag_25\n      jumpi\n      dup1\n      0xe86dea4a\n      eq\n      tag_26\n      jumpi\n      dup1\n      0xfeffe7e4\n      eq\n      tag_27\n      jumpi\n      jump(tag_2)\n    tag_30:\n      dup1\n      0xca7c4dba\n      eq\n      tag_21\n      jumpi\n      dup1\n      0xd3c51d91\n      eq\n      tag_22\n      jumpi\n      dup1\n      0xd826f88f\n      eq\n      tag_23\n      jumpi\n      jump(tag_2)\n    tag_29:\n      dup1\n      0x9c8f9f23\n      eq\n      tag_15\n      jumpi\n      dup1\n      0x9fed4ad8\n      eq\n      tag_16\n      jumpi\n      dup1\n      0xa56dfe4a\n      eq\n      tag_17\n      jumpi\n      dup1\n      0xadd010a5\n      eq\n      tag_18\n      jumpi\n      dup1\n      0xb4f40c61\n      eq\n      tag_19\n      jumpi\n      dup1\n      0xb7c56525\n      eq\n      tag_20\n      jumpi\n      jump(tag_2)\n    tag_28:\n      dup1\n      0x4b94f50e\n      gt\n      tag_31\n      jumpi\n      dup1\n      0x4b94f50e\n      eq\n      tag_9\n      jumpi\n      dup1\n      0x4f54a081\n      eq\n      tag_10\n      jumpi\n      dup1\n      0x5dfd8773\n      eq\n      tag_11\n      jumpi\n      dup1\n      0x7ff879e3\n      eq\n      tag_12\n      jumpi\n      dup1\n      0x8d729abb\n      eq\n      tag_13\n      jumpi\n      dup1\n      0x95d89b41\n      eq\n      tag_14\n      jumpi\n      jump(tag_2)\n    tag_31:\n      dup1\n      0x01ffc9a7\n      eq\n      tag_3\n      jumpi\n      dup1\n      0x0c55699c\n      eq\n      tag_4\n      jumpi\n      dup1\n      0x180b0d7e\n      eq\n      tag_5\n      jumpi\n      dup1\n      0x276184ae\n      eq\n      tag_6\n      jumpi\n      dup1\n      0x2bfdf307\n      eq\n      tag_7\n      jumpi\n      dup1\n      0x313ce567\n      eq\n      tag_8\n      jumpi\n      jump(tag_2)\n    tag_1:\n      jumpi(tag_2, calldatasize)\n        /* \"DEX.sol\":8378:8392  uint ethAmount */\n      0x00\n        /* \"DEX.sol\":8395:8404  msg.value */\n      callvalue\n        /* \"DEX.sol\":8378:8404  uint ethAmount = msg.value */\n      swap1\n      pop\n        /* \"DEX.sol\":8414:8430  uint tokenAmount */\n      0x00\n        /* \"DEX.sol\":8444:8453  ethAmount */\n      dup2\n        /* \"DEX.sol\":8440:8441  x */\n      sload(0x03)\n        /* \"DEX.sol\":8440:8453  x + ethAmount */\n      tag_34\n      swap2\n      swap1\n      tag_35\n      jump\t// in\n    tag_34:\n        /* \"DEX.sol\":8437:8438  k */\n      sload(0x02)\n        /* \"DEX.sol\":8437:8454  k/(x + ethAmount) */\n      tag_36\n      swap2\n      swap1\n      tag_37\n      jump\t// in\n    tag_36:\n        /* \"DEX.sol\":8433:8434  y */\n      sload(0x04)\n        /* \"DEX.sol\":8433:8454  y - k/(x + ethAmount) */\n      tag_38\n      swap2\n      swap1\n      tag_39\n      jump\t// in\n    tag_38:\n        /* \"DEX.sol\":8414:8454  uint tokenAmount = y - k/(x + ethAmount) */\n      swap1\n      pop\n        /* \"DEX.sol\":8464:8472  uint fee */\n      0x00\n        /* \"DEX.sol\":8502:8516  feeDenominator */\n      sload(0x08)\n        /* \"DEX.sol\":8489:8501  feeNumerator */\n      sload(0x07)\n        /* \"DEX.sol\":8475:8486  tokenAmount */\n      dup4\n        /* \"DEX.sol\":8475:8501  tokenAmount * feeNumerator */\n      tag_40\n      swap2\n      swap1\n      tag_41\n      jump\t// in\n    tag_40:\n        /* \"DEX.sol\":8475:8516  tokenAmount * feeNumerator/feeDenominator */\n      tag_42\n      swap2\n      swap1\n      tag_37\n      jump\t// in\n    tag_42:\n        /* \"DEX.sol\":8464:8516  uint fee = tokenAmount * feeNumerator/feeDenominator */\n      swap1\n      pop\n        /* \"DEX.sol\":8532:8544  erc20Address */\n      0x0c\n      0x00\n      swap1\n      sload\n      swap1\n      0x0100\n      exp\n      swap1\n      div\n      0xffffffffffffffffffffffffffffffffffffffff\n      and\n        /* \"DEX.sol\":8526:8554  ERC20(erc20Address).transfer */\n      0xffffffffffffffffffffffffffffffffffffffff\n      and\n      0xa9059cbb\n        /* \"DEX.sol\":8555:8565  msg.sender */\n      caller\n        /* \"DEX.sol\":8581:8584  fee */\n      dup4\n        /* \"DEX.sol\":8567:8578  tokenAmount */\n      dup6\n        /* \"DEX.sol\":8567:8584  tokenAmount - fee */\n      tag_43\n      swap2\n      swap1\n      tag_39\n      jump\t// in\n    tag_43:\n        /* \"DEX.sol\":8526:8585  ERC20(erc20Address).transfer(msg.sender, tokenAmount - fee) */\n      mload(0x40)\n      dup4\n      0xffffffff\n      and\n      0xe0\n      shl\n      dup2\n      mstore\n      0x04\n      add\n      tag_44\n      swap3\n      swap2\n      swap1\n      tag_45\n      jump\t// in\n    tag_44:\n      0x20\n      mload(0x40)\n      dup1\n      dup4\n      sub\n      dup2\n      0x00\n      dup8\n      gas\n      call\n      iszero\n      dup1\n      iszero\n      tag_47\n      jumpi\n      returndatasize\n      0x00\n      dup1\n      returndatacopy\n      revert(0x00, returndatasize)\n    tag_47:\n      pop\n      pop\n      pop\n      pop\n      mload(0x40)\n      returndatasize\n      not(0x1f)\n      0x1f\n      dup3\n      add\n      and\n      dup3\n      add\n      dup1\n      0x40\n      mstore\n      pop\n      dup2\n      add\n      swap1\n      tag_48\n      swap2\n      swap1\n      tag_49\n      jump\t// in\n    tag_48:\n      pop\n        /* \"DEX.sol\":8600:8609  ethAmount */\n      dup3\n        /* \"DEX.sol\":8595:8596  x */\n      0x03\n      0x00\n        /* \"DEX.sol\":8595:8609  x += ethAmount */\n      dup3\n      dup3\n      sload\n      tag_50\n      swap2\n      swap1\n      tag_35\n      jump\t// in\n    tag_50:\n      swap3\n      pop\n      pop\n      dup2\n      swap1\n      sstore\n      pop\n        /* \"DEX.sol\":8624:8635  tokenAmount */\n      dup2\n        /* \"DEX.sol\":8619:8620  y */\n      0x04\n      0x00\n        /* \"DEX.sol\":8619:8635  y -= tokenAmount */\n      dup3\n      dup3\n      sload\n      tag_51\n      swap2\n      swap1\n      tag_39\n      jump\t// in\n    tag_51:\n      swap3\n      pop\n      pop\n      dup2\n      swap1\n      sstore\n      pop\n        /* \"DEX.sol\":8784:8787  fee */\n      dup1\n        /* \"DEX.sol\":8771:8780  feesToken */\n      0x0a\n      0x00\n        /* \"DEX.sol\":8771:8787  feesToken += fee */\n      dup3\n      dup3\n      sload\n      tag_52\n      swap2\n      swap1\n      tag_35\n      jump\t// in\n    tag_52:\n      swap3\n      pop\n      pop\n      dup2\n      swap1\n      sstore\n      pop\n        /* \"DEX.sol\":8802:8824  liquidityChangeEvent() */\n      0x8866993f7c029be4215942b34c1545282b8f28836579f2687fe96a5a6bf77704\n      mload(0x40)\n      mload(0x40)\n      dup1\n      swap2\n      sub\n      swap1\n      log1\n        /* \"DEX.sol\":8368:8831  {... */\n      stop\n        /* \"DEX.sol\":317:9737  contract DEX is IDEX {... */\n    tag_2:\n      0x00\n      dup1\n      revert\n        /* \"DEX.sol\":4395:4658  function supportsInterface(bytes4 interfaceId) external override pure returns (bool) {... */\n    tag_3:\n      callvalue\n      dup1\n      iszero\n      tag_53\n      jumpi\n      0x00\n      dup1\n      revert\n    tag_53:\n      pop\n      tag_54\n      0x04\n      dup1\n      calldatasize\n      sub\n      dup2\n      add\n      swap1\n      tag_55\n      swap2\n      swap1\n      tag_56\n      jump\t// in\n    tag_55:\n      tag_57\n      jump\t// in\n    tag_54:\n      mload(0x40)\n      tag_58\n      swap2\n      swap1\n      tag_59\n      jump\t// in\n    tag_58:\n      mload(0x40)\n      dup1\n      swap2\n      sub\n      swap1\n      return\n        /* \"DEX.sol\":724:746  uint public override x */\n    tag_4:\n      callvalue\n      dup1\n      iszero\n      tag_60\n      jumpi\n      0x00\n      dup1\n      revert\n    tag_60:\n      pop\n      tag_61\n      tag_62\n      jump\t// in\n    tag_61:\n      mload(0x40)\n      tag_63\n      swap2\n      swap1\n      tag_64\n      jump\t// in\n    tag_63:\n      mload(0x40)\n      dup1\n      swap2\n      sub\n      swap1\n      return\n        /* \"DEX.sol\":1165:1200  uint public override feeDenominator */\n    tag_5:\n      callvalue\n      dup1\n      iszero\n      tag_65\n      jumpi\n      0x00\n      dup1\n      revert\n    tag_65:\n      pop\n      tag_66\n      tag_67\n      jump\t// in\n    tag_66:\n      mload(0x40)\n      tag_68\n      swap2\n      swap1\n      tag_64\n      jump\t// in\n    tag_68:\n      mload(0x40)\n      dup1\n      swap2\n      sub\n      swap1\n      return\n        /* \"DEX.sol\":1550:1586  address public override erc20Address */\n    tag_6:\n      callvalue\n      dup1\n      iszero\n      tag_69\n      jumpi\n      0x00\n      dup1\n      revert\n    tag_69:\n      pop\n      tag_70\n      tag_71\n      jump\t// in\n    tag_70:\n      mload(0x40)\n      tag_72\n      swap2\n      swap1\n      tag_73\n      jump\t// in\n    tag_72:\n      mload(0x40)\n      dup1\n      swap2\n      sub\n      swap1\n      return\n        /* \"DEX.sol\":1378:1408  uint public override feesToken */\n    tag_7:\n      callvalue\n      dup1\n      iszero\n      tag_74\n      jumpi\n      0x00\n      dup1\n      revert\n    tag_74:\n      pop\n      tag_75\n      tag_76\n      jump\t// in\n    tag_75:\n      mload(0x40)\n      tag_77\n      swap2\n      swap1\n      tag_64\n      jump\t// in\n    tag_77:\n      mload(0x40)\n      dup1\n      swap2\n      sub\n      swap1\n      return\n        /* \"DEX.sol\":1945:2057  function decimals() external override view returns (uint) {... */\n    tag_8:\n      callvalue\n      dup1\n      iszero\n      tag_78\n      jumpi\n      0x00\n      dup1\n      revert\n    tag_78:\n      pop\n      tag_79\n      tag_80\n      jump\t// in\n    tag_79:\n      mload(0x40)\n      tag_81\n      swap2\n      swap1\n      tag_64\n      jump\t// in\n    tag_81:\n      mload(0x40)\n      dup1\n      swap2\n      sub\n      swap1\n      return\n        /* \"DEX.sol\":2603:2826  function getTokenPrice() external override view returns (uint) {... */\n    tag_9:\n      callvalue\n      dup1\n      iszero\n      tag_82\n      jumpi\n      0x00\n      dup1\n      revert\n    tag_82:\n      pop\n      tag_83\n      tag_84\n      jump\t// in\n    tag_83:\n      mload(0x40)\n      tag_85\n      swap2\n      swap1\n      tag_64\n      jump\t// in\n    tag_85:\n      mload(0x40)\n      dup1\n      swap2\n      sub\n      swap1\n      return\n        /* \"DEX.sol\":1457:1492  address public override etherPricer */\n    tag_10:\n      callvalue\n      dup1\n      iszero\n      tag_86\n      jumpi\n      0x00\n      dup1\n      revert\n    tag_86:\n      pop\n      tag_87\n      tag_88\n      jump\t// in\n    tag_87:\n      mload(0x40)\n      tag_89\n      swap2\n      swap1\n      tag_73\n      jump\t// in\n    tag_89:\n      mload(0x40)\n      dup1\n      swap2\n      sub\n      swap1\n      return\n        /* \"DEX.sol\":1274:1304  uint public override feesEther */\n    tag_11:\n      callvalue\n      dup1\n      iszero\n      tag_90\n      jumpi\n      0x00\n      dup1\n      revert\n    tag_90:\n      pop\n      tag_91\n      tag_92\n      jump\t// in\n    tag_91:\n      mload(0x40)\n      tag_93\n      swap2\n      swap1\n      tag_64\n      jump\t// in\n    tag_93:\n      mload(0x40)\n      dup1\n      swap2\n      sub\n      swap1\n      return\n        /* \"DEX.sol\":8988:9725  function onERC20Received(address from, uint amount, address erc20) external override returns (bool) {... */\n    tag_12:\n      callvalue\n      dup1\n      iszero\n      tag_94\n      jumpi\n      0x00\n      dup1\n      revert\n    tag_94:\n      pop\n      tag_95\n      0x04\n      dup1\n      calldatasize\n      sub\n      dup2\n      add\n      swap1\n      tag_96\n      swap2\n      swap1\n      tag_97\n      jump\t// in\n    tag_96:\n      tag_98\n      jump\t// in\n    tag_95:\n      mload(0x40)\n      tag_99\n      swap2\n      swap1\n      tag_59\n      jump\t// in\n    tag_99:\n      mload(0x40)\n      dup1\n      swap2\n      sub\n      swap1\n      return\n        /* \"DEX.sol\":970:1036  mapping (address => uint) public override tokenLiquidityForAddress */\n    tag_13:\n      callvalue\n      dup1\n      iszero\n      tag_100\n      jumpi\n      0x00\n      dup1\n      revert\n    tag_100:\n      pop\n      tag_101\n      0x04\n      dup1\n      calldatasize\n      sub\n      dup2\n      add\n      swap1\n      tag_102\n      swap2\n      swap1\n      tag_103\n      jump\t// in\n    tag_102:\n      tag_104\n      jump\t// in\n    tag_101:\n      mload(0x40)\n      tag_105\n      swap2\n      swap1\n      tag_64\n      jump\t// in\n    tag_105:\n      mload(0x40)\n      dup1\n      swap2\n      sub\n      swap1\n      return\n        /* \"DEX.sol\":2093:2210  function symbol() external override view returns (string memory) {... */\n    tag_14:\n      callvalue\n      dup1\n      iszero\n      tag_106\n      jumpi\n      0x00\n      dup1\n      revert\n    tag_106:\n      pop\n      tag_107\n      tag_108\n      jump\t// in\n    tag_107:\n      mload(0x40)\n      tag_109\n      swap2\n      swap1\n      tag_110\n      jump\t// in\n    tag_109:\n      mload(0x40)\n      dup1\n      swap2\n      sub\n      swap1\n      return\n        /* \"DEX.sol\":7537:8256  function removeLiquidity(uint amountEther) external {... */\n    tag_15:\n      callvalue\n      dup1\n      iszero\n      tag_111\n      jumpi\n      0x00\n      dup1\n      revert\n    tag_111:\n      pop\n      tag_112\n      0x04\n      dup1\n      calldatasize\n      sub\n      dup2\n      add\n      swap1\n      tag_113\n      swap2\n      swap1\n      tag_114\n      jump\t// in\n    tag_113:\n      tag_115\n      jump\t// in\n    tag_112:\n      stop\n        /* \"DEX.sol\":3735:4238  function getDEXinfo() external view returns (address, string memory, string memory, ... */\n    tag_16:\n      callvalue\n      dup1\n      iszero\n      tag_116\n      jumpi\n      0x00\n      dup1\n      revert\n    tag_116:\n      pop\n      tag_117\n      tag_118\n      jump\t// in\n    tag_117:\n      mload(0x40)\n      tag_119\n      swap13\n      swap12\n      swap11\n      swap10\n      swap9\n      swap8\n      swap7\n      swap6\n      swap5\n      swap4\n      swap3\n      swap2\n      swap1\n      tag_120\n      jump\t// in\n    tag_119:\n      mload(0x40)\n      dup1\n      swap2\n      sub\n      swap1\n      return\n        /* \"DEX.sol\":774:796  uint public override y */\n    tag_17:\n      callvalue\n      dup1\n      iszero\n      tag_121\n      jumpi\n      0x00\n      dup1\n      revert\n    tag_121:\n      pop\n      tag_122\n      tag_123\n      jump\t// in\n    tag_122:\n      mload(0x40)\n      tag_124\n      swap2\n      swap1\n      tag_64\n      jump\t// in\n    tag_124:\n      mload(0x40)\n      dup1\n      swap2\n      sub\n      swap1\n      return\n        /* \"DEX.sol\":5099:6453  function createPool(uint _tokenAmount, uint _feeNumerator, uint _feeDenominator, ... */\n    tag_18:\n      tag_125\n      0x04\n      dup1\n      calldatasize\n      sub\n      dup2\n      add\n      swap1\n      tag_126\n      swap2\n      swap1\n      tag_127\n      jump\t// in\n    tag_126:\n      tag_128\n      jump\t// in\n    tag_125:\n      stop\n        /* \"DEX.sol\":674:696  uint public override k */\n    tag_19:\n      callvalue\n      dup1\n      iszero\n      tag_129\n      jumpi\n      0x00\n      dup1\n      revert\n    tag_129:\n      pop\n      tag_130\n      tag_131\n      jump\t// in\n    tag_130:\n      mload(0x40)\n      tag_132\n      swap2\n      swap1\n      tag_64\n      jump\t// in\n    tag_132:\n      mload(0x40)\n      dup1\n      swap2\n      sub\n      swap1\n      return\n        /* \"DEX.sol\":2875:3066  function getPoolLiquidityInUSDCents() external override view returns (uint) {... */\n    tag_20:\n      callvalue\n      dup1\n      iszero\n      tag_133\n      jumpi\n      0x00\n      dup1\n      revert\n    tag_133:\n      pop\n      tag_134\n      tag_135\n      jump\t// in\n    tag_134:\n      mload(0x40)\n      tag_136\n      swap2\n      swap1\n      tag_64\n      jump\t// in\n    tag_136:\n      mload(0x40)\n      dup1\n      swap2\n      sub\n      swap1\n      return\n        /* \"DEX.sol\":2373:2498  function getEtherPrice() external override view returns (uint) {... */\n    tag_21:\n      callvalue\n      dup1\n      iszero\n      tag_137\n      jumpi\n      0x00\n      dup1\n      revert\n    tag_137:\n      pop\n      tag_138\n      tag_139\n      jump\t// in\n    tag_138:\n      mload(0x40)\n      tag_140\n      swap2\n      swap1\n      tag_64\n      jump\t// in\n    tag_140:\n      mload(0x40)\n      dup1\n      swap2\n      sub\n      swap1\n      return\n        /* \"DEX.sol\":850:916  mapping (address => uint) public override etherLiquidityForAddress */\n    tag_22:\n      callvalue\n      dup1\n      iszero\n      tag_141\n      jumpi\n      0x00\n      dup1\n      revert\n    tag_141:\n      pop\n      tag_142\n      0x04\n      dup1\n      calldatasize\n      sub\n      dup2\n      add\n      swap1\n      tag_143\n      swap2\n      swap1\n      tag_103\n      jump\t// in\n    tag_143:\n      tag_144\n      jump\t// in\n    tag_142:\n      mload(0x40)\n      tag_145\n      swap2\n      swap1\n      tag_64\n      jump\t// in\n    tag_145:\n      mload(0x40)\n      dup1\n      swap2\n      sub\n      swap1\n      return\n        /* \"DEX.sol\":4270:4326  function reset() external pure {... */\n    tag_23:\n      callvalue\n      dup1\n      iszero\n      tag_146\n      jumpi\n      0x00\n      dup1\n      revert\n    tag_146:\n      pop\n      tag_147\n      tag_148\n      jump\t// in\n    tag_147:\n      stop\n        /* \"DEX.sol\":638:651  uint public i */\n    tag_24:\n      callvalue\n      dup1\n      iszero\n      tag_149\n      jumpi\n      0x00\n      dup1\n      revert\n    tag_149:\n      pop\n      tag_150\n      tag_151\n      jump\t// in\n    tag_150:\n      mload(0x40)\n      tag_152\n      swap2\n      swap1\n      tag_64\n      jump\t// in\n    tag_152:\n      mload(0x40)\n      dup1\n      swap2\n      sub\n      swap1\n      return\n        /* \"DEX.sol\":6665:7176  function addLiquidity() external payable {... */\n    tag_25:\n      tag_153\n      tag_154\n      jump\t// in\n    tag_153:\n      stop\n        /* \"DEX.sol\":1083:1116  uint public override feeNumerator */\n    tag_26:\n      callvalue\n      dup1\n      iszero\n      tag_155\n      jumpi\n      0x00\n      dup1\n      revert\n    tag_155:\n      pop\n      tag_156\n      tag_157\n      jump\t// in\n    tag_156:\n      mload(0x40)\n      tag_158\n      swap2\n      swap1\n      tag_64\n      jump\t// in\n    tag_158:\n      mload(0x40)\n      dup1\n      swap2\n      sub\n      swap1\n      return\n        /* \"DEX.sol\":3113:3189  function setEtherPricer(address p) external {... */\n    tag_27:\n      callvalue\n      dup1\n      iszero\n      tag_159\n      jumpi\n      0x00\n      dup1\n      revert\n    tag_159:\n      pop\n      tag_160\n      0x04\n      dup1\n      calldatasize\n      sub\n      dup2\n      add\n      swap1\n      tag_161\n      swap2\n      swap1\n      tag_103\n      jump\t// in\n    tag_161:\n      tag_162\n      jump\t// in\n    tag_160:\n      stop\n        /* \"DEX.sol\":4395:4658  function supportsInterface(bytes4 interfaceId) external override pure returns (bool) {... */\n    tag_57:\n        /* \"DEX.sol\":4474:4478  bool */\n      0x00\n        /* \"DEX.sol\":4506:4528  type(IDEX).interfaceId */\n      0x5f8d5fe400000000000000000000000000000000000000000000000000000000\n        /* \"DEX.sol\":4491:4528  interfaceId == type(IDEX).interfaceId */\n      not(0xffffffffffffffffffffffffffffffffffffffffffffffffffffffff)\n      and\n        /* \"DEX.sol\":4491:4502  interfaceId */\n      dup3\n        /* \"DEX.sol\":4491:4528  interfaceId == type(IDEX).interfaceId */\n      not(0xffffffffffffffffffffffffffffffffffffffffffffffffffffffff)\n      and\n      eq\n        /* \"DEX.sol\":4491:4588  interfaceId == type(IDEX).interfaceId || ... */\n      dup1\n      tag_164\n      jumpi\n      pop\n        /* \"DEX.sol\":4563:4588  type(IERC165).interfaceId */\n      0x01ffc9a700000000000000000000000000000000000000000000000000000000\n        /* \"DEX.sol\":4548:4588  interfaceId == type(IERC165).interfaceId */\n      not(0xffffffffffffffffffffffffffffffffffffffffffffffffffffffff)\n      and\n        /* \"DEX.sol\":4548:4559  interfaceId */\n      dup3\n        /* \"DEX.sol\":4548:4588  interfaceId == type(IERC165).interfaceId */\n      not(0xffffffffffffffffffffffffffffffffffffffffffffffffffffffff)\n      and\n      eq\n        /* \"DEX.sol\":4491:4588  interfaceId == type(IDEX).interfaceId || ... */\n    tag_164:\n        /* \"DEX.sol\":4491:4654  interfaceId == type(IDEX).interfaceId || ... */\n      dup1\n      tag_165\n      jumpi\n      pop\n        /* \"DEX.sol\":4622:4654  type(IERC20Receiver).interfaceId */\n      0x7ff879e300000000000000000000000000000000000000000000000000000000\n        /* \"DEX.sol\":4607:4654  interfaceId == type(IERC20Receiver).interfaceId */\n      not(0xffffffffffffffffffffffffffffffffffffffffffffffffffffffff)\n      and\n        /* \"DEX.sol\":4607:4618  interfaceId */\n      dup3\n        /* \"DEX.sol\":4607:4654  interfaceId == type(IERC20Receiver).interfaceId */\n      not(0xffffffffffffffffffffffffffffffffffffffffffffffffffffffff)\n      and\n      eq\n        /* \"DEX.sol\":4491:4654  interfaceId == type(IDEX).interfaceId || ... */\n    tag_165:\n        /* \"DEX.sol\":4484:4654  return interfaceId == type(IDEX).interfaceId || ... */\n      swap1\n      pop\n        /* \"DEX.sol\":4395:4658  function supportsInterface(bytes4 interfaceId) external override pure returns (bool) {... */\n      swap2\n      swap1\n      pop\n      jump\t// out\n        /* \"DEX.sol\":724:746  uint public override x */\n    tag_62:\n      sload(0x03)\n      dup2\n      jump\t// out\n        /* \"DEX.sol\":1165:1200  uint public override feeDenominator */\n    tag_67:\n      sload(0x08)\n      dup2\n      jump\t// out\n        /* \"DEX.sol\":1550:1586  address public override erc20Address */\n    tag_71:\n      0x0c\n      0x00\n      swap1\n      sload\n      swap1\n      0x0100\n      exp\n      swap1\n      div\n      0xffffffffffffffffffffffffffffffffffffffff\n      and\n      dup2\n      jump\t// out\n        /* \"DEX.sol\":1378:1408  uint public override feesToken */\n    tag_76:\n      sload(0x0a)\n      dup2\n      jump\t// out\n        /* \"DEX.sol\":1945:2057  function decimals() external override view returns (uint) {... */\n    tag_80:\n        /* \"DEX.sol\":1997:2001  uint */\n      0x00\n        /* \"DEX.sol\":2026:2038  erc20Address */\n      0x0c\n      0x00\n      swap1\n      sload\n      swap1\n      0x0100\n      exp\n      swap1\n      div\n      0xffffffffffffffffffffffffffffffffffffffff\n      and\n        /* \"DEX.sol\":2020:2048  ERC20(erc20Address).decimals */\n      0xffffffffffffffffffffffffffffffffffffffff\n      and\n      0x313ce567\n        /* \"DEX.sol\":2020:2050  ERC20(erc20Address).decimals() */\n      mload(0x40)\n      dup2\n      0xffffffff\n      and\n      0xe0\n      shl\n      dup2\n      mstore\n      0x04\n      add\n      0x20\n      mload(0x40)\n      dup1\n      dup4\n      sub\n      dup2\n      dup7\n      gas\n      staticcall\n      iszero\n      dup1\n      iszero\n      tag_168\n      jumpi\n      returndatasize\n      0x00\n      dup1\n      returndatacopy\n      revert(0x00, returndatasize)\n    tag_168:\n      pop\n      pop\n      pop\n      pop\n      mload(0x40)\n      returndatasize\n      not(0x1f)\n      0x1f\n      dup3\n      add\n      and\n      dup3\n      add\n      dup1\n      0x40\n      mstore\n      pop\n      dup2\n      add\n      swap1\n      tag_169\n      swap2\n      swap1\n      tag_170\n      jump\t// in\n    tag_169:\n        /* \"DEX.sol\":2013:2050  return ERC20(erc20Address).decimals() */\n      0xff\n      and\n      swap1\n      pop\n        /* \"DEX.sol\":1945:2057  function decimals() external override view returns (uint) {... */\n      swap1\n      jump\t// out\n        /* \"DEX.sol\":2603:2826  function getTokenPrice() external override view returns (uint) {... */\n    tag_84:\n        /* \"DEX.sol\":2660:2664  uint */\n      0x00\n        /* \"DEX.sol\":2676:2689  uint ethPrice */\n      dup1\n        /* \"DEX.sol\":2710:2721  etherPricer */\n      0x0b\n      0x00\n      swap1\n      sload\n      swap1\n      0x0100\n      exp\n      swap1\n      div\n      0xffffffffffffffffffffffffffffffffffffffff\n      and\n        /* \"DEX.sol\":2692:2728  IEtherPriceOracle(etherPricer).price */\n      0xffffffffffffffffffffffffffffffffffffffff\n      and\n      0xa035b1fe\n        /* \"DEX.sol\":2692:2730  IEtherPriceOracle(etherPricer).price() */\n      mload(0x40)\n      dup2\n      0xffffffff\n      and\n      0xe0\n      shl\n      dup2\n      mstore\n      0x04\n      add\n      0x20\n      mload(0x40)\n      dup1\n      dup4\n      sub\n      dup2\n      dup7\n      gas\n      staticcall\n      iszero\n      dup1\n      iszero\n      tag_173\n      jumpi\n      returndatasize\n      0x00\n      dup1\n      returndatacopy\n      revert(0x00, returndatasize)\n    tag_173:\n      pop\n      pop\n      pop\n      pop\n      mload(0x40)\n      returndatasize\n      not(0x1f)\n      0x1f\n      dup3\n      add\n      and\n      dup3\n      add\n      dup1\n      0x40\n      mstore\n      pop\n      dup2\n      add\n      swap1\n      tag_174\n      swap2\n      swap1\n      tag_175\n      jump\t// in\n    tag_174:\n        /* \"DEX.sol\":2676:2730  uint ethPrice = IEtherPriceOracle(etherPricer).price() */\n      swap1\n      pop\n        /* \"DEX.sol\":2811:2817  10**18 */\n      0x0de0b6b3a7640000\n        /* \"DEX.sol\":2806:2807  y */\n      sload(0x04)\n        /* \"DEX.sol\":2806:2818  y * (10**18) */\n      tag_176\n      swap2\n      swap1\n      tag_41\n      jump\t// in\n    tag_176:\n        /* \"DEX.sol\":2775:2787  erc20Address */\n      0x0c\n      0x00\n      swap1\n      sload\n      swap1\n      0x0100\n      exp\n      swap1\n      div\n      0xffffffffffffffffffffffffffffffffffffffff\n      and\n        /* \"DEX.sol\":2769:2797  ERC20(erc20Address).decimals */\n      0xffffffffffffffffffffffffffffffffffffffff\n      and\n      0x313ce567\n        /* \"DEX.sol\":2769:2799  ERC20(erc20Address).decimals() */\n      mload(0x40)\n      dup2\n      0xffffffff\n      and\n      0xe0\n      shl\n      dup2\n      mstore\n      0x04\n      add\n      0x20\n      mload(0x40)\n      dup1\n      dup4\n      sub\n      dup2\n      dup7\n      gas\n      staticcall\n      iszero\n      dup1\n      iszero\n      tag_178\n      jumpi\n      returndatasize\n      0x00\n      dup1\n      returndatacopy\n      revert(0x00, returndatasize)\n    tag_178:\n      pop\n      pop\n      pop\n      pop\n      mload(0x40)\n      returndatasize\n      not(0x1f)\n      0x1f\n      dup3\n      add\n      and\n      dup3\n      add\n      dup1\n      0x40\n      mstore\n      pop\n      dup2\n      add\n      swap1\n      tag_179\n      swap2\n      swap1\n      tag_170\n      jump\t// in\n    tag_179:\n        /* \"DEX.sol\":2764:2766  10 */\n      0x0a\n        /* \"DEX.sol\":2764:2800  10**(ERC20(erc20Address).decimals()) */\n      tag_180\n      swap2\n      swap1\n      tag_181\n      jump\t// in\n    tag_180:\n        /* \"DEX.sol\":2759:2760  x */\n      sload(0x03)\n        /* \"DEX.sol\":2759:2801  x * (10**(ERC20(erc20Address).decimals())) */\n      tag_182\n      swap2\n      swap1\n      tag_41\n      jump\t// in\n    tag_182:\n        /* \"DEX.sol\":2747:2755  ethPrice */\n      dup3\n        /* \"DEX.sol\":2747:2802  ethPrice * (x * (10**(ERC20(erc20Address).decimals()))) */\n      tag_183\n      swap2\n      swap1\n      tag_41\n      jump\t// in\n    tag_183:\n        /* \"DEX.sol\":2747:2819  ethPrice * (x * (10**(ERC20(erc20Address).decimals()))) / (y * (10**18)) */\n      tag_184\n      swap2\n      swap1\n      tag_37\n      jump\t// in\n    tag_184:\n        /* \"DEX.sol\":2740:2819  return ethPrice * (x * (10**(ERC20(erc20Address).decimals()))) / (y * (10**18)) */\n      swap2\n      pop\n      pop\n        /* \"DEX.sol\":2603:2826  function getTokenPrice() external override view returns (uint) {... */\n      swap1\n      jump\t// out\n        /* \"DEX.sol\":1457:1492  address public override etherPricer */\n    tag_88:\n      0x0b\n      0x00\n      swap1\n      sload\n      swap1\n      0x0100\n      exp\n      swap1\n      div\n      0xffffffffffffffffffffffffffffffffffffffff\n      and\n      dup2\n      jump\t// out\n        /* \"DEX.sol\":1274:1304  uint public override feesEther */\n    tag_92:\n      sload(0x09)\n      dup2\n      jump\t// out\n        /* \"DEX.sol\":8988:9725  function onERC20Received(address from, uint amount, address erc20) external override returns (bool) {... */\n    tag_98:\n        /* \"DEX.sol\":9082:9086  bool */\n      0x00\n        /* \"DEX.sol\":9101:9102  1 */\n      0x01\n        /* \"DEX.sol\":9098:9099  i */\n      dup1\n      0x00\n        /* \"DEX.sol\":9098:9102  i+=1 */\n      dup3\n      dup3\n      sload\n      tag_186\n      swap2\n      swap1\n      tag_35\n      jump\t// in\n    tag_186:\n      swap3\n      pop\n      pop\n      dup2\n      swap1\n      sstore\n      pop\n        /* \"DEX.sol\":9115:9133  adjustingLiquidity */\n      0x00\n      0x15\n      swap1\n      sload\n      swap1\n      0x0100\n      exp\n      swap1\n      div\n      0xff\n      and\n        /* \"DEX.sol\":9112:9149  if(adjustingLiquidity) {return true;} */\n      iszero\n      tag_187\n      jumpi\n        /* \"DEX.sol\":9143:9147  true */\n      0x01\n        /* \"DEX.sol\":9136:9147  return true */\n      swap1\n      pop\n      jump(tag_185)\n        /* \"DEX.sol\":9112:9149  if(adjustingLiquidity) {return true;} */\n    tag_187:\n        /* \"DEX.sol\":9173:9185  erc20Address */\n      0x0c\n      0x00\n      swap1\n      sload\n      swap1\n      0x0100\n      exp\n      swap1\n      div\n      0xffffffffffffffffffffffffffffffffffffffff\n      and\n        /* \"DEX.sol\":9166:9185  erc20==erc20Address */\n      0xffffffffffffffffffffffffffffffffffffffff\n      and\n        /* \"DEX.sol\":9166:9171  erc20 */\n      dup3\n        /* \"DEX.sol\":9166:9185  erc20==erc20Address */\n      0xffffffffffffffffffffffffffffffffffffffff\n      and\n      eq\n        /* \"DEX.sol\":9158:9229  require(erc20==erc20Address, \"This DEX does not support those tokens.\") */\n      tag_188\n      jumpi\n      mload(0x40)\n      0x08c379a000000000000000000000000000000000000000000000000000000000\n      dup2\n      mstore\n      0x04\n      add\n      tag_189\n      swap1\n      tag_190\n      jump\t// in\n    tag_189:\n      mload(0x40)\n      dup1\n      swap2\n      sub\n      swap1\n      revert\n    tag_188:\n        /* \"DEX.sol\":9260:9274  uint ethAmount */\n      0x00\n        /* \"DEX.sol\":9288:9294  amount */\n      dup4\n        /* \"DEX.sol\":9284:9285  y */\n      sload(0x04)\n        /* \"DEX.sol\":9284:9294  y + amount */\n      tag_191\n      swap2\n      swap1\n      tag_35\n      jump\t// in\n    tag_191:\n        /* \"DEX.sol\":9281:9282  k */\n      sload(0x02)\n        /* \"DEX.sol\":9281:9295  k/(y + amount) */\n      tag_192\n      swap2\n      swap1\n      tag_37\n      jump\t// in\n    tag_192:\n        /* \"DEX.sol\":9277:9278  x */\n      sload(0x03)\n        /* \"DEX.sol\":9277:9295  x - k/(y + amount) */\n      tag_193\n      swap2\n      swap1\n      tag_39\n      jump\t// in\n    tag_193:\n        /* \"DEX.sol\":9260:9295  uint ethAmount = x - k/(y + amount) */\n      swap1\n      pop\n        /* \"DEX.sol\":9305:9313  uint fee */\n      0x00\n        /* \"DEX.sol\":9341:9355  feeDenominator */\n      sload(0x08)\n        /* \"DEX.sol\":9328:9340  feeNumerator */\n      sload(0x07)\n        /* \"DEX.sol\":9316:9325  ethAmount */\n      dup4\n        /* \"DEX.sol\":9316:9340  ethAmount * feeNumerator */\n      tag_194\n      swap2\n      swap1\n      tag_41\n      jump\t// in\n    tag_194:\n        /* \"DEX.sol\":9316:9355  ethAmount * feeNumerator/feeDenominator */\n      tag_195\n      swap2\n      swap1\n      tag_37\n      jump\t// in\n    tag_195:\n        /* \"DEX.sol\":9305:9355  uint fee = ethAmount * feeNumerator/feeDenominator */\n      swap1\n      pop\n        /* \"DEX.sol\":9366:9378  bool success */\n      0x00\n        /* \"DEX.sol\":9392:9396  from */\n      dup7\n        /* \"DEX.sol\":9384:9402  payable(from).call */\n      0xffffffffffffffffffffffffffffffffffffffff\n      and\n        /* \"DEX.sol\":9422:9425  fee */\n      dup3\n        /* \"DEX.sol\":9410:9419  ethAmount */\n      dup5\n        /* \"DEX.sol\":9410:9425  ethAmount - fee */\n      tag_196\n      swap2\n      swap1\n      tag_39\n      jump\t// in\n    tag_196:\n        /* \"DEX.sol\":9384:9430  payable(from).call{value: ethAmount - fee}(\"\") */\n      mload(0x40)\n      tag_197\n      swap1\n      tag_198\n      jump\t// in\n    tag_197:\n      0x00\n      mload(0x40)\n      dup1\n      dup4\n      sub\n      dup2\n      dup6\n      dup8\n      gas\n      call\n      swap3\n      pop\n      pop\n      pop\n      returndatasize\n      dup1\n      0x00\n      dup2\n      eq\n      tag_201\n      jumpi\n      mload(0x40)\n      swap2\n      pop\n      and(add(returndatasize, 0x3f), not(0x1f))\n      dup3\n      add\n      0x40\n      mstore\n      returndatasize\n      dup3\n      mstore\n      returndatasize\n      0x00\n      0x20\n      dup5\n      add\n      returndatacopy\n      jump(tag_200)\n    tag_201:\n      0x60\n      swap2\n      pop\n    tag_200:\n      pop\n        /* \"DEX.sol\":9365:9430  (bool success, ) = payable(from).call{value: ethAmount - fee}(\"\") */\n      pop\n      swap1\n      pop\n        /* \"DEX.sol\":9449:9456  success */\n      dup1\n        /* \"DEX.sol\":9440:9480  require (success, \"payment didn't work\") */\n      tag_202\n      jumpi\n      mload(0x40)\n      0x08c379a000000000000000000000000000000000000000000000000000000000\n      dup2\n      mstore\n      0x04\n      add\n      tag_203\n      swap1\n      tag_204\n      jump\t// in\n    tag_203:\n      mload(0x40)\n      dup1\n      swap2\n      sub\n      swap1\n      revert\n    tag_202:\n        /* \"DEX.sol\":9495:9504  ethAmount */\n      dup3\n        /* \"DEX.sol\":9490:9491  x */\n      0x03\n      0x00\n        /* \"DEX.sol\":9490:9504  x -= ethAmount */\n      dup3\n      dup3\n      sload\n      tag_205\n      swap2\n      swap1\n      tag_39\n      jump\t// in\n    tag_205:\n      swap3\n      pop\n      pop\n      dup2\n      swap1\n      sstore\n      pop\n        /* \"DEX.sol\":9519:9525  amount */\n      dup6\n        /* \"DEX.sol\":9514:9515  y */\n      0x04\n      0x00\n        /* \"DEX.sol\":9514:9525  y += amount */\n      dup3\n      dup3\n      sload\n      tag_206\n      swap2\n      swap1\n      tag_35\n      jump\t// in\n    tag_206:\n      swap3\n      pop\n      pop\n      dup2\n      swap1\n      sstore\n      pop\n        /* \"DEX.sol\":9657:9660  fee */\n      dup2\n        /* \"DEX.sol\":9644:9653  feesEther */\n      0x09\n      0x00\n        /* \"DEX.sol\":9644:9660  feesEther += fee */\n      dup3\n      dup3\n      sload\n      tag_207\n      swap2\n      swap1\n      tag_35\n      jump\t// in\n    tag_207:\n      swap3\n      pop\n      pop\n      dup2\n      swap1\n      sstore\n      pop\n        /* \"DEX.sol\":9675:9697  liquidityChangeEvent() */\n      0x8866993f7c029be4215942b34c1545282b8f28836579f2687fe96a5a6bf77704\n      mload(0x40)\n      mload(0x40)\n      dup1\n      swap2\n      sub\n      swap1\n      log1\n        /* \"DEX.sol\":9714:9718  true */\n      0x01\n        /* \"DEX.sol\":9707:9718  return true */\n      swap4\n      pop\n      pop\n      pop\n      pop\n        /* \"DEX.sol\":8988:9725  function onERC20Received(address from, uint amount, address erc20) external override returns (bool) {... */\n    tag_185:\n      swap4\n      swap3\n      pop\n      pop\n      pop\n      jump\t// out\n        /* \"DEX.sol\":970:1036  mapping (address => uint) public override tokenLiquidityForAddress */\n    tag_104:\n      mstore(0x20, 0x06)\n      dup1\n      0x00\n      mstore\n      keccak256(0x00, 0x40)\n      0x00\n      swap2\n      pop\n      swap1\n      pop\n      sload\n      dup2\n      jump\t// out\n        /* \"DEX.sol\":2093:2210  function symbol() external override view returns (string memory) {... */\n    tag_108:\n        /* \"DEX.sol\":2143:2156  string memory */\n      0x60\n        /* \"DEX.sol\":2181:2193  erc20Address */\n      0x0c\n      0x00\n      swap1\n      sload\n      swap1\n      0x0100\n      exp\n      swap1\n      div\n      0xffffffffffffffffffffffffffffffffffffffff\n      and\n        /* \"DEX.sol\":2175:2201  ERC20(erc20Address).symbol */\n      0xffffffffffffffffffffffffffffffffffffffff\n      and\n      0x95d89b41\n        /* \"DEX.sol\":2175:2203  ERC20(erc20Address).symbol() */\n      mload(0x40)\n      dup2\n      0xffffffff\n      and\n      0xe0\n      shl\n      dup2\n      mstore\n      0x04\n      add\n      0x00\n      mload(0x40)\n      dup1\n      dup4\n      sub\n      dup2\n      dup7\n      gas\n      staticcall\n      iszero\n      dup1\n      iszero\n      tag_210\n      jumpi\n      returndatasize\n      0x00\n      dup1\n      returndatacopy\n      revert(0x00, returndatasize)\n    tag_210:\n      pop\n      pop\n      pop\n      pop\n      mload(0x40)\n      returndatasize\n      0x00\n      dup3\n      returndatacopy\n      returndatasize\n      not(0x1f)\n      0x1f\n      dup3\n      add\n      and\n      dup3\n      add\n      dup1\n      0x40\n      mstore\n      pop\n      dup2\n      add\n      swap1\n      tag_211\n      swap2\n      swap1\n      tag_212\n      jump\t// in\n    tag_211:\n        /* \"DEX.sol\":2168:2203  return ERC20(erc20Address).symbol() */\n      swap1\n      pop\n        /* \"DEX.sol\":2093:2210  function symbol() external override view returns (string memory) {... */\n      swap1\n      jump\t// out\n        /* \"DEX.sol\":7537:8256  function removeLiquidity(uint amountEther) external {... */\n    tag_115:\n        /* \"DEX.sol\":7647:7658  amountEther */\n      dup1\n        /* \"DEX.sol\":7607:7631  etherLiquidityForAddress */\n      0x05\n        /* \"DEX.sol\":7607:7643  etherLiquidityForAddress[msg.sender] */\n      0x00\n        /* \"DEX.sol\":7632:7642  msg.sender */\n      caller\n        /* \"DEX.sol\":7607:7643  etherLiquidityForAddress[msg.sender] */\n      0xffffffffffffffffffffffffffffffffffffffff\n      and\n      0xffffffffffffffffffffffffffffffffffffffff\n      and\n      dup2\n      mstore\n      0x20\n      add\n      swap1\n      dup2\n      mstore\n      0x20\n      add\n      0x00\n      keccak256\n      sload\n        /* \"DEX.sol\":7607:7658  etherLiquidityForAddress[msg.sender] >= amountEther */\n      lt\n      iszero\n        /* \"DEX.sol\":7599:7710  require(etherLiquidityForAddress[msg.sender] >= amountEther, \"Sender does not have this much ETH in the pool.\") */\n      tag_214\n      jumpi\n      mload(0x40)\n      0x08c379a000000000000000000000000000000000000000000000000000000000\n      dup2\n      mstore\n      0x04\n      add\n      tag_215\n      swap1\n      tag_216\n      jump\t// in\n    tag_215:\n      mload(0x40)\n      dup1\n      swap2\n      sub\n      swap1\n      revert\n    tag_214:\n        /* \"DEX.sol\":7720:7736  uint amountToken */\n      0x00\n        /* \"DEX.sol\":7757:7758  x */\n      sload(0x03)\n        /* \"DEX.sol\":7753:7754  y */\n      sload(0x04)\n        /* \"DEX.sol\":7739:7750  amountEther */\n      dup4\n        /* \"DEX.sol\":7739:7754  amountEther * y */\n      tag_217\n      swap2\n      swap1\n      tag_41\n      jump\t// in\n    tag_217:\n        /* \"DEX.sol\":7739:7758  amountEther * y / x */\n      tag_218\n      swap2\n      swap1\n      tag_37\n      jump\t// in\n    tag_218:\n        /* \"DEX.sol\":7720:7758  uint amountToken = amountEther * y / x */\n      swap1\n      pop\n        /* \"DEX.sol\":7769:7781  bool success */\n      0x00\n        /* \"DEX.sol\":7795:7805  msg.sender */\n      caller\n        /* \"DEX.sol\":7787:7811  payable(msg.sender).call */\n      0xffffffffffffffffffffffffffffffffffffffff\n      and\n        /* \"DEX.sol\":7819:7830  amountEther */\n      dup4\n        /* \"DEX.sol\":7787:7835  payable(msg.sender).call{value: amountEther}(\"\") */\n      mload(0x40)\n      tag_219\n      swap1\n      tag_198\n      jump\t// in\n    tag_219:\n      0x00\n      mload(0x40)\n      dup1\n      dup4\n      sub\n      dup2\n      dup6\n      dup8\n      gas\n      call\n      swap3\n      pop\n      pop\n      pop\n      returndatasize\n      dup1\n      0x00\n      dup2\n      eq\n      tag_222\n      jumpi\n      mload(0x40)\n      swap2\n      pop\n      and(add(returndatasize, 0x3f), not(0x1f))\n      dup3\n      add\n      0x40\n      mstore\n      returndatasize\n      dup3\n      mstore\n      returndatasize\n      0x00\n      0x20\n      dup5\n      add\n      returndatacopy\n      jump(tag_221)\n    tag_222:\n      0x60\n      swap2\n      pop\n    tag_221:\n      pop\n        /* \"DEX.sol\":7768:7835  (bool success, ) = payable(msg.sender).call{value: amountEther}(\"\") */\n      pop\n      swap1\n      pop\n        /* \"DEX.sol\":7854:7861  success */\n      dup1\n        /* \"DEX.sol\":7845:7885  require (success, \"payment didn't work\") */\n      tag_223\n      jumpi\n      mload(0x40)\n      0x08c379a000000000000000000000000000000000000000000000000000000000\n      dup2\n      mstore\n      0x04\n      add\n      tag_224\n      swap1\n      tag_204\n      jump\t// in\n    tag_224:\n      mload(0x40)\n      dup1\n      swap2\n      sub\n      swap1\n      revert\n    tag_223:\n        /* \"DEX.sol\":7916:7920  true */\n      0x01\n        /* \"DEX.sol\":7895:7913  adjustingLiquidity */\n      0x00\n      0x15\n        /* \"DEX.sol\":7895:7920  adjustingLiquidity = true */\n      0x0100\n      exp\n      dup2\n      sload\n      dup2\n      0xff\n      mul\n      not\n      and\n      swap1\n      dup4\n      iszero\n      iszero\n      mul\n      or\n      swap1\n      sstore\n      pop\n        /* \"DEX.sol\":7936:7948  erc20Address */\n      0x0c\n      0x00\n      swap1\n      sload\n      swap1\n      0x0100\n      exp\n      swap1\n      div\n      0xffffffffffffffffffffffffffffffffffffffff\n      and\n        /* \"DEX.sol\":7930:7958  ERC20(erc20Address).transfer */\n      0xffffffffffffffffffffffffffffffffffffffff\n      and\n      0xa9059cbb\n        /* \"DEX.sol\":7959:7969  msg.sender */\n      caller\n        /* \"DEX.sol\":7971:7982  amountToken */\n      dup5\n        /* \"DEX.sol\":7930:7983  ERC20(erc20Address).transfer(msg.sender, amountToken) */\n      mload(0x40)\n      dup4\n      0xffffffff\n      and\n      0xe0\n      shl\n      dup2\n      mstore\n      0x04\n      add\n      tag_225\n      swap3\n      swap2\n      swap1\n      tag_45\n      jump\t// in\n    tag_225:\n      0x20\n      mload(0x40)\n      dup1\n      dup4\n      sub\n      dup2\n      0x00\n      dup8\n      gas\n      call\n      iszero\n      dup1\n      iszero\n      tag_227\n      jumpi\n      returndatasize\n      0x00\n      dup1\n      returndatacopy\n      revert(0x00, returndatasize)\n    tag_227:\n      pop\n      pop\n      pop\n      pop\n      mload(0x40)\n      returndatasize\n      not(0x1f)\n      0x1f\n      dup3\n      add\n      and\n      dup3\n      add\n      dup1\n      0x40\n      mstore\n      pop\n      dup2\n      add\n      swap1\n      tag_228\n      swap2\n      swap1\n      tag_49\n      jump\t// in\n    tag_228:\n      pop\n        /* \"DEX.sol\":8014:8019  false */\n      0x00\n        /* \"DEX.sol\":7993:8011  adjustingLiquidity */\n      dup1\n      0x15\n        /* \"DEX.sol\":7993:8019  adjustingLiquidity = false */\n      0x0100\n      exp\n      dup2\n      sload\n      dup2\n      0xff\n      mul\n      not\n      and\n      swap1\n      dup4\n      iszero\n      iszero\n      mul\n      or\n      swap1\n      sstore\n      pop\n        /* \"DEX.sol\":8069:8080  amountEther */\n      dup3\n        /* \"DEX.sol\":8029:8053  etherLiquidityForAddress */\n      0x05\n        /* \"DEX.sol\":8029:8065  etherLiquidityForAddress[msg.sender] */\n      0x00\n        /* \"DEX.sol\":8054:8064  msg.sender */\n      caller\n        /* \"DEX.sol\":8029:8065  etherLiquidityForAddress[msg.sender] */\n      0xffffffffffffffffffffffffffffffffffffffff\n      and\n      0xffffffffffffffffffffffffffffffffffffffff\n      and\n      dup2\n      mstore\n      0x20\n      add\n      swap1\n      dup2\n      mstore\n      0x20\n      add\n      0x00\n      keccak256\n      0x00\n        /* \"DEX.sol\":8029:8080  etherLiquidityForAddress[msg.sender] -= amountEther */\n      dup3\n      dup3\n      sload\n      tag_229\n      swap2\n      swap1\n      tag_39\n      jump\t// in\n    tag_229:\n      swap3\n      pop\n      pop\n      dup2\n      swap1\n      sstore\n      pop\n        /* \"DEX.sol\":8130:8141  amountToken */\n      dup2\n        /* \"DEX.sol\":8090:8114  tokenLiquidityForAddress */\n      0x06\n        /* \"DEX.sol\":8090:8126  tokenLiquidityForAddress[msg.sender] */\n      0x00\n        /* \"DEX.sol\":8115:8125  msg.sender */\n      caller\n        /* \"DEX.sol\":8090:8126  tokenLiquidityForAddress[msg.sender] */\n      0xffffffffffffffffffffffffffffffffffffffff\n      and\n      0xffffffffffffffffffffffffffffffffffffffff\n      and\n      dup2\n      mstore\n      0x20\n      add\n      swap1\n      dup2\n      mstore\n      0x20\n      add\n      0x00\n      keccak256\n      0x00\n        /* \"DEX.sol\":8090:8141  tokenLiquidityForAddress[msg.sender] -= amountToken */\n      dup3\n      dup3\n      sload\n      tag_230\n      swap2\n      swap1\n      tag_39\n      jump\t// in\n    tag_230:\n      swap3\n      pop\n      pop\n      dup2\n      swap1\n      sstore\n      pop\n        /* \"DEX.sol\":8156:8167  amountEther */\n      dup3\n        /* \"DEX.sol\":8151:8152  x */\n      0x03\n      0x00\n        /* \"DEX.sol\":8151:8167  x -= amountEther */\n      dup3\n      dup3\n      sload\n      tag_231\n      swap2\n      swap1\n      tag_39\n      jump\t// in\n    tag_231:\n      swap3\n      pop\n      pop\n      dup2\n      swap1\n      sstore\n      pop\n        /* \"DEX.sol\":8182:8193  amountToken */\n      dup2\n        /* \"DEX.sol\":8177:8178  y */\n      0x04\n      0x00\n        /* \"DEX.sol\":8177:8193  y -= amountToken */\n      dup3\n      dup3\n      sload\n      tag_232\n      swap2\n      swap1\n      tag_39\n      jump\t// in\n    tag_232:\n      swap3\n      pop\n      pop\n      dup2\n      swap1\n      sstore\n      pop\n        /* \"DEX.sol\":8211:8212  y */\n      sload(0x04)\n        /* \"DEX.sol\":8207:8208  x */\n      sload(0x03)\n        /* \"DEX.sol\":8207:8212  x * y */\n      tag_233\n      swap2\n      swap1\n      tag_41\n      jump\t// in\n    tag_233:\n        /* \"DEX.sol\":8203:8204  k */\n      0x02\n        /* \"DEX.sol\":8203:8212  k = x * y */\n      dup2\n      swap1\n      sstore\n      pop\n        /* \"DEX.sol\":8227:8249  liquidityChangeEvent() */\n      0x8866993f7c029be4215942b34c1545282b8f28836579f2687fe96a5a6bf77704\n      mload(0x40)\n      mload(0x40)\n      dup1\n      swap2\n      sub\n      swap1\n      log1\n        /* \"DEX.sol\":7589:8256  {... */\n      pop\n      pop\n        /* \"DEX.sol\":7537:8256  function removeLiquidity(uint amountEther) external {... */\n      pop\n      jump\t// out\n        /* \"DEX.sol\":3735:4238  function getDEXinfo() external view returns (address, string memory, string memory, ... */\n    tag_118:\n        /* \"DEX.sol\":3780:3787  address */\n      0x00\n        /* \"DEX.sol\":3789:3802  string memory */\n      0x60\n        /* \"DEX.sol\":3804:3817  string memory */\n      dup1\n        /* \"DEX.sol\":3848:3855  address */\n      0x00\n        /* \"DEX.sol\":3857:3861  uint */\n      dup1\n        /* \"DEX.sol\":3863:3867  uint */\n      0x00\n        /* \"DEX.sol\":3869:3873  uint */\n      dup1\n        /* \"DEX.sol\":3875:3879  uint */\n      0x00\n        /* \"DEX.sol\":3881:3885  uint */\n      dup1\n        /* \"DEX.sol\":3887:3891  uint */\n      0x00\n        /* \"DEX.sol\":3893:3897  uint */\n      dup1\n        /* \"DEX.sol\":3899:3903  uint */\n      0x00\n        /* \"DEX.sol\":3955:3959  this */\n      address\n        /* \"DEX.sol\":3968:3980  erc20Address */\n      0x0c\n      0x00\n      swap1\n      sload\n      swap1\n      0x0100\n      exp\n      swap1\n      div\n      0xffffffffffffffffffffffffffffffffffffffff\n      and\n        /* \"DEX.sol\":3962:3988  ERC20(erc20Address).symbol */\n      0xffffffffffffffffffffffffffffffffffffffff\n      and\n      0x95d89b41\n        /* \"DEX.sol\":3962:3990  ERC20(erc20Address).symbol() */\n      mload(0x40)\n      dup2\n      0xffffffff\n      and\n      0xe0\n      shl\n      dup2\n      mstore\n      0x04\n      add\n      0x00\n      mload(0x40)\n      dup1\n      dup4\n      sub\n      dup2\n      dup7\n      gas\n      staticcall\n      iszero\n      dup1\n      iszero\n      tag_236\n      jumpi\n      returndatasize\n      0x00\n      dup1\n      returndatacopy\n      revert(0x00, returndatasize)\n    tag_236:\n      pop\n      pop\n      pop\n      pop\n      mload(0x40)\n      returndatasize\n      0x00\n      dup3\n      returndatacopy\n      returndatasize\n      not(0x1f)\n      0x1f\n      dup3\n      add\n      and\n      dup3\n      add\n      dup1\n      0x40\n      mstore\n      pop\n      dup2\n      add\n      swap1\n      tag_237\n      swap2\n      swap1\n      tag_212\n      jump\t// in\n    tag_237:\n        /* \"DEX.sol\":3998:4010  erc20Address */\n      0x0c\n      0x00\n      swap1\n      sload\n      swap1\n      0x0100\n      exp\n      swap1\n      div\n      0xffffffffffffffffffffffffffffffffffffffff\n      and\n        /* \"DEX.sol\":3992:4016  ERC20(erc20Address).name */\n      0xffffffffffffffffffffffffffffffffffffffff\n      and\n      0x06fdde03\n        /* \"DEX.sol\":3992:4018  ERC20(erc20Address).name() */\n      mload(0x40)\n      dup2\n      0xffffffff\n      and\n      0xe0\n      shl\n      dup2\n      mstore\n      0x04\n      add\n      0x00\n      mload(0x40)\n      dup1\n      dup4\n      sub\n      dup2\n      dup7\n      gas\n      staticcall\n      iszero\n      dup1\n      iszero\n      tag_239\n      jumpi\n      returndatasize\n      0x00\n      dup1\n      returndatacopy\n      revert(0x00, returndatasize)\n    tag_239:\n      pop\n      pop\n      pop\n      pop\n      mload(0x40)\n      returndatasize\n      0x00\n      dup3\n      returndatacopy\n      returndatasize\n      not(0x1f)\n      0x1f\n      dup3\n      add\n      and\n      dup3\n      add\n      dup1\n      0x40\n      mstore\n      pop\n      dup2\n      add\n      swap1\n      tag_240\n      swap2\n      swap1\n      tag_212\n      jump\t// in\n    tag_240:\n        /* \"DEX.sol\":4061:4073  erc20Address */\n      0x0c\n      0x00\n      swap1\n      sload\n      swap1\n      0x0100\n      exp\n      swap1\n      div\n      0xffffffffffffffffffffffffffffffffffffffff\n      and\n        /* \"DEX.sol\":4075:4076  k */\n      sload(0x02)\n        /* \"DEX.sol\":4078:4079  x */\n      sload(0x03)\n        /* \"DEX.sol\":4081:4082  y */\n      sload(0x04)\n        /* \"DEX.sol\":4084:4096  feeNumerator */\n      sload(0x07)\n        /* \"DEX.sol\":4098:4112  feeDenominator */\n      sload(0x08)\n        /* \"DEX.sol\":4120:4132  erc20Address */\n      0x0c\n      0x00\n      swap1\n      sload\n      swap1\n      0x0100\n      exp\n      swap1\n      div\n      0xffffffffffffffffffffffffffffffffffffffff\n      and\n        /* \"DEX.sol\":4114:4142  ERC20(erc20Address).decimals */\n      0xffffffffffffffffffffffffffffffffffffffff\n      and\n      0x313ce567\n        /* \"DEX.sol\":4114:4144  ERC20(erc20Address).decimals() */\n      mload(0x40)\n      dup2\n      0xffffffff\n      and\n      0xe0\n      shl\n      dup2\n      mstore\n      0x04\n      add\n      0x20\n      mload(0x40)\n      dup1\n      dup4\n      sub\n      dup2\n      dup7\n      gas\n      staticcall\n      iszero\n      dup1\n      iszero\n      tag_242\n      jumpi\n      returndatasize\n      0x00\n      dup1\n      returndatacopy\n      revert(0x00, returndatasize)\n    tag_242:\n      pop\n      pop\n      pop\n      pop\n      mload(0x40)\n      returndatasize\n      not(0x1f)\n      0x1f\n      dup3\n      add\n      and\n      dup3\n      add\n      dup1\n      0x40\n      mstore\n      pop\n      dup2\n      add\n      swap1\n      tag_243\n      swap2\n      swap1\n      tag_170\n      jump\t// in\n    tag_243:\n        /* \"DEX.sol\":4186:4195  feesEther */\n      sload(0x09)\n        /* \"DEX.sol\":4197:4206  feesToken */\n      sload(0x0a)\n        /* \"DEX.sol\":3939:4207  return (address(this), ERC20(erc20Address).symbol(), ERC20(erc20Address).name(), ... */\n      dup3\n      0xff\n      and\n      swap3\n      pop\n      swap12\n      pop\n      swap12\n      pop\n      swap12\n      pop\n      swap12\n      pop\n      swap12\n      pop\n      swap12\n      pop\n      swap12\n      pop\n      swap12\n      pop\n      swap12\n      pop\n      swap12\n      pop\n      swap12\n      pop\n      swap12\n      pop\n        /* \"DEX.sol\":3735:4238  function getDEXinfo() external view returns (address, string memory, string memory, ... */\n      swap1\n      swap2\n      swap3\n      swap4\n      swap5\n      swap6\n      swap7\n      swap8\n      swap9\n      swap10\n      swap11\n      swap12\n      jump\t// out\n        /* \"DEX.sol\":774:796  uint public override y */\n    tag_123:\n      sload(0x04)\n      dup2\n      jump\t// out\n        /* \"DEX.sol\":5099:6453  function createPool(uint _tokenAmount, uint _feeNumerator, uint _feeDenominator, ... */\n    tag_128:\n        /* \"DEX.sol\":5304:5315  poolCreated */\n      0x00\n      dup1\n      sload\n      swap1\n      0x0100\n      exp\n      swap1\n      div\n      0xff\n      and\n        /* \"DEX.sol\":5303:5315  !poolCreated */\n      iszero\n        /* \"DEX.sol\":5295:5362  require(!poolCreated, \"A liquidity pool has already been created.\") */\n      tag_245\n      jumpi\n      mload(0x40)\n      0x08c379a000000000000000000000000000000000000000000000000000000000\n      dup2\n      mstore\n      0x04\n      add\n      tag_246\n      swap1\n      tag_247\n      jump\t// in\n    tag_246:\n      mload(0x40)\n      dup1\n      swap2\n      sub\n      swap1\n      revert\n    tag_245:\n        /* \"DEX.sol\":5414:5422  deployer */\n      0x00\n      0x01\n      swap1\n      sload\n      swap1\n      0x0100\n      exp\n      swap1\n      div\n      0xffffffffffffffffffffffffffffffffffffffff\n      and\n        /* \"DEX.sol\":5400:5422  msg.sender == deployer */\n      0xffffffffffffffffffffffffffffffffffffffff\n      and\n        /* \"DEX.sol\":5400:5410  msg.sender */\n      caller\n        /* \"DEX.sol\":5400:5422  msg.sender == deployer */\n      0xffffffffffffffffffffffffffffffffffffffff\n      and\n      eq\n        /* \"DEX.sol\":5392:5479  require(msg.sender == deployer, \"Only the deployer of the contract can create a pool.\") */\n      tag_248\n      jumpi\n      mload(0x40)\n      0x08c379a000000000000000000000000000000000000000000000000000000000\n      dup2\n      mstore\n      0x04\n      add\n      tag_249\n      swap1\n      tag_250\n      jump\t// in\n    tag_249:\n      mload(0x40)\n      dup1\n      swap2\n      sub\n      swap1\n      revert\n    tag_248:\n        /* \"DEX.sol\":5576:5588  _tokenAmount */\n      dup5\n        /* \"DEX.sol\":5523:5534  _erc20token */\n      dup3\n        /* \"DEX.sol\":5517:5545  ERC20(_erc20token).allowance */\n      0xffffffffffffffffffffffffffffffffffffffff\n      and\n      0xdd62ed3e\n        /* \"DEX.sol\":5546:5556  msg.sender */\n      caller\n        /* \"DEX.sol\":5566:5570  this */\n      address\n        /* \"DEX.sol\":5517:5572  ERC20(_erc20token).allowance(msg.sender, address(this)) */\n      mload(0x40)\n      dup4\n      0xffffffff\n      and\n      0xe0\n      shl\n      dup2\n      mstore\n      0x04\n      add\n      tag_251\n      swap3\n      swap2\n      swap1\n      tag_252\n      jump\t// in\n    tag_251:\n      0x20\n      mload(0x40)\n      dup1\n      dup4\n      sub\n      dup2\n      dup7\n      gas\n      staticcall\n      iszero\n      dup1\n      iszero\n      tag_254\n      jumpi\n      returndatasize\n      0x00\n      dup1\n      returndatacopy\n      revert(0x00, returndatasize)\n    tag_254:\n      pop\n      pop\n      pop\n      pop\n      mload(0x40)\n      returndatasize\n      not(0x1f)\n      0x1f\n      dup3\n      add\n      and\n      dup3\n      add\n      dup1\n      0x40\n      mstore\n      pop\n      dup2\n      add\n      swap1\n      tag_255\n      swap2\n      swap1\n      tag_175\n      jump\t// in\n    tag_255:\n        /* \"DEX.sol\":5517:5588  ERC20(_erc20token).allowance(msg.sender, address(this)) >= _tokenAmount */\n      lt\n      iszero\n        /* \"DEX.sol\":5509:5665  require(ERC20(_erc20token).allowance(msg.sender, address(this)) >= _tokenAmount, \"This contract needs to first be approved for the specified token amount.\") */\n      tag_256\n      jumpi\n      mload(0x40)\n      0x08c379a000000000000000000000000000000000000000000000000000000000\n      dup2\n      mstore\n      0x04\n      add\n      tag_257\n      swap1\n      tag_258\n      jump\t// in\n    tag_257:\n      mload(0x40)\n      dup1\n      swap2\n      sub\n      swap1\n      revert\n    tag_256:\n        /* \"DEX.sol\":5716:5720  true */\n      0x01\n        /* \"DEX.sol\":5695:5713  adjustingLiquidity */\n      0x00\n      0x15\n        /* \"DEX.sol\":5695:5720  adjustingLiquidity = true */\n      0x0100\n      exp\n      dup2\n      sload\n      dup2\n      0xff\n      mul\n      not\n      and\n      swap1\n      dup4\n      iszero\n      iszero\n      mul\n      or\n      swap1\n      sstore\n      pop\n        /* \"DEX.sol\":5756:5767  _erc20token */\n      dup2\n        /* \"DEX.sol\":5750:5781  ERC20(_erc20token).transferFrom */\n      0xffffffffffffffffffffffffffffffffffffffff\n      and\n      0x23b872dd\n        /* \"DEX.sol\":5782:5792  msg.sender */\n      caller\n        /* \"DEX.sol\":5802:5806  this */\n      address\n        /* \"DEX.sol\":5809:5821  _tokenAmount */\n      dup9\n        /* \"DEX.sol\":5750:5822  ERC20(_erc20token).transferFrom(msg.sender, address(this), _tokenAmount) */\n      mload(0x40)\n      dup5\n      0xffffffff\n      and\n      0xe0\n      shl\n      dup2\n      mstore\n      0x04\n      add\n      tag_259\n      swap4\n      swap3\n      swap2\n      swap1\n      tag_260\n      jump\t// in\n    tag_259:\n      0x20\n      mload(0x40)\n      dup1\n      dup4\n      sub\n      dup2\n      0x00\n      dup8\n      gas\n      call\n      iszero\n      dup1\n      iszero\n      tag_262\n      jumpi\n      returndatasize\n      0x00\n      dup1\n      returndatacopy\n      revert(0x00, returndatasize)\n    tag_262:\n      pop\n      pop\n      pop\n      pop\n      mload(0x40)\n      returndatasize\n      not(0x1f)\n      0x1f\n      dup3\n      add\n      and\n      dup3\n      add\n      dup1\n      0x40\n      mstore\n      pop\n      dup2\n      add\n      swap1\n      tag_263\n      swap2\n      swap1\n      tag_49\n      jump\t// in\n    tag_263:\n      pop\n        /* \"DEX.sol\":5873:5878  false */\n      0x00\n        /* \"DEX.sol\":5852:5870  adjustingLiquidity */\n      dup1\n      0x15\n        /* \"DEX.sol\":5852:5878  adjustingLiquidity = false */\n      0x0100\n      exp\n      dup2\n      sload\n      dup2\n      0xff\n      mul\n      not\n      and\n      swap1\n      dup4\n      iszero\n      iszero\n      mul\n      or\n      swap1\n      sstore\n      pop\n        /* \"DEX.sol\":5912:5921  msg.value */\n      callvalue\n        /* \"DEX.sol\":5908:5909  x */\n      0x03\n        /* \"DEX.sol\":5908:5921  x = msg.value */\n      dup2\n      swap1\n      sstore\n      pop\n        /* \"DEX.sol\":5955:5967  _tokenAmount */\n      dup5\n        /* \"DEX.sol\":5951:5952  y */\n      0x04\n        /* \"DEX.sol\":5951:5967  y = _tokenAmount */\n      dup2\n      swap1\n      sstore\n      pop\n        /* \"DEX.sol\":6005:6006  y */\n      sload(0x04)\n        /* \"DEX.sol\":6001:6002  x */\n      sload(0x03)\n        /* \"DEX.sol\":6001:6006  x * y */\n      tag_264\n      swap2\n      swap1\n      tag_41\n      jump\t// in\n    tag_264:\n        /* \"DEX.sol\":5997:5998  k */\n      0x02\n        /* \"DEX.sol\":5997:6006  k = x * y */\n      dup2\n      swap1\n      sstore\n      pop\n        /* \"DEX.sol\":6051:6064  _feeNumerator */\n      dup4\n        /* \"DEX.sol\":6036:6048  feeNumerator */\n      0x07\n        /* \"DEX.sol\":6036:6064  feeNumerator = _feeNumerator */\n      dup2\n      swap1\n      sstore\n      pop\n        /* \"DEX.sol\":6111:6126  _feeDenominator */\n      dup3\n        /* \"DEX.sol\":6094:6108  feeDenominator */\n      0x08\n        /* \"DEX.sol\":6094:6126  feeDenominator = _feeDenominator */\n      dup2\n      swap1\n      sstore\n      pop\n        /* \"DEX.sol\":6195:6196  x */\n      sload(0x03)\n        /* \"DEX.sol\":6156:6180  etherLiquidityForAddress */\n      0x05\n        /* \"DEX.sol\":6156:6192  etherLiquidityForAddress[msg.sender] */\n      0x00\n        /* \"DEX.sol\":6181:6191  msg.sender */\n      caller\n        /* \"DEX.sol\":6156:6192  etherLiquidityForAddress[msg.sender] */\n      0xffffffffffffffffffffffffffffffffffffffff\n      and\n      0xffffffffffffffffffffffffffffffffffffffff\n      and\n      dup2\n      mstore\n      0x20\n      add\n      swap1\n      dup2\n      mstore\n      0x20\n      add\n      0x00\n      keccak256\n        /* \"DEX.sol\":6156:6196  etherLiquidityForAddress[msg.sender] = x */\n      dup2\n      swap1\n      sstore\n      pop\n        /* \"DEX.sol\":6265:6266  y */\n      sload(0x04)\n        /* \"DEX.sol\":6226:6250  tokenLiquidityForAddress */\n      0x06\n        /* \"DEX.sol\":6226:6262  tokenLiquidityForAddress[msg.sender] */\n      0x00\n        /* \"DEX.sol\":6251:6261  msg.sender */\n      caller\n        /* \"DEX.sol\":6226:6262  tokenLiquidityForAddress[msg.sender] */\n      0xffffffffffffffffffffffffffffffffffffffff\n      and\n      0xffffffffffffffffffffffffffffffffffffffff\n      and\n      dup2\n      mstore\n      0x20\n      add\n      swap1\n      dup2\n      mstore\n      0x20\n      add\n      0x00\n      keccak256\n        /* \"DEX.sol\":6226:6266  tokenLiquidityForAddress[msg.sender] = y */\n      dup2\n      swap1\n      sstore\n      pop\n        /* \"DEX.sol\":6311:6322  _erc20token */\n      dup2\n        /* \"DEX.sol\":6296:6308  erc20Address */\n      0x0c\n      0x00\n        /* \"DEX.sol\":6296:6322  erc20Address = _erc20token */\n      0x0100\n      exp\n      dup2\n      sload\n      dup2\n      0xffffffffffffffffffffffffffffffffffffffff\n      mul\n      not\n      and\n      swap1\n      dup4\n      0xffffffffffffffffffffffffffffffffffffffff\n      and\n      mul\n      or\n      swap1\n      sstore\n      pop\n        /* \"DEX.sol\":6366:6378  _etherPricer */\n      dup1\n        /* \"DEX.sol\":6352:6363  etherPricer */\n      0x0b\n      0x00\n        /* \"DEX.sol\":6352:6378  etherPricer = _etherPricer */\n      0x0100\n      exp\n      dup2\n      sload\n      dup2\n      0xffffffffffffffffffffffffffffffffffffffff\n      mul\n      not\n      and\n      swap1\n      dup4\n      0xffffffffffffffffffffffffffffffffffffffff\n      and\n      mul\n      or\n      swap1\n      sstore\n      pop\n        /* \"DEX.sol\":6422:6426  true */\n      0x01\n        /* \"DEX.sol\":6408:6419  poolCreated */\n      0x00\n      dup1\n        /* \"DEX.sol\":6408:6426  poolCreated = true */\n      0x0100\n      exp\n      dup2\n      sload\n      dup2\n      0xff\n      mul\n      not\n      and\n      swap1\n      dup4\n      iszero\n      iszero\n      mul\n      or\n      swap1\n      sstore\n      pop\n        /* \"DEX.sol\":5099:6453  function createPool(uint _tokenAmount, uint _feeNumerator, uint _feeDenominator, ... */\n      pop\n      pop\n      pop\n      pop\n      pop\n      jump\t// out\n        /* \"DEX.sol\":674:696  uint public override k */\n    tag_131:\n      sload(0x02)\n      dup2\n      jump\t// out\n        /* \"DEX.sol\":2875:3066  function getPoolLiquidityInUSDCents() external override view returns (uint) {... */\n    tag_135:\n        /* \"DEX.sol\":2945:2949  uint */\n      0x00\n        /* \"DEX.sol\":2961:2974  uint ethPrice */\n      dup1\n        /* \"DEX.sol\":2995:3006  etherPricer */\n      0x0b\n      0x00\n      swap1\n      sload\n      swap1\n      0x0100\n      exp\n      swap1\n      div\n      0xffffffffffffffffffffffffffffffffffffffff\n      and\n        /* \"DEX.sol\":2977:3013  IEtherPriceOracle(etherPricer).price */\n      0xffffffffffffffffffffffffffffffffffffffff\n      and\n      0xa035b1fe\n        /* \"DEX.sol\":2977:3015  IEtherPriceOracle(etherPricer).price() */\n      mload(0x40)\n      dup2\n      0xffffffff\n      and\n      0xe0\n      shl\n      dup2\n      mstore\n      0x04\n      add\n      0x20\n      mload(0x40)\n      dup1\n      dup4\n      sub\n      dup2\n      dup7\n      gas\n      staticcall\n      iszero\n      dup1\n      iszero\n      tag_267\n      jumpi\n      returndatasize\n      0x00\n      dup1\n      returndatacopy\n      revert(0x00, returndatasize)\n    tag_267:\n      pop\n      pop\n      pop\n      pop\n      mload(0x40)\n      returndatasize\n      not(0x1f)\n      0x1f\n      dup3\n      add\n      and\n      dup3\n      add\n      dup1\n      0x40\n      mstore\n      pop\n      dup2\n      add\n      swap1\n      tag_268\n      swap2\n      swap1\n      tag_175\n      jump\t// in\n    tag_268:\n        /* \"DEX.sol\":2961:3015  uint ethPrice = IEtherPriceOracle(etherPricer).price() */\n      swap1\n      pop\n        /* \"DEX.sol\":3052:3058  10**18 */\n      0x0de0b6b3a7640000\n        /* \"DEX.sol\":3040:3048  ethPrice */\n      dup2\n        /* \"DEX.sol\":3036:3037  x */\n      sload(0x03)\n        /* \"DEX.sol\":3032:3033  2 */\n      0x02\n        /* \"DEX.sol\":3032:3037  2 * x */\n      tag_269\n      swap2\n      swap1\n      tag_41\n      jump\t// in\n    tag_269:\n        /* \"DEX.sol\":3032:3048  2 * x * ethPrice */\n      tag_270\n      swap2\n      swap1\n      tag_41\n      jump\t// in\n    tag_270:\n        /* \"DEX.sol\":3032:3059  2 * x * ethPrice / (10**18) */\n      tag_271\n      swap2\n      swap1\n      tag_37\n      jump\t// in\n    tag_271:\n        /* \"DEX.sol\":3025:3059  return 2 * x * ethPrice / (10**18) */\n      swap2\n      pop\n      pop\n        /* \"DEX.sol\":2875:3066  function getPoolLiquidityInUSDCents() external override view returns (uint) {... */\n      swap1\n      jump\t// out\n        /* \"DEX.sol\":2373:2498  function getEtherPrice() external override view returns (uint) {... */\n    tag_139:\n        /* \"DEX.sol\":2430:2434  uint */\n      0x00\n        /* \"DEX.sol\":2471:2482  etherPricer */\n      0x0b\n      0x00\n      swap1\n      sload\n      swap1\n      0x0100\n      exp\n      swap1\n      div\n      0xffffffffffffffffffffffffffffffffffffffff\n      and\n        /* \"DEX.sol\":2453:2489  IEtherPriceOracle(etherPricer).price */\n      0xffffffffffffffffffffffffffffffffffffffff\n      and\n      0xa035b1fe\n        /* \"DEX.sol\":2453:2491  IEtherPriceOracle(etherPricer).price() */\n      mload(0x40)\n      dup2\n      0xffffffff\n      and\n      0xe0\n      shl\n      dup2\n      mstore\n      0x04\n      add\n      0x20\n      mload(0x40)\n      dup1\n      dup4\n      sub\n      dup2\n      dup7\n      gas\n      staticcall\n      iszero\n      dup1\n      iszero\n      tag_274\n      jumpi\n      returndatasize\n      0x00\n      dup1\n      returndatacopy\n      revert(0x00, returndatasize)\n    tag_274:\n      pop\n      pop\n      pop\n      pop\n      mload(0x40)\n      returndatasize\n      not(0x1f)\n      0x1f\n      dup3\n      add\n      and\n      dup3\n      add\n      dup1\n      0x40\n      mstore\n      pop\n      dup2\n      add\n      swap1\n      tag_275\n      swap2\n      swap1\n      tag_175\n      jump\t// in\n    tag_275:\n        /* \"DEX.sol\":2446:2491  return IEtherPriceOracle(etherPricer).price() */\n      swap1\n      pop\n        /* \"DEX.sol\":2373:2498  function getEtherPrice() external override view returns (uint) {... */\n      swap1\n      jump\t// out\n        /* \"DEX.sol\":850:916  mapping (address => uint) public override etherLiquidityForAddress */\n    tag_144:\n      mstore(0x20, 0x05)\n      dup1\n      0x00\n      mstore\n      keccak256(0x00, 0x40)\n      0x00\n      swap2\n      pop\n      swap1\n      pop\n      sload\n      dup2\n      jump\t// out\n        /* \"DEX.sol\":4270:4326  function reset() external pure {... */\n    tag_148:\n        /* \"DEX.sol\":4311:4319  revert() */\n      0x00\n      dup1\n      revert\n        /* \"DEX.sol\":638:651  uint public i */\n    tag_151:\n      sload(0x01)\n      dup2\n      jump\t// out\n        /* \"DEX.sol\":6665:7176  function addLiquidity() external payable {... */\n    tag_154:\n        /* \"DEX.sol\":6716:6730  uint ethAmount */\n      0x00\n        /* \"DEX.sol\":6733:6742  msg.value */\n      callvalue\n        /* \"DEX.sol\":6716:6742  uint ethAmount = msg.value */\n      swap1\n      pop\n        /* \"DEX.sol\":6752:6768  uint tokenAmount */\n      0x00\n        /* \"DEX.sol\":6789:6790  x */\n      sload(0x03)\n        /* \"DEX.sol\":6784:6785  y */\n      sload(0x04)\n        /* \"DEX.sol\":6772:6781  ethAmount */\n      dup4\n        /* \"DEX.sol\":6772:6785  ethAmount * y */\n      tag_278\n      swap2\n      swap1\n      tag_41\n      jump\t// in\n    tag_278:\n        /* \"DEX.sol\":6771:6790  (ethAmount * y) / x */\n      tag_279\n      swap2\n      swap1\n      tag_37\n      jump\t// in\n    tag_279:\n        /* \"DEX.sol\":6752:6790  uint tokenAmount = (ethAmount * y) / x */\n      swap1\n      pop\n        /* \"DEX.sol\":6821:6825  true */\n      0x01\n        /* \"DEX.sol\":6800:6818  adjustingLiquidity */\n      0x00\n      0x15\n        /* \"DEX.sol\":6800:6825  adjustingLiquidity = true */\n      0x0100\n      exp\n      dup2\n      sload\n      dup2\n      0xff\n      mul\n      not\n      and\n      swap1\n      dup4\n      iszero\n      iszero\n      mul\n      or\n      swap1\n      sstore\n      pop\n        /* \"DEX.sol\":6841:6853  erc20Address */\n      0x0c\n      0x00\n      swap1\n      sload\n      swap1\n      0x0100\n      exp\n      swap1\n      div\n      0xffffffffffffffffffffffffffffffffffffffff\n      and\n        /* \"DEX.sol\":6835:6867  ERC20(erc20Address).transferFrom */\n      0xffffffffffffffffffffffffffffffffffffffff\n      and\n      0x23b872dd\n        /* \"DEX.sol\":6868:6878  msg.sender */\n      caller\n        /* \"DEX.sol\":6888:6892  this */\n      address\n        /* \"DEX.sol\":6895:6906  tokenAmount */\n      dup5\n        /* \"DEX.sol\":6835:6907  ERC20(erc20Address).transferFrom(msg.sender, address(this), tokenAmount) */\n      mload(0x40)\n      dup5\n      0xffffffff\n      and\n      0xe0\n      shl\n      dup2\n      mstore\n      0x04\n      add\n      tag_280\n      swap4\n      swap3\n      swap2\n      swap1\n      tag_260\n      jump\t// in\n    tag_280:\n      0x20\n      mload(0x40)\n      dup1\n      dup4\n      sub\n      dup2\n      0x00\n      dup8\n      gas\n      call\n      iszero\n      dup1\n      iszero\n      tag_282\n      jumpi\n      returndatasize\n      0x00\n      dup1\n      returndatacopy\n      revert(0x00, returndatasize)\n    tag_282:\n      pop\n      pop\n      pop\n      pop\n      mload(0x40)\n      returndatasize\n      not(0x1f)\n      0x1f\n      dup3\n      add\n      and\n      dup3\n      add\n      dup1\n      0x40\n      mstore\n      pop\n      dup2\n      add\n      swap1\n      tag_283\n      swap2\n      swap1\n      tag_49\n      jump\t// in\n    tag_283:\n      pop\n        /* \"DEX.sol\":6938:6943  false */\n      0x00\n        /* \"DEX.sol\":6917:6935  adjustingLiquidity */\n      dup1\n      0x15\n        /* \"DEX.sol\":6917:6943  adjustingLiquidity = false */\n      0x0100\n      exp\n      dup2\n      sload\n      dup2\n      0xff\n      mul\n      not\n      and\n      swap1\n      dup4\n      iszero\n      iszero\n      mul\n      or\n      swap1\n      sstore\n      pop\n        /* \"DEX.sol\":6958:6967  ethAmount */\n      dup2\n        /* \"DEX.sol\":6953:6954  x */\n      0x03\n      0x00\n        /* \"DEX.sol\":6953:6967  x += ethAmount */\n      dup3\n      dup3\n      sload\n      tag_284\n      swap2\n      swap1\n      tag_35\n      jump\t// in\n    tag_284:\n      swap3\n      pop\n      pop\n      dup2\n      swap1\n      sstore\n      pop\n        /* \"DEX.sol\":6982:6993  tokenAmount */\n      dup1\n        /* \"DEX.sol\":6977:6978  y */\n      0x04\n      0x00\n        /* \"DEX.sol\":6977:6993  y += tokenAmount */\n      dup3\n      dup3\n      sload\n      tag_285\n      swap2\n      swap1\n      tag_35\n      jump\t// in\n    tag_285:\n      swap3\n      pop\n      pop\n      dup2\n      swap1\n      sstore\n      pop\n        /* \"DEX.sol\":7011:7012  y */\n      sload(0x04)\n        /* \"DEX.sol\":7007:7008  x */\n      sload(0x03)\n        /* \"DEX.sol\":7007:7012  x * y */\n      tag_286\n      swap2\n      swap1\n      tag_41\n      jump\t// in\n    tag_286:\n        /* \"DEX.sol\":7003:7004  k */\n      0x02\n        /* \"DEX.sol\":7003:7012  k = x * y */\n      dup2\n      swap1\n      sstore\n      pop\n        /* \"DEX.sol\":7062:7071  ethAmount */\n      dup2\n        /* \"DEX.sol\":7022:7046  etherLiquidityForAddress */\n      0x05\n        /* \"DEX.sol\":7022:7058  etherLiquidityForAddress[msg.sender] */\n      0x00\n        /* \"DEX.sol\":7047:7057  msg.sender */\n      caller\n        /* \"DEX.sol\":7022:7058  etherLiquidityForAddress[msg.sender] */\n      0xffffffffffffffffffffffffffffffffffffffff\n      and\n      0xffffffffffffffffffffffffffffffffffffffff\n      and\n      dup2\n      mstore\n      0x20\n      add\n      swap1\n      dup2\n      mstore\n      0x20\n      add\n      0x00\n      keccak256\n      0x00\n        /* \"DEX.sol\":7022:7071  etherLiquidityForAddress[msg.sender] += ethAmount */\n      dup3\n      dup3\n      sload\n      tag_287\n      swap2\n      swap1\n      tag_35\n      jump\t// in\n    tag_287:\n      swap3\n      pop\n      pop\n      dup2\n      swap1\n      sstore\n      pop\n        /* \"DEX.sol\":7121:7132  tokenAmount */\n      dup1\n        /* \"DEX.sol\":7081:7105  tokenLiquidityForAddress */\n      0x06\n        /* \"DEX.sol\":7081:7117  tokenLiquidityForAddress[msg.sender] */\n      0x00\n        /* \"DEX.sol\":7106:7116  msg.sender */\n      caller\n        /* \"DEX.sol\":7081:7117  tokenLiquidityForAddress[msg.sender] */\n      0xffffffffffffffffffffffffffffffffffffffff\n      and\n      0xffffffffffffffffffffffffffffffffffffffff\n      and\n      dup2\n      mstore\n      0x20\n      add\n      swap1\n      dup2\n      mstore\n      0x20\n      add\n      0x00\n      keccak256\n      0x00\n        /* \"DEX.sol\":7081:7132  tokenLiquidityForAddress[msg.sender] += tokenAmount */\n      dup3\n      dup3\n      sload\n      tag_288\n      swap2\n      swap1\n      tag_35\n      jump\t// in\n    tag_288:\n      swap3\n      pop\n      pop\n      dup2\n      swap1\n      sstore\n      pop\n        /* \"DEX.sol\":7147:7169  liquidityChangeEvent() */\n      0x8866993f7c029be4215942b34c1545282b8f28836579f2687fe96a5a6bf77704\n      mload(0x40)\n      mload(0x40)\n      dup1\n      swap2\n      sub\n      swap1\n      log1\n        /* \"DEX.sol\":6706:7176  {... */\n      pop\n      pop\n        /* \"DEX.sol\":6665:7176  function addLiquidity() external payable {... */\n      jump\t// out\n        /* \"DEX.sol\":1083:1116  uint public override feeNumerator */\n    tag_157:\n      sload(0x07)\n      dup2\n      jump\t// out\n        /* \"DEX.sol\":3113:3189  function setEtherPricer(address p) external {... */\n    tag_162:\n        /* \"DEX.sol\":3181:3182  p */\n      dup1\n        /* \"DEX.sol\":3167:3178  etherPricer */\n      0x0b\n      0x00\n        /* \"DEX.sol\":3167:3182  etherPricer = p */\n      0x0100\n      exp\n      dup2\n      sload\n      dup2\n      0xffffffffffffffffffffffffffffffffffffffff\n      mul\n      not\n      and\n      swap1\n      dup4\n      0xffffffffffffffffffffffffffffffffffffffff\n      and\n      mul\n      or\n      swap1\n      sstore\n      pop\n        /* \"DEX.sol\":3113:3189  function setEtherPricer(address p) external {... */\n      pop\n      jump\t// out\n        /* \"#utility.yul\":7:84   */\n    tag_290:\n        /* \"#utility.yul\":44:51   */\n      0x00\n        /* \"#utility.yul\":73:78   */\n      dup2\n        /* \"#utility.yul\":62:78   */\n      swap1\n      pop\n        /* \"#utility.yul\":7:84   */\n      swap2\n      swap1\n      pop\n      jump\t// out\n        /* \"#utility.yul\":90:270   */\n    tag_291:\n        /* \"#utility.yul\":138:215   */\n      0x4e487b7100000000000000000000000000000000000000000000000000000000\n        /* \"#utility.yul\":135:136   */\n      0x00\n        /* \"#utility.yul\":128:216   */\n      mstore\n        /* \"#utility.yul\":235:239   */\n      0x11\n        /* \"#utility.yul\":232:233   */\n      0x04\n        /* \"#utility.yul\":225:240   */\n      mstore\n        /* \"#utility.yul\":259:263   */\n      0x24\n        /* \"#utility.yul\":256:257   */\n      0x00\n        /* \"#utility.yul\":249:264   */\n      revert\n        /* \"#utility.yul\":276:467   */\n    tag_35:\n        /* \"#utility.yul\":316:319   */\n      0x00\n        /* \"#utility.yul\":335:355   */\n      tag_350\n        /* \"#utility.yul\":353:354   */\n      dup3\n        /* \"#utility.yul\":335:355   */\n      tag_290\n      jump\t// in\n    tag_350:\n        /* \"#utility.yul\":330:355   */\n      swap2\n      pop\n        /* \"#utility.yul\":369:389   */\n      tag_351\n        /* \"#utility.yul\":387:388   */\n      dup4\n        /* \"#utility.yul\":369:389   */\n      tag_290\n      jump\t// in\n    tag_351:\n        /* \"#utility.yul\":364:389   */\n      swap3\n      pop\n        /* \"#utility.yul\":412:413   */\n      dup3\n        /* \"#utility.yul\":409:410   */\n      dup3\n        /* \"#utility.yul\":405:414   */\n      add\n        /* \"#utility.yul\":398:414   */\n      swap1\n      pop\n        /* \"#utility.yul\":433:436   */\n      dup1\n        /* \"#utility.yul\":430:431   */\n      dup3\n        /* \"#utility.yul\":427:437   */\n      gt\n        /* \"#utility.yul\":424:460   */\n      iszero\n      tag_352\n      jumpi\n        /* \"#utility.yul\":440:458   */\n      tag_353\n      tag_291\n      jump\t// in\n    tag_353:\n        /* \"#utility.yul\":424:460   */\n    tag_352:\n        /* \"#utility.yul\":276:467   */\n      swap3\n      swap2\n      pop\n      pop\n      jump\t// out\n        /* \"#utility.yul\":473:653   */\n    tag_292:\n        /* \"#utility.yul\":521:598   */\n      0x4e487b7100000000000000000000000000000000000000000000000000000000\n        /* \"#utility.yul\":518:519   */\n      0x00\n        /* \"#utility.yul\":511:599   */\n      mstore\n        /* \"#utility.yul\":618:622   */\n      0x12\n        /* \"#utility.yul\":615:616   */\n      0x04\n        /* \"#utility.yul\":608:623   */\n      mstore\n        /* \"#utility.yul\":642:646   */\n      0x24\n        /* \"#utility.yul\":639:640   */\n      0x00\n        /* \"#utility.yul\":632:647   */\n      revert\n        /* \"#utility.yul\":659:844   */\n    tag_37:\n        /* \"#utility.yul\":699:700   */\n      0x00\n        /* \"#utility.yul\":716:736   */\n      tag_356\n        /* \"#utility.yul\":734:735   */\n      dup3\n        /* \"#utility.yul\":716:736   */\n      tag_290\n      jump\t// in\n    tag_356:\n        /* \"#utility.yul\":711:736   */\n      swap2\n      pop\n        /* \"#utility.yul\":750:770   */\n      tag_357\n        /* \"#utility.yul\":768:769   */\n      dup4\n        /* \"#utility.yul\":750:770   */\n      tag_290\n      jump\t// in\n    tag_357:\n        /* \"#utility.yul\":745:770   */\n      swap3\n      pop\n        /* \"#utility.yul\":789:790   */\n      dup3\n        /* \"#utility.yul\":779:814   */\n      tag_358\n      jumpi\n        /* \"#utility.yul\":794:812   */\n      tag_359\n      tag_292\n      jump\t// in\n    tag_359:\n        /* \"#utility.yul\":779:814   */\n    tag_358:\n        /* \"#utility.yul\":836:837   */\n      dup3\n        /* \"#utility.yul\":833:834   */\n      dup3\n        /* \"#utility.yul\":829:838   */\n      div\n        /* \"#utility.yul\":824:838   */\n      swap1\n      pop\n        /* \"#utility.yul\":659:844   */\n      swap3\n      swap2\n      pop\n      pop\n      jump\t// out\n        /* \"#utility.yul\":850:1044   */\n    tag_39:\n        /* \"#utility.yul\":890:894   */\n      0x00\n        /* \"#utility.yul\":910:930   */\n      tag_361\n        /* \"#utility.yul\":928:929   */\n      dup3\n        /* \"#utility.yul\":910:930   */\n      tag_290\n      jump\t// in\n    tag_361:\n        /* \"#utility.yul\":905:930   */\n      swap2\n      pop\n        /* \"#utility.yul\":944:964   */\n      tag_362\n        /* \"#utility.yul\":962:963   */\n      dup4\n        /* \"#utility.yul\":944:964   */\n      tag_290\n      jump\t// in\n    tag_362:\n        /* \"#utility.yul\":939:964   */\n      swap3\n      pop\n        /* \"#utility.yul\":988:989   */\n      dup3\n        /* \"#utility.yul\":985:986   */\n      dup3\n        /* \"#utility.yul\":981:990   */\n      sub\n        /* \"#utility.yul\":973:990   */\n      swap1\n      pop\n        /* \"#utility.yul\":1012:1013   */\n      dup2\n        /* \"#utility.yul\":1006:1010   */\n      dup2\n        /* \"#utility.yul\":1003:1014   */\n      gt\n        /* \"#utility.yul\":1000:1037   */\n      iszero\n      tag_363\n      jumpi\n        /* \"#utility.yul\":1017:1035   */\n      tag_364\n      tag_291\n      jump\t// in\n    tag_364:\n        /* \"#utility.yul\":1000:1037   */\n    tag_363:\n        /* \"#utility.yul\":850:1044   */\n      swap3\n      swap2\n      pop\n      pop\n      jump\t// out\n        /* \"#utility.yul\":1050:1460   */\n    tag_41:\n        /* \"#utility.yul\":1090:1097   */\n      0x00\n        /* \"#utility.yul\":1113:1133   */\n      tag_366\n        /* \"#utility.yul\":1131:1132   */\n      dup3\n        /* \"#utility.yul\":1113:1133   */\n      tag_290\n      jump\t// in\n    tag_366:\n        /* \"#utility.yul\":1108:1133   */\n      swap2\n      pop\n        /* \"#utility.yul\":1147:1167   */\n      tag_367\n        /* \"#utility.yul\":1165:1166   */\n      dup4\n        /* \"#utility.yul\":1147:1167   */\n      tag_290\n      jump\t// in\n    tag_367:\n        /* \"#utility.yul\":1142:1167   */\n      swap3\n      pop\n        /* \"#utility.yul\":1202:1203   */\n      dup3\n        /* \"#utility.yul\":1199:1200   */\n      dup3\n        /* \"#utility.yul\":1195:1204   */\n      mul\n        /* \"#utility.yul\":1224:1254   */\n      tag_368\n        /* \"#utility.yul\":1242:1253   */\n      dup2\n        /* \"#utility.yul\":1224:1254   */\n      tag_290\n      jump\t// in\n    tag_368:\n        /* \"#utility.yul\":1213:1254   */\n      swap2\n      pop\n        /* \"#utility.yul\":1403:1404   */\n      dup3\n        /* \"#utility.yul\":1394:1401   */\n      dup3\n        /* \"#utility.yul\":1390:1405   */\n      div\n        /* \"#utility.yul\":1387:1388   */\n      dup5\n        /* \"#utility.yul\":1384:1406   */\n      eq\n        /* \"#utility.yul\":1364:1365   */\n      dup4\n        /* \"#utility.yul\":1357:1366   */\n      iszero\n        /* \"#utility.yul\":1337:1420   */\n      or\n        /* \"#utility.yul\":1314:1453   */\n      tag_369\n      jumpi\n        /* \"#utility.yul\":1433:1451   */\n      tag_370\n      tag_291\n      jump\t// in\n    tag_370:\n        /* \"#utility.yul\":1314:1453   */\n    tag_369:\n        /* \"#utility.yul\":1098:1460   */\n      pop\n        /* \"#utility.yul\":1050:1460   */\n      swap3\n      swap2\n      pop\n      pop\n      jump\t// out\n        /* \"#utility.yul\":1466:1592   */\n    tag_293:\n        /* \"#utility.yul\":1503:1510   */\n      0x00\n        /* \"#utility.yul\":1543:1585   */\n      0xffffffffffffffffffffffffffffffffffffffff\n        /* \"#utility.yul\":1536:1541   */\n      dup3\n        /* \"#utility.yul\":1532:1586   */\n      and\n        /* \"#utility.yul\":1521:1586   */\n      swap1\n      pop\n        /* \"#utility.yul\":1466:1592   */\n      swap2\n      swap1\n      pop\n      jump\t// out\n        /* \"#utility.yul\":1598:1694   */\n    tag_294:\n        /* \"#utility.yul\":1635:1642   */\n      0x00\n        /* \"#utility.yul\":1664:1688   */\n      tag_373\n        /* \"#utility.yul\":1682:1687   */\n      dup3\n        /* \"#utility.yul\":1664:1688   */\n      tag_293\n      jump\t// in\n    tag_373:\n        /* \"#utility.yul\":1653:1688   */\n      swap1\n      pop\n        /* \"#utility.yul\":1598:1694   */\n      swap2\n      swap1\n      pop\n      jump\t// out\n        /* \"#utility.yul\":1700:1818   */\n    tag_295:\n        /* \"#utility.yul\":1787:1811   */\n      tag_375\n        /* \"#utility.yul\":1805:1810   */\n      dup2\n        /* \"#utility.yul\":1787:1811   */\n      tag_294\n      jump\t// in\n    tag_375:\n        /* \"#utility.yul\":1782:1785   */\n      dup3\n        /* \"#utility.yul\":1775:1812   */\n      mstore\n        /* \"#utility.yul\":1700:1818   */\n      pop\n      pop\n      jump\t// out\n        /* \"#utility.yul\":1824:1942   */\n    tag_296:\n        /* \"#utility.yul\":1911:1935   */\n      tag_377\n        /* \"#utility.yul\":1929:1934   */\n      dup2\n        /* \"#utility.yul\":1911:1935   */\n      tag_290\n      jump\t// in\n    tag_377:\n        /* \"#utility.yul\":1906:1909   */\n      dup3\n        /* \"#utility.yul\":1899:1936   */\n      mstore\n        /* \"#utility.yul\":1824:1942   */\n      pop\n      pop\n      jump\t// out\n        /* \"#utility.yul\":1948:2280   */\n    tag_45:\n        /* \"#utility.yul\":2069:2073   */\n      0x00\n        /* \"#utility.yul\":2107:2109   */\n      0x40\n        /* \"#utility.yul\":2096:2105   */\n      dup3\n        /* \"#utility.yul\":2092:2110   */\n      add\n        /* \"#utility.yul\":2084:2110   */\n      swap1\n      pop\n        /* \"#utility.yul\":2120:2191   */\n      tag_379\n        /* \"#utility.yul\":2188:2189   */\n      0x00\n        /* \"#utility.yul\":2177:2186   */\n      dup4\n        /* \"#utility.yul\":2173:2190   */\n      add\n        /* \"#utility.yul\":2164:2170   */\n      dup6\n        /* \"#utility.yul\":2120:2191   */\n      tag_295\n      jump\t// in\n    tag_379:\n        /* \"#utility.yul\":2201:2273   */\n      tag_380\n        /* \"#utility.yul\":2269:2271   */\n      0x20\n        /* \"#utility.yul\":2258:2267   */\n      dup4\n        /* \"#utility.yul\":2254:2272   */\n      add\n        /* \"#utility.yul\":2245:2251   */\n      dup5\n        /* \"#utility.yul\":2201:2273   */\n      tag_296\n      jump\t// in\n    tag_380:\n        /* \"#utility.yul\":1948:2280   */\n      swap4\n      swap3\n      pop\n      pop\n      pop\n      jump\t// out\n        /* \"#utility.yul\":2286:2361   */\n    tag_297:\n        /* \"#utility.yul\":2319:2325   */\n      0x00\n        /* \"#utility.yul\":2352:2354   */\n      0x40\n        /* \"#utility.yul\":2346:2355   */\n      mload\n        /* \"#utility.yul\":2336:2355   */\n      swap1\n      pop\n        /* \"#utility.yul\":2286:2361   */\n      swap1\n      jump\t// out\n        /* \"#utility.yul\":2367:2484   */\n    tag_298:\n        /* \"#utility.yul\":2476:2477   */\n      0x00\n        /* \"#utility.yul\":2473:2474   */\n      dup1\n        /* \"#utility.yul\":2466:2478   */\n      revert\n        /* \"#utility.yul\":2490:2607   */\n    tag_299:\n        /* \"#utility.yul\":2599:2600   */\n      0x00\n        /* \"#utility.yul\":2596:2597   */\n      dup1\n        /* \"#utility.yul\":2589:2601   */\n      revert\n        /* \"#utility.yul\":2613:2703   */\n    tag_300:\n        /* \"#utility.yul\":2647:2654   */\n      0x00\n        /* \"#utility.yul\":2690:2695   */\n      dup2\n        /* \"#utility.yul\":2683:2696   */\n      iszero\n        /* \"#utility.yul\":2676:2697   */\n      iszero\n        /* \"#utility.yul\":2665:2697   */\n      swap1\n      pop\n        /* \"#utility.yul\":2613:2703   */\n      swap2\n      swap1\n      pop\n      jump\t// out\n        /* \"#utility.yul\":2709:2825   */\n    tag_301:\n        /* \"#utility.yul\":2779:2800   */\n      tag_386\n        /* \"#utility.yul\":2794:2799   */\n      dup2\n        /* \"#utility.yul\":2779:2800   */\n      tag_300\n      jump\t// in\n    tag_386:\n        /* \"#utility.yul\":2772:2777   */\n      dup2\n        /* \"#utility.yul\":2769:2801   */\n      eq\n        /* \"#utility.yul\":2759:2819   */\n      tag_387\n      jumpi\n        /* \"#utility.yul\":2815:2816   */\n      0x00\n        /* \"#utility.yul\":2812:2813   */\n      dup1\n        /* \"#utility.yul\":2805:2817   */\n      revert\n        /* \"#utility.yul\":2759:2819   */\n    tag_387:\n        /* \"#utility.yul\":2709:2825   */\n      pop\n      jump\t// out\n        /* \"#utility.yul\":2831:2968   */\n    tag_302:\n        /* \"#utility.yul\":2885:2890   */\n      0x00\n        /* \"#utility.yul\":2916:2922   */\n      dup2\n        /* \"#utility.yul\":2910:2923   */\n      mload\n        /* \"#utility.yul\":2901:2923   */\n      swap1\n      pop\n        /* \"#utility.yul\":2932:2962   */\n      tag_389\n        /* \"#utility.yul\":2956:2961   */\n      dup2\n        /* \"#utility.yul\":2932:2962   */\n      tag_301\n      jump\t// in\n    tag_389:\n        /* \"#utility.yul\":2831:2968   */\n      swap3\n      swap2\n      pop\n      pop\n      jump\t// out\n        /* \"#utility.yul\":2974:3319   */\n    tag_49:\n        /* \"#utility.yul\":3041:3047   */\n      0x00\n        /* \"#utility.yul\":3090:3092   */\n      0x20\n        /* \"#utility.yul\":3078:3087   */\n      dup3\n        /* \"#utility.yul\":3069:3076   */\n      dup5\n        /* \"#utility.yul\":3065:3088   */\n      sub\n        /* \"#utility.yul\":3061:3093   */\n      slt\n        /* \"#utility.yul\":3058:3177   */\n      iszero\n      tag_391\n      jumpi\n        /* \"#utility.yul\":3096:3175   */\n      tag_392\n      tag_298\n      jump\t// in\n    tag_392:\n        /* \"#utility.yul\":3058:3177   */\n    tag_391:\n        /* \"#utility.yul\":3216:3217   */\n      0x00\n        /* \"#utility.yul\":3241:3302   */\n      tag_393\n        /* \"#utility.yul\":3294:3301   */\n      dup5\n        /* \"#utility.yul\":3285:3291   */\n      dup3\n        /* \"#utility.yul\":3274:3283   */\n      dup6\n        /* \"#utility.yul\":3270:3292   */\n      add\n        /* \"#utility.yul\":3241:3302   */\n      tag_302\n      jump\t// in\n    tag_393:\n        /* \"#utility.yul\":3231:3302   */\n      swap2\n      pop\n        /* \"#utility.yul\":3187:3312   */\n      pop\n        /* \"#utility.yul\":2974:3319   */\n      swap3\n      swap2\n      pop\n      pop\n      jump\t// out\n        /* \"#utility.yul\":3325:3474   */\n    tag_303:\n        /* \"#utility.yul\":3361:3368   */\n      0x00\n        /* \"#utility.yul\":3401:3467   */\n      0xffffffff00000000000000000000000000000000000000000000000000000000\n        /* \"#utility.yul\":3394:3399   */\n      dup3\n        /* \"#utility.yul\":3390:3468   */\n      and\n        /* \"#utility.yul\":3379:3468   */\n      swap1\n      pop\n        /* \"#utility.yul\":3325:3474   */\n      swap2\n      swap1\n      pop\n      jump\t// out\n        /* \"#utility.yul\":3480:3600   */\n    tag_304:\n        /* \"#utility.yul\":3552:3575   */\n      tag_396\n        /* \"#utility.yul\":3569:3574   */\n      dup2\n        /* \"#utility.yul\":3552:3575   */\n      tag_303\n      jump\t// in\n    tag_396:\n        /* \"#utility.yul\":3545:3550   */\n      dup2\n        /* \"#utility.yul\":3542:3576   */\n      eq\n        /* \"#utility.yul\":3532:3594   */\n      tag_397\n      jumpi\n        /* \"#utility.yul\":3590:3591   */\n      0x00\n        /* \"#utility.yul\":3587:3588   */\n      dup1\n        /* \"#utility.yul\":3580:3592   */\n      revert\n        /* \"#utility.yul\":3532:3594   */\n    tag_397:\n        /* \"#utility.yul\":3480:3600   */\n      pop\n      jump\t// out\n        /* \"#utility.yul\":3606:3743   */\n    tag_305:\n        /* \"#utility.yul\":3651:3656   */\n      0x00\n        /* \"#utility.yul\":3689:3695   */\n      dup2\n        /* \"#utility.yul\":3676:3696   */\n      calldataload\n        /* \"#utility.yul\":3667:3696   */\n      swap1\n      pop\n        /* \"#utility.yul\":3705:3737   */\n      tag_399\n        /* \"#utility.yul\":3731:3736   */\n      dup2\n        /* \"#utility.yul\":3705:3737   */\n      tag_304\n      jump\t// in\n    tag_399:\n        /* \"#utility.yul\":3606:3743   */\n      swap3\n      swap2\n      pop\n      pop\n      jump\t// out\n        /* \"#utility.yul\":3749:4076   */\n    tag_56:\n        /* \"#utility.yul\":3807:3813   */\n      0x00\n        /* \"#utility.yul\":3856:3858   */\n      0x20\n        /* \"#utility.yul\":3844:3853   */\n      dup3\n        /* \"#utility.yul\":3835:3842   */\n      dup5\n        /* \"#utility.yul\":3831:3854   */\n      sub\n        /* \"#utility.yul\":3827:3859   */\n      slt\n        /* \"#utility.yul\":3824:3943   */\n      iszero\n      tag_401\n      jumpi\n        /* \"#utility.yul\":3862:3941   */\n      tag_402\n      tag_298\n      jump\t// in\n    tag_402:\n        /* \"#utility.yul\":3824:3943   */\n    tag_401:\n        /* \"#utility.yul\":3982:3983   */\n      0x00\n        /* \"#utility.yul\":4007:4059   */\n      tag_403\n        /* \"#utility.yul\":4051:4058   */\n      dup5\n        /* \"#utility.yul\":4042:4048   */\n      dup3\n        /* \"#utility.yul\":4031:4040   */\n      dup6\n        /* \"#utility.yul\":4027:4049   */\n      add\n        /* \"#utility.yul\":4007:4059   */\n      tag_305\n      jump\t// in\n    tag_403:\n        /* \"#utility.yul\":3997:4059   */\n      swap2\n      pop\n        /* \"#utility.yul\":3953:4069   */\n      pop\n        /* \"#utility.yul\":3749:4076   */\n      swap3\n      swap2\n      pop\n      pop\n      jump\t// out\n        /* \"#utility.yul\":4082:4191   */\n    tag_306:\n        /* \"#utility.yul\":4163:4184   */\n      tag_405\n        /* \"#utility.yul\":4178:4183   */\n      dup2\n        /* \"#utility.yul\":4163:4184   */\n      tag_300\n      jump\t// in\n    tag_405:\n        /* \"#utility.yul\":4158:4161   */\n      dup3\n        /* \"#utility.yul\":4151:4185   */\n      mstore\n        /* \"#utility.yul\":4082:4191   */\n      pop\n      pop\n      jump\t// out\n        /* \"#utility.yul\":4197:4407   */\n    tag_59:\n        /* \"#utility.yul\":4284:4288   */\n      0x00\n        /* \"#utility.yul\":4322:4324   */\n      0x20\n        /* \"#utility.yul\":4311:4320   */\n      dup3\n        /* \"#utility.yul\":4307:4325   */\n      add\n        /* \"#utility.yul\":4299:4325   */\n      swap1\n      pop\n        /* \"#utility.yul\":4335:4400   */\n      tag_407\n        /* \"#utility.yul\":4397:4398   */\n      0x00\n        /* \"#utility.yul\":4386:4395   */\n      dup4\n        /* \"#utility.yul\":4382:4399   */\n      add\n        /* \"#utility.yul\":4373:4379   */\n      dup5\n        /* \"#utility.yul\":4335:4400   */\n      tag_306\n      jump\t// in\n    tag_407:\n        /* \"#utility.yul\":4197:4407   */\n      swap3\n      swap2\n      pop\n      pop\n      jump\t// out\n        /* \"#utility.yul\":4413:4635   */\n    tag_64:\n        /* \"#utility.yul\":4506:4510   */\n      0x00\n        /* \"#utility.yul\":4544:4546   */\n      0x20\n        /* \"#utility.yul\":4533:4542   */\n      dup3\n        /* \"#utility.yul\":4529:4547   */\n      add\n        /* \"#utility.yul\":4521:4547   */\n      swap1\n      pop\n        /* \"#utility.yul\":4557:4628   */\n      tag_409\n        /* \"#utility.yul\":4625:4626   */\n      0x00\n        /* \"#utility.yul\":4614:4623   */\n      dup4\n        /* \"#utility.yul\":4610:4627   */\n      add\n        /* \"#utility.yul\":4601:4607   */\n      dup5\n        /* \"#utility.yul\":4557:4628   */\n      tag_296\n      jump\t// in\n    tag_409:\n        /* \"#utility.yul\":4413:4635   */\n      swap3\n      swap2\n      pop\n      pop\n      jump\t// out\n        /* \"#utility.yul\":4641:4863   */\n    tag_73:\n        /* \"#utility.yul\":4734:4738   */\n      0x00\n        /* \"#utility.yul\":4772:4774   */\n      0x20\n        /* \"#utility.yul\":4761:4770   */\n      dup3\n        /* \"#utility.yul\":4757:4775   */\n      add\n        /* \"#utility.yul\":4749:4775   */\n      swap1\n      pop\n        /* \"#utility.yul\":4785:4856   */\n      tag_411\n        /* \"#utility.yul\":4853:4854   */\n      0x00\n        /* \"#utility.yul\":4842:4851   */\n      dup4\n        /* \"#utility.yul\":4838:4855   */\n      add\n        /* \"#utility.yul\":4829:4835   */\n      dup5\n        /* \"#utility.yul\":4785:4856   */\n      tag_295\n      jump\t// in\n    tag_411:\n        /* \"#utility.yul\":4641:4863   */\n      swap3\n      swap2\n      pop\n      pop\n      jump\t// out\n        /* \"#utility.yul\":4869:4991   */\n    tag_307:\n        /* \"#utility.yul\":4942:4966   */\n      tag_413\n        /* \"#utility.yul\":4960:4965   */\n      dup2\n        /* \"#utility.yul\":4942:4966   */\n      tag_294\n      jump\t// in\n    tag_413:\n        /* \"#utility.yul\":4935:4940   */\n      dup2\n        /* \"#utility.yul\":4932:4967   */\n      eq\n        /* \"#utility.yul\":4922:4985   */\n      tag_414\n      jumpi\n        /* \"#utility.yul\":4981:4982   */\n      0x00\n        /* \"#utility.yul\":4978:4979   */\n      dup1\n        /* \"#utility.yul\":4971:4983   */\n      revert\n        /* \"#utility.yul\":4922:4985   */\n    tag_414:\n        /* \"#utility.yul\":4869:4991   */\n      pop\n      jump\t// out\n        /* \"#utility.yul\":4997:5136   */\n    tag_308:\n        /* \"#utility.yul\":5043:5048   */\n      0x00\n        /* \"#utility.yul\":5081:5087   */\n      dup2\n        /* \"#utility.yul\":5068:5088   */\n      calldataload\n        /* \"#utility.yul\":5059:5088   */\n      swap1\n      pop\n        /* \"#utility.yul\":5097:5130   */\n      tag_416\n        /* \"#utility.yul\":5124:5129   */\n      dup2\n        /* \"#utility.yul\":5097:5130   */\n      tag_307\n      jump\t// in\n    tag_416:\n        /* \"#utility.yul\":4997:5136   */\n      swap3\n      swap2\n      pop\n      pop\n      jump\t// out\n        /* \"#utility.yul\":5142:5264   */\n    tag_309:\n        /* \"#utility.yul\":5215:5239   */\n      tag_418\n        /* \"#utility.yul\":5233:5238   */\n      dup2\n        /* \"#utility.yul\":5215:5239   */\n      tag_290\n      jump\t// in\n    tag_418:\n        /* \"#utility.yul\":5208:5213   */\n      dup2\n        /* \"#utility.yul\":5205:5240   */\n      eq\n        /* \"#utility.yul\":5195:5258   */\n      tag_419\n      jumpi\n        /* \"#utility.yul\":5254:5255   */\n      0x00\n        /* \"#utility.yul\":5251:5252   */\n      dup1\n        /* \"#utility.yul\":5244:5256   */\n      revert\n        /* \"#utility.yul\":5195:5258   */\n    tag_419:\n        /* \"#utility.yul\":5142:5264   */\n      pop\n      jump\t// out\n        /* \"#utility.yul\":5270:5409   */\n    tag_310:\n        /* \"#utility.yul\":5316:5321   */\n      0x00\n        /* \"#utility.yul\":5354:5360   */\n      dup2\n        /* \"#utility.yul\":5341:5361   */\n      calldataload\n        /* \"#utility.yul\":5332:5361   */\n      swap1\n      pop\n        /* \"#utility.yul\":5370:5403   */\n      tag_421\n        /* \"#utility.yul\":5397:5402   */\n      dup2\n        /* \"#utility.yul\":5370:5403   */\n      tag_309\n      jump\t// in\n    tag_421:\n        /* \"#utility.yul\":5270:5409   */\n      swap3\n      swap2\n      pop\n      pop\n      jump\t// out\n        /* \"#utility.yul\":5415:6034   */\n    tag_97:\n        /* \"#utility.yul\":5492:5498   */\n      0x00\n        /* \"#utility.yul\":5500:5506   */\n      dup1\n        /* \"#utility.yul\":5508:5514   */\n      0x00\n        /* \"#utility.yul\":5557:5559   */\n      0x60\n        /* \"#utility.yul\":5545:5554   */\n      dup5\n        /* \"#utility.yul\":5536:5543   */\n      dup7\n        /* \"#utility.yul\":5532:5555   */\n      sub\n        /* \"#utility.yul\":5528:5560   */\n      slt\n        /* \"#utility.yul\":5525:5644   */\n      iszero\n      tag_423\n      jumpi\n        /* \"#utility.yul\":5563:5642   */\n      tag_424\n      tag_298\n      jump\t// in\n    tag_424:\n        /* \"#utility.yul\":5525:5644   */\n    tag_423:\n        /* \"#utility.yul\":5683:5684   */\n      0x00\n        /* \"#utility.yul\":5708:5761   */\n      tag_425\n        /* \"#utility.yul\":5753:5760   */\n      dup7\n        /* \"#utility.yul\":5744:5750   */\n      dup3\n        /* \"#utility.yul\":5733:5742   */\n      dup8\n        /* \"#utility.yul\":5729:5751   */\n      add\n        /* \"#utility.yul\":5708:5761   */\n      tag_308\n      jump\t// in\n    tag_425:\n        /* \"#utility.yul\":5698:5761   */\n      swap4\n      pop\n        /* \"#utility.yul\":5654:5771   */\n      pop\n        /* \"#utility.yul\":5810:5812   */\n      0x20\n        /* \"#utility.yul\":5836:5889   */\n      tag_426\n        /* \"#utility.yul\":5881:5888   */\n      dup7\n        /* \"#utility.yul\":5872:5878   */\n      dup3\n        /* \"#utility.yul\":5861:5870   */\n      dup8\n        /* \"#utility.yul\":5857:5879   */\n      add\n        /* \"#utility.yul\":5836:5889   */\n      tag_310\n      jump\t// in\n    tag_426:\n        /* \"#utility.yul\":5826:5889   */\n      swap3\n      pop\n        /* \"#utility.yul\":5781:5899   */\n      pop\n        /* \"#utility.yul\":5938:5940   */\n      0x40\n        /* \"#utility.yul\":5964:6017   */\n      tag_427\n        /* \"#utility.yul\":6009:6016   */\n      dup7\n        /* \"#utility.yul\":6000:6006   */\n      dup3\n        /* \"#utility.yul\":5989:5998   */\n      dup8\n        /* \"#utility.yul\":5985:6007   */\n      add\n        /* \"#utility.yul\":5964:6017   */\n      tag_308\n      jump\t// in\n    tag_427:\n        /* \"#utility.yul\":5954:6017   */\n      swap2\n      pop\n        /* \"#utility.yul\":5909:6027   */\n      pop\n        /* \"#utility.yul\":5415:6034   */\n      swap3\n      pop\n      swap3\n      pop\n      swap3\n      jump\t// out\n        /* \"#utility.yul\":6040:6369   */\n    tag_103:\n        /* \"#utility.yul\":6099:6105   */\n      0x00\n        /* \"#utility.yul\":6148:6150   */\n      0x20\n        /* \"#utility.yul\":6136:6145   */\n      dup3\n        /* \"#utility.yul\":6127:6134   */\n      dup5\n        /* \"#utility.yul\":6123:6146   */\n      sub\n        /* \"#utility.yul\":6119:6151   */\n      slt\n        /* \"#utility.yul\":6116:6235   */\n      iszero\n      tag_429\n      jumpi\n        /* \"#utility.yul\":6154:6233   */\n      tag_430\n      tag_298\n      jump\t// in\n    tag_430:\n        /* \"#utility.yul\":6116:6235   */\n    tag_429:\n        /* \"#utility.yul\":6274:6275   */\n      0x00\n        /* \"#utility.yul\":6299:6352   */\n      tag_431\n        /* \"#utility.yul\":6344:6351   */\n      dup5\n        /* \"#utility.yul\":6335:6341   */\n      dup3\n        /* \"#utility.yul\":6324:6333   */\n      dup6\n        /* \"#utility.yul\":6320:6342   */\n      add\n        /* \"#utility.yul\":6299:6352   */\n      tag_308\n      jump\t// in\n    tag_431:\n        /* \"#utility.yul\":6289:6352   */\n      swap2\n      pop\n        /* \"#utility.yul\":6245:6362   */\n      pop\n        /* \"#utility.yul\":6040:6369   */\n      swap3\n      swap2\n      pop\n      pop\n      jump\t// out\n        /* \"#utility.yul\":6375:6474   */\n    tag_311:\n        /* \"#utility.yul\":6427:6433   */\n      0x00\n        /* \"#utility.yul\":6461:6466   */\n      dup2\n        /* \"#utility.yul\":6455:6467   */\n      mload\n        /* \"#utility.yul\":6445:6467   */\n      swap1\n      pop\n        /* \"#utility.yul\":6375:6474   */\n      swap2\n      swap1\n      pop\n      jump\t// out\n        /* \"#utility.yul\":6480:6649   */\n    tag_312:\n        /* \"#utility.yul\":6564:6575   */\n      0x00\n        /* \"#utility.yul\":6598:6604   */\n      dup3\n        /* \"#utility.yul\":6593:6596   */\n      dup3\n        /* \"#utility.yul\":6586:6605   */\n      mstore\n        /* \"#utility.yul\":6638:6642   */\n      0x20\n        /* \"#utility.yul\":6633:6636   */\n      dup3\n        /* \"#utility.yul\":6629:6643   */\n      add\n        /* \"#utility.yul\":6614:6643   */\n      swap1\n      pop\n        /* \"#utility.yul\":6480:6649   */\n      swap3\n      swap2\n      pop\n      pop\n      jump\t// out\n        /* \"#utility.yul\":6655:6901   */\n    tag_313:\n        /* \"#utility.yul\":6736:6737   */\n      0x00\n        /* \"#utility.yul\":6746:6859   */\n    tag_435:\n        /* \"#utility.yul\":6760:6766   */\n      dup4\n        /* \"#utility.yul\":6757:6758   */\n      dup2\n        /* \"#utility.yul\":6754:6767   */\n      lt\n        /* \"#utility.yul\":6746:6859   */\n      iszero\n      tag_437\n      jumpi\n        /* \"#utility.yul\":6845:6846   */\n      dup1\n        /* \"#utility.yul\":6840:6843   */\n      dup3\n        /* \"#utility.yul\":6836:6847   */\n      add\n        /* \"#utility.yul\":6830:6848   */\n      mload\n        /* \"#utility.yul\":6826:6827   */\n      dup2\n        /* \"#utility.yul\":6821:6824   */\n      dup5\n        /* \"#utility.yul\":6817:6828   */\n      add\n        /* \"#utility.yul\":6810:6849   */\n      mstore\n        /* \"#utility.yul\":6782:6784   */\n      0x20\n        /* \"#utility.yul\":6779:6780   */\n      dup2\n        /* \"#utility.yul\":6775:6785   */\n      add\n        /* \"#utility.yul\":6770:6785   */\n      swap1\n      pop\n        /* \"#utility.yul\":6746:6859   */\n      jump(tag_435)\n    tag_437:\n        /* \"#utility.yul\":6893:6894   */\n      0x00\n        /* \"#utility.yul\":6884:6890   */\n      dup5\n        /* \"#utility.yul\":6879:6882   */\n      dup5\n        /* \"#utility.yul\":6875:6891   */\n      add\n        /* \"#utility.yul\":6868:6895   */\n      mstore\n        /* \"#utility.yul\":6717:6901   */\n      pop\n        /* \"#utility.yul\":6655:6901   */\n      pop\n      pop\n      pop\n      jump\t// out\n        /* \"#utility.yul\":6907:7009   */\n    tag_314:\n        /* \"#utility.yul\":6948:6954   */\n      0x00\n        /* \"#utility.yul\":6999:7001   */\n      0x1f\n        /* \"#utility.yul\":6995:7002   */\n      not\n        /* \"#utility.yul\":6990:6992   */\n      0x1f\n        /* \"#utility.yul\":6983:6988   */\n      dup4\n        /* \"#utility.yul\":6979:6993   */\n      add\n        /* \"#utility.yul\":6975:7003   */\n      and\n        /* \"#utility.yul\":6965:7003   */\n      swap1\n      pop\n        /* \"#utility.yul\":6907:7009   */\n      swap2\n      swap1\n      pop\n      jump\t// out\n        /* \"#utility.yul\":7015:7392   */\n    tag_315:\n        /* \"#utility.yul\":7103:7106   */\n      0x00\n        /* \"#utility.yul\":7131:7170   */\n      tag_440\n        /* \"#utility.yul\":7164:7169   */\n      dup3\n        /* \"#utility.yul\":7131:7170   */\n      tag_311\n      jump\t// in\n    tag_440:\n        /* \"#utility.yul\":7186:7257   */\n      tag_441\n        /* \"#utility.yul\":7250:7256   */\n      dup2\n        /* \"#utility.yul\":7245:7248   */\n      dup6\n        /* \"#utility.yul\":7186:7257   */\n      tag_312\n      jump\t// in\n    tag_441:\n        /* \"#utility.yul\":7179:7257   */\n      swap4\n      pop\n        /* \"#utility.yul\":7266:7331   */\n      tag_442\n        /* \"#utility.yul\":7324:7330   */\n      dup2\n        /* \"#utility.yul\":7319:7322   */\n      dup6\n        /* \"#utility.yul\":7312:7316   */\n      0x20\n        /* \"#utility.yul\":7305:7310   */\n      dup7\n        /* \"#utility.yul\":7301:7317   */\n      add\n        /* \"#utility.yul\":7266:7331   */\n      tag_313\n      jump\t// in\n    tag_442:\n        /* \"#utility.yul\":7356:7385   */\n      tag_443\n        /* \"#utility.yul\":7378:7384   */\n      dup2\n        /* \"#utility.yul\":7356:7385   */\n      tag_314\n      jump\t// in\n    tag_443:\n        /* \"#utility.yul\":7351:7354   */\n      dup5\n        /* \"#utility.yul\":7347:7386   */\n      add\n        /* \"#utility.yul\":7340:7386   */\n      swap2\n      pop\n        /* \"#utility.yul\":7107:7392   */\n      pop\n        /* \"#utility.yul\":7015:7392   */\n      swap3\n      swap2\n      pop\n      pop\n      jump\t// out\n        /* \"#utility.yul\":7398:7711   */\n    tag_110:\n        /* \"#utility.yul\":7511:7515   */\n      0x00\n        /* \"#utility.yul\":7549:7551   */\n      0x20\n        /* \"#utility.yul\":7538:7547   */\n      dup3\n        /* \"#utility.yul\":7534:7552   */\n      add\n        /* \"#utility.yul\":7526:7552   */\n      swap1\n      pop\n        /* \"#utility.yul\":7598:7607   */\n      dup2\n        /* \"#utility.yul\":7592:7596   */\n      dup2\n        /* \"#utility.yul\":7588:7608   */\n      sub\n        /* \"#utility.yul\":7584:7585   */\n      0x00\n        /* \"#utility.yul\":7573:7582   */\n      dup4\n        /* \"#utility.yul\":7569:7586   */\n      add\n        /* \"#utility.yul\":7562:7609   */\n      mstore\n        /* \"#utility.yul\":7626:7704   */\n      tag_445\n        /* \"#utility.yul\":7699:7703   */\n      dup2\n        /* \"#utility.yul\":7690:7696   */\n      dup5\n        /* \"#utility.yul\":7626:7704   */\n      tag_315\n      jump\t// in\n    tag_445:\n        /* \"#utility.yul\":7618:7704   */\n      swap1\n      pop\n        /* \"#utility.yul\":7398:7711   */\n      swap3\n      swap2\n      pop\n      pop\n      jump\t// out\n        /* \"#utility.yul\":7717:8046   */\n    tag_114:\n        /* \"#utility.yul\":7776:7782   */\n      0x00\n        /* \"#utility.yul\":7825:7827   */\n      0x20\n        /* \"#utility.yul\":7813:7822   */\n      dup3\n        /* \"#utility.yul\":7804:7811   */\n      dup5\n        /* \"#utility.yul\":7800:7823   */\n      sub\n        /* \"#utility.yul\":7796:7828   */\n      slt\n        /* \"#utility.yul\":7793:7912   */\n      iszero\n      tag_447\n      jumpi\n        /* \"#utility.yul\":7831:7910   */\n      tag_448\n      tag_298\n      jump\t// in\n    tag_448:\n        /* \"#utility.yul\":7793:7912   */\n    tag_447:\n        /* \"#utility.yul\":7951:7952   */\n      0x00\n        /* \"#utility.yul\":7976:8029   */\n      tag_449\n        /* \"#utility.yul\":8021:8028   */\n      dup5\n        /* \"#utility.yul\":8012:8018   */\n      dup3\n        /* \"#utility.yul\":8001:8010   */\n      dup6\n        /* \"#utility.yul\":7997:8019   */\n      add\n        /* \"#utility.yul\":7976:8029   */\n      tag_310\n      jump\t// in\n    tag_449:\n        /* \"#utility.yul\":7966:8029   */\n      swap2\n      pop\n        /* \"#utility.yul\":7922:8039   */\n      pop\n        /* \"#utility.yul\":7717:8046   */\n      swap3\n      swap2\n      pop\n      pop\n      jump\t// out\n        /* \"#utility.yul\":8052:9679   */\n    tag_120:\n        /* \"#utility.yul\":8495:8499   */\n      0x00\n        /* \"#utility.yul\":8533:8536   */\n      0x0180\n        /* \"#utility.yul\":8522:8531   */\n      dup3\n        /* \"#utility.yul\":8518:8537   */\n      add\n        /* \"#utility.yul\":8510:8537   */\n      swap1\n      pop\n        /* \"#utility.yul\":8547:8618   */\n      tag_451\n        /* \"#utility.yul\":8615:8616   */\n      0x00\n        /* \"#utility.yul\":8604:8613   */\n      dup4\n        /* \"#utility.yul\":8600:8617   */\n      add\n        /* \"#utility.yul\":8591:8597   */\n      dup16\n        /* \"#utility.yul\":8547:8618   */\n      tag_295\n      jump\t// in\n    tag_451:\n        /* \"#utility.yul\":8665:8674   */\n      dup2\n        /* \"#utility.yul\":8659:8663   */\n      dup2\n        /* \"#utility.yul\":8655:8675   */\n      sub\n        /* \"#utility.yul\":8650:8652   */\n      0x20\n        /* \"#utility.yul\":8639:8648   */\n      dup4\n        /* \"#utility.yul\":8635:8653   */\n      add\n        /* \"#utility.yul\":8628:8676   */\n      mstore\n        /* \"#utility.yul\":8693:8771   */\n      tag_452\n        /* \"#utility.yul\":8766:8770   */\n      dup2\n        /* \"#utility.yul\":8757:8763   */\n      dup15\n        /* \"#utility.yul\":8693:8771   */\n      tag_315\n      jump\t// in\n    tag_452:\n        /* \"#utility.yul\":8685:8771   */\n      swap1\n      pop\n        /* \"#utility.yul\":8818:8827   */\n      dup2\n        /* \"#utility.yul\":8812:8816   */\n      dup2\n        /* \"#utility.yul\":8808:8828   */\n      sub\n        /* \"#utility.yul\":8803:8805   */\n      0x40\n        /* \"#utility.yul\":8792:8801   */\n      dup4\n        /* \"#utility.yul\":8788:8806   */\n      add\n        /* \"#utility.yul\":8781:8829   */\n      mstore\n        /* \"#utility.yul\":8846:8924   */\n      tag_453\n        /* \"#utility.yul\":8919:8923   */\n      dup2\n        /* \"#utility.yul\":8910:8916   */\n      dup14\n        /* \"#utility.yul\":8846:8924   */\n      tag_315\n      jump\t// in\n    tag_453:\n        /* \"#utility.yul\":8838:8924   */\n      swap1\n      pop\n        /* \"#utility.yul\":8934:9006   */\n      tag_454\n        /* \"#utility.yul\":9002:9004   */\n      0x60\n        /* \"#utility.yul\":8991:9000   */\n      dup4\n        /* \"#utility.yul\":8987:9005   */\n      add\n        /* \"#utility.yul\":8978:8984   */\n      dup13\n        /* \"#utility.yul\":8934:9006   */\n      tag_295\n      jump\t// in\n    tag_454:\n        /* \"#utility.yul\":9016:9089   */\n      tag_455\n        /* \"#utility.yul\":9084:9087   */\n      0x80\n        /* \"#utility.yul\":9073:9082   */\n      dup4\n        /* \"#utility.yul\":9069:9088   */\n      add\n        /* \"#utility.yul\":9060:9066   */\n      dup12\n        /* \"#utility.yul\":9016:9089   */\n      tag_296\n      jump\t// in\n    tag_455:\n        /* \"#utility.yul\":9099:9172   */\n      tag_456\n        /* \"#utility.yul\":9167:9170   */\n      0xa0\n        /* \"#utility.yul\":9156:9165   */\n      dup4\n        /* \"#utility.yul\":9152:9171   */\n      add\n        /* \"#utility.yul\":9143:9149   */\n      dup11\n        /* \"#utility.yul\":9099:9172   */\n      tag_296\n      jump\t// in\n    tag_456:\n        /* \"#utility.yul\":9182:9255   */\n      tag_457\n        /* \"#utility.yul\":9250:9253   */\n      0xc0\n        /* \"#utility.yul\":9239:9248   */\n      dup4\n        /* \"#utility.yul\":9235:9254   */\n      add\n        /* \"#utility.yul\":9226:9232   */\n      dup10\n        /* \"#utility.yul\":9182:9255   */\n      tag_296\n      jump\t// in\n    tag_457:\n        /* \"#utility.yul\":9265:9338   */\n      tag_458\n        /* \"#utility.yul\":9333:9336   */\n      0xe0\n        /* \"#utility.yul\":9322:9331   */\n      dup4\n        /* \"#utility.yul\":9318:9337   */\n      add\n        /* \"#utility.yul\":9309:9315   */\n      dup9\n        /* \"#utility.yul\":9265:9338   */\n      tag_296\n      jump\t// in\n    tag_458:\n        /* \"#utility.yul\":9348:9421   */\n      tag_459\n        /* \"#utility.yul\":9416:9419   */\n      0x0100\n        /* \"#utility.yul\":9405:9414   */\n      dup4\n        /* \"#utility.yul\":9401:9420   */\n      add\n        /* \"#utility.yul\":9392:9398   */\n      dup8\n        /* \"#utility.yul\":9348:9421   */\n      tag_296\n      jump\t// in\n    tag_459:\n        /* \"#utility.yul\":9431:9504   */\n      tag_460\n        /* \"#utility.yul\":9499:9502   */\n      0x0120\n        /* \"#utility.yul\":9488:9497   */\n      dup4\n        /* \"#utility.yul\":9484:9503   */\n      add\n        /* \"#utility.yul\":9475:9481   */\n      dup7\n        /* \"#utility.yul\":9431:9504   */\n      tag_296\n      jump\t// in\n    tag_460:\n        /* \"#utility.yul\":9514:9588   */\n      tag_461\n        /* \"#utility.yul\":9583:9586   */\n      0x0140\n        /* \"#utility.yul\":9572:9581   */\n      dup4\n        /* \"#utility.yul\":9568:9587   */\n      add\n        /* \"#utility.yul\":9558:9565   */\n      dup6\n        /* \"#utility.yul\":9514:9588   */\n      tag_296\n      jump\t// in\n    tag_461:\n        /* \"#utility.yul\":9598:9672   */\n      tag_462\n        /* \"#utility.yul\":9667:9670   */\n      0x0160\n        /* \"#utility.yul\":9656:9665   */\n      dup4\n        /* \"#utility.yul\":9652:9671   */\n      add\n        /* \"#utility.yul\":9642:9649   */\n      dup5\n        /* \"#utility.yul\":9598:9672   */\n      tag_296\n      jump\t// in\n    tag_462:\n        /* \"#utility.yul\":8052:9679   */\n      swap14\n      swap13\n      pop\n      pop\n      pop\n      pop\n      pop\n      pop\n      pop\n      pop\n      pop\n      pop\n      pop\n      pop\n      pop\n      jump\t// out\n        /* \"#utility.yul\":9685:10596   */\n    tag_127:\n        /* \"#utility.yul\":9780:9786   */\n      0x00\n        /* \"#utility.yul\":9788:9794   */\n      dup1\n        /* \"#utility.yul\":9796:9802   */\n      0x00\n        /* \"#utility.yul\":9804:9810   */\n      dup1\n        /* \"#utility.yul\":9812:9818   */\n      0x00\n        /* \"#utility.yul\":9861:9864   */\n      0xa0\n        /* \"#utility.yul\":9849:9858   */\n      dup7\n        /* \"#utility.yul\":9840:9847   */\n      dup9\n        /* \"#utility.yul\":9836:9859   */\n      sub\n        /* \"#utility.yul\":9832:9865   */\n      slt\n        /* \"#utility.yul\":9829:9949   */\n      iszero\n      tag_464\n      jumpi\n        /* \"#utility.yul\":9868:9947   */\n      tag_465\n      tag_298\n      jump\t// in\n    tag_465:\n        /* \"#utility.yul\":9829:9949   */\n    tag_464:\n        /* \"#utility.yul\":9988:9989   */\n      0x00\n        /* \"#utility.yul\":10013:10066   */\n      tag_466\n        /* \"#utility.yul\":10058:10065   */\n      dup9\n        /* \"#utility.yul\":10049:10055   */\n      dup3\n        /* \"#utility.yul\":10038:10047   */\n      dup10\n        /* \"#utility.yul\":10034:10056   */\n      add\n        /* \"#utility.yul\":10013:10066   */\n      tag_310\n      jump\t// in\n    tag_466:\n        /* \"#utility.yul\":10003:10066   */\n      swap6\n      pop\n        /* \"#utility.yul\":9959:10076   */\n      pop\n        /* \"#utility.yul\":10115:10117   */\n      0x20\n        /* \"#utility.yul\":10141:10194   */\n      tag_467\n        /* \"#utility.yul\":10186:10193   */\n      dup9\n        /* \"#utility.yul\":10177:10183   */\n      dup3\n        /* \"#utility.yul\":10166:10175   */\n      dup10\n        /* \"#utility.yul\":10162:10184   */\n      add\n        /* \"#utility.yul\":10141:10194   */\n      tag_310\n      jump\t// in\n    tag_467:\n        /* \"#utility.yul\":10131:10194   */\n      swap5\n      pop\n        /* \"#utility.yul\":10086:10204   */\n      pop\n        /* \"#utility.yul\":10243:10245   */\n      0x40\n        /* \"#utility.yul\":10269:10322   */\n      tag_468\n        /* \"#utility.yul\":10314:10321   */\n      dup9\n        /* \"#utility.yul\":10305:10311   */\n      dup3\n        /* \"#utility.yul\":10294:10303   */\n      dup10\n        /* \"#utility.yul\":10290:10312   */\n      add\n        /* \"#utility.yul\":10269:10322   */\n      tag_310\n      jump\t// in\n    tag_468:\n        /* \"#utility.yul\":10259:10322   */\n      swap4\n      pop\n        /* \"#utility.yul\":10214:10332   */\n      pop\n        /* \"#utility.yul\":10371:10373   */\n      0x60\n        /* \"#utility.yul\":10397:10450   */\n      tag_469\n        /* \"#utility.yul\":10442:10449   */\n      dup9\n        /* \"#utility.yul\":10433:10439   */\n      dup3\n        /* \"#utility.yul\":10422:10431   */\n      dup10\n        /* \"#utility.yul\":10418:10440   */\n      add\n        /* \"#utility.yul\":10397:10450   */\n      tag_308\n      jump\t// in\n    tag_469:\n        /* \"#utility.yul\":10387:10450   */\n      swap3\n      pop\n        /* \"#utility.yul\":10342:10460   */\n      pop\n        /* \"#utility.yul\":10499:10502   */\n      0x80\n        /* \"#utility.yul\":10526:10579   */\n      tag_470\n        /* \"#utility.yul\":10571:10578   */\n      dup9\n        /* \"#utility.yul\":10562:10568   */\n      dup3\n        /* \"#utility.yul\":10551:10560   */\n      dup10\n        /* \"#utility.yul\":10547:10569   */\n      add\n        /* \"#utility.yul\":10526:10579   */\n      tag_308\n      jump\t// in\n    tag_470:\n        /* \"#utility.yul\":10516:10579   */\n      swap2\n      pop\n        /* \"#utility.yul\":10470:10589   */\n      pop\n        /* \"#utility.yul\":9685:10596   */\n      swap3\n      swap6\n      pop\n      swap3\n      swap6\n      swap1\n      swap4\n      pop\n      jump\t// out\n        /* \"#utility.yul\":10602:10688   */\n    tag_316:\n        /* \"#utility.yul\":10637:10644   */\n      0x00\n        /* \"#utility.yul\":10677:10681   */\n      0xff\n        /* \"#utility.yul\":10670:10675   */\n      dup3\n        /* \"#utility.yul\":10666:10682   */\n      and\n        /* \"#utility.yul\":10655:10682   */\n      swap1\n      pop\n        /* \"#utility.yul\":10602:10688   */\n      swap2\n      swap1\n      pop\n      jump\t// out\n        /* \"#utility.yul\":10694:10812   */\n    tag_317:\n        /* \"#utility.yul\":10765:10787   */\n      tag_473\n        /* \"#utility.yul\":10781:10786   */\n      dup2\n        /* \"#utility.yul\":10765:10787   */\n      tag_316\n      jump\t// in\n    tag_473:\n        /* \"#utility.yul\":10758:10763   */\n      dup2\n        /* \"#utility.yul\":10755:10788   */\n      eq\n        /* \"#utility.yul\":10745:10806   */\n      tag_474\n      jumpi\n        /* \"#utility.yul\":10802:10803   */\n      0x00\n        /* \"#utility.yul\":10799:10800   */\n      dup1\n        /* \"#utility.yul\":10792:10804   */\n      revert\n        /* \"#utility.yul\":10745:10806   */\n    tag_474:\n        /* \"#utility.yul\":10694:10812   */\n      pop\n      jump\t// out\n        /* \"#utility.yul\":10818:10957   */\n    tag_318:\n        /* \"#utility.yul\":10873:10878   */\n      0x00\n        /* \"#utility.yul\":10904:10910   */\n      dup2\n        /* \"#utility.yul\":10898:10911   */\n      mload\n        /* \"#utility.yul\":10889:10911   */\n      swap1\n      pop\n        /* \"#utility.yul\":10920:10951   */\n      tag_476\n        /* \"#utility.yul\":10945:10950   */\n      dup2\n        /* \"#utility.yul\":10920:10951   */\n      tag_317\n      jump\t// in\n    tag_476:\n        /* \"#utility.yul\":10818:10957   */\n      swap3\n      swap2\n      pop\n      pop\n      jump\t// out\n        /* \"#utility.yul\":10963:11310   */\n    tag_170:\n        /* \"#utility.yul\":11031:11037   */\n      0x00\n        /* \"#utility.yul\":11080:11082   */\n      0x20\n        /* \"#utility.yul\":11068:11077   */\n      dup3\n        /* \"#utility.yul\":11059:11066   */\n      dup5\n        /* \"#utility.yul\":11055:11078   */\n      sub\n        /* \"#utility.yul\":11051:11083   */\n      slt\n        /* \"#utility.yul\":11048:11167   */\n      iszero\n      tag_478\n      jumpi\n        /* \"#utility.yul\":11086:11165   */\n      tag_479\n      tag_298\n      jump\t// in\n    tag_479:\n        /* \"#utility.yul\":11048:11167   */\n    tag_478:\n        /* \"#utility.yul\":11206:11207   */\n      0x00\n        /* \"#utility.yul\":11231:11293   */\n      tag_480\n        /* \"#utility.yul\":11285:11292   */\n      dup5\n        /* \"#utility.yul\":11276:11282   */\n      dup3\n        /* \"#utility.yul\":11265:11274   */\n      dup6\n        /* \"#utility.yul\":11261:11283   */\n      add\n        /* \"#utility.yul\":11231:11293   */\n      tag_318\n      jump\t// in\n    tag_480:\n        /* \"#utility.yul\":11221:11293   */\n      swap2\n      pop\n        /* \"#utility.yul\":11177:11303   */\n      pop\n        /* \"#utility.yul\":10963:11310   */\n      swap3\n      swap2\n      pop\n      pop\n      jump\t// out\n        /* \"#utility.yul\":11316:11459   */\n    tag_319:\n        /* \"#utility.yul\":11373:11378   */\n      0x00\n        /* \"#utility.yul\":11404:11410   */\n      dup2\n        /* \"#utility.yul\":11398:11411   */\n      mload\n        /* \"#utility.yul\":11389:11411   */\n      swap1\n      pop\n        /* \"#utility.yul\":11420:11453   */\n      tag_482\n        /* \"#utility.yul\":11447:11452   */\n      dup2\n        /* \"#utility.yul\":11420:11453   */\n      tag_309\n      jump\t// in\n    tag_482:\n        /* \"#utility.yul\":11316:11459   */\n      swap3\n      swap2\n      pop\n      pop\n      jump\t// out\n        /* \"#utility.yul\":11465:11816   */\n    tag_175:\n        /* \"#utility.yul\":11535:11541   */\n      0x00\n        /* \"#utility.yul\":11584:11586   */\n      0x20\n        /* \"#utility.yul\":11572:11581   */\n      dup3\n        /* \"#utility.yul\":11563:11570   */\n      dup5\n        /* \"#utility.yul\":11559:11582   */\n      sub\n        /* \"#utility.yul\":11555:11587   */\n      slt\n        /* \"#utility.yul\":11552:11671   */\n      iszero\n      tag_484\n      jumpi\n        /* \"#utility.yul\":11590:11669   */\n      tag_485\n      tag_298\n      jump\t// in\n    tag_485:\n        /* \"#utility.yul\":11552:11671   */\n    tag_484:\n        /* \"#utility.yul\":11710:11711   */\n      0x00\n        /* \"#utility.yul\":11735:11799   */\n      tag_486\n        /* \"#utility.yul\":11791:11798   */\n      dup5\n        /* \"#utility.yul\":11782:11788   */\n      dup3\n        /* \"#utility.yul\":11771:11780   */\n      dup6\n        /* \"#utility.yul\":11767:11789   */\n      add\n        /* \"#utility.yul\":11735:11799   */\n      tag_319\n      jump\t// in\n    tag_486:\n        /* \"#utility.yul\":11725:11799   */\n      swap2\n      pop\n        /* \"#utility.yul\":11681:11809   */\n      pop\n        /* \"#utility.yul\":11465:11816   */\n      swap3\n      swap2\n      pop\n      pop\n      jump\t// out\n        /* \"#utility.yul\":11822:11924   */\n    tag_320:\n        /* \"#utility.yul\":11864:11872   */\n      0x00\n        /* \"#utility.yul\":11911:11916   */\n      dup2\n        /* \"#utility.yul\":11908:11909   */\n      0x01\n        /* \"#utility.yul\":11904:11917   */\n      shr\n        /* \"#utility.yul\":11883:11917   */\n      swap1\n      pop\n        /* \"#utility.yul\":11822:11924   */\n      swap2\n      swap1\n      pop\n      jump\t// out\n        /* \"#utility.yul\":11930:12778   */\n    tag_321:\n        /* \"#utility.yul\":11991:11996   */\n      0x00\n        /* \"#utility.yul\":11998:12002   */\n      dup1\n        /* \"#utility.yul\":12022:12028   */\n      dup3\n        /* \"#utility.yul\":12013:12028   */\n      swap2\n      pop\n        /* \"#utility.yul\":12046:12051   */\n      dup4\n        /* \"#utility.yul\":12037:12051   */\n      swap1\n      pop\n        /* \"#utility.yul\":12060:12772   */\n    tag_489:\n        /* \"#utility.yul\":12081:12082   */\n      0x01\n        /* \"#utility.yul\":12071:12079   */\n      dup6\n        /* \"#utility.yul\":12068:12083   */\n      gt\n        /* \"#utility.yul\":12060:12772   */\n      iszero\n      tag_491\n      jumpi\n        /* \"#utility.yul\":12176:12180   */\n      dup1\n        /* \"#utility.yul\":12171:12174   */\n      dup7\n        /* \"#utility.yul\":12167:12181   */\n      div\n        /* \"#utility.yul\":12161:12165   */\n      dup2\n        /* \"#utility.yul\":12158:12182   */\n      gt\n        /* \"#utility.yul\":12155:12205   */\n      iszero\n      tag_492\n      jumpi\n        /* \"#utility.yul\":12185:12203   */\n      tag_493\n      tag_291\n      jump\t// in\n    tag_493:\n        /* \"#utility.yul\":12155:12205   */\n    tag_492:\n        /* \"#utility.yul\":12235:12236   */\n      0x01\n        /* \"#utility.yul\":12225:12233   */\n      dup6\n        /* \"#utility.yul\":12221:12237   */\n      and\n        /* \"#utility.yul\":12218:12669   */\n      iszero\n      tag_494\n      jumpi\n        /* \"#utility.yul\":12650:12654   */\n      dup1\n        /* \"#utility.yul\":12643:12648   */\n      dup3\n        /* \"#utility.yul\":12639:12655   */\n      mul\n        /* \"#utility.yul\":12630:12655   */\n      swap2\n      pop\n        /* \"#utility.yul\":12218:12669   */\n    tag_494:\n        /* \"#utility.yul\":12700:12704   */\n      dup1\n        /* \"#utility.yul\":12694:12698   */\n      dup2\n        /* \"#utility.yul\":12690:12705   */\n      mul\n        /* \"#utility.yul\":12682:12705   */\n      swap1\n      pop\n        /* \"#utility.yul\":12730:12762   */\n      tag_495\n        /* \"#utility.yul\":12753:12761   */\n      dup6\n        /* \"#utility.yul\":12730:12762   */\n      tag_320\n      jump\t// in\n    tag_495:\n        /* \"#utility.yul\":12718:12762   */\n      swap5\n      pop\n        /* \"#utility.yul\":12060:12772   */\n      jump(tag_489)\n    tag_491:\n        /* \"#utility.yul\":11930:12778   */\n      swap5\n      pop\n      swap5\n      swap3\n      pop\n      pop\n      pop\n      jump\t// out\n        /* \"#utility.yul\":12784:13857   */\n    tag_322:\n        /* \"#utility.yul\":12838:12843   */\n      0x00\n        /* \"#utility.yul\":13029:13037   */\n      dup3\n        /* \"#utility.yul\":13019:13059   */\n      tag_497\n      jumpi\n        /* \"#utility.yul\":13050:13051   */\n      0x01\n        /* \"#utility.yul\":13041:13051   */\n      swap1\n      pop\n        /* \"#utility.yul\":13052:13057   */\n      jump(tag_496)\n        /* \"#utility.yul\":13019:13059   */\n    tag_497:\n        /* \"#utility.yul\":13078:13082   */\n      dup2\n        /* \"#utility.yul\":13068:13104   */\n      tag_498\n      jumpi\n        /* \"#utility.yul\":13095:13096   */\n      0x00\n        /* \"#utility.yul\":13086:13096   */\n      swap1\n      pop\n        /* \"#utility.yul\":13097:13102   */\n      jump(tag_496)\n        /* \"#utility.yul\":13068:13104   */\n    tag_498:\n        /* \"#utility.yul\":13164:13168   */\n      dup2\n        /* \"#utility.yul\":13212:13213   */\n      0x01\n        /* \"#utility.yul\":13207:13234   */\n      dup2\n      eq\n      tag_500\n      jumpi\n        /* \"#utility.yul\":13248:13249   */\n      0x02\n        /* \"#utility.yul\":13243:13434   */\n      dup2\n      eq\n      tag_501\n      jumpi\n        /* \"#utility.yul\":13157:13434   */\n      jump(tag_499)\n        /* \"#utility.yul\":13207:13234   */\n    tag_500:\n        /* \"#utility.yul\":13225:13226   */\n      0x01\n        /* \"#utility.yul\":13216:13226   */\n      swap2\n      pop\n        /* \"#utility.yul\":13227:13232   */\n      pop\n      jump(tag_496)\n        /* \"#utility.yul\":13243:13434   */\n    tag_501:\n        /* \"#utility.yul\":13288:13291   */\n      0xff\n        /* \"#utility.yul\":13278:13286   */\n      dup5\n        /* \"#utility.yul\":13275:13292   */\n      gt\n        /* \"#utility.yul\":13272:13315   */\n      iszero\n      tag_502\n      jumpi\n        /* \"#utility.yul\":13295:13313   */\n      tag_503\n      tag_291\n      jump\t// in\n    tag_503:\n        /* \"#utility.yul\":13272:13315   */\n    tag_502:\n        /* \"#utility.yul\":13344:13352   */\n      dup4\n        /* \"#utility.yul\":13341:13342   */\n      0x02\n        /* \"#utility.yul\":13337:13353   */\n      exp\n        /* \"#utility.yul\":13328:13353   */\n      swap2\n      pop\n        /* \"#utility.yul\":13379:13382   */\n      dup5\n        /* \"#utility.yul\":13372:13377   */\n      dup3\n        /* \"#utility.yul\":13369:13383   */\n      gt\n        /* \"#utility.yul\":13366:13406   */\n      iszero\n      tag_504\n      jumpi\n        /* \"#utility.yul\":13386:13404   */\n      tag_505\n      tag_291\n      jump\t// in\n    tag_505:\n        /* \"#utility.yul\":13366:13406   */\n    tag_504:\n        /* \"#utility.yul\":13419:13424   */\n      pop\n      jump(tag_496)\n        /* \"#utility.yul\":13157:13434   */\n    tag_499:\n      pop\n        /* \"#utility.yul\":13543:13545   */\n      0x20\n        /* \"#utility.yul\":13533:13541   */\n      dup4\n        /* \"#utility.yul\":13530:13546   */\n      lt\n        /* \"#utility.yul\":13524:13527   */\n      0x0133\n        /* \"#utility.yul\":13518:13522   */\n      dup4\n        /* \"#utility.yul\":13515:13528   */\n      lt\n        /* \"#utility.yul\":13511:13547   */\n      and\n        /* \"#utility.yul\":13493:13495   */\n      0x4e\n        /* \"#utility.yul\":13483:13491   */\n      dup5\n        /* \"#utility.yul\":13480:13496   */\n      lt\n        /* \"#utility.yul\":13475:13477   */\n      0x0b\n        /* \"#utility.yul\":13469:13473   */\n      dup5\n        /* \"#utility.yul\":13466:13478   */\n      lt\n        /* \"#utility.yul\":13462:13497   */\n      and\n        /* \"#utility.yul\":13446:13557   */\n      or\n        /* \"#utility.yul\":13443:13689   */\n      iszero\n      tag_506\n      jumpi\n        /* \"#utility.yul\":13599:13607   */\n      dup3\n        /* \"#utility.yul\":13593:13597   */\n      dup3\n        /* \"#utility.yul\":13589:13608   */\n      exp\n        /* \"#utility.yul\":13580:13608   */\n      swap1\n      pop\n        /* \"#utility.yul\":13634:13637   */\n      dup4\n        /* \"#utility.yul\":13627:13632   */\n      dup2\n        /* \"#utility.yul\":13624:13638   */\n      gt\n        /* \"#utility.yul\":13621:13661   */\n      iszero\n      tag_507\n      jumpi\n        /* \"#utility.yul\":13641:13659   */\n      tag_508\n      tag_291\n      jump\t// in\n    tag_508:\n        /* \"#utility.yul\":13621:13661   */\n    tag_507:\n        /* \"#utility.yul\":13674:13679   */\n      jump(tag_496)\n        /* \"#utility.yul\":13443:13689   */\n    tag_506:\n        /* \"#utility.yul\":13714:13756   */\n      tag_509\n        /* \"#utility.yul\":13752:13755   */\n      dup5\n        /* \"#utility.yul\":13742:13750   */\n      dup5\n        /* \"#utility.yul\":13736:13740   */\n      dup5\n        /* \"#utility.yul\":13733:13734   */\n      0x01\n        /* \"#utility.yul\":13714:13756   */\n      tag_321\n      jump\t// in\n    tag_509:\n        /* \"#utility.yul\":13699:13756   */\n      swap3\n      pop\n      swap1\n      pop\n        /* \"#utility.yul\":13788:13792   */\n      dup2\n        /* \"#utility.yul\":13783:13786   */\n      dup5\n        /* \"#utility.yul\":13779:13793   */\n      div\n        /* \"#utility.yul\":13772:13777   */\n      dup2\n        /* \"#utility.yul\":13769:13794   */\n      gt\n        /* \"#utility.yul\":13766:13817   */\n      iszero\n      tag_510\n      jumpi\n        /* \"#utility.yul\":13797:13815   */\n      tag_511\n      tag_291\n      jump\t// in\n    tag_511:\n        /* \"#utility.yul\":13766:13817   */\n    tag_510:\n        /* \"#utility.yul\":13846:13850   */\n      dup2\n        /* \"#utility.yul\":13839:13844   */\n      dup2\n        /* \"#utility.yul\":13835:13851   */\n      mul\n        /* \"#utility.yul\":13826:13851   */\n      swap1\n      pop\n        /* \"#utility.yul\":12784:13857   */\n    tag_496:\n      swap4\n      swap3\n      pop\n      pop\n      pop\n      jump\t// out\n        /* \"#utility.yul\":13863:14144   */\n    tag_181:\n        /* \"#utility.yul\":13921:13926   */\n      0x00\n        /* \"#utility.yul\":13945:13968   */\n      tag_513\n        /* \"#utility.yul\":13963:13967   */\n      dup3\n        /* \"#utility.yul\":13945:13968   */\n      tag_290\n      jump\t// in\n    tag_513:\n        /* \"#utility.yul\":13937:13968   */\n      swap2\n      pop\n        /* \"#utility.yul\":13989:14014   */\n      tag_514\n        /* \"#utility.yul\":14005:14013   */\n      dup4\n        /* \"#utility.yul\":13989:14014   */\n      tag_316\n      jump\t// in\n    tag_514:\n        /* \"#utility.yul\":13977:14014   */\n      swap3\n      pop\n        /* \"#utility.yul\":14033:14137   */\n      tag_515\n        /* \"#utility.yul\":14070:14136   */\n      0xffffffffffffffffffffffffffffffffffffffffffffffffffffffffffffffff\n        /* \"#utility.yul\":14060:14068   */\n      dup5\n        /* \"#utility.yul\":14054:14058   */\n      dup5\n        /* \"#utility.yul\":14033:14137   */\n      tag_322\n      jump\t// in\n    tag_515:\n        /* \"#utility.yul\":14024:14137   */\n      swap1\n      pop\n        /* \"#utility.yul\":13863:14144   */\n      swap3\n      swap2\n      pop\n      pop\n      jump\t// out\n        /* \"#utility.yul\":14150:14376   */\n    tag_323:\n        /* \"#utility.yul\":14290:14324   */\n      0x546869732044455820646f6573206e6f7420737570706f72742074686f736520\n        /* \"#utility.yul\":14286:14287   */\n      0x00\n        /* \"#utility.yul\":14278:14284   */\n      dup3\n        /* \"#utility.yul\":14274:14288   */\n      add\n        /* \"#utility.yul\":14267:14325   */\n      mstore\n        /* \"#utility.yul\":14359:14368   */\n      0x746f6b656e732e00000000000000000000000000000000000000000000000000\n        /* \"#utility.yul\":14354:14356   */\n      0x20\n        /* \"#utility.yul\":14346:14352   */\n      dup3\n        /* \"#utility.yul\":14342:14357   */\n      add\n        /* \"#utility.yul\":14335:14369   */\n      mstore\n        /* \"#utility.yul\":14150:14376   */\n      pop\n      jump\t// out\n        /* \"#utility.yul\":14382:14748   */\n    tag_324:\n        /* \"#utility.yul\":14524:14527   */\n      0x00\n        /* \"#utility.yul\":14545:14612   */\n      tag_518\n        /* \"#utility.yul\":14609:14611   */\n      0x27\n        /* \"#utility.yul\":14604:14607   */\n      dup4\n        /* \"#utility.yul\":14545:14612   */\n      tag_312\n      jump\t// in\n    tag_518:\n        /* \"#utility.yul\":14538:14612   */\n      swap2\n      pop\n        /* \"#utility.yul\":14621:14714   */\n      tag_519\n        /* \"#utility.yul\":14710:14713   */\n      dup3\n        /* \"#utility.yul\":14621:14714   */\n      tag_323\n      jump\t// in\n    tag_519:\n        /* \"#utility.yul\":14739:14741   */\n      0x40\n        /* \"#utility.yul\":14734:14737   */\n      dup3\n        /* \"#utility.yul\":14730:14742   */\n      add\n        /* \"#utility.yul\":14723:14742   */\n      swap1\n      pop\n        /* \"#utility.yul\":14382:14748   */\n      swap2\n      swap1\n      pop\n      jump\t// out\n        /* \"#utility.yul\":14754:15173   */\n    tag_190:\n        /* \"#utility.yul\":14920:14924   */\n      0x00\n        /* \"#utility.yul\":14958:14960   */\n      0x20\n        /* \"#utility.yul\":14947:14956   */\n      dup3\n        /* \"#utility.yul\":14943:14961   */\n      add\n        /* \"#utility.yul\":14935:14961   */\n      swap1\n      pop\n        /* \"#utility.yul\":15007:15016   */\n      dup2\n        /* \"#utility.yul\":15001:15005   */\n      dup2\n        /* \"#utility.yul\":14997:15017   */\n      sub\n        /* \"#utility.yul\":14993:14994   */\n      0x00\n        /* \"#utility.yul\":14982:14991   */\n      dup4\n        /* \"#utility.yul\":14978:14995   */\n      add\n        /* \"#utility.yul\":14971:15018   */\n      mstore\n        /* \"#utility.yul\":15035:15166   */\n      tag_521\n        /* \"#utility.yul\":15161:15165   */\n      dup2\n        /* \"#utility.yul\":15035:15166   */\n      tag_324\n      jump\t// in\n    tag_521:\n        /* \"#utility.yul\":15027:15166   */\n      swap1\n      pop\n        /* \"#utility.yul\":14754:15173   */\n      swap2\n      swap1\n      pop\n      jump\t// out\n        /* \"#utility.yul\":15179:15326   */\n    tag_325:\n        /* \"#utility.yul\":15280:15291   */\n      0x00\n        /* \"#utility.yul\":15317:15320   */\n      dup2\n        /* \"#utility.yul\":15302:15320   */\n      swap1\n      pop\n        /* \"#utility.yul\":15179:15326   */\n      swap3\n      swap2\n      pop\n      pop\n      jump\t// out\n        /* \"#utility.yul\":15332:15446   */\n    tag_326:\n      pop\n      jump\t// out\n        /* \"#utility.yul\":15452:15850   */\n    tag_327:\n        /* \"#utility.yul\":15611:15614   */\n      0x00\n        /* \"#utility.yul\":15632:15715   */\n      tag_525\n        /* \"#utility.yul\":15713:15714   */\n      0x00\n        /* \"#utility.yul\":15708:15711   */\n      dup4\n        /* \"#utility.yul\":15632:15715   */\n      tag_325\n      jump\t// in\n    tag_525:\n        /* \"#utility.yul\":15625:15715   */\n      swap2\n      pop\n        /* \"#utility.yul\":15724:15817   */\n      tag_526\n        /* \"#utility.yul\":15813:15816   */\n      dup3\n        /* \"#utility.yul\":15724:15817   */\n      tag_326\n      jump\t// in\n    tag_526:\n        /* \"#utility.yul\":15842:15843   */\n      0x00\n        /* \"#utility.yul\":15837:15840   */\n      dup3\n        /* \"#utility.yul\":15833:15844   */\n      add\n        /* \"#utility.yul\":15826:15844   */\n      swap1\n      pop\n        /* \"#utility.yul\":15452:15850   */\n      swap2\n      swap1\n      pop\n      jump\t// out\n        /* \"#utility.yul\":15856:16235   */\n    tag_198:\n        /* \"#utility.yul\":16040:16043   */\n      0x00\n        /* \"#utility.yul\":16062:16209   */\n      tag_528\n        /* \"#utility.yul\":16205:16208   */\n      dup3\n        /* \"#utility.yul\":16062:16209   */\n      tag_327\n      jump\t// in\n    tag_528:\n        /* \"#utility.yul\":16055:16209   */\n      swap2\n      pop\n        /* \"#utility.yul\":16226:16229   */\n      dup2\n        /* \"#utility.yul\":16219:16229   */\n      swap1\n      pop\n        /* \"#utility.yul\":15856:16235   */\n      swap2\n      swap1\n      pop\n      jump\t// out\n        /* \"#utility.yul\":16241:16410   */\n    tag_328:\n        /* \"#utility.yul\":16381:16402   */\n      0x7061796d656e74206469646e277420776f726b00000000000000000000000000\n        /* \"#utility.yul\":16377:16378   */\n      0x00\n        /* \"#utility.yul\":16369:16375   */\n      dup3\n        /* \"#utility.yul\":16365:16379   */\n      add\n        /* \"#utility.yul\":16358:16403   */\n      mstore\n        /* \"#utility.yul\":16241:16410   */\n      pop\n      jump\t// out\n        /* \"#utility.yul\":16416:16782   */\n    tag_329:\n        /* \"#utility.yul\":16558:16561   */\n      0x00\n        /* \"#utility.yul\":16579:16646   */\n      tag_531\n        /* \"#utility.yul\":16643:16645   */\n      0x13\n        /* \"#utility.yul\":16638:16641   */\n      dup4\n        /* \"#utility.yul\":16579:16646   */\n      tag_312\n      jump\t// in\n    tag_531:\n        /* \"#utility.yul\":16572:16646   */\n      swap2\n      pop\n        /* \"#utility.yul\":16655:16748   */\n      tag_532\n        /* \"#utility.yul\":16744:16747   */\n      dup3\n        /* \"#utility.yul\":16655:16748   */\n      tag_328\n      jump\t// in\n    tag_532:\n        /* \"#utility.yul\":16773:16775   */\n      0x20\n        /* \"#utility.yul\":16768:16771   */\n      dup3\n        /* \"#utility.yul\":16764:16776   */\n      add\n        /* \"#utility.yul\":16757:16776   */\n      swap1\n      pop\n        /* \"#utility.yul\":16416:16782   */\n      swap2\n      swap1\n      pop\n      jump\t// out\n        /* \"#utility.yul\":16788:17207   */\n    tag_204:\n        /* \"#utility.yul\":16954:16958   */\n      0x00\n        /* \"#utility.yul\":16992:16994   */\n      0x20\n        /* \"#utility.yul\":16981:16990   */\n      dup3\n        /* \"#utility.yul\":16977:16995   */\n      add\n        /* \"#utility.yul\":16969:16995   */\n      swap1\n      pop\n        /* \"#utility.yul\":17041:17050   */\n      dup2\n        /* \"#utility.yul\":17035:17039   */\n      dup2\n        /* \"#utility.yul\":17031:17051   */\n      sub\n        /* \"#utility.yul\":17027:17028   */\n      0x00\n        /* \"#utility.yul\":17016:17025   */\n      dup4\n        /* \"#utility.yul\":17012:17029   */\n      add\n        /* \"#utility.yul\":17005:17052   */\n      mstore\n        /* \"#utility.yul\":17069:17200   */\n      tag_534\n        /* \"#utility.yul\":17195:17199   */\n      dup2\n        /* \"#utility.yul\":17069:17200   */\n      tag_329\n      jump\t// in\n    tag_534:\n        /* \"#utility.yul\":17061:17200   */\n      swap1\n      pop\n        /* \"#utility.yul\":16788:17207   */\n      swap2\n      swap1\n      pop\n      jump\t// out\n        /* \"#utility.yul\":17213:17330   */\n    tag_330:\n        /* \"#utility.yul\":17322:17323   */\n      0x00\n        /* \"#utility.yul\":17319:17320   */\n      dup1\n        /* \"#utility.yul\":17312:17324   */\n      revert\n        /* \"#utility.yul\":17336:17453   */\n    tag_331:\n        /* \"#utility.yul\":17445:17446   */\n      0x00\n        /* \"#utility.yul\":17442:17443   */\n      dup1\n        /* \"#utility.yul\":17435:17447   */\n      revert\n        /* \"#utility.yul\":17459:17639   */\n    tag_332:\n        /* \"#utility.yul\":17507:17584   */\n      0x4e487b7100000000000000000000000000000000000000000000000000000000\n        /* \"#utility.yul\":17504:17505   */\n      0x00\n        /* \"#utility.yul\":17497:17585   */\n      mstore\n        /* \"#utility.yul\":17604:17608   */\n      0x41\n        /* \"#utility.yul\":17601:17602   */\n      0x04\n        /* \"#utility.yul\":17594:17609   */\n      mstore\n        /* \"#utility.yul\":17628:17632   */\n      0x24\n        /* \"#utility.yul\":17625:17626   */\n      0x00\n        /* \"#utility.yul\":17618:17633   */\n      revert\n        /* \"#utility.yul\":17645:17926   */\n    tag_333:\n        /* \"#utility.yul\":17728:17755   */\n      tag_539\n        /* \"#utility.yul\":17750:17754   */\n      dup3\n        /* \"#utility.yul\":17728:17755   */\n      tag_314\n      jump\t// in\n    tag_539:\n        /* \"#utility.yul\":17720:17726   */\n      dup2\n        /* \"#utility.yul\":17716:17756   */\n      add\n        /* \"#utility.yul\":17858:17864   */\n      dup2\n        /* \"#utility.yul\":17846:17856   */\n      dup2\n        /* \"#utility.yul\":17843:17865   */\n      lt\n        /* \"#utility.yul\":17822:17840   */\n      0xffffffffffffffff\n        /* \"#utility.yul\":17810:17820   */\n      dup3\n        /* \"#utility.yul\":17807:17841   */\n      gt\n        /* \"#utility.yul\":17804:17866   */\n      or\n        /* \"#utility.yul\":17801:17889   */\n      iszero\n      tag_540\n      jumpi\n        /* \"#utility.yul\":17869:17887   */\n      tag_541\n      tag_332\n      jump\t// in\n    tag_541:\n        /* \"#utility.yul\":17801:17889   */\n    tag_540:\n        /* \"#utility.yul\":17909:17919   */\n      dup1\n        /* \"#utility.yul\":17905:17907   */\n      0x40\n        /* \"#utility.yul\":17898:17920   */\n      mstore\n        /* \"#utility.yul\":17688:17926   */\n      pop\n        /* \"#utility.yul\":17645:17926   */\n      pop\n      pop\n      jump\t// out\n        /* \"#utility.yul\":17932:18061   */\n    tag_334:\n        /* \"#utility.yul\":17966:17972   */\n      0x00\n        /* \"#utility.yul\":17993:18013   */\n      tag_543\n      tag_297\n      jump\t// in\n    tag_543:\n        /* \"#utility.yul\":17983:18013   */\n      swap1\n      pop\n        /* \"#utility.yul\":18022:18055   */\n      tag_544\n        /* \"#utility.yul\":18050:18054   */\n      dup3\n        /* \"#utility.yul\":18042:18048   */\n      dup3\n        /* \"#utility.yul\":18022:18055   */\n      tag_333\n      jump\t// in\n    tag_544:\n        /* \"#utility.yul\":17932:18061   */\n      swap2\n      swap1\n      pop\n      jump\t// out\n        /* \"#utility.yul\":18067:18375   */\n    tag_335:\n        /* \"#utility.yul\":18129:18133   */\n      0x00\n        /* \"#utility.yul\":18219:18237   */\n      0xffffffffffffffff\n        /* \"#utility.yul\":18211:18217   */\n      dup3\n        /* \"#utility.yul\":18208:18238   */\n      gt\n        /* \"#utility.yul\":18205:18261   */\n      iszero\n      tag_546\n      jumpi\n        /* \"#utility.yul\":18241:18259   */\n      tag_547\n      tag_332\n      jump\t// in\n    tag_547:\n        /* \"#utility.yul\":18205:18261   */\n    tag_546:\n        /* \"#utility.yul\":18279:18308   */\n      tag_548\n        /* \"#utility.yul\":18301:18307   */\n      dup3\n        /* \"#utility.yul\":18279:18308   */\n      tag_314\n      jump\t// in\n    tag_548:\n        /* \"#utility.yul\":18271:18308   */\n      swap1\n      pop\n        /* \"#utility.yul\":18363:18367   */\n      0x20\n        /* \"#utility.yul\":18357:18361   */\n      dup2\n        /* \"#utility.yul\":18353:18368   */\n      add\n        /* \"#utility.yul\":18345:18368   */\n      swap1\n      pop\n        /* \"#utility.yul\":18067:18375   */\n      swap2\n      swap1\n      pop\n      jump\t// out\n        /* \"#utility.yul\":18381:18815   */\n    tag_336:\n        /* \"#utility.yul\":18470:18475   */\n      0x00\n        /* \"#utility.yul\":18495:18561   */\n      tag_550\n        /* \"#utility.yul\":18511:18560   */\n      tag_551\n        /* \"#utility.yul\":18553:18559   */\n      dup5\n        /* \"#utility.yul\":18511:18560   */\n      tag_335\n      jump\t// in\n    tag_551:\n        /* \"#utility.yul\":18495:18561   */\n      tag_334\n      jump\t// in\n    tag_550:\n        /* \"#utility.yul\":18486:18561   */\n      swap1\n      pop\n        /* \"#utility.yul\":18584:18590   */\n      dup3\n        /* \"#utility.yul\":18577:18582   */\n      dup2\n        /* \"#utility.yul\":18570:18591   */\n      mstore\n        /* \"#utility.yul\":18622:18626   */\n      0x20\n        /* \"#utility.yul\":18615:18620   */\n      dup2\n        /* \"#utility.yul\":18611:18627   */\n      add\n        /* \"#utility.yul\":18660:18663   */\n      dup5\n        /* \"#utility.yul\":18651:18657   */\n      dup5\n        /* \"#utility.yul\":18646:18649   */\n      dup5\n        /* \"#utility.yul\":18642:18658   */\n      add\n        /* \"#utility.yul\":18639:18664   */\n      gt\n        /* \"#utility.yul\":18636:18748   */\n      iszero\n      tag_552\n      jumpi\n        /* \"#utility.yul\":18667:18746   */\n      tag_553\n      tag_331\n      jump\t// in\n    tag_553:\n        /* \"#utility.yul\":18636:18748   */\n    tag_552:\n        /* \"#utility.yul\":18757:18809   */\n      tag_554\n        /* \"#utility.yul\":18802:18808   */\n      dup5\n        /* \"#utility.yul\":18797:18800   */\n      dup3\n        /* \"#utility.yul\":18792:18795   */\n      dup6\n        /* \"#utility.yul\":18757:18809   */\n      tag_313\n      jump\t// in\n    tag_554:\n        /* \"#utility.yul\":18476:18815   */\n      pop\n        /* \"#utility.yul\":18381:18815   */\n      swap4\n      swap3\n      pop\n      pop\n      pop\n      jump\t// out\n        /* \"#utility.yul\":18835:19190   */\n    tag_337:\n        /* \"#utility.yul\":18902:18907   */\n      0x00\n        /* \"#utility.yul\":18951:18954   */\n      dup3\n        /* \"#utility.yul\":18944:18948   */\n      0x1f\n        /* \"#utility.yul\":18936:18942   */\n      dup4\n        /* \"#utility.yul\":18932:18949   */\n      add\n        /* \"#utility.yul\":18928:18955   */\n      slt\n        /* \"#utility.yul\":18918:19040   */\n      tag_556\n      jumpi\n        /* \"#utility.yul\":18959:19038   */\n      tag_557\n      tag_330\n      jump\t// in\n    tag_557:\n        /* \"#utility.yul\":18918:19040   */\n    tag_556:\n        /* \"#utility.yul\":19069:19075   */\n      dup2\n        /* \"#utility.yul\":19063:19076   */\n      mload\n        /* \"#utility.yul\":19094:19184   */\n      tag_558\n        /* \"#utility.yul\":19180:19183   */\n      dup5\n        /* \"#utility.yul\":19172:19178   */\n      dup3\n        /* \"#utility.yul\":19165:19169   */\n      0x20\n        /* \"#utility.yul\":19157:19163   */\n      dup7\n        /* \"#utility.yul\":19153:19170   */\n      add\n        /* \"#utility.yul\":19094:19184   */\n      tag_336\n      jump\t// in\n    tag_558:\n        /* \"#utility.yul\":19085:19184   */\n      swap2\n      pop\n        /* \"#utility.yul\":18908:19190   */\n      pop\n        /* \"#utility.yul\":18835:19190   */\n      swap3\n      swap2\n      pop\n      pop\n      jump\t// out\n        /* \"#utility.yul\":19196:19720   */\n    tag_212:\n        /* \"#utility.yul\":19276:19282   */\n      0x00\n        /* \"#utility.yul\":19325:19327   */\n      0x20\n        /* \"#utility.yul\":19313:19322   */\n      dup3\n        /* \"#utility.yul\":19304:19311   */\n      dup5\n        /* \"#utility.yul\":19300:19323   */\n      sub\n        /* \"#utility.yul\":19296:19328   */\n      slt\n        /* \"#utility.yul\":19293:19412   */\n      iszero\n      tag_560\n      jumpi\n        /* \"#utility.yul\":19331:19410   */\n      tag_561\n      tag_298\n      jump\t// in\n    tag_561:\n        /* \"#utility.yul\":19293:19412   */\n    tag_560:\n        /* \"#utility.yul\":19472:19473   */\n      0x00\n        /* \"#utility.yul\":19461:19470   */\n      dup3\n        /* \"#utility.yul\":19457:19474   */\n      add\n        /* \"#utility.yul\":19451:19475   */\n      mload\n        /* \"#utility.yul\":19502:19520   */\n      0xffffffffffffffff\n        /* \"#utility.yul\":19494:19500   */\n      dup2\n        /* \"#utility.yul\":19491:19521   */\n      gt\n        /* \"#utility.yul\":19488:19605   */\n      iszero\n      tag_562\n      jumpi\n        /* \"#utility.yul\":19524:19603   */\n      tag_563\n      tag_299\n      jump\t// in\n    tag_563:\n        /* \"#utility.yul\":19488:19605   */\n    tag_562:\n        /* \"#utility.yul\":19629:19703   */\n      tag_564\n        /* \"#utility.yul\":19695:19702   */\n      dup5\n        /* \"#utility.yul\":19686:19692   */\n      dup3\n        /* \"#utility.yul\":19675:19684   */\n      dup6\n        /* \"#utility.yul\":19671:19693   */\n      add\n        /* \"#utility.yul\":19629:19703   */\n      tag_337\n      jump\t// in\n    tag_564:\n        /* \"#utility.yul\":19619:19703   */\n      swap2\n      pop\n        /* \"#utility.yul\":19422:19713   */\n      pop\n        /* \"#utility.yul\":19196:19720   */\n      swap3\n      swap2\n      pop\n      pop\n      jump\t// out\n        /* \"#utility.yul\":19726:19960   */\n    tag_338:\n        /* \"#utility.yul\":19866:19900   */\n      0x53656e64657220646f6573206e6f7420686176652074686973206d7563682045\n        /* \"#utility.yul\":19862:19863   */\n      0x00\n        /* \"#utility.yul\":19854:19860   */\n      dup3\n        /* \"#utility.yul\":19850:19864   */\n      add\n        /* \"#utility.yul\":19843:19901   */\n      mstore\n        /* \"#utility.yul\":19935:19952   */\n      0x544820696e2074686520706f6f6c2e0000000000000000000000000000000000\n        /* \"#utility.yul\":19930:19932   */\n      0x20\n        /* \"#utility.yul\":19922:19928   */\n      dup3\n        /* \"#utility.yul\":19918:19933   */\n      add\n        /* \"#utility.yul\":19911:19953   */\n      mstore\n        /* \"#utility.yul\":19726:19960   */\n      pop\n      jump\t// out\n        /* \"#utility.yul\":19966:20332   */\n    tag_339:\n        /* \"#utility.yul\":20108:20111   */\n      0x00\n        /* \"#utility.yul\":20129:20196   */\n      tag_567\n        /* \"#utility.yul\":20193:20195   */\n      0x2f\n        /* \"#utility.yul\":20188:20191   */\n      dup4\n        /* \"#utility.yul\":20129:20196   */\n      tag_312\n      jump\t// in\n    tag_567:\n        /* \"#utility.yul\":20122:20196   */\n      swap2\n      pop\n        /* \"#utility.yul\":20205:20298   */\n      tag_568\n        /* \"#utility.yul\":20294:20297   */\n      dup3\n        /* \"#utility.yul\":20205:20298   */\n      tag_338\n      jump\t// in\n    tag_568:\n        /* \"#utility.yul\":20323:20325   */\n      0x40\n        /* \"#utility.yul\":20318:20321   */\n      dup3\n        /* \"#utility.yul\":20314:20326   */\n      add\n        /* \"#utility.yul\":20307:20326   */\n      swap1\n      pop\n        /* \"#utility.yul\":19966:20332   */\n      swap2\n      swap1\n      pop\n      jump\t// out\n        /* \"#utility.yul\":20338:20757   */\n    tag_216:\n        /* \"#utility.yul\":20504:20508   */\n      0x00\n        /* \"#utility.yul\":20542:20544   */\n      0x20\n        /* \"#utility.yul\":20531:20540   */\n      dup3\n        /* \"#utility.yul\":20527:20545   */\n      add\n        /* \"#utility.yul\":20519:20545   */\n      swap1\n      pop\n        /* \"#utility.yul\":20591:20600   */\n      dup2\n        /* \"#utility.yul\":20585:20589   */\n      dup2\n        /* \"#utility.yul\":20581:20601   */\n      sub\n        /* \"#utility.yul\":20577:20578   */\n      0x00\n        /* \"#utility.yul\":20566:20575   */\n      dup4\n        /* \"#utility.yul\":20562:20579   */\n      add\n        /* \"#utility.yul\":20555:20602   */\n      mstore\n        /* \"#utility.yul\":20619:20750   */\n      tag_570\n        /* \"#utility.yul\":20745:20749   */\n      dup2\n        /* \"#utility.yul\":20619:20750   */\n      tag_339\n      jump\t// in\n    tag_570:\n        /* \"#utility.yul\":20611:20750   */\n      swap1\n      pop\n        /* \"#utility.yul\":20338:20757   */\n      swap2\n      swap1\n      pop\n      jump\t// out\n        /* \"#utility.yul\":20763:20992   */\n    tag_340:\n        /* \"#utility.yul\":20903:20937   */\n      0x41206c697175696469747920706f6f6c2068617320616c726561647920626565\n        /* \"#utility.yul\":20899:20900   */\n      0x00\n        /* \"#utility.yul\":20891:20897   */\n      dup3\n        /* \"#utility.yul\":20887:20901   */\n      add\n        /* \"#utility.yul\":20880:20938   */\n      mstore\n        /* \"#utility.yul\":20972:20984   */\n      0x6e20637265617465642e00000000000000000000000000000000000000000000\n        /* \"#utility.yul\":20967:20969   */\n      0x20\n        /* \"#utility.yul\":20959:20965   */\n      dup3\n        /* \"#utility.yul\":20955:20970   */\n      add\n        /* \"#utility.yul\":20948:20985   */\n      mstore\n        /* \"#utility.yul\":20763:20992   */\n      pop\n      jump\t// out\n        /* \"#utility.yul\":20998:21364   */\n    tag_341:\n        /* \"#utility.yul\":21140:21143   */\n      0x00\n        /* \"#utility.yul\":21161:21228   */\n      tag_573\n        /* \"#utility.yul\":21225:21227   */\n      0x2a\n        /* \"#utility.yul\":21220:21223   */\n      dup4\n        /* \"#utility.yul\":21161:21228   */\n      tag_312\n      jump\t// in\n    tag_573:\n        /* \"#utility.yul\":21154:21228   */\n      swap2\n      pop\n        /* \"#utility.yul\":21237:21330   */\n      tag_574\n        /* \"#utility.yul\":21326:21329   */\n      dup3\n        /* \"#utility.yul\":21237:21330   */\n      tag_340\n      jump\t// in\n    tag_574:\n        /* \"#utility.yul\":21355:21357   */\n      0x40\n        /* \"#utility.yul\":21350:21353   */\n      dup3\n        /* \"#utility.yul\":21346:21358   */\n      add\n        /* \"#utility.yul\":21339:21358   */\n      swap1\n      pop\n        /* \"#utility.yul\":20998:21364   */\n      swap2\n      swap1\n      pop\n      jump\t// out\n        /* \"#utility.yul\":21370:21789   */\n    tag_247:\n        /* \"#utility.yul\":21536:21540   */\n      0x00\n        /* \"#utility.yul\":21574:21576   */\n      0x20\n        /* \"#utility.yul\":21563:21572   */\n      dup3\n        /* \"#utility.yul\":21559:21577   */\n      add\n        /* \"#utility.yul\":21551:21577   */\n      swap1\n      pop\n        /* \"#utility.yul\":21623:21632   */\n      dup2\n        /* \"#utility.yul\":21617:21621   */\n      dup2\n        /* \"#utility.yul\":21613:21633   */\n      sub\n        /* \"#utility.yul\":21609:21610   */\n      0x00\n        /* \"#utility.yul\":21598:21607   */\n      dup4\n        /* \"#utility.yul\":21594:21611   */\n      add\n        /* \"#utility.yul\":21587:21634   */\n      mstore\n        /* \"#utility.yul\":21651:21782   */\n      tag_576\n        /* \"#utility.yul\":21777:21781   */\n      dup2\n        /* \"#utility.yul\":21651:21782   */\n      tag_341\n      jump\t// in\n    tag_576:\n        /* \"#utility.yul\":21643:21782   */\n      swap1\n      pop\n        /* \"#utility.yul\":21370:21789   */\n      swap2\n      swap1\n      pop\n      jump\t// out\n        /* \"#utility.yul\":21795:22034   */\n    tag_342:\n        /* \"#utility.yul\":21935:21969   */\n      0x4f6e6c7920746865206465706c6f796572206f662074686520636f6e74726163\n        /* \"#utility.yul\":21931:21932   */\n      0x00\n        /* \"#utility.yul\":21923:21929   */\n      dup3\n        /* \"#utility.yul\":21919:21933   */\n      add\n        /* \"#utility.yul\":21912:21970   */\n      mstore\n        /* \"#utility.yul\":22004:22026   */\n      0x742063616e20637265617465206120706f6f6c2e000000000000000000000000\n        /* \"#utility.yul\":21999:22001   */\n      0x20\n        /* \"#utility.yul\":21991:21997   */\n      dup3\n        /* \"#utility.yul\":21987:22002   */\n      add\n        /* \"#utility.yul\":21980:22027   */\n      mstore\n        /* \"#utility.yul\":21795:22034   */\n      pop\n      jump\t// out\n        /* \"#utility.yul\":22040:22406   */\n    tag_343:\n        /* \"#utility.yul\":22182:22185   */\n      0x00\n        /* \"#utility.yul\":22203:22270   */\n      tag_579\n        /* \"#utility.yul\":22267:22269   */\n      0x34\n        /* \"#utility.yul\":22262:22265   */\n      dup4\n        /* \"#utility.yul\":22203:22270   */\n      tag_312\n      jump\t// in\n    tag_579:\n        /* \"#utility.yul\":22196:22270   */\n      swap2\n      pop\n        /* \"#utility.yul\":22279:22372   */\n      tag_580\n        /* \"#utility.yul\":22368:22371   */\n      dup3\n        /* \"#utility.yul\":22279:22372   */\n      tag_342\n      jump\t// in\n    tag_580:\n        /* \"#utility.yul\":22397:22399   */\n      0x40\n        /* \"#utility.yul\":22392:22395   */\n      dup3\n        /* \"#utility.yul\":22388:22400   */\n      add\n        /* \"#utility.yul\":22381:22400   */\n      swap1\n      pop\n        /* \"#utility.yul\":22040:22406   */\n      swap2\n      swap1\n      pop\n      jump\t// out\n        /* \"#utility.yul\":22412:22831   */\n    tag_250:\n        /* \"#utility.yul\":22578:22582   */\n      0x00\n        /* \"#utility.yul\":22616:22618   */\n      0x20\n        /* \"#utility.yul\":22605:22614   */\n      dup3\n        /* \"#utility.yul\":22601:22619   */\n      add\n        /* \"#utility.yul\":22593:22619   */\n      swap1\n      pop\n        /* \"#utility.yul\":22665:22674   */\n      dup2\n        /* \"#utility.yul\":22659:22663   */\n      dup2\n        /* \"#utility.yul\":22655:22675   */\n      sub\n        /* \"#utility.yul\":22651:22652   */\n      0x00\n        /* \"#utility.yul\":22640:22649   */\n      dup4\n        /* \"#utility.yul\":22636:22653   */\n      add\n        /* \"#utility.yul\":22629:22676   */\n      mstore\n        /* \"#utility.yul\":22693:22824   */\n      tag_582\n        /* \"#utility.yul\":22819:22823   */\n      dup2\n        /* \"#utility.yul\":22693:22824   */\n      tag_343\n      jump\t// in\n    tag_582:\n        /* \"#utility.yul\":22685:22824   */\n      swap1\n      pop\n        /* \"#utility.yul\":22412:22831   */\n      swap2\n      swap1\n      pop\n      jump\t// out\n        /* \"#utility.yul\":22837:23169   */\n    tag_252:\n        /* \"#utility.yul\":22958:22962   */\n      0x00\n        /* \"#utility.yul\":22996:22998   */\n      0x40\n        /* \"#utility.yul\":22985:22994   */\n      dup3\n        /* \"#utility.yul\":22981:22999   */\n      add\n        /* \"#utility.yul\":22973:22999   */\n      swap1\n      pop\n        /* \"#utility.yul\":23009:23080   */\n      tag_584\n        /* \"#utility.yul\":23077:23078   */\n      0x00\n        /* \"#utility.yul\":23066:23075   */\n      dup4\n        /* \"#utility.yul\":23062:23079   */\n      add\n        /* \"#utility.yul\":23053:23059   */\n      dup6\n        /* \"#utility.yul\":23009:23080   */\n      tag_295\n      jump\t// in\n    tag_584:\n        /* \"#utility.yul\":23090:23162   */\n      tag_585\n        /* \"#utility.yul\":23158:23160   */\n      0x20\n        /* \"#utility.yul\":23147:23156   */\n      dup4\n        /* \"#utility.yul\":23143:23161   */\n      add\n        /* \"#utility.yul\":23134:23140   */\n      dup5\n        /* \"#utility.yul\":23090:23162   */\n      tag_295\n      jump\t// in\n    tag_585:\n        /* \"#utility.yul\":22837:23169   */\n      swap4\n      swap3\n      pop\n      pop\n      pop\n      jump\t// out\n        /* \"#utility.yul\":23175:23471   */\n    tag_344:\n        /* \"#utility.yul\":23315:23349   */\n      0x5468697320636f6e7472616374206e6565647320746f20666972737420626520\n        /* \"#utility.yul\":23311:23312   */\n      0x00\n        /* \"#utility.yul\":23303:23309   */\n      dup3\n        /* \"#utility.yul\":23299:23313   */\n      add\n        /* \"#utility.yul\":23292:23350   */\n      mstore\n        /* \"#utility.yul\":23384:23418   */\n      0x617070726f76656420666f72207468652073706563696669656420746f6b656e\n        /* \"#utility.yul\":23379:23381   */\n      0x20\n        /* \"#utility.yul\":23371:23377   */\n      dup3\n        /* \"#utility.yul\":23367:23382   */\n      add\n        /* \"#utility.yul\":23360:23419   */\n      mstore\n        /* \"#utility.yul\":23453:23463   */\n      0x20616d6f756e742e000000000000000000000000000000000000000000000000\n        /* \"#utility.yul\":23448:23450   */\n      0x40\n        /* \"#utility.yul\":23440:23446   */\n      dup3\n        /* \"#utility.yul\":23436:23451   */\n      add\n        /* \"#utility.yul\":23429:23464   */\n      mstore\n        /* \"#utility.yul\":23175:23471   */\n      pop\n      jump\t// out\n        /* \"#utility.yul\":23477:23843   */\n    tag_345:\n        /* \"#utility.yul\":23619:23622   */\n      0x00\n        /* \"#utility.yul\":23640:23707   */\n      tag_588\n        /* \"#utility.yul\":23704:23706   */\n      0x48\n        /* \"#utility.yul\":23699:23702   */\n      dup4\n        /* \"#utility.yul\":23640:23707   */\n      tag_312\n      jump\t// in\n    tag_588:\n        /* \"#utility.yul\":23633:23707   */\n      swap2\n      pop\n        /* \"#utility.yul\":23716:23809   */\n      tag_589\n        /* \"#utility.yul\":23805:23808   */\n      dup3\n        /* \"#utility.yul\":23716:23809   */\n      tag_344\n      jump\t// in\n    tag_589:\n        /* \"#utility.yul\":23834:23836   */\n      0x60\n        /* \"#utility.yul\":23829:23832   */\n      dup3\n        /* \"#utility.yul\":23825:23837   */\n      add\n        /* \"#utility.yul\":23818:23837   */\n      swap1\n      pop\n        /* \"#utility.yul\":23477:23843   */\n      swap2\n      swap1\n      pop\n      jump\t// out\n        /* \"#utility.yul\":23849:24268   */\n    tag_258:\n        /* \"#utility.yul\":24015:24019   */\n      0x00\n        /* \"#utility.yul\":24053:24055   */\n      0x20\n        /* \"#utility.yul\":24042:24051   */\n      dup3\n        /* \"#utility.yul\":24038:24056   */\n      add\n        /* \"#utility.yul\":24030:24056   */\n      swap1\n      pop\n        /* \"#utility.yul\":24102:24111   */\n      dup2\n        /* \"#utility.yul\":24096:24100   */\n      dup2\n        /* \"#utility.yul\":24092:24112   */\n      sub\n        /* \"#utility.yul\":24088:24089   */\n      0x00\n        /* \"#utility.yul\":24077:24086   */\n      dup4\n        /* \"#utility.yul\":24073:24090   */\n      add\n        /* \"#utility.yul\":24066:24113   */\n      mstore\n        /* \"#utility.yul\":24130:24261   */\n      tag_591\n        /* \"#utility.yul\":24256:24260   */\n      dup2\n        /* \"#utility.yul\":24130:24261   */\n      tag_345\n      jump\t// in\n    tag_591:\n        /* \"#utility.yul\":24122:24261   */\n      swap1\n      pop\n        /* \"#utility.yul\":23849:24268   */\n      swap2\n      swap1\n      pop\n      jump\t// out\n        /* \"#utility.yul\":24274:24716   */\n    tag_260:\n        /* \"#utility.yul\":24423:24427   */\n      0x00\n        /* \"#utility.yul\":24461:24463   */\n      0x60\n        /* \"#utility.yul\":24450:24459   */\n      dup3\n        /* \"#utility.yul\":24446:24464   */\n      add\n        /* \"#utility.yul\":24438:24464   */\n      swap1\n      pop\n        /* \"#utility.yul\":24474:24545   */\n      tag_593\n        /* \"#utility.yul\":24542:24543   */\n      0x00\n        /* \"#utility.yul\":24531:24540   */\n      dup4\n        /* \"#utility.yul\":24527:24544   */\n      add\n        /* \"#utility.yul\":24518:24524   */\n      dup7\n        /* \"#utility.yul\":24474:24545   */\n      tag_295\n      jump\t// in\n    tag_593:\n        /* \"#utility.yul\":24555:24627   */\n      tag_594\n        /* \"#utility.yul\":24623:24625   */\n      0x20\n        /* \"#utility.yul\":24612:24621   */\n      dup4\n        /* \"#utility.yul\":24608:24626   */\n      add\n        /* \"#utility.yul\":24599:24605   */\n      dup6\n        /* \"#utility.yul\":24555:24627   */\n      tag_295\n      jump\t// in\n    tag_594:\n        /* \"#utility.yul\":24637:24709   */\n      tag_595\n        /* \"#utility.yul\":24705:24707   */\n      0x40\n        /* \"#utility.yul\":24694:24703   */\n      dup4\n        /* \"#utility.yul\":24690:24708   */\n      add\n        /* \"#utility.yul\":24681:24687   */\n      dup5\n        /* \"#utility.yul\":24637:24709   */\n      tag_296\n      jump\t// in\n    tag_595:\n        /* \"#utility.yul\":24274:24716   */\n      swap5\n      swap4\n      pop\n      pop\n      pop\n      pop\n      jump\t// out\n\n    auxdata: 0xa264697066735822122008e7aa948256a63307a4586a5623360869717c3da56c19300073c913b460a96d64736f6c63430008120033\n}\n",
				"bytecode": {
					"linkReferences": {},
					"object": "608060405234801561001057600080fd5b5060008060006101000a81548160ff02191690831515021790555033600060016101000a81548173ffffffffffffffffffffffffffffffffffffffff021916908373ffffffffffffffffffffffffffffffffffffffff16021790555060008060156101000a81548160ff0219169083151502179055506128f2806100956000396000f3fe60806040526004361061016a5760003560e01c80639c8f9f23116100d1578063ca7c4dba1161008a578063e5aa3d5811610064578063e5aa3d581461069e578063e8078d94146106c9578063e86dea4a146106d3578063feffe7e4146106fe576102e4565b8063ca7c4dba1461061f578063d3c51d911461064a578063d826f88f14610687576102e4565b80639c8f9f23146105235780639fed4ad81461054c578063a56dfe4a14610582578063add010a5146105ad578063b4f40c61146105c9578063b7c56525146105f4576102e4565b80634b94f50e116101235780634b94f50e146103fd5780634f54a081146104285780635dfd8773146104535780637ff879e31461047e5780638d729abb146104bb57806395d89b41146104f8576102e4565b806301ffc9a7146102e95780630c55699c14610326578063180b0d7e14610351578063276184ae1461037c5780632bfdf307146103a7578063313ce567146103d2576102e4565b366102e45760003490506000816003546101849190611b3a565b6002546101919190611b9d565b60045461019e9190611bce565b90506000600854600754836101b39190611c02565b6101bd9190611b9d565b9050600c60009054906101000a900473ffffffffffffffffffffffffffffffffffffffff1673ffffffffffffffffffffffffffffffffffffffff1663a9059cbb33838561020a9190611bce565b6040518363ffffffff1660e01b8152600401610227929190611c94565b6020604051808303816000875af1158015610246573d6000803e3d6000fd5b505050506040513d601f19601f8201168201806040525081019061026a9190611d09565b50826003600082825461027d9190611b3a565b9250508190555081600460008282546102969190611bce565b9250508190555080600a60008282546102af9190611b3a565b925050819055507f8866993f7c029be4215942b34c1545282b8f28836579f2687fe96a5a6bf7770460405160405180910390a1005b600080fd5b3480156102f557600080fd5b50610310600480360381019061030b9190611d8e565b610727565b60405161031d9190611dca565b60405180910390f35b34801561033257600080fd5b5061033b610861565b6040516103489190611de5565b60405180910390f35b34801561035d57600080fd5b50610366610867565b6040516103739190611de5565b60405180910390f35b34801561038857600080fd5b5061039161086d565b60405161039e9190611e00565b60405180910390f35b3480156103b357600080fd5b506103bc610893565b6040516103c99190611de5565b60405180910390f35b3480156103de57600080fd5b506103e7610899565b6040516103f49190611de5565b60405180910390f35b34801561040957600080fd5b50610412610934565b60405161041f9190611de5565b60405180910390f35b34801561043457600080fd5b5061043d610aa5565b60405161044a9190611e00565b60405180910390f35b34801561045f57600080fd5b50610468610acb565b6040516104759190611de5565b60405180910390f35b34801561048a57600080fd5b506104a560048036038101906104a09190611e73565b610ad1565b6040516104b29190611dca565b60405180910390f35b3480156104c757600080fd5b506104e260048036038101906104dd9190611ec6565b610d22565b6040516104ef9190611de5565b60405180910390f35b34801561050457600080fd5b5061050d610d3a565b60405161051a9190611f83565b60405180910390f35b34801561052f57600080fd5b5061054a60048036038101906105459190611fa5565b610dd7565b005b34801561055857600080fd5b5061056161111f565b6040516105799c9b9a99989796959493929190611fd2565b60405180910390f35b34801561058e57600080fd5b50610597611354565b6040516105a49190611de5565b60405180910390f35b6105c760048036038101906105c2919061209a565b61135a565b005b3480156105d557600080fd5b506105de61170d565b6040516105eb9190611de5565b60405180910390f35b34801561060057600080fd5b50610609611713565b6040516106169190611de5565b60405180910390f35b34801561062b57600080fd5b506106346117dc565b6040516106419190611de5565b60405180910390f35b34801561065657600080fd5b50610671600480360381019061066c9190611ec6565b611874565b60405161067e9190611de5565b60405180910390f35b34801561069357600080fd5b5061069c61188c565b005b3480156106aa57600080fd5b506106b3611891565b6040516106c09190611de5565b60405180910390f35b6106d1611897565b005b3480156106df57600080fd5b506106e8611ab7565b6040516106f59190611de5565b60405180910390f35b34801561070a57600080fd5b5061072560048036038101906107209190611ec6565b611abd565b005b60007f5f8d5fe4000000000000000000000000000000000000000000000000000000007bffffffffffffffffffffffffffffffffffffffffffffffffffffffff1916827bffffffffffffffffffffffffffffffffffffffffffffffffffffffff191614806107f257507f01ffc9a7000000000000000000000000000000000000000000000000000000007bffffffffffffffffffffffffffffffffffffffffffffffffffffffff1916827bffffffffffffffffffffffffffffffffffffffffffffffffffffffff1916145b8061085a57507f7ff879e3000000000000000000000000000000000000000000000000000000007bffffffffffffffffffffffffffffffffffffffffffffffffffffffff1916827bffffffffffffffffffffffffffffffffffffffffffffffffffffffff1916145b9050919050565b60035481565b60085481565b600c60009054906101000a900473ffffffffffffffffffffffffffffffffffffffff1681565b600a5481565b6000600c60009054906101000a900473ffffffffffffffffffffffffffffffffffffffff1673ffffffffffffffffffffffffffffffffffffffff1663313ce5676040518163ffffffff1660e01b8152600401602060405180830381865afa158015610908573d6000803e3d6000fd5b505050506040513d601f19601f8201168201806040525081019061092c919061214e565b60ff16905090565b600080600b60009054906101000a900473ffffffffffffffffffffffffffffffffffffffff1673ffffffffffffffffffffffffffffffffffffffff1663a035b1fe6040518163ffffffff1660e01b8152600401602060405180830381865afa1580156109a4573d6000803e3d6000fd5b505050506040513d601f19601f820116820180604052508101906109c89190612190565b9050670de0b6b3a76400006004546109e09190611c02565b600c60009054906101000a900473ffffffffffffffffffffffffffffffffffffffff1673ffffffffffffffffffffffffffffffffffffffff1663313ce5676040518163ffffffff1660e01b8152600401602060405180830381865afa158015610a4d573d6000803e3d6000fd5b505050506040513d601f19601f82011682018060405250810190610a71919061214e565b600a610a7d91906122f0565b600354610a8a9190611c02565b82610a959190611c02565b610a9f9190611b9d565b91505090565b600b60009054906101000a900473ffffffffffffffffffffffffffffffffffffffff1681565b60095481565b60006001806000828254610ae59190611b3a565b92505081905550600060159054906101000a900460ff1615610b0a5760019050610d1b565b600c60009054906101000a900473ffffffffffffffffffffffffffffffffffffffff1673ffffffffffffffffffffffffffffffffffffffff168273ffffffffffffffffffffffffffffffffffffffff1614610b9a576040517f08c379a0000000000000000000000000000000000000000000000000000000008152600401610b91906123ad565b60405180910390fd5b600083600454610baa9190611b3a565b600254610bb79190611b9d565b600354610bc49190611bce565b9050600060085460075483610bd99190611c02565b610be39190611b9d565b905060008673ffffffffffffffffffffffffffffffffffffffff168284610c0a9190611bce565b604051610c16906123fe565b60006040518083038185875af1925050503d8060008114610c53576040519150601f19603f3d011682016040523d82523d6000602084013e610c58565b606091505b5050905080610c9c576040517f08c379a0000000000000000000000000000000000000000000000000000000008152600401610c939061245f565b60405180910390fd5b8260036000828254610cae9190611bce565b925050819055508560046000828254610cc79190611b3a565b925050819055508160096000828254610ce09190611b3a565b925050819055507f8866993f7c029be4215942b34c1545282b8f28836579f2687fe96a5a6bf7770460405160405180910390a1600193505050505b9392505050565b60066020528060005260406000206000915090505481565b6060600c60009054906101000a900473ffffffffffffffffffffffffffffffffffffffff1673ffffffffffffffffffffffffffffffffffffffff166395d89b416040518163ffffffff1660e01b8152600401600060405180830381865afa158015610da9573d6000803e3d6000fd5b505050506040513d6000823e3d601f19601f82011682018060405250810190610dd291906125a5565b905090565b80600560003373ffffffffffffffffffffffffffffffffffffffff1673ffffffffffffffffffffffffffffffffffffffff168152602001908152602001600020541015610e59576040517f08c379a0000000000000000000000000000000000000000000000000000000008152600401610e5090612660565b60405180910390fd5b600060035460045483610e6c9190611c02565b610e769190611b9d565b905060003373ffffffffffffffffffffffffffffffffffffffff1683604051610e9e906123fe565b60006040518083038185875af1925050503d8060008114610edb576040519150601f19603f3d011682016040523d82523d6000602084013e610ee0565b606091505b5050905080610f24576040517f08c379a0000000000000000000000000000000000000000000000000000000008152600401610f1b9061245f565b60405180910390fd5b6001600060156101000a81548160ff021916908315150217905550600c60009054906101000a900473ffffffffffffffffffffffffffffffffffffffff1673ffffffffffffffffffffffffffffffffffffffff1663a9059cbb33846040518363ffffffff1660e01b8152600401610f9c929190611c94565b6020604051808303816000875af1158015610fbb573d6000803e3d6000fd5b505050506040513d601f19601f82011682018060405250810190610fdf9190611d09565b5060008060156101000a81548160ff02191690831515021790555082600560003373ffffffffffffffffffffffffffffffffffffffff1673ffffffffffffffffffffffffffffffffffffffff16815260200190815260200160002060008282546110499190611bce565b9250508190555081600660003373ffffffffffffffffffffffffffffffffffffffff1673ffffffffffffffffffffffffffffffffffffffff168152602001908152602001600020600082825461109f9190611bce565b9250508190555082600360008282546110b89190611bce565b9250508190555081600460008282546110d19190611bce565b925050819055506004546003546110e89190611c02565b6002819055507f8866993f7c029be4215942b34c1545282b8f28836579f2687fe96a5a6bf7770460405160405180910390a1505050565b6000606080600080600080600080600080600030600c60009054906101000a900473ffffffffffffffffffffffffffffffffffffffff1673ffffffffffffffffffffffffffffffffffffffff166395d89b416040518163ffffffff1660e01b8152600401600060405180830381865afa1580156111a0573d6000803e3d6000fd5b505050506040513d6000823e3d601f19601f820116820180604052508101906111c991906125a5565b600c60009054906101000a900473ffffffffffffffffffffffffffffffffffffffff1673ffffffffffffffffffffffffffffffffffffffff166306fdde036040518163ffffffff1660e01b8152600401600060405180830381865afa158015611236573d6000803e3d6000fd5b505050506040513d6000823e3d601f19601f8201168201806040525081019061125f91906125a5565b600c60009054906101000a900473ffffffffffffffffffffffffffffffffffffffff16600254600354600454600754600854600c60009054906101000a900473ffffffffffffffffffffffffffffffffffffffff1673ffffffffffffffffffffffffffffffffffffffff1663313ce5676040518163ffffffff1660e01b8152600401602060405180830381865afa1580156112fe573d6000803e3d6000fd5b505050506040513d601f19601f82011682018060405250810190611322919061214e565b600954600a548260ff1692509b509b509b509b509b509b509b509b509b509b509b509b50909192939495969798999a9b565b60045481565b60008054906101000a900460ff16156113a8576040517f08c379a000000000000000000000000000000000000000000000000000000000815260040161139f906126f2565b60405180910390fd5b600060019054906101000a900473ffffffffffffffffffffffffffffffffffffffff1673ffffffffffffffffffffffffffffffffffffffff163373ffffffffffffffffffffffffffffffffffffffff1614611438576040517f08c379a000000000000000000000000000000000000000000000000000000000815260040161142f90612784565b60405180910390fd5b848273ffffffffffffffffffffffffffffffffffffffff1663dd62ed3e33306040518363ffffffff1660e01b81526004016114749291906127a4565b602060405180830381865afa158015611491573d6000803e3d6000fd5b505050506040513d601f19601f820116820180604052508101906114b59190612190565b10156114f6576040517f08c379a00000000000000000000000000000000000000000000000000000000081526004016114ed90612865565b60405180910390fd5b6001600060156101000a81548160ff0219169083151502179055508173ffffffffffffffffffffffffffffffffffffffff166323b872dd3330886040518463ffffffff1660e01b815260040161154e93929190612885565b6020604051808303816000875af115801561156d573d6000803e3d6000fd5b505050506040513d601f19601f820116820180604052508101906115919190611d09565b5060008060156101000a81548160ff02191690831515021790555034600381905550846004819055506004546003546115ca9190611c02565b6002819055508360078190555082600881905550600354600560003373ffffffffffffffffffffffffffffffffffffffff1673ffffffffffffffffffffffffffffffffffffffff16815260200190815260200160002081905550600454600660003373ffffffffffffffffffffffffffffffffffffffff1673ffffffffffffffffffffffffffffffffffffffff1681526020019081526020016000208190555081600c60006101000a81548173ffffffffffffffffffffffffffffffffffffffff021916908373ffffffffffffffffffffffffffffffffffffffff16021790555080600b60006101000a81548173ffffffffffffffffffffffffffffffffffffffff021916908373ffffffffffffffffffffffffffffffffffffffff16021790555060016000806101000a81548160ff0219169083151502179055505050505050565b60025481565b600080600b60009054906101000a900473ffffffffffffffffffffffffffffffffffffffff1673ffffffffffffffffffffffffffffffffffffffff1663a035b1fe6040518163ffffffff1660e01b8152600401602060405180830381865afa158015611783573d6000803e3d6000fd5b505050506040513d601f19601f820116820180604052508101906117a79190612190565b9050670de0b6b3a76400008160035460026117c29190611c02565b6117cc9190611c02565b6117d69190611b9d565b91505090565b6000600b60009054906101000a900473ffffffffffffffffffffffffffffffffffffffff1673ffffffffffffffffffffffffffffffffffffffff1663a035b1fe6040518163ffffffff1660e01b8152600401602060405180830381865afa15801561184b573d6000803e3d6000fd5b505050506040513d601f19601f8201168201806040525081019061186f9190612190565b905090565b60056020528060005260406000206000915090505481565b600080fd5b60015481565b60003490506000600354600454836118af9190611c02565b6118b99190611b9d565b90506001600060156101000a81548160ff021916908315150217905550600c60009054906101000a900473ffffffffffffffffffffffffffffffffffffffff1673ffffffffffffffffffffffffffffffffffffffff166323b872dd3330846040518463ffffffff1660e01b815260040161193593929190612885565b6020604051808303816000875af1158015611954573d6000803e3d6000fd5b505050506040513d601f19601f820116820180604052508101906119789190611d09565b5060008060156101000a81548160ff02191690831515021790555081600360008282546119a59190611b3a565b9250508190555080600460008282546119be9190611b3a565b925050819055506004546003546119d59190611c02565b60028190555081600560003373ffffffffffffffffffffffffffffffffffffffff1673ffffffffffffffffffffffffffffffffffffffff1681526020019081526020016000206000828254611a2a9190611b3a565b9250508190555080600660003373ffffffffffffffffffffffffffffffffffffffff1673ffffffffffffffffffffffffffffffffffffffff1681526020019081526020016000206000828254611a809190611b3a565b925050819055507f8866993f7c029be4215942b34c1545282b8f28836579f2687fe96a5a6bf7770460405160405180910390a15050565b60075481565b80600b60006101000a81548173ffffffffffffffffffffffffffffffffffffffff021916908373ffffffffffffffffffffffffffffffffffffffff16021790555050565b6000819050919050565b7f4e487b7100000000000000000000000000000000000000000000000000000000600052601160045260246000fd5b6000611b4582611b01565b9150611b5083611b01565b9250828201905080821115611b6857611b67611b0b565b5b92915050565b7f4e487b7100000000000000000000000000000000000000000000000000000000600052601260045260246000fd5b6000611ba882611b01565b9150611bb383611b01565b925082611bc357611bc2611b6e565b5b828204905092915050565b6000611bd982611b01565b9150611be483611b01565b9250828203905081811115611bfc57611bfb611b0b565b5b92915050565b6000611c0d82611b01565b9150611c1883611b01565b9250828202611c2681611b01565b91508282048414831517611c3d57611c3c611b0b565b5b5092915050565b600073ffffffffffffffffffffffffffffffffffffffff82169050919050565b6000611c6f82611c44565b9050919050565b611c7f81611c64565b82525050565b611c8e81611b01565b82525050565b6000604082019050611ca96000830185611c76565b611cb66020830184611c85565b9392505050565b6000604051905090565b600080fd5b600080fd5b60008115159050919050565b611ce681611cd1565b8114611cf157600080fd5b50565b600081519050611d0381611cdd565b92915050565b600060208284031215611d1f57611d1e611cc7565b5b6000611d2d84828501611cf4565b91505092915050565b60007fffffffff0000000000000000000000000000000000000000000000000000000082169050919050565b611d6b81611d36565b8114611d7657600080fd5b50565b600081359050611d8881611d62565b92915050565b600060208284031215611da457611da3611cc7565b5b6000611db284828501611d79565b91505092915050565b611dc481611cd1565b82525050565b6000602082019050611ddf6000830184611dbb565b92915050565b6000602082019050611dfa6000830184611c85565b92915050565b6000602082019050611e156000830184611c76565b92915050565b611e2481611c64565b8114611e2f57600080fd5b50565b600081359050611e4181611e1b565b92915050565b611e5081611b01565b8114611e5b57600080fd5b50565b600081359050611e6d81611e47565b92915050565b600080600060608486031215611e8c57611e8b611cc7565b5b6000611e9a86828701611e32565b9350506020611eab86828701611e5e565b9250506040611ebc86828701611e32565b9150509250925092565b600060208284031215611edc57611edb611cc7565b5b6000611eea84828501611e32565b91505092915050565b600081519050919050565b600082825260208201905092915050565b60005b83811015611f2d578082015181840152602081019050611f12565b60008484015250505050565b6000601f19601f8301169050919050565b6000611f5582611ef3565b611f5f8185611efe565b9350611f6f818560208601611f0f565b611f7881611f39565b840191505092915050565b60006020820190508181036000830152611f9d8184611f4a565b905092915050565b600060208284031215611fbb57611fba611cc7565b5b6000611fc984828501611e5e565b91505092915050565b600061018082019050611fe8600083018f611c76565b8181036020830152611ffa818e611f4a565b9050818103604083015261200e818d611f4a565b905061201d606083018c611c76565b61202a608083018b611c85565b61203760a083018a611c85565b61204460c0830189611c85565b61205160e0830188611c85565b61205f610100830187611c85565b61206d610120830186611c85565b61207b610140830185611c85565b612089610160830184611c85565b9d9c50505050505050505050505050565b600080600080600060a086880312156120b6576120b5611cc7565b5b60006120c488828901611e5e565b95505060206120d588828901611e5e565b94505060406120e688828901611e5e565b93505060606120f788828901611e32565b925050608061210888828901611e32565b9150509295509295909350565b600060ff82169050919050565b61212b81612115565b811461213657600080fd5b50565b60008151905061214881612122565b92915050565b60006020828403121561216457612163611cc7565b5b600061217284828501612139565b91505092915050565b60008151905061218a81611e47565b92915050565b6000602082840312156121a6576121a5611cc7565b5b60006121b48482850161217b565b91505092915050565b60008160011c9050919050565b6000808291508390505b6001851115612214578086048111156121f0576121ef611b0b565b5b60018516156121ff5780820291505b808102905061220d856121bd565b94506121d4565b94509492505050565b60008261222d57600190506122e9565b8161223b57600090506122e9565b8160018114612251576002811461225b5761228a565b60019150506122e9565b60ff84111561226d5761226c611b0b565b5b8360020a91508482111561228457612283611b0b565b5b506122e9565b5060208310610133831016604e8410600b84101617156122bf5782820a9050838111156122ba576122b9611b0b565b5b6122e9565b6122cc84848460016121ca565b925090508184048111156122e3576122e2611b0b565b5b81810290505b9392505050565b60006122fb82611b01565b915061230683612115565b92506123337fffffffffffffffffffffffffffffffffffffffffffffffffffffffffffffffff848461221d565b905092915050565b7f546869732044455820646f6573206e6f7420737570706f72742074686f73652060008201527f746f6b656e732e00000000000000000000000000000000000000000000000000602082015250565b6000612397602783611efe565b91506123a28261233b565b604082019050919050565b600060208201905081810360008301526123c68161238a565b9050919050565b600081905092915050565b50565b60006123e86000836123cd565b91506123f3826123d8565b600082019050919050565b6000612409826123db565b9150819050919050565b7f7061796d656e74206469646e277420776f726b00000000000000000000000000600082015250565b6000612449601383611efe565b915061245482612413565b602082019050919050565b600060208201905081810360008301526124788161243c565b9050919050565b600080fd5b600080fd5b7f4e487b7100000000000000000000000000000000000000000000000000000000600052604160045260246000fd5b6124c182611f39565b810181811067ffffffffffffffff821117156124e0576124df612489565b5b80604052505050565b60006124f3611cbd565b90506124ff82826124b8565b919050565b600067ffffffffffffffff82111561251f5761251e612489565b5b61252882611f39565b9050602081019050919050565b600061254861254384612504565b6124e9565b90508281526020810184848401111561256457612563612484565b5b61256f848285611f0f565b509392505050565b600082601f83011261258c5761258b61247f565b5b815161259c848260208601612535565b91505092915050565b6000602082840312156125bb576125ba611cc7565b5b600082015167ffffffffffffffff8111156125d9576125d8611ccc565b5b6125e584828501612577565b91505092915050565b7f53656e64657220646f6573206e6f7420686176652074686973206d756368204560008201527f544820696e2074686520706f6f6c2e0000000000000000000000000000000000602082015250565b600061264a602f83611efe565b9150612655826125ee565b604082019050919050565b600060208201905081810360008301526126798161263d565b9050919050565b7f41206c697175696469747920706f6f6c2068617320616c72656164792062656560008201527f6e20637265617465642e00000000000000000000000000000000000000000000602082015250565b60006126dc602a83611efe565b91506126e782612680565b604082019050919050565b6000602082019050818103600083015261270b816126cf565b9050919050565b7f4f6e6c7920746865206465706c6f796572206f662074686520636f6e7472616360008201527f742063616e20637265617465206120706f6f6c2e000000000000000000000000602082015250565b600061276e603483611efe565b915061277982612712565b604082019050919050565b6000602082019050818103600083015261279d81612761565b9050919050565b60006040820190506127b96000830185611c76565b6127c66020830184611c76565b9392505050565b7f5468697320636f6e7472616374206e6565647320746f2066697273742062652060008201527f617070726f76656420666f72207468652073706563696669656420746f6b656e60208201527f20616d6f756e742e000000000000000000000000000000000000000000000000604082015250565b600061284f604883611efe565b915061285a826127cd565b606082019050919050565b6000602082019050818103600083015261287e81612842565b9050919050565b600060608201905061289a6000830186611c76565b6128a76020830185611c76565b6128b46040830184611c85565b94935050505056fea264697066735822122008e7aa948256a63307a4586a5623360869717c3da56c19300073c913b460a96d64736f6c63430008120033",
					"opcodes": "PUSH1 0x80 PUSH1 0x40 MSTORE CALLVALUE DUP1 ISZERO PUSH2 0x10 JUMPI PUSH1 0x0 DUP1 REVERT JUMPDEST POP PUSH1 0x0 DUP1 PUSH1 0x0 PUSH2 0x100 EXP DUP2 SLOAD DUP2 PUSH1 0xFF MUL NOT AND SWAP1 DUP4 ISZERO ISZERO MUL OR SWAP1 SSTORE POP CALLER PUSH1 0x0 PUSH1 0x1 PUSH2 0x100 EXP DUP2 SLOAD DUP2 PUSH20 0xFFFFFFFFFFFFFFFFFFFFFFFFFFFFFFFFFFFFFFFF MUL NOT AND SWAP1 DUP4 PUSH20 0xFFFFFFFFFFFFFFFFFFFFFFFFFFFFFFFFFFFFFFFF AND MUL OR SWAP1 SSTORE POP PUSH1 0x0 DUP1 PUSH1 0x15 PUSH2 0x100 EXP DUP2 SLOAD DUP2 PUSH1 0xFF MUL NOT AND SWAP1 DUP4 ISZERO ISZERO MUL OR SWAP1 SSTORE POP PUSH2 0x28F2 DUP1 PUSH2 0x95 PUSH1 0x0 CODECOPY PUSH1 0x0 RETURN INVALID PUSH1 0x80 PUSH1 0x40 MSTORE PUSH1 0x4 CALLDATASIZE LT PUSH2 0x16A JUMPI PUSH1 0x0 CALLDATALOAD PUSH1 0xE0 SHR DUP1 PUSH4 0x9C8F9F23 GT PUSH2 0xD1 JUMPI DUP1 PUSH4 0xCA7C4DBA GT PUSH2 0x8A JUMPI DUP1 PUSH4 0xE5AA3D58 GT PUSH2 0x64 JUMPI DUP1 PUSH4 0xE5AA3D58 EQ PUSH2 0x69E JUMPI DUP1 PUSH4 0xE8078D94 EQ PUSH2 0x6C9 JUMPI DUP1 PUSH4 0xE86DEA4A EQ PUSH2 0x6D3 JUMPI DUP1 PUSH4 0xFEFFE7E4 EQ PUSH2 0x6FE JUMPI PUSH2 0x2E4 JUMP JUMPDEST DUP1 PUSH4 0xCA7C4DBA EQ PUSH2 0x61F JUMPI DUP1 PUSH4 0xD3C51D91 EQ PUSH2 0x64A JUMPI DUP1 PUSH4 0xD826F88F EQ PUSH2 0x687 JUMPI PUSH2 0x2E4 JUMP JUMPDEST DUP1 PUSH4 0x9C8F9F23 EQ PUSH2 0x523 JUMPI DUP1 PUSH4 0x9FED4AD8 EQ PUSH2 0x54C JUMPI DUP1 PUSH4 0xA56DFE4A EQ PUSH2 0x582 JUMPI DUP1 PUSH4 0xADD010A5 EQ PUSH2 0x5AD JUMPI DUP1 PUSH4 0xB4F40C61 EQ PUSH2 0x5C9 JUMPI DUP1 PUSH4 0xB7C56525 EQ PUSH2 0x5F4 JUMPI PUSH2 0x2E4 JUMP JUMPDEST DUP1 PUSH4 0x4B94F50E GT PUSH2 0x123 JUMPI DUP1 PUSH4 0x4B94F50E EQ PUSH2 0x3FD JUMPI DUP1 PUSH4 0x4F54A081 EQ PUSH2 0x428 JUMPI DUP1 PUSH4 0x5DFD8773 EQ PUSH2 0x453 JUMPI DUP1 PUSH4 0x7FF879E3 EQ PUSH2 0x47E JUMPI DUP1 PUSH4 0x8D729ABB EQ PUSH2 0x4BB JUMPI DUP1 PUSH4 0x95D89B41 EQ PUSH2 0x4F8 JUMPI PUSH2 0x2E4 JUMP JUMPDEST DUP1 PUSH4 0x1FFC9A7 EQ PUSH2 0x2E9 JUMPI DUP1 PUSH4 0xC55699C EQ PUSH2 0x326 JUMPI DUP1 PUSH4 0x180B0D7E EQ PUSH2 0x351 JUMPI DUP1 PUSH4 0x276184AE EQ PUSH2 0x37C JUMPI DUP1 PUSH4 0x2BFDF307 EQ PUSH2 0x3A7 JUMPI DUP1 PUSH4 0x313CE567 EQ PUSH2 0x3D2 JUMPI PUSH2 0x2E4 JUMP JUMPDEST CALLDATASIZE PUSH2 0x2E4 JUMPI PUSH1 0x0 CALLVALUE SWAP1 POP PUSH1 0x0 DUP2 PUSH1 0x3 SLOAD PUSH2 0x184 SWAP2 SWAP1 PUSH2 0x1B3A JUMP JUMPDEST PUSH1 0x2 SLOAD PUSH2 0x191 SWAP2 SWAP1 PUSH2 0x1B9D JUMP JUMPDEST PUSH1 0x4 SLOAD PUSH2 0x19E SWAP2 SWAP1 PUSH2 0x1BCE JUMP JUMPDEST SWAP1 POP PUSH1 0x0 PUSH1 0x8 SLOAD PUSH1 0x7 SLOAD DUP4 PUSH2 0x1B3 SWAP2 SWAP1 PUSH2 0x1C02 JUMP JUMPDEST PUSH2 0x1BD SWAP2 SWAP1 PUSH2 0x1B9D JUMP JUMPDEST SWAP1 POP PUSH1 0xC PUSH1 0x0 SWAP1 SLOAD SWAP1 PUSH2 0x100 EXP SWAP1 DIV PUSH20 0xFFFFFFFFFFFFFFFFFFFFFFFFFFFFFFFFFFFFFFFF AND PUSH20 0xFFFFFFFFFFFFFFFFFFFFFFFFFFFFFFFFFFFFFFFF AND PUSH4 0xA9059CBB CALLER DUP4 DUP6 PUSH2 0x20A SWAP2 SWAP1 PUSH2 0x1BCE JUMP JUMPDEST PUSH1 0x40 MLOAD DUP4 PUSH4 0xFFFFFFFF AND PUSH1 0xE0 SHL DUP2 MSTORE PUSH1 0x4 ADD PUSH2 0x227 SWAP3 SWAP2 SWAP1 PUSH2 0x1C94 JUMP JUMPDEST PUSH1 0x20 PUSH1 0x40 MLOAD DUP1 DUP4 SUB DUP2 PUSH1 0x0 DUP8 GAS CALL ISZERO DUP1 ISZERO PUSH2 0x246 JUMPI RETURNDATASIZE PUSH1 0x0 DUP1 RETURNDATACOPY RETURNDATASIZE PUSH1 0x0 REVERT JUMPDEST POP POP POP POP PUSH1 0x40 MLOAD RETURNDATASIZE PUSH1 0x1F NOT PUSH1 0x1F DUP3 ADD AND DUP3 ADD DUP1 PUSH1 0x40 MSTORE POP DUP2 ADD SWAP1 PUSH2 0x26A SWAP2 SWAP1 PUSH2 0x1D09 JUMP JUMPDEST POP DUP3 PUSH1 0x3 PUSH1 0x0 DUP3 DUP3 SLOAD PUSH2 0x27D SWAP2 SWAP1 PUSH2 0x1B3A JUMP JUMPDEST SWAP3 POP POP DUP2 SWAP1 SSTORE POP DUP2 PUSH1 0x4 PUSH1 0x0 DUP3 DUP3 SLOAD PUSH2 0x296 SWAP2 SWAP1 PUSH2 0x1BCE JUMP JUMPDEST SWAP3 POP POP DUP2 SWAP1 SSTORE POP DUP1 PUSH1 0xA PUSH1 0x0 DUP3 DUP3 SLOAD PUSH2 0x2AF SWAP2 SWAP1 PUSH2 0x1B3A JUMP JUMPDEST SWAP3 POP POP DUP2 SWAP1 SSTORE POP PUSH32 0x8866993F7C029BE4215942B34C1545282B8F28836579F2687FE96A5A6BF77704 PUSH1 0x40 MLOAD PUSH1 0x40 MLOAD DUP1 SWAP2 SUB SWAP1 LOG1 STOP JUMPDEST PUSH1 0x0 DUP1 REVERT JUMPDEST CALLVALUE DUP1 ISZERO PUSH2 0x2F5 JUMPI PUSH1 0x0 DUP1 REVERT JUMPDEST POP PUSH2 0x310 PUSH1 0x4 DUP1 CALLDATASIZE SUB DUP2 ADD SWAP1 PUSH2 0x30B SWAP2 SWAP1 PUSH2 0x1D8E JUMP JUMPDEST PUSH2 0x727 JUMP JUMPDEST PUSH1 0x40 MLOAD PUSH2 0x31D SWAP2 SWAP1 PUSH2 0x1DCA JUMP JUMPDEST PUSH1 0x40 MLOAD DUP1 SWAP2 SUB SWAP1 RETURN JUMPDEST CALLVALUE DUP1 ISZERO PUSH2 0x332 JUMPI PUSH1 0x0 DUP1 REVERT JUMPDEST POP PUSH2 0x33B PUSH2 0x861 JUMP JUMPDEST PUSH1 0x40 MLOAD PUSH2 0x348 SWAP2 SWAP1 PUSH2 0x1DE5 JUMP JUMPDEST PUSH1 0x40 MLOAD DUP1 SWAP2 SUB SWAP1 RETURN JUMPDEST CALLVALUE DUP1 ISZERO PUSH2 0x35D JUMPI PUSH1 0x0 DUP1 REVERT JUMPDEST POP PUSH2 0x366 PUSH2 0x867 JUMP JUMPDEST PUSH1 0x40 MLOAD PUSH2 0x373 SWAP2 SWAP1 PUSH2 0x1DE5 JUMP JUMPDEST PUSH1 0x40 MLOAD DUP1 SWAP2 SUB SWAP1 RETURN JUMPDEST CALLVALUE DUP1 ISZERO PUSH2 0x388 JUMPI PUSH1 0x0 DUP1 REVERT JUMPDEST POP PUSH2 0x391 PUSH2 0x86D JUMP JUMPDEST PUSH1 0x40 MLOAD PUSH2 0x39E SWAP2 SWAP1 PUSH2 0x1E00 JUMP JUMPDEST PUSH1 0x40 MLOAD DUP1 SWAP2 SUB SWAP1 RETURN JUMPDEST CALLVALUE DUP1 ISZERO PUSH2 0x3B3 JUMPI PUSH1 0x0 DUP1 REVERT JUMPDEST POP PUSH2 0x3BC PUSH2 0x893 JUMP JUMPDEST PUSH1 0x40 MLOAD PUSH2 0x3C9 SWAP2 SWAP1 PUSH2 0x1DE5 JUMP JUMPDEST PUSH1 0x40 MLOAD DUP1 SWAP2 SUB SWAP1 RETURN JUMPDEST CALLVALUE DUP1 ISZERO PUSH2 0x3DE JUMPI PUSH1 0x0 DUP1 REVERT JUMPDEST POP PUSH2 0x3E7 PUSH2 0x899 JUMP JUMPDEST PUSH1 0x40 MLOAD PUSH2 0x3F4 SWAP2 SWAP1 PUSH2 0x1DE5 JUMP JUMPDEST PUSH1 0x40 MLOAD DUP1 SWAP2 SUB SWAP1 RETURN JUMPDEST CALLVALUE DUP1 ISZERO PUSH2 0x409 JUMPI PUSH1 0x0 DUP1 REVERT JUMPDEST POP PUSH2 0x412 PUSH2 0x934 JUMP JUMPDEST PUSH1 0x40 MLOAD PUSH2 0x41F SWAP2 SWAP1 PUSH2 0x1DE5 JUMP JUMPDEST PUSH1 0x40 MLOAD DUP1 SWAP2 SUB SWAP1 RETURN JUMPDEST CALLVALUE DUP1 ISZERO PUSH2 0x434 JUMPI PUSH1 0x0 DUP1 REVERT JUMPDEST POP PUSH2 0x43D PUSH2 0xAA5 JUMP JUMPDEST PUSH1 0x40 MLOAD PUSH2 0x44A SWAP2 SWAP1 PUSH2 0x1E00 JUMP JUMPDEST PUSH1 0x40 MLOAD DUP1 SWAP2 SUB SWAP1 RETURN JUMPDEST CALLVALUE DUP1 ISZERO PUSH2 0x45F JUMPI PUSH1 0x0 DUP1 REVERT JUMPDEST POP PUSH2 0x468 PUSH2 0xACB JUMP JUMPDEST PUSH1 0x40 MLOAD PUSH2 0x475 SWAP2 SWAP1 PUSH2 0x1DE5 JUMP JUMPDEST PUSH1 0x40 MLOAD DUP1 SWAP2 SUB SWAP1 RETURN JUMPDEST CALLVALUE DUP1 ISZERO PUSH2 0x48A JUMPI PUSH1 0x0 DUP1 REVERT JUMPDEST POP PUSH2 0x4A5 PUSH1 0x4 DUP1 CALLDATASIZE SUB DUP2 ADD SWAP1 PUSH2 0x4A0 SWAP2 SWAP1 PUSH2 0x1E73 JUMP JUMPDEST PUSH2 0xAD1 JUMP JUMPDEST PUSH1 0x40 MLOAD PUSH2 0x4B2 SWAP2 SWAP1 PUSH2 0x1DCA JUMP JUMPDEST PUSH1 0x40 MLOAD DUP1 SWAP2 SUB SWAP1 RETURN JUMPDEST CALLVALUE DUP1 ISZERO PUSH2 0x4C7 JUMPI PUSH1 0x0 DUP1 REVERT JUMPDEST POP PUSH2 0x4E2 PUSH1 0x4 DUP1 CALLDATASIZE SUB DUP2 ADD SWAP1 PUSH2 0x4DD SWAP2 SWAP1 PUSH2 0x1EC6 JUMP JUMPDEST PUSH2 0xD22 JUMP JUMPDEST PUSH1 0x40 MLOAD PUSH2 0x4EF SWAP2 SWAP1 PUSH2 0x1DE5 JUMP JUMPDEST PUSH1 0x40 MLOAD DUP1 SWAP2 SUB SWAP1 RETURN JUMPDEST CALLVALUE DUP1 ISZERO PUSH2 0x504 JUMPI PUSH1 0x0 DUP1 REVERT JUMPDEST POP PUSH2 0x50D PUSH2 0xD3A JUMP JUMPDEST PUSH1 0x40 MLOAD PUSH2 0x51A SWAP2 SWAP1 PUSH2 0x1F83 JUMP JUMPDEST PUSH1 0x40 MLOAD DUP1 SWAP2 SUB SWAP1 RETURN JUMPDEST CALLVALUE DUP1 ISZERO PUSH2 0x52F JUMPI PUSH1 0x0 DUP1 REVERT JUMPDEST POP PUSH2 0x54A PUSH1 0x4 DUP1 CALLDATASIZE SUB DUP2 ADD SWAP1 PUSH2 0x545 SWAP2 SWAP1 PUSH2 0x1FA5 JUMP JUMPDEST PUSH2 0xDD7 JUMP JUMPDEST STOP JUMPDEST CALLVALUE DUP1 ISZERO PUSH2 0x558 JUMPI PUSH1 0x0 DUP1 REVERT JUMPDEST POP PUSH2 0x561 PUSH2 0x111F JUMP JUMPDEST PUSH1 0x40 MLOAD PUSH2 0x579 SWAP13 SWAP12 SWAP11 SWAP10 SWAP9 SWAP8 SWAP7 SWAP6 SWAP5 SWAP4 SWAP3 SWAP2 SWAP1 PUSH2 0x1FD2 JUMP JUMPDEST PUSH1 0x40 MLOAD DUP1 SWAP2 SUB SWAP1 RETURN JUMPDEST CALLVALUE DUP1 ISZERO PUSH2 0x58E JUMPI PUSH1 0x0 DUP1 REVERT JUMPDEST POP PUSH2 0x597 PUSH2 0x1354 JUMP JUMPDEST PUSH1 0x40 MLOAD PUSH2 0x5A4 SWAP2 SWAP1 PUSH2 0x1DE5 JUMP JUMPDEST PUSH1 0x40 MLOAD DUP1 SWAP2 SUB SWAP1 RETURN JUMPDEST PUSH2 0x5C7 PUSH1 0x4 DUP1 CALLDATASIZE SUB DUP2 ADD SWAP1 PUSH2 0x5C2 SWAP2 SWAP1 PUSH2 0x209A JUMP JUMPDEST PUSH2 0x135A JUMP JUMPDEST STOP JUMPDEST CALLVALUE DUP1 ISZERO PUSH2 0x5D5 JUMPI PUSH1 0x0 DUP1 REVERT JUMPDEST POP PUSH2 0x5DE PUSH2 0x170D JUMP JUMPDEST PUSH1 0x40 MLOAD PUSH2 0x5EB SWAP2 SWAP1 PUSH2 0x1DE5 JUMP JUMPDEST PUSH1 0x40 MLOAD DUP1 SWAP2 SUB SWAP1 RETURN JUMPDEST CALLVALUE DUP1 ISZERO PUSH2 0x600 JUMPI PUSH1 0x0 DUP1 REVERT JUMPDEST POP PUSH2 0x609 PUSH2 0x1713 JUMP JUMPDEST PUSH1 0x40 MLOAD PUSH2 0x616 SWAP2 SWAP1 PUSH2 0x1DE5 JUMP JUMPDEST PUSH1 0x40 MLOAD DUP1 SWAP2 SUB SWAP1 RETURN JUMPDEST CALLVALUE DUP1 ISZERO PUSH2 0x62B JUMPI PUSH1 0x0 DUP1 REVERT JUMPDEST POP PUSH2 0x634 PUSH2 0x17DC JUMP JUMPDEST PUSH1 0x40 MLOAD PUSH2 0x641 SWAP2 SWAP1 PUSH2 0x1DE5 JUMP JUMPDEST PUSH1 0x40 MLOAD DUP1 SWAP2 SUB SWAP1 RETURN JUMPDEST CALLVALUE DUP1 ISZERO PUSH2 0x656 JUMPI PUSH1 0x0 DUP1 REVERT JUMPDEST POP PUSH2 0x671 PUSH1 0x4 DUP1 CALLDATASIZE SUB DUP2 ADD SWAP1 PUSH2 0x66C SWAP2 SWAP1 PUSH2 0x1EC6 JUMP JUMPDEST PUSH2 0x1874 JUMP JUMPDEST PUSH1 0x40 MLOAD PUSH2 0x67E SWAP2 SWAP1 PUSH2 0x1DE5 JUMP JUMPDEST PUSH1 0x40 MLOAD DUP1 SWAP2 SUB SWAP1 RETURN JUMPDEST CALLVALUE DUP1 ISZERO PUSH2 0x693 JUMPI PUSH1 0x0 DUP1 REVERT JUMPDEST POP PUSH2 0x69C PUSH2 0x188C JUMP JUMPDEST STOP JUMPDEST CALLVALUE DUP1 ISZERO PUSH2 0x6AA JUMPI PUSH1 0x0 DUP1 REVERT JUMPDEST POP PUSH2 0x6B3 PUSH2 0x1891 JUMP JUMPDEST PUSH1 0x40 MLOAD PUSH2 0x6C0 SWAP2 SWAP1 PUSH2 0x1DE5 JUMP JUMPDEST PUSH1 0x40 MLOAD DUP1 SWAP2 SUB SWAP1 RETURN JUMPDEST PUSH2 0x6D1 PUSH2 0x1897 JUMP JUMPDEST STOP JUMPDEST CALLVALUE DUP1 ISZERO PUSH2 0x6DF JUMPI PUSH1 0x0 DUP1 REVERT JUMPDEST POP PUSH2 0x6E8 PUSH2 0x1AB7 JUMP JUMPDEST PUSH1 0x40 MLOAD PUSH2 0x6F5 SWAP2 SWAP1 PUSH2 0x1DE5 JUMP JUMPDEST PUSH1 0x40 MLOAD DUP1 SWAP2 SUB SWAP1 RETURN JUMPDEST CALLVALUE DUP1 ISZERO PUSH2 0x70A JUMPI PUSH1 0x0 DUP1 REVERT JUMPDEST POP PUSH2 0x725 PUSH1 0x4 DUP1 CALLDATASIZE SUB DUP2 ADD SWAP1 PUSH2 0x720 SWAP2 SWAP1 PUSH2 0x1EC6 JUMP JUMPDEST PUSH2 0x1ABD JUMP JUMPDEST STOP JUMPDEST PUSH1 0x0 PUSH32 0x5F8D5FE400000000000000000000000000000000000000000000000000000000 PUSH28 0xFFFFFFFFFFFFFFFFFFFFFFFFFFFFFFFFFFFFFFFFFFFFFFFFFFFFFFFF NOT AND DUP3 PUSH28 0xFFFFFFFFFFFFFFFFFFFFFFFFFFFFFFFFFFFFFFFFFFFFFFFFFFFFFFFF NOT AND EQ DUP1 PUSH2 0x7F2 JUMPI POP PUSH32 0x1FFC9A700000000000000000000000000000000000000000000000000000000 PUSH28 0xFFFFFFFFFFFFFFFFFFFFFFFFFFFFFFFFFFFFFFFFFFFFFFFFFFFFFFFF NOT AND DUP3 PUSH28 0xFFFFFFFFFFFFFFFFFFFFFFFFFFFFFFFFFFFFFFFFFFFFFFFFFFFFFFFF NOT AND EQ JUMPDEST DUP1 PUSH2 0x85A JUMPI POP PUSH32 0x7FF879E300000000000000000000000000000000000000000000000000000000 PUSH28 0xFFFFFFFFFFFFFFFFFFFFFFFFFFFFFFFFFFFFFFFFFFFFFFFFFFFFFFFF NOT AND DUP3 PUSH28 0xFFFFFFFFFFFFFFFFFFFFFFFFFFFFFFFFFFFFFFFFFFFFFFFFFFFFFFFF NOT AND EQ JUMPDEST SWAP1 POP SWAP2 SWAP1 POP JUMP JUMPDEST PUSH1 0x3 SLOAD DUP2 JUMP JUMPDEST PUSH1 0x8 SLOAD DUP2 JUMP JUMPDEST PUSH1 0xC PUSH1 0x0 SWAP1 SLOAD SWAP1 PUSH2 0x100 EXP SWAP1 DIV PUSH20 0xFFFFFFFFFFFFFFFFFFFFFFFFFFFFFFFFFFFFFFFF AND DUP2 JUMP JUMPDEST PUSH1 0xA SLOAD DUP2 JUMP JUMPDEST PUSH1 0x0 PUSH1 0xC PUSH1 0x0 SWAP1 SLOAD SWAP1 PUSH2 0x100 EXP SWAP1 DIV PUSH20 0xFFFFFFFFFFFFFFFFFFFFFFFFFFFFFFFFFFFFFFFF AND PUSH20 0xFFFFFFFFFFFFFFFFFFFFFFFFFFFFFFFFFFFFFFFF AND PUSH4 0x313CE567 PUSH1 0x40 MLOAD DUP2 PUSH4 0xFFFFFFFF AND PUSH1 0xE0 SHL DUP2 MSTORE PUSH1 0x4 ADD PUSH1 0x20 PUSH1 0x40 MLOAD DUP1 DUP4 SUB DUP2 DUP7 GAS STATICCALL ISZERO DUP1 ISZERO PUSH2 0x908 JUMPI RETURNDATASIZE PUSH1 0x0 DUP1 RETURNDATACOPY RETURNDATASIZE PUSH1 0x0 REVERT JUMPDEST POP POP POP POP PUSH1 0x40 MLOAD RETURNDATASIZE PUSH1 0x1F NOT PUSH1 0x1F DUP3 ADD AND DUP3 ADD DUP1 PUSH1 0x40 MSTORE POP DUP2 ADD SWAP1 PUSH2 0x92C SWAP2 SWAP1 PUSH2 0x214E JUMP JUMPDEST PUSH1 0xFF AND SWAP1 POP SWAP1 JUMP JUMPDEST PUSH1 0x0 DUP1 PUSH1 0xB PUSH1 0x0 SWAP1 SLOAD SWAP1 PUSH2 0x100 EXP SWAP1 DIV PUSH20 0xFFFFFFFFFFFFFFFFFFFFFFFFFFFFFFFFFFFFFFFF AND PUSH20 0xFFFFFFFFFFFFFFFFFFFFFFFFFFFFFFFFFFFFFFFF AND PUSH4 0xA035B1FE PUSH1 0x40 MLOAD DUP2 PUSH4 0xFFFFFFFF AND PUSH1 0xE0 SHL DUP2 MSTORE PUSH1 0x4 ADD PUSH1 0x20 PUSH1 0x40 MLOAD DUP1 DUP4 SUB DUP2 DUP7 GAS STATICCALL ISZERO DUP1 ISZERO PUSH2 0x9A4 JUMPI RETURNDATASIZE PUSH1 0x0 DUP1 RETURNDATACOPY RETURNDATASIZE PUSH1 0x0 REVERT JUMPDEST POP POP POP POP PUSH1 0x40 MLOAD RETURNDATASIZE PUSH1 0x1F NOT PUSH1 0x1F DUP3 ADD AND DUP3 ADD DUP1 PUSH1 0x40 MSTORE POP DUP2 ADD SWAP1 PUSH2 0x9C8 SWAP2 SWAP1 PUSH2 0x2190 JUMP JUMPDEST SWAP1 POP PUSH8 0xDE0B6B3A7640000 PUSH1 0x4 SLOAD PUSH2 0x9E0 SWAP2 SWAP1 PUSH2 0x1C02 JUMP JUMPDEST PUSH1 0xC PUSH1 0x0 SWAP1 SLOAD SWAP1 PUSH2 0x100 EXP SWAP1 DIV PUSH20 0xFFFFFFFFFFFFFFFFFFFFFFFFFFFFFFFFFFFFFFFF AND PUSH20 0xFFFFFFFFFFFFFFFFFFFFFFFFFFFFFFFFFFFFFFFF AND PUSH4 0x313CE567 PUSH1 0x40 MLOAD DUP2 PUSH4 0xFFFFFFFF AND PUSH1 0xE0 SHL DUP2 MSTORE PUSH1 0x4 ADD PUSH1 0x20 PUSH1 0x40 MLOAD DUP1 DUP4 SUB DUP2 DUP7 GAS STATICCALL ISZERO DUP1 ISZERO PUSH2 0xA4D JUMPI RETURNDATASIZE PUSH1 0x0 DUP1 RETURNDATACOPY RETURNDATASIZE PUSH1 0x0 REVERT JUMPDEST POP POP POP POP PUSH1 0x40 MLOAD RETURNDATASIZE PUSH1 0x1F NOT PUSH1 0x1F DUP3 ADD AND DUP3 ADD DUP1 PUSH1 0x40 MSTORE POP DUP2 ADD SWAP1 PUSH2 0xA71 SWAP2 SWAP1 PUSH2 0x214E JUMP JUMPDEST PUSH1 0xA PUSH2 0xA7D SWAP2 SWAP1 PUSH2 0x22F0 JUMP JUMPDEST PUSH1 0x3 SLOAD PUSH2 0xA8A SWAP2 SWAP1 PUSH2 0x1C02 JUMP JUMPDEST DUP3 PUSH2 0xA95 SWAP2 SWAP1 PUSH2 0x1C02 JUMP JUMPDEST PUSH2 0xA9F SWAP2 SWAP1 PUSH2 0x1B9D JUMP JUMPDEST SWAP2 POP POP SWAP1 JUMP JUMPDEST PUSH1 0xB PUSH1 0x0 SWAP1 SLOAD SWAP1 PUSH2 0x100 EXP SWAP1 DIV PUSH20 0xFFFFFFFFFFFFFFFFFFFFFFFFFFFFFFFFFFFFFFFF AND DUP2 JUMP JUMPDEST PUSH1 0x9 SLOAD DUP2 JUMP JUMPDEST PUSH1 0x0 PUSH1 0x1 DUP1 PUSH1 0x0 DUP3 DUP3 SLOAD PUSH2 0xAE5 SWAP2 SWAP1 PUSH2 0x1B3A JUMP JUMPDEST SWAP3 POP POP DUP2 SWAP1 SSTORE POP PUSH1 0x0 PUSH1 0x15 SWAP1 SLOAD SWAP1 PUSH2 0x100 EXP SWAP1 DIV PUSH1 0xFF AND ISZERO PUSH2 0xB0A JUMPI PUSH1 0x1 SWAP1 POP PUSH2 0xD1B JUMP JUMPDEST PUSH1 0xC PUSH1 0x0 SWAP1 SLOAD SWAP1 PUSH2 0x100 EXP SWAP1 DIV PUSH20 0xFFFFFFFFFFFFFFFFFFFFFFFFFFFFFFFFFFFFFFFF AND PUSH20 0xFFFFFFFFFFFFFFFFFFFFFFFFFFFFFFFFFFFFFFFF AND DUP3 PUSH20 0xFFFFFFFFFFFFFFFFFFFFFFFFFFFFFFFFFFFFFFFF AND EQ PUSH2 0xB9A JUMPI PUSH1 0x40 MLOAD PUSH32 0x8C379A000000000000000000000000000000000000000000000000000000000 DUP2 MSTORE PUSH1 0x4 ADD PUSH2 0xB91 SWAP1 PUSH2 0x23AD JUMP JUMPDEST PUSH1 0x40 MLOAD DUP1 SWAP2 SUB SWAP1 REVERT JUMPDEST PUSH1 0x0 DUP4 PUSH1 0x4 SLOAD PUSH2 0xBAA SWAP2 SWAP1 PUSH2 0x1B3A JUMP JUMPDEST PUSH1 0x2 SLOAD PUSH2 0xBB7 SWAP2 SWAP1 PUSH2 0x1B9D JUMP JUMPDEST PUSH1 0x3 SLOAD PUSH2 0xBC4 SWAP2 SWAP1 PUSH2 0x1BCE JUMP JUMPDEST SWAP1 POP PUSH1 0x0 PUSH1 0x8 SLOAD PUSH1 0x7 SLOAD DUP4 PUSH2 0xBD9 SWAP2 SWAP1 PUSH2 0x1C02 JUMP JUMPDEST PUSH2 0xBE3 SWAP2 SWAP1 PUSH2 0x1B9D JUMP JUMPDEST SWAP1 POP PUSH1 0x0 DUP7 PUSH20 0xFFFFFFFFFFFFFFFFFFFFFFFFFFFFFFFFFFFFFFFF AND DUP3 DUP5 PUSH2 0xC0A SWAP2 SWAP1 PUSH2 0x1BCE JUMP JUMPDEST PUSH1 0x40 MLOAD PUSH2 0xC16 SWAP1 PUSH2 0x23FE JUMP JUMPDEST PUSH1 0x0 PUSH1 0x40 MLOAD DUP1 DUP4 SUB DUP2 DUP6 DUP8 GAS CALL SWAP3 POP POP POP RETURNDATASIZE DUP1 PUSH1 0x0 DUP2 EQ PUSH2 0xC53 JUMPI PUSH1 0x40 MLOAD SWAP2 POP PUSH1 0x1F NOT PUSH1 0x3F RETURNDATASIZE ADD AND DUP3 ADD PUSH1 0x40 MSTORE RETURNDATASIZE DUP3 MSTORE RETURNDATASIZE PUSH1 0x0 PUSH1 0x20 DUP5 ADD RETURNDATACOPY PUSH2 0xC58 JUMP JUMPDEST PUSH1 0x60 SWAP2 POP JUMPDEST POP POP SWAP1 POP DUP1 PUSH2 0xC9C JUMPI PUSH1 0x40 MLOAD PUSH32 0x8C379A000000000000000000000000000000000000000000000000000000000 DUP2 MSTORE PUSH1 0x4 ADD PUSH2 0xC93 SWAP1 PUSH2 0x245F JUMP JUMPDEST PUSH1 0x40 MLOAD DUP1 SWAP2 SUB SWAP1 REVERT JUMPDEST DUP3 PUSH1 0x3 PUSH1 0x0 DUP3 DUP3 SLOAD PUSH2 0xCAE SWAP2 SWAP1 PUSH2 0x1BCE JUMP JUMPDEST SWAP3 POP POP DUP2 SWAP1 SSTORE POP DUP6 PUSH1 0x4 PUSH1 0x0 DUP3 DUP3 SLOAD PUSH2 0xCC7 SWAP2 SWAP1 PUSH2 0x1B3A JUMP JUMPDEST SWAP3 POP POP DUP2 SWAP1 SSTORE POP DUP2 PUSH1 0x9 PUSH1 0x0 DUP3 DUP3 SLOAD PUSH2 0xCE0 SWAP2 SWAP1 PUSH2 0x1B3A JUMP JUMPDEST SWAP3 POP POP DUP2 SWAP1 SSTORE POP PUSH32 0x8866993F7C029BE4215942B34C1545282B8F28836579F2687FE96A5A6BF77704 PUSH1 0x40 MLOAD PUSH1 0x40 MLOAD DUP1 SWAP2 SUB SWAP1 LOG1 PUSH1 0x1 SWAP4 POP POP POP POP JUMPDEST SWAP4 SWAP3 POP POP POP JUMP JUMPDEST PUSH1 0x6 PUSH1 0x20 MSTORE DUP1 PUSH1 0x0 MSTORE PUSH1 0x40 PUSH1 0x0 KECCAK256 PUSH1 0x0 SWAP2 POP SWAP1 POP SLOAD DUP2 JUMP JUMPDEST PUSH1 0x60 PUSH1 0xC PUSH1 0x0 SWAP1 SLOAD SWAP1 PUSH2 0x100 EXP SWAP1 DIV PUSH20 0xFFFFFFFFFFFFFFFFFFFFFFFFFFFFFFFFFFFFFFFF AND PUSH20 0xFFFFFFFFFFFFFFFFFFFFFFFFFFFFFFFFFFFFFFFF AND PUSH4 0x95D89B41 PUSH1 0x40 MLOAD DUP2 PUSH4 0xFFFFFFFF AND PUSH1 0xE0 SHL DUP2 MSTORE PUSH1 0x4 ADD PUSH1 0x0 PUSH1 0x40 MLOAD DUP1 DUP4 SUB DUP2 DUP7 GAS STATICCALL ISZERO DUP1 ISZERO PUSH2 0xDA9 JUMPI RETURNDATASIZE PUSH1 0x0 DUP1 RETURNDATACOPY RETURNDATASIZE PUSH1 0x0 REVERT JUMPDEST POP POP POP POP PUSH1 0x40 MLOAD RETURNDATASIZE PUSH1 0x0 DUP3 RETURNDATACOPY RETURNDATASIZE PUSH1 0x1F NOT PUSH1 0x1F DUP3 ADD AND DUP3 ADD DUP1 PUSH1 0x40 MSTORE POP DUP2 ADD SWAP1 PUSH2 0xDD2 SWAP2 SWAP1 PUSH2 0x25A5 JUMP JUMPDEST SWAP1 POP SWAP1 JUMP JUMPDEST DUP1 PUSH1 0x5 PUSH1 0x0 CALLER PUSH20 0xFFFFFFFFFFFFFFFFFFFFFFFFFFFFFFFFFFFFFFFF AND PUSH20 0xFFFFFFFFFFFFFFFFFFFFFFFFFFFFFFFFFFFFFFFF AND DUP2 MSTORE PUSH1 0x20 ADD SWAP1 DUP2 MSTORE PUSH1 0x20 ADD PUSH1 0x0 KECCAK256 SLOAD LT ISZERO PUSH2 0xE59 JUMPI PUSH1 0x40 MLOAD PUSH32 0x8C379A000000000000000000000000000000000000000000000000000000000 DUP2 MSTORE PUSH1 0x4 ADD PUSH2 0xE50 SWAP1 PUSH2 0x2660 JUMP JUMPDEST PUSH1 0x40 MLOAD DUP1 SWAP2 SUB SWAP1 REVERT JUMPDEST PUSH1 0x0 PUSH1 0x3 SLOAD PUSH1 0x4 SLOAD DUP4 PUSH2 0xE6C SWAP2 SWAP1 PUSH2 0x1C02 JUMP JUMPDEST PUSH2 0xE76 SWAP2 SWAP1 PUSH2 0x1B9D JUMP JUMPDEST SWAP1 POP PUSH1 0x0 CALLER PUSH20 0xFFFFFFFFFFFFFFFFFFFFFFFFFFFFFFFFFFFFFFFF AND DUP4 PUSH1 0x40 MLOAD PUSH2 0xE9E SWAP1 PUSH2 0x23FE JUMP JUMPDEST PUSH1 0x0 PUSH1 0x40 MLOAD DUP1 DUP4 SUB DUP2 DUP6 DUP8 GAS CALL SWAP3 POP POP POP RETURNDATASIZE DUP1 PUSH1 0x0 DUP2 EQ PUSH2 0xEDB JUMPI PUSH1 0x40 MLOAD SWAP2 POP PUSH1 0x1F NOT PUSH1 0x3F RETURNDATASIZE ADD AND DUP3 ADD PUSH1 0x40 MSTORE RETURNDATASIZE DUP3 MSTORE RETURNDATASIZE PUSH1 0x0 PUSH1 0x20 DUP5 ADD RETURNDATACOPY PUSH2 0xEE0 JUMP JUMPDEST PUSH1 0x60 SWAP2 POP JUMPDEST POP POP SWAP1 POP DUP1 PUSH2 0xF24 JUMPI PUSH1 0x40 MLOAD PUSH32 0x8C379A000000000000000000000000000000000000000000000000000000000 DUP2 MSTORE PUSH1 0x4 ADD PUSH2 0xF1B SWAP1 PUSH2 0x245F JUMP JUMPDEST PUSH1 0x40 MLOAD DUP1 SWAP2 SUB SWAP1 REVERT JUMPDEST PUSH1 0x1 PUSH1 0x0 PUSH1 0x15 PUSH2 0x100 EXP DUP2 SLOAD DUP2 PUSH1 0xFF MUL NOT AND SWAP1 DUP4 ISZERO ISZERO MUL OR SWAP1 SSTORE POP PUSH1 0xC PUSH1 0x0 SWAP1 SLOAD SWAP1 PUSH2 0x100 EXP SWAP1 DIV PUSH20 0xFFFFFFFFFFFFFFFFFFFFFFFFFFFFFFFFFFFFFFFF AND PUSH20 0xFFFFFFFFFFFFFFFFFFFFFFFFFFFFFFFFFFFFFFFF AND PUSH4 0xA9059CBB CALLER DUP5 PUSH1 0x40 MLOAD DUP4 PUSH4 0xFFFFFFFF AND PUSH1 0xE0 SHL DUP2 MSTORE PUSH1 0x4 ADD PUSH2 0xF9C SWAP3 SWAP2 SWAP1 PUSH2 0x1C94 JUMP JUMPDEST PUSH1 0x20 PUSH1 0x40 MLOAD DUP1 DUP4 SUB DUP2 PUSH1 0x0 DUP8 GAS CALL ISZERO DUP1 ISZERO PUSH2 0xFBB JUMPI RETURNDATASIZE PUSH1 0x0 DUP1 RETURNDATACOPY RETURNDATASIZE PUSH1 0x0 REVERT JUMPDEST POP POP POP POP PUSH1 0x40 MLOAD RETURNDATASIZE PUSH1 0x1F NOT PUSH1 0x1F DUP3 ADD AND DUP3 ADD DUP1 PUSH1 0x40 MSTORE POP DUP2 ADD SWAP1 PUSH2 0xFDF SWAP2 SWAP1 PUSH2 0x1D09 JUMP JUMPDEST POP PUSH1 0x0 DUP1 PUSH1 0x15 PUSH2 0x100 EXP DUP2 SLOAD DUP2 PUSH1 0xFF MUL NOT AND SWAP1 DUP4 ISZERO ISZERO MUL OR SWAP1 SSTORE POP DUP3 PUSH1 0x5 PUSH1 0x0 CALLER PUSH20 0xFFFFFFFFFFFFFFFFFFFFFFFFFFFFFFFFFFFFFFFF AND PUSH20 0xFFFFFFFFFFFFFFFFFFFFFFFFFFFFFFFFFFFFFFFF AND DUP2 MSTORE PUSH1 0x20 ADD SWAP1 DUP2 MSTORE PUSH1 0x20 ADD PUSH1 0x0 KECCAK256 PUSH1 0x0 DUP3 DUP3 SLOAD PUSH2 0x1049 SWAP2 SWAP1 PUSH2 0x1BCE JUMP JUMPDEST SWAP3 POP POP DUP2 SWAP1 SSTORE POP DUP2 PUSH1 0x6 PUSH1 0x0 CALLER PUSH20 0xFFFFFFFFFFFFFFFFFFFFFFFFFFFFFFFFFFFFFFFF AND PUSH20 0xFFFFFFFFFFFFFFFFFFFFFFFFFFFFFFFFFFFFFFFF AND DUP2 MSTORE PUSH1 0x20 ADD SWAP1 DUP2 MSTORE PUSH1 0x20 ADD PUSH1 0x0 KECCAK256 PUSH1 0x0 DUP3 DUP3 SLOAD PUSH2 0x109F SWAP2 SWAP1 PUSH2 0x1BCE JUMP JUMPDEST SWAP3 POP POP DUP2 SWAP1 SSTORE POP DUP3 PUSH1 0x3 PUSH1 0x0 DUP3 DUP3 SLOAD PUSH2 0x10B8 SWAP2 SWAP1 PUSH2 0x1BCE JUMP JUMPDEST SWAP3 POP POP DUP2 SWAP1 SSTORE POP DUP2 PUSH1 0x4 PUSH1 0x0 DUP3 DUP3 SLOAD PUSH2 0x10D1 SWAP2 SWAP1 PUSH2 0x1BCE JUMP JUMPDEST SWAP3 POP POP DUP2 SWAP1 SSTORE POP PUSH1 0x4 SLOAD PUSH1 0x3 SLOAD PUSH2 0x10E8 SWAP2 SWAP1 PUSH2 0x1C02 JUMP JUMPDEST PUSH1 0x2 DUP2 SWAP1 SSTORE POP PUSH32 0x8866993F7C029BE4215942B34C1545282B8F28836579F2687FE96A5A6BF77704 PUSH1 0x40 MLOAD PUSH1 0x40 MLOAD DUP1 SWAP2 SUB SWAP1 LOG1 POP POP POP JUMP JUMPDEST PUSH1 0x0 PUSH1 0x60 DUP1 PUSH1 0x0 DUP1 PUSH1 0x0 DUP1 PUSH1 0x0 DUP1 PUSH1 0x0 DUP1 PUSH1 0x0 ADDRESS PUSH1 0xC PUSH1 0x0 SWAP1 SLOAD SWAP1 PUSH2 0x100 EXP SWAP1 DIV PUSH20 0xFFFFFFFFFFFFFFFFFFFFFFFFFFFFFFFFFFFFFFFF AND PUSH20 0xFFFFFFFFFFFFFFFFFFFFFFFFFFFFFFFFFFFFFFFF AND PUSH4 0x95D89B41 PUSH1 0x40 MLOAD DUP2 PUSH4 0xFFFFFFFF AND PUSH1 0xE0 SHL DUP2 MSTORE PUSH1 0x4 ADD PUSH1 0x0 PUSH1 0x40 MLOAD DUP1 DUP4 SUB DUP2 DUP7 GAS STATICCALL ISZERO DUP1 ISZERO PUSH2 0x11A0 JUMPI RETURNDATASIZE PUSH1 0x0 DUP1 RETURNDATACOPY RETURNDATASIZE PUSH1 0x0 REVERT JUMPDEST POP POP POP POP PUSH1 0x40 MLOAD RETURNDATASIZE PUSH1 0x0 DUP3 RETURNDATACOPY RETURNDATASIZE PUSH1 0x1F NOT PUSH1 0x1F DUP3 ADD AND DUP3 ADD DUP1 PUSH1 0x40 MSTORE POP DUP2 ADD SWAP1 PUSH2 0x11C9 SWAP2 SWAP1 PUSH2 0x25A5 JUMP JUMPDEST PUSH1 0xC PUSH1 0x0 SWAP1 SLOAD SWAP1 PUSH2 0x100 EXP SWAP1 DIV PUSH20 0xFFFFFFFFFFFFFFFFFFFFFFFFFFFFFFFFFFFFFFFF AND PUSH20 0xFFFFFFFFFFFFFFFFFFFFFFFFFFFFFFFFFFFFFFFF AND PUSH4 0x6FDDE03 PUSH1 0x40 MLOAD DUP2 PUSH4 0xFFFFFFFF AND PUSH1 0xE0 SHL DUP2 MSTORE PUSH1 0x4 ADD PUSH1 0x0 PUSH1 0x40 MLOAD DUP1 DUP4 SUB DUP2 DUP7 GAS STATICCALL ISZERO DUP1 ISZERO PUSH2 0x1236 JUMPI RETURNDATASIZE PUSH1 0x0 DUP1 RETURNDATACOPY RETURNDATASIZE PUSH1 0x0 REVERT JUMPDEST POP POP POP POP PUSH1 0x40 MLOAD RETURNDATASIZE PUSH1 0x0 DUP3 RETURNDATACOPY RETURNDATASIZE PUSH1 0x1F NOT PUSH1 0x1F DUP3 ADD AND DUP3 ADD DUP1 PUSH1 0x40 MSTORE POP DUP2 ADD SWAP1 PUSH2 0x125F SWAP2 SWAP1 PUSH2 0x25A5 JUMP JUMPDEST PUSH1 0xC PUSH1 0x0 SWAP1 SLOAD SWAP1 PUSH2 0x100 EXP SWAP1 DIV PUSH20 0xFFFFFFFFFFFFFFFFFFFFFFFFFFFFFFFFFFFFFFFF AND PUSH1 0x2 SLOAD PUSH1 0x3 SLOAD PUSH1 0x4 SLOAD PUSH1 0x7 SLOAD PUSH1 0x8 SLOAD PUSH1 0xC PUSH1 0x0 SWAP1 SLOAD SWAP1 PUSH2 0x100 EXP SWAP1 DIV PUSH20 0xFFFFFFFFFFFFFFFFFFFFFFFFFFFFFFFFFFFFFFFF AND PUSH20 0xFFFFFFFFFFFFFFFFFFFFFFFFFFFFFFFFFFFFFFFF AND PUSH4 0x313CE567 PUSH1 0x40 MLOAD DUP2 PUSH4 0xFFFFFFFF AND PUSH1 0xE0 SHL DUP2 MSTORE PUSH1 0x4 ADD PUSH1 0x20 PUSH1 0x40 MLOAD DUP1 DUP4 SUB DUP2 DUP7 GAS STATICCALL ISZERO DUP1 ISZERO PUSH2 0x12FE JUMPI RETURNDATASIZE PUSH1 0x0 DUP1 RETURNDATACOPY RETURNDATASIZE PUSH1 0x0 REVERT JUMPDEST POP POP POP POP PUSH1 0x40 MLOAD RETURNDATASIZE PUSH1 0x1F NOT PUSH1 0x1F DUP3 ADD AND DUP3 ADD DUP1 PUSH1 0x40 MSTORE POP DUP2 ADD SWAP1 PUSH2 0x1322 SWAP2 SWAP1 PUSH2 0x214E JUMP JUMPDEST PUSH1 0x9 SLOAD PUSH1 0xA SLOAD DUP3 PUSH1 0xFF AND SWAP3 POP SWAP12 POP SWAP12 POP SWAP12 POP SWAP12 POP SWAP12 POP SWAP12 POP SWAP12 POP SWAP12 POP SWAP12 POP SWAP12 POP SWAP12 POP SWAP12 POP SWAP1 SWAP2 SWAP3 SWAP4 SWAP5 SWAP6 SWAP7 SWAP8 SWAP9 SWAP10 SWAP11 SWAP12 JUMP JUMPDEST PUSH1 0x4 SLOAD DUP2 JUMP JUMPDEST PUSH1 0x0 DUP1 SLOAD SWAP1 PUSH2 0x100 EXP SWAP1 DIV PUSH1 0xFF AND ISZERO PUSH2 0x13A8 JUMPI PUSH1 0x40 MLOAD PUSH32 0x8C379A000000000000000000000000000000000000000000000000000000000 DUP2 MSTORE PUSH1 0x4 ADD PUSH2 0x139F SWAP1 PUSH2 0x26F2 JUMP JUMPDEST PUSH1 0x40 MLOAD DUP1 SWAP2 SUB SWAP1 REVERT JUMPDEST PUSH1 0x0 PUSH1 0x1 SWAP1 SLOAD SWAP1 PUSH2 0x100 EXP SWAP1 DIV PUSH20 0xFFFFFFFFFFFFFFFFFFFFFFFFFFFFFFFFFFFFFFFF AND PUSH20 0xFFFFFFFFFFFFFFFFFFFFFFFFFFFFFFFFFFFFFFFF AND CALLER PUSH20 0xFFFFFFFFFFFFFFFFFFFFFFFFFFFFFFFFFFFFFFFF AND EQ PUSH2 0x1438 JUMPI PUSH1 0x40 MLOAD PUSH32 0x8C379A000000000000000000000000000000000000000000000000000000000 DUP2 MSTORE PUSH1 0x4 ADD PUSH2 0x142F SWAP1 PUSH2 0x2784 JUMP JUMPDEST PUSH1 0x40 MLOAD DUP1 SWAP2 SUB SWAP1 REVERT JUMPDEST DUP5 DUP3 PUSH20 0xFFFFFFFFFFFFFFFFFFFFFFFFFFFFFFFFFFFFFFFF AND PUSH4 0xDD62ED3E CALLER ADDRESS PUSH1 0x40 MLOAD DUP4 PUSH4 0xFFFFFFFF AND PUSH1 0xE0 SHL DUP2 MSTORE PUSH1 0x4 ADD PUSH2 0x1474 SWAP3 SWAP2 SWAP1 PUSH2 0x27A4 JUMP JUMPDEST PUSH1 0x20 PUSH1 0x40 MLOAD DUP1 DUP4 SUB DUP2 DUP7 GAS STATICCALL ISZERO DUP1 ISZERO PUSH2 0x1491 JUMPI RETURNDATASIZE PUSH1 0x0 DUP1 RETURNDATACOPY RETURNDATASIZE PUSH1 0x0 REVERT JUMPDEST POP POP POP POP PUSH1 0x40 MLOAD RETURNDATASIZE PUSH1 0x1F NOT PUSH1 0x1F DUP3 ADD AND DUP3 ADD DUP1 PUSH1 0x40 MSTORE POP DUP2 ADD SWAP1 PUSH2 0x14B5 SWAP2 SWAP1 PUSH2 0x2190 JUMP JUMPDEST LT ISZERO PUSH2 0x14F6 JUMPI PUSH1 0x40 MLOAD PUSH32 0x8C379A000000000000000000000000000000000000000000000000000000000 DUP2 MSTORE PUSH1 0x4 ADD PUSH2 0x14ED SWAP1 PUSH2 0x2865 JUMP JUMPDEST PUSH1 0x40 MLOAD DUP1 SWAP2 SUB SWAP1 REVERT JUMPDEST PUSH1 0x1 PUSH1 0x0 PUSH1 0x15 PUSH2 0x100 EXP DUP2 SLOAD DUP2 PUSH1 0xFF MUL NOT AND SWAP1 DUP4 ISZERO ISZERO MUL OR SWAP1 SSTORE POP DUP2 PUSH20 0xFFFFFFFFFFFFFFFFFFFFFFFFFFFFFFFFFFFFFFFF AND PUSH4 0x23B872DD CALLER ADDRESS DUP9 PUSH1 0x40 MLOAD DUP5 PUSH4 0xFFFFFFFF AND PUSH1 0xE0 SHL DUP2 MSTORE PUSH1 0x4 ADD PUSH2 0x154E SWAP4 SWAP3 SWAP2 SWAP1 PUSH2 0x2885 JUMP JUMPDEST PUSH1 0x20 PUSH1 0x40 MLOAD DUP1 DUP4 SUB DUP2 PUSH1 0x0 DUP8 GAS CALL ISZERO DUP1 ISZERO PUSH2 0x156D JUMPI RETURNDATASIZE PUSH1 0x0 DUP1 RETURNDATACOPY RETURNDATASIZE PUSH1 0x0 REVERT JUMPDEST POP POP POP POP PUSH1 0x40 MLOAD RETURNDATASIZE PUSH1 0x1F NOT PUSH1 0x1F DUP3 ADD AND DUP3 ADD DUP1 PUSH1 0x40 MSTORE POP DUP2 ADD SWAP1 PUSH2 0x1591 SWAP2 SWAP1 PUSH2 0x1D09 JUMP JUMPDEST POP PUSH1 0x0 DUP1 PUSH1 0x15 PUSH2 0x100 EXP DUP2 SLOAD DUP2 PUSH1 0xFF MUL NOT AND SWAP1 DUP4 ISZERO ISZERO MUL OR SWAP1 SSTORE POP CALLVALUE PUSH1 0x3 DUP2 SWAP1 SSTORE POP DUP5 PUSH1 0x4 DUP2 SWAP1 SSTORE POP PUSH1 0x4 SLOAD PUSH1 0x3 SLOAD PUSH2 0x15CA SWAP2 SWAP1 PUSH2 0x1C02 JUMP JUMPDEST PUSH1 0x2 DUP2 SWAP1 SSTORE POP DUP4 PUSH1 0x7 DUP2 SWAP1 SSTORE POP DUP3 PUSH1 0x8 DUP2 SWAP1 SSTORE POP PUSH1 0x3 SLOAD PUSH1 0x5 PUSH1 0x0 CALLER PUSH20 0xFFFFFFFFFFFFFFFFFFFFFFFFFFFFFFFFFFFFFFFF AND PUSH20 0xFFFFFFFFFFFFFFFFFFFFFFFFFFFFFFFFFFFFFFFF AND DUP2 MSTORE PUSH1 0x20 ADD SWAP1 DUP2 MSTORE PUSH1 0x20 ADD PUSH1 0x0 KECCAK256 DUP2 SWAP1 SSTORE POP PUSH1 0x4 SLOAD PUSH1 0x6 PUSH1 0x0 CALLER PUSH20 0xFFFFFFFFFFFFFFFFFFFFFFFFFFFFFFFFFFFFFFFF AND PUSH20 0xFFFFFFFFFFFFFFFFFFFFFFFFFFFFFFFFFFFFFFFF AND DUP2 MSTORE PUSH1 0x20 ADD SWAP1 DUP2 MSTORE PUSH1 0x20 ADD PUSH1 0x0 KECCAK256 DUP2 SWAP1 SSTORE POP DUP2 PUSH1 0xC PUSH1 0x0 PUSH2 0x100 EXP DUP2 SLOAD DUP2 PUSH20 0xFFFFFFFFFFFFFFFFFFFFFFFFFFFFFFFFFFFFFFFF MUL NOT AND SWAP1 DUP4 PUSH20 0xFFFFFFFFFFFFFFFFFFFFFFFFFFFFFFFFFFFFFFFF AND MUL OR SWAP1 SSTORE POP DUP1 PUSH1 0xB PUSH1 0x0 PUSH2 0x100 EXP DUP2 SLOAD DUP2 PUSH20 0xFFFFFFFFFFFFFFFFFFFFFFFFFFFFFFFFFFFFFFFF MUL NOT AND SWAP1 DUP4 PUSH20 0xFFFFFFFFFFFFFFFFFFFFFFFFFFFFFFFFFFFFFFFF AND MUL OR SWAP1 SSTORE POP PUSH1 0x1 PUSH1 0x0 DUP1 PUSH2 0x100 EXP DUP2 SLOAD DUP2 PUSH1 0xFF MUL NOT AND SWAP1 DUP4 ISZERO ISZERO MUL OR SWAP1 SSTORE POP POP POP POP POP POP JUMP JUMPDEST PUSH1 0x2 SLOAD DUP2 JUMP JUMPDEST PUSH1 0x0 DUP1 PUSH1 0xB PUSH1 0x0 SWAP1 SLOAD SWAP1 PUSH2 0x100 EXP SWAP1 DIV PUSH20 0xFFFFFFFFFFFFFFFFFFFFFFFFFFFFFFFFFFFFFFFF AND PUSH20 0xFFFFFFFFFFFFFFFFFFFFFFFFFFFFFFFFFFFFFFFF AND PUSH4 0xA035B1FE PUSH1 0x40 MLOAD DUP2 PUSH4 0xFFFFFFFF AND PUSH1 0xE0 SHL DUP2 MSTORE PUSH1 0x4 ADD PUSH1 0x20 PUSH1 0x40 MLOAD DUP1 DUP4 SUB DUP2 DUP7 GAS STATICCALL ISZERO DUP1 ISZERO PUSH2 0x1783 JUMPI RETURNDATASIZE PUSH1 0x0 DUP1 RETURNDATACOPY RETURNDATASIZE PUSH1 0x0 REVERT JUMPDEST POP POP POP POP PUSH1 0x40 MLOAD RETURNDATASIZE PUSH1 0x1F NOT PUSH1 0x1F DUP3 ADD AND DUP3 ADD DUP1 PUSH1 0x40 MSTORE POP DUP2 ADD SWAP1 PUSH2 0x17A7 SWAP2 SWAP1 PUSH2 0x2190 JUMP JUMPDEST SWAP1 POP PUSH8 0xDE0B6B3A7640000 DUP2 PUSH1 0x3 SLOAD PUSH1 0x2 PUSH2 0x17C2 SWAP2 SWAP1 PUSH2 0x1C02 JUMP JUMPDEST PUSH2 0x17CC SWAP2 SWAP1 PUSH2 0x1C02 JUMP JUMPDEST PUSH2 0x17D6 SWAP2 SWAP1 PUSH2 0x1B9D JUMP JUMPDEST SWAP2 POP POP SWAP1 JUMP JUMPDEST PUSH1 0x0 PUSH1 0xB PUSH1 0x0 SWAP1 SLOAD SWAP1 PUSH2 0x100 EXP SWAP1 DIV PUSH20 0xFFFFFFFFFFFFFFFFFFFFFFFFFFFFFFFFFFFFFFFF AND PUSH20 0xFFFFFFFFFFFFFFFFFFFFFFFFFFFFFFFFFFFFFFFF AND PUSH4 0xA035B1FE PUSH1 0x40 MLOAD DUP2 PUSH4 0xFFFFFFFF AND PUSH1 0xE0 SHL DUP2 MSTORE PUSH1 0x4 ADD PUSH1 0x20 PUSH1 0x40 MLOAD DUP1 DUP4 SUB DUP2 DUP7 GAS STATICCALL ISZERO DUP1 ISZERO PUSH2 0x184B JUMPI RETURNDATASIZE PUSH1 0x0 DUP1 RETURNDATACOPY RETURNDATASIZE PUSH1 0x0 REVERT JUMPDEST POP POP POP POP PUSH1 0x40 MLOAD RETURNDATASIZE PUSH1 0x1F NOT PUSH1 0x1F DUP3 ADD AND DUP3 ADD DUP1 PUSH1 0x40 MSTORE POP DUP2 ADD SWAP1 PUSH2 0x186F SWAP2 SWAP1 PUSH2 0x2190 JUMP JUMPDEST SWAP1 POP SWAP1 JUMP JUMPDEST PUSH1 0x5 PUSH1 0x20 MSTORE DUP1 PUSH1 0x0 MSTORE PUSH1 0x40 PUSH1 0x0 KECCAK256 PUSH1 0x0 SWAP2 POP SWAP1 POP SLOAD DUP2 JUMP JUMPDEST PUSH1 0x0 DUP1 REVERT JUMPDEST PUSH1 0x1 SLOAD DUP2 JUMP JUMPDEST PUSH1 0x0 CALLVALUE SWAP1 POP PUSH1 0x0 PUSH1 0x3 SLOAD PUSH1 0x4 SLOAD DUP4 PUSH2 0x18AF SWAP2 SWAP1 PUSH2 0x1C02 JUMP JUMPDEST PUSH2 0x18B9 SWAP2 SWAP1 PUSH2 0x1B9D JUMP JUMPDEST SWAP1 POP PUSH1 0x1 PUSH1 0x0 PUSH1 0x15 PUSH2 0x100 EXP DUP2 SLOAD DUP2 PUSH1 0xFF MUL NOT AND SWAP1 DUP4 ISZERO ISZERO MUL OR SWAP1 SSTORE POP PUSH1 0xC PUSH1 0x0 SWAP1 SLOAD SWAP1 PUSH2 0x100 EXP SWAP1 DIV PUSH20 0xFFFFFFFFFFFFFFFFFFFFFFFFFFFFFFFFFFFFFFFF AND PUSH20 0xFFFFFFFFFFFFFFFFFFFFFFFFFFFFFFFFFFFFFFFF AND PUSH4 0x23B872DD CALLER ADDRESS DUP5 PUSH1 0x40 MLOAD DUP5 PUSH4 0xFFFFFFFF AND PUSH1 0xE0 SHL DUP2 MSTORE PUSH1 0x4 ADD PUSH2 0x1935 SWAP4 SWAP3 SWAP2 SWAP1 PUSH2 0x2885 JUMP JUMPDEST PUSH1 0x20 PUSH1 0x40 MLOAD DUP1 DUP4 SUB DUP2 PUSH1 0x0 DUP8 GAS CALL ISZERO DUP1 ISZERO PUSH2 0x1954 JUMPI RETURNDATASIZE PUSH1 0x0 DUP1 RETURNDATACOPY RETURNDATASIZE PUSH1 0x0 REVERT JUMPDEST POP POP POP POP PUSH1 0x40 MLOAD RETURNDATASIZE PUSH1 0x1F NOT PUSH1 0x1F DUP3 ADD AND DUP3 ADD DUP1 PUSH1 0x40 MSTORE POP DUP2 ADD SWAP1 PUSH2 0x1978 SWAP2 SWAP1 PUSH2 0x1D09 JUMP JUMPDEST POP PUSH1 0x0 DUP1 PUSH1 0x15 PUSH2 0x100 EXP DUP2 SLOAD DUP2 PUSH1 0xFF MUL NOT AND SWAP1 DUP4 ISZERO ISZERO MUL OR SWAP1 SSTORE POP DUP2 PUSH1 0x3 PUSH1 0x0 DUP3 DUP3 SLOAD PUSH2 0x19A5 SWAP2 SWAP1 PUSH2 0x1B3A JUMP JUMPDEST SWAP3 POP POP DUP2 SWAP1 SSTORE POP DUP1 PUSH1 0x4 PUSH1 0x0 DUP3 DUP3 SLOAD PUSH2 0x19BE SWAP2 SWAP1 PUSH2 0x1B3A JUMP JUMPDEST SWAP3 POP POP DUP2 SWAP1 SSTORE POP PUSH1 0x4 SLOAD PUSH1 0x3 SLOAD PUSH2 0x19D5 SWAP2 SWAP1 PUSH2 0x1C02 JUMP JUMPDEST PUSH1 0x2 DUP2 SWAP1 SSTORE POP DUP2 PUSH1 0x5 PUSH1 0x0 CALLER PUSH20 0xFFFFFFFFFFFFFFFFFFFFFFFFFFFFFFFFFFFFFFFF AND PUSH20 0xFFFFFFFFFFFFFFFFFFFFFFFFFFFFFFFFFFFFFFFF AND DUP2 MSTORE PUSH1 0x20 ADD SWAP1 DUP2 MSTORE PUSH1 0x20 ADD PUSH1 0x0 KECCAK256 PUSH1 0x0 DUP3 DUP3 SLOAD PUSH2 0x1A2A SWAP2 SWAP1 PUSH2 0x1B3A JUMP JUMPDEST SWAP3 POP POP DUP2 SWAP1 SSTORE POP DUP1 PUSH1 0x6 PUSH1 0x0 CALLER PUSH20 0xFFFFFFFFFFFFFFFFFFFFFFFFFFFFFFFFFFFFFFFF AND PUSH20 0xFFFFFFFFFFFFFFFFFFFFFFFFFFFFFFFFFFFFFFFF AND DUP2 MSTORE PUSH1 0x20 ADD SWAP1 DUP2 MSTORE PUSH1 0x20 ADD PUSH1 0x0 KECCAK256 PUSH1 0x0 DUP3 DUP3 SLOAD PUSH2 0x1A80 SWAP2 SWAP1 PUSH2 0x1B3A JUMP JUMPDEST SWAP3 POP POP DUP2 SWAP1 SSTORE POP PUSH32 0x8866993F7C029BE4215942B34C1545282B8F28836579F2687FE96A5A6BF77704 PUSH1 0x40 MLOAD PUSH1 0x40 MLOAD DUP1 SWAP2 SUB SWAP1 LOG1 POP POP JUMP JUMPDEST PUSH1 0x7 SLOAD DUP2 JUMP JUMPDEST DUP1 PUSH1 0xB PUSH1 0x0 PUSH2 0x100 EXP DUP2 SLOAD DUP2 PUSH20 0xFFFFFFFFFFFFFFFFFFFFFFFFFFFFFFFFFFFFFFFF MUL NOT AND SWAP1 DUP4 PUSH20 0xFFFFFFFFFFFFFFFFFFFFFFFFFFFFFFFFFFFFFFFF AND MUL OR SWAP1 SSTORE POP POP JUMP JUMPDEST PUSH1 0x0 DUP2 SWAP1 POP SWAP2 SWAP1 POP JUMP JUMPDEST PUSH32 0x4E487B7100000000000000000000000000000000000000000000000000000000 PUSH1 0x0 MSTORE PUSH1 0x11 PUSH1 0x4 MSTORE PUSH1 0x24 PUSH1 0x0 REVERT JUMPDEST PUSH1 0x0 PUSH2 0x1B45 DUP3 PUSH2 0x1B01 JUMP JUMPDEST SWAP2 POP PUSH2 0x1B50 DUP4 PUSH2 0x1B01 JUMP JUMPDEST SWAP3 POP DUP3 DUP3 ADD SWAP1 POP DUP1 DUP3 GT ISZERO PUSH2 0x1B68 JUMPI PUSH2 0x1B67 PUSH2 0x1B0B JUMP JUMPDEST JUMPDEST SWAP3 SWAP2 POP POP JUMP JUMPDEST PUSH32 0x4E487B7100000000000000000000000000000000000000000000000000000000 PUSH1 0x0 MSTORE PUSH1 0x12 PUSH1 0x4 MSTORE PUSH1 0x24 PUSH1 0x0 REVERT JUMPDEST PUSH1 0x0 PUSH2 0x1BA8 DUP3 PUSH2 0x1B01 JUMP JUMPDEST SWAP2 POP PUSH2 0x1BB3 DUP4 PUSH2 0x1B01 JUMP JUMPDEST SWAP3 POP DUP3 PUSH2 0x1BC3 JUMPI PUSH2 0x1BC2 PUSH2 0x1B6E JUMP JUMPDEST JUMPDEST DUP3 DUP3 DIV SWAP1 POP SWAP3 SWAP2 POP POP JUMP JUMPDEST PUSH1 0x0 PUSH2 0x1BD9 DUP3 PUSH2 0x1B01 JUMP JUMPDEST SWAP2 POP PUSH2 0x1BE4 DUP4 PUSH2 0x1B01 JUMP JUMPDEST SWAP3 POP DUP3 DUP3 SUB SWAP1 POP DUP2 DUP2 GT ISZERO PUSH2 0x1BFC JUMPI PUSH2 0x1BFB PUSH2 0x1B0B JUMP JUMPDEST JUMPDEST SWAP3 SWAP2 POP POP JUMP JUMPDEST PUSH1 0x0 PUSH2 0x1C0D DUP3 PUSH2 0x1B01 JUMP JUMPDEST SWAP2 POP PUSH2 0x1C18 DUP4 PUSH2 0x1B01 JUMP JUMPDEST SWAP3 POP DUP3 DUP3 MUL PUSH2 0x1C26 DUP2 PUSH2 0x1B01 JUMP JUMPDEST SWAP2 POP DUP3 DUP3 DIV DUP5 EQ DUP4 ISZERO OR PUSH2 0x1C3D JUMPI PUSH2 0x1C3C PUSH2 0x1B0B JUMP JUMPDEST JUMPDEST POP SWAP3 SWAP2 POP POP JUMP JUMPDEST PUSH1 0x0 PUSH20 0xFFFFFFFFFFFFFFFFFFFFFFFFFFFFFFFFFFFFFFFF DUP3 AND SWAP1 POP SWAP2 SWAP1 POP JUMP JUMPDEST PUSH1 0x0 PUSH2 0x1C6F DUP3 PUSH2 0x1C44 JUMP JUMPDEST SWAP1 POP SWAP2 SWAP1 POP JUMP JUMPDEST PUSH2 0x1C7F DUP2 PUSH2 0x1C64 JUMP JUMPDEST DUP3 MSTORE POP POP JUMP JUMPDEST PUSH2 0x1C8E DUP2 PUSH2 0x1B01 JUMP JUMPDEST DUP3 MSTORE POP POP JUMP JUMPDEST PUSH1 0x0 PUSH1 0x40 DUP3 ADD SWAP1 POP PUSH2 0x1CA9 PUSH1 0x0 DUP4 ADD DUP6 PUSH2 0x1C76 JUMP JUMPDEST PUSH2 0x1CB6 PUSH1 0x20 DUP4 ADD DUP5 PUSH2 0x1C85 JUMP JUMPDEST SWAP4 SWAP3 POP POP POP JUMP JUMPDEST PUSH1 0x0 PUSH1 0x40 MLOAD SWAP1 POP SWAP1 JUMP JUMPDEST PUSH1 0x0 DUP1 REVERT JUMPDEST PUSH1 0x0 DUP1 REVERT JUMPDEST PUSH1 0x0 DUP2 ISZERO ISZERO SWAP1 POP SWAP2 SWAP1 POP JUMP JUMPDEST PUSH2 0x1CE6 DUP2 PUSH2 0x1CD1 JUMP JUMPDEST DUP2 EQ PUSH2 0x1CF1 JUMPI PUSH1 0x0 DUP1 REVERT JUMPDEST POP JUMP JUMPDEST PUSH1 0x0 DUP2 MLOAD SWAP1 POP PUSH2 0x1D03 DUP2 PUSH2 0x1CDD JUMP JUMPDEST SWAP3 SWAP2 POP POP JUMP JUMPDEST PUSH1 0x0 PUSH1 0x20 DUP3 DUP5 SUB SLT ISZERO PUSH2 0x1D1F JUMPI PUSH2 0x1D1E PUSH2 0x1CC7 JUMP JUMPDEST JUMPDEST PUSH1 0x0 PUSH2 0x1D2D DUP5 DUP3 DUP6 ADD PUSH2 0x1CF4 JUMP JUMPDEST SWAP2 POP POP SWAP3 SWAP2 POP POP JUMP JUMPDEST PUSH1 0x0 PUSH32 0xFFFFFFFF00000000000000000000000000000000000000000000000000000000 DUP3 AND SWAP1 POP SWAP2 SWAP1 POP JUMP JUMPDEST PUSH2 0x1D6B DUP2 PUSH2 0x1D36 JUMP JUMPDEST DUP2 EQ PUSH2 0x1D76 JUMPI PUSH1 0x0 DUP1 REVERT JUMPDEST POP JUMP JUMPDEST PUSH1 0x0 DUP2 CALLDATALOAD SWAP1 POP PUSH2 0x1D88 DUP2 PUSH2 0x1D62 JUMP JUMPDEST SWAP3 SWAP2 POP POP JUMP JUMPDEST PUSH1 0x0 PUSH1 0x20 DUP3 DUP5 SUB SLT ISZERO PUSH2 0x1DA4 JUMPI PUSH2 0x1DA3 PUSH2 0x1CC7 JUMP JUMPDEST JUMPDEST PUSH1 0x0 PUSH2 0x1DB2 DUP5 DUP3 DUP6 ADD PUSH2 0x1D79 JUMP JUMPDEST SWAP2 POP POP SWAP3 SWAP2 POP POP JUMP JUMPDEST PUSH2 0x1DC4 DUP2 PUSH2 0x1CD1 JUMP JUMPDEST DUP3 MSTORE POP POP JUMP JUMPDEST PUSH1 0x0 PUSH1 0x20 DUP3 ADD SWAP1 POP PUSH2 0x1DDF PUSH1 0x0 DUP4 ADD DUP5 PUSH2 0x1DBB JUMP JUMPDEST SWAP3 SWAP2 POP POP JUMP JUMPDEST PUSH1 0x0 PUSH1 0x20 DUP3 ADD SWAP1 POP PUSH2 0x1DFA PUSH1 0x0 DUP4 ADD DUP5 PUSH2 0x1C85 JUMP JUMPDEST SWAP3 SWAP2 POP POP JUMP JUMPDEST PUSH1 0x0 PUSH1 0x20 DUP3 ADD SWAP1 POP PUSH2 0x1E15 PUSH1 0x0 DUP4 ADD DUP5 PUSH2 0x1C76 JUMP JUMPDEST SWAP3 SWAP2 POP POP JUMP JUMPDEST PUSH2 0x1E24 DUP2 PUSH2 0x1C64 JUMP JUMPDEST DUP2 EQ PUSH2 0x1E2F JUMPI PUSH1 0x0 DUP1 REVERT JUMPDEST POP JUMP JUMPDEST PUSH1 0x0 DUP2 CALLDATALOAD SWAP1 POP PUSH2 0x1E41 DUP2 PUSH2 0x1E1B JUMP JUMPDEST SWAP3 SWAP2 POP POP JUMP JUMPDEST PUSH2 0x1E50 DUP2 PUSH2 0x1B01 JUMP JUMPDEST DUP2 EQ PUSH2 0x1E5B JUMPI PUSH1 0x0 DUP1 REVERT JUMPDEST POP JUMP JUMPDEST PUSH1 0x0 DUP2 CALLDATALOAD SWAP1 POP PUSH2 0x1E6D DUP2 PUSH2 0x1E47 JUMP JUMPDEST SWAP3 SWAP2 POP POP JUMP JUMPDEST PUSH1 0x0 DUP1 PUSH1 0x0 PUSH1 0x60 DUP5 DUP7 SUB SLT ISZERO PUSH2 0x1E8C JUMPI PUSH2 0x1E8B PUSH2 0x1CC7 JUMP JUMPDEST JUMPDEST PUSH1 0x0 PUSH2 0x1E9A DUP7 DUP3 DUP8 ADD PUSH2 0x1E32 JUMP JUMPDEST SWAP4 POP POP PUSH1 0x20 PUSH2 0x1EAB DUP7 DUP3 DUP8 ADD PUSH2 0x1E5E JUMP JUMPDEST SWAP3 POP POP PUSH1 0x40 PUSH2 0x1EBC DUP7 DUP3 DUP8 ADD PUSH2 0x1E32 JUMP JUMPDEST SWAP2 POP POP SWAP3 POP SWAP3 POP SWAP3 JUMP JUMPDEST PUSH1 0x0 PUSH1 0x20 DUP3 DUP5 SUB SLT ISZERO PUSH2 0x1EDC JUMPI PUSH2 0x1EDB PUSH2 0x1CC7 JUMP JUMPDEST JUMPDEST PUSH1 0x0 PUSH2 0x1EEA DUP5 DUP3 DUP6 ADD PUSH2 0x1E32 JUMP JUMPDEST SWAP2 POP POP SWAP3 SWAP2 POP POP JUMP JUMPDEST PUSH1 0x0 DUP2 MLOAD SWAP1 POP SWAP2 SWAP1 POP JUMP JUMPDEST PUSH1 0x0 DUP3 DUP3 MSTORE PUSH1 0x20 DUP3 ADD SWAP1 POP SWAP3 SWAP2 POP POP JUMP JUMPDEST PUSH1 0x0 JUMPDEST DUP4 DUP2 LT ISZERO PUSH2 0x1F2D JUMPI DUP1 DUP3 ADD MLOAD DUP2 DUP5 ADD MSTORE PUSH1 0x20 DUP2 ADD SWAP1 POP PUSH2 0x1F12 JUMP JUMPDEST PUSH1 0x0 DUP5 DUP5 ADD MSTORE POP POP POP POP JUMP JUMPDEST PUSH1 0x0 PUSH1 0x1F NOT PUSH1 0x1F DUP4 ADD AND SWAP1 POP SWAP2 SWAP1 POP JUMP JUMPDEST PUSH1 0x0 PUSH2 0x1F55 DUP3 PUSH2 0x1EF3 JUMP JUMPDEST PUSH2 0x1F5F DUP2 DUP6 PUSH2 0x1EFE JUMP JUMPDEST SWAP4 POP PUSH2 0x1F6F DUP2 DUP6 PUSH1 0x20 DUP7 ADD PUSH2 0x1F0F JUMP JUMPDEST PUSH2 0x1F78 DUP2 PUSH2 0x1F39 JUMP JUMPDEST DUP5 ADD SWAP2 POP POP SWAP3 SWAP2 POP POP JUMP JUMPDEST PUSH1 0x0 PUSH1 0x20 DUP3 ADD SWAP1 POP DUP2 DUP2 SUB PUSH1 0x0 DUP4 ADD MSTORE PUSH2 0x1F9D DUP2 DUP5 PUSH2 0x1F4A JUMP JUMPDEST SWAP1 POP SWAP3 SWAP2 POP POP JUMP JUMPDEST PUSH1 0x0 PUSH1 0x20 DUP3 DUP5 SUB SLT ISZERO PUSH2 0x1FBB JUMPI PUSH2 0x1FBA PUSH2 0x1CC7 JUMP JUMPDEST JUMPDEST PUSH1 0x0 PUSH2 0x1FC9 DUP5 DUP3 DUP6 ADD PUSH2 0x1E5E JUMP JUMPDEST SWAP2 POP POP SWAP3 SWAP2 POP POP JUMP JUMPDEST PUSH1 0x0 PUSH2 0x180 DUP3 ADD SWAP1 POP PUSH2 0x1FE8 PUSH1 0x0 DUP4 ADD DUP16 PUSH2 0x1C76 JUMP JUMPDEST DUP2 DUP2 SUB PUSH1 0x20 DUP4 ADD MSTORE PUSH2 0x1FFA DUP2 DUP15 PUSH2 0x1F4A JUMP JUMPDEST SWAP1 POP DUP2 DUP2 SUB PUSH1 0x40 DUP4 ADD MSTORE PUSH2 0x200E DUP2 DUP14 PUSH2 0x1F4A JUMP JUMPDEST SWAP1 POP PUSH2 0x201D PUSH1 0x60 DUP4 ADD DUP13 PUSH2 0x1C76 JUMP JUMPDEST PUSH2 0x202A PUSH1 0x80 DUP4 ADD DUP12 PUSH2 0x1C85 JUMP JUMPDEST PUSH2 0x2037 PUSH1 0xA0 DUP4 ADD DUP11 PUSH2 0x1C85 JUMP JUMPDEST PUSH2 0x2044 PUSH1 0xC0 DUP4 ADD DUP10 PUSH2 0x1C85 JUMP JUMPDEST PUSH2 0x2051 PUSH1 0xE0 DUP4 ADD DUP9 PUSH2 0x1C85 JUMP JUMPDEST PUSH2 0x205F PUSH2 0x100 DUP4 ADD DUP8 PUSH2 0x1C85 JUMP JUMPDEST PUSH2 0x206D PUSH2 0x120 DUP4 ADD DUP7 PUSH2 0x1C85 JUMP JUMPDEST PUSH2 0x207B PUSH2 0x140 DUP4 ADD DUP6 PUSH2 0x1C85 JUMP JUMPDEST PUSH2 0x2089 PUSH2 0x160 DUP4 ADD DUP5 PUSH2 0x1C85 JUMP JUMPDEST SWAP14 SWAP13 POP POP POP POP POP POP POP POP POP POP POP POP POP JUMP JUMPDEST PUSH1 0x0 DUP1 PUSH1 0x0 DUP1 PUSH1 0x0 PUSH1 0xA0 DUP7 DUP9 SUB SLT ISZERO PUSH2 0x20B6 JUMPI PUSH2 0x20B5 PUSH2 0x1CC7 JUMP JUMPDEST JUMPDEST PUSH1 0x0 PUSH2 0x20C4 DUP9 DUP3 DUP10 ADD PUSH2 0x1E5E JUMP JUMPDEST SWAP6 POP POP PUSH1 0x20 PUSH2 0x20D5 DUP9 DUP3 DUP10 ADD PUSH2 0x1E5E JUMP JUMPDEST SWAP5 POP POP PUSH1 0x40 PUSH2 0x20E6 DUP9 DUP3 DUP10 ADD PUSH2 0x1E5E JUMP JUMPDEST SWAP4 POP POP PUSH1 0x60 PUSH2 0x20F7 DUP9 DUP3 DUP10 ADD PUSH2 0x1E32 JUMP JUMPDEST SWAP3 POP POP PUSH1 0x80 PUSH2 0x2108 DUP9 DUP3 DUP10 ADD PUSH2 0x1E32 JUMP JUMPDEST SWAP2 POP POP SWAP3 SWAP6 POP SWAP3 SWAP6 SWAP1 SWAP4 POP JUMP JUMPDEST PUSH1 0x0 PUSH1 0xFF DUP3 AND SWAP1 POP SWAP2 SWAP1 POP JUMP JUMPDEST PUSH2 0x212B DUP2 PUSH2 0x2115 JUMP JUMPDEST DUP2 EQ PUSH2 0x2136 JUMPI PUSH1 0x0 DUP1 REVERT JUMPDEST POP JUMP JUMPDEST PUSH1 0x0 DUP2 MLOAD SWAP1 POP PUSH2 0x2148 DUP2 PUSH2 0x2122 JUMP JUMPDEST SWAP3 SWAP2 POP POP JUMP JUMPDEST PUSH1 0x0 PUSH1 0x20 DUP3 DUP5 SUB SLT ISZERO PUSH2 0x2164 JUMPI PUSH2 0x2163 PUSH2 0x1CC7 JUMP JUMPDEST JUMPDEST PUSH1 0x0 PUSH2 0x2172 DUP5 DUP3 DUP6 ADD PUSH2 0x2139 JUMP JUMPDEST SWAP2 POP POP SWAP3 SWAP2 POP POP JUMP JUMPDEST PUSH1 0x0 DUP2 MLOAD SWAP1 POP PUSH2 0x218A DUP2 PUSH2 0x1E47 JUMP JUMPDEST SWAP3 SWAP2 POP POP JUMP JUMPDEST PUSH1 0x0 PUSH1 0x20 DUP3 DUP5 SUB SLT ISZERO PUSH2 0x21A6 JUMPI PUSH2 0x21A5 PUSH2 0x1CC7 JUMP JUMPDEST JUMPDEST PUSH1 0x0 PUSH2 0x21B4 DUP5 DUP3 DUP6 ADD PUSH2 0x217B JUMP JUMPDEST SWAP2 POP POP SWAP3 SWAP2 POP POP JUMP JUMPDEST PUSH1 0x0 DUP2 PUSH1 0x1 SHR SWAP1 POP SWAP2 SWAP1 POP JUMP JUMPDEST PUSH1 0x0 DUP1 DUP3 SWAP2 POP DUP4 SWAP1 POP JUMPDEST PUSH1 0x1 DUP6 GT ISZERO PUSH2 0x2214 JUMPI DUP1 DUP7 DIV DUP2 GT ISZERO PUSH2 0x21F0 JUMPI PUSH2 0x21EF PUSH2 0x1B0B JUMP JUMPDEST JUMPDEST PUSH1 0x1 DUP6 AND ISZERO PUSH2 0x21FF JUMPI DUP1 DUP3 MUL SWAP2 POP JUMPDEST DUP1 DUP2 MUL SWAP1 POP PUSH2 0x220D DUP6 PUSH2 0x21BD JUMP JUMPDEST SWAP5 POP PUSH2 0x21D4 JUMP JUMPDEST SWAP5 POP SWAP5 SWAP3 POP POP POP JUMP JUMPDEST PUSH1 0x0 DUP3 PUSH2 0x222D JUMPI PUSH1 0x1 SWAP1 POP PUSH2 0x22E9 JUMP JUMPDEST DUP2 PUSH2 0x223B JUMPI PUSH1 0x0 SWAP1 POP PUSH2 0x22E9 JUMP JUMPDEST DUP2 PUSH1 0x1 DUP2 EQ PUSH2 0x2251 JUMPI PUSH1 0x2 DUP2 EQ PUSH2 0x225B JUMPI PUSH2 0x228A JUMP JUMPDEST PUSH1 0x1 SWAP2 POP POP PUSH2 0x22E9 JUMP JUMPDEST PUSH1 0xFF DUP5 GT ISZERO PUSH2 0x226D JUMPI PUSH2 0x226C PUSH2 0x1B0B JUMP JUMPDEST JUMPDEST DUP4 PUSH1 0x2 EXP SWAP2 POP DUP5 DUP3 GT ISZERO PUSH2 0x2284 JUMPI PUSH2 0x2283 PUSH2 0x1B0B JUMP JUMPDEST JUMPDEST POP PUSH2 0x22E9 JUMP JUMPDEST POP PUSH1 0x20 DUP4 LT PUSH2 0x133 DUP4 LT AND PUSH1 0x4E DUP5 LT PUSH1 0xB DUP5 LT AND OR ISZERO PUSH2 0x22BF JUMPI DUP3 DUP3 EXP SWAP1 POP DUP4 DUP2 GT ISZERO PUSH2 0x22BA JUMPI PUSH2 0x22B9 PUSH2 0x1B0B JUMP JUMPDEST JUMPDEST PUSH2 0x22E9 JUMP JUMPDEST PUSH2 0x22CC DUP5 DUP5 DUP5 PUSH1 0x1 PUSH2 0x21CA JUMP JUMPDEST SWAP3 POP SWAP1 POP DUP2 DUP5 DIV DUP2 GT ISZERO PUSH2 0x22E3 JUMPI PUSH2 0x22E2 PUSH2 0x1B0B JUMP JUMPDEST JUMPDEST DUP2 DUP2 MUL SWAP1 POP JUMPDEST SWAP4 SWAP3 POP POP POP JUMP JUMPDEST PUSH1 0x0 PUSH2 0x22FB DUP3 PUSH2 0x1B01 JUMP JUMPDEST SWAP2 POP PUSH2 0x2306 DUP4 PUSH2 0x2115 JUMP JUMPDEST SWAP3 POP PUSH2 0x2333 PUSH32 0xFFFFFFFFFFFFFFFFFFFFFFFFFFFFFFFFFFFFFFFFFFFFFFFFFFFFFFFFFFFFFFFF DUP5 DUP5 PUSH2 0x221D JUMP JUMPDEST SWAP1 POP SWAP3 SWAP2 POP POP JUMP JUMPDEST PUSH32 0x546869732044455820646F6573206E6F7420737570706F72742074686F736520 PUSH1 0x0 DUP3 ADD MSTORE PUSH32 0x746F6B656E732E00000000000000000000000000000000000000000000000000 PUSH1 0x20 DUP3 ADD MSTORE POP JUMP JUMPDEST PUSH1 0x0 PUSH2 0x2397 PUSH1 0x27 DUP4 PUSH2 0x1EFE JUMP JUMPDEST SWAP2 POP PUSH2 0x23A2 DUP3 PUSH2 0x233B JUMP JUMPDEST PUSH1 0x40 DUP3 ADD SWAP1 POP SWAP2 SWAP1 POP JUMP JUMPDEST PUSH1 0x0 PUSH1 0x20 DUP3 ADD SWAP1 POP DUP2 DUP2 SUB PUSH1 0x0 DUP4 ADD MSTORE PUSH2 0x23C6 DUP2 PUSH2 0x238A JUMP JUMPDEST SWAP1 POP SWAP2 SWAP1 POP JUMP JUMPDEST PUSH1 0x0 DUP2 SWAP1 POP SWAP3 SWAP2 POP POP JUMP JUMPDEST POP JUMP JUMPDEST PUSH1 0x0 PUSH2 0x23E8 PUSH1 0x0 DUP4 PUSH2 0x23CD JUMP JUMPDEST SWAP2 POP PUSH2 0x23F3 DUP3 PUSH2 0x23D8 JUMP JUMPDEST PUSH1 0x0 DUP3 ADD SWAP1 POP SWAP2 SWAP1 POP JUMP JUMPDEST PUSH1 0x0 PUSH2 0x2409 DUP3 PUSH2 0x23DB JUMP JUMPDEST SWAP2 POP DUP2 SWAP1 POP SWAP2 SWAP1 POP JUMP JUMPDEST PUSH32 0x7061796D656E74206469646E277420776F726B00000000000000000000000000 PUSH1 0x0 DUP3 ADD MSTORE POP JUMP JUMPDEST PUSH1 0x0 PUSH2 0x2449 PUSH1 0x13 DUP4 PUSH2 0x1EFE JUMP JUMPDEST SWAP2 POP PUSH2 0x2454 DUP3 PUSH2 0x2413 JUMP JUMPDEST PUSH1 0x20 DUP3 ADD SWAP1 POP SWAP2 SWAP1 POP JUMP JUMPDEST PUSH1 0x0 PUSH1 0x20 DUP3 ADD SWAP1 POP DUP2 DUP2 SUB PUSH1 0x0 DUP4 ADD MSTORE PUSH2 0x2478 DUP2 PUSH2 0x243C JUMP JUMPDEST SWAP1 POP SWAP2 SWAP1 POP JUMP JUMPDEST PUSH1 0x0 DUP1 REVERT JUMPDEST PUSH1 0x0 DUP1 REVERT JUMPDEST PUSH32 0x4E487B7100000000000000000000000000000000000000000000000000000000 PUSH1 0x0 MSTORE PUSH1 0x41 PUSH1 0x4 MSTORE PUSH1 0x24 PUSH1 0x0 REVERT JUMPDEST PUSH2 0x24C1 DUP3 PUSH2 0x1F39 JUMP JUMPDEST DUP2 ADD DUP2 DUP2 LT PUSH8 0xFFFFFFFFFFFFFFFF DUP3 GT OR ISZERO PUSH2 0x24E0 JUMPI PUSH2 0x24DF PUSH2 0x2489 JUMP JUMPDEST JUMPDEST DUP1 PUSH1 0x40 MSTORE POP POP POP JUMP JUMPDEST PUSH1 0x0 PUSH2 0x24F3 PUSH2 0x1CBD JUMP JUMPDEST SWAP1 POP PUSH2 0x24FF DUP3 DUP3 PUSH2 0x24B8 JUMP JUMPDEST SWAP2 SWAP1 POP JUMP JUMPDEST PUSH1 0x0 PUSH8 0xFFFFFFFFFFFFFFFF DUP3 GT ISZERO PUSH2 0x251F JUMPI PUSH2 0x251E PUSH2 0x2489 JUMP JUMPDEST JUMPDEST PUSH2 0x2528 DUP3 PUSH2 0x1F39 JUMP JUMPDEST SWAP1 POP PUSH1 0x20 DUP2 ADD SWAP1 POP SWAP2 SWAP1 POP JUMP JUMPDEST PUSH1 0x0 PUSH2 0x2548 PUSH2 0x2543 DUP5 PUSH2 0x2504 JUMP JUMPDEST PUSH2 0x24E9 JUMP JUMPDEST SWAP1 POP DUP3 DUP2 MSTORE PUSH1 0x20 DUP2 ADD DUP5 DUP5 DUP5 ADD GT ISZERO PUSH2 0x2564 JUMPI PUSH2 0x2563 PUSH2 0x2484 JUMP JUMPDEST JUMPDEST PUSH2 0x256F DUP5 DUP3 DUP6 PUSH2 0x1F0F JUMP JUMPDEST POP SWAP4 SWAP3 POP POP POP JUMP JUMPDEST PUSH1 0x0 DUP3 PUSH1 0x1F DUP4 ADD SLT PUSH2 0x258C JUMPI PUSH2 0x258B PUSH2 0x247F JUMP JUMPDEST JUMPDEST DUP2 MLOAD PUSH2 0x259C DUP5 DUP3 PUSH1 0x20 DUP7 ADD PUSH2 0x2535 JUMP JUMPDEST SWAP2 POP POP SWAP3 SWAP2 POP POP JUMP JUMPDEST PUSH1 0x0 PUSH1 0x20 DUP3 DUP5 SUB SLT ISZERO PUSH2 0x25BB JUMPI PUSH2 0x25BA PUSH2 0x1CC7 JUMP JUMPDEST JUMPDEST PUSH1 0x0 DUP3 ADD MLOAD PUSH8 0xFFFFFFFFFFFFFFFF DUP2 GT ISZERO PUSH2 0x25D9 JUMPI PUSH2 0x25D8 PUSH2 0x1CCC JUMP JUMPDEST JUMPDEST PUSH2 0x25E5 DUP5 DUP3 DUP6 ADD PUSH2 0x2577 JUMP JUMPDEST SWAP2 POP POP SWAP3 SWAP2 POP POP JUMP JUMPDEST PUSH32 0x53656E64657220646F6573206E6F7420686176652074686973206D7563682045 PUSH1 0x0 DUP3 ADD MSTORE PUSH32 0x544820696E2074686520706F6F6C2E0000000000000000000000000000000000 PUSH1 0x20 DUP3 ADD MSTORE POP JUMP JUMPDEST PUSH1 0x0 PUSH2 0x264A PUSH1 0x2F DUP4 PUSH2 0x1EFE JUMP JUMPDEST SWAP2 POP PUSH2 0x2655 DUP3 PUSH2 0x25EE JUMP JUMPDEST PUSH1 0x40 DUP3 ADD SWAP1 POP SWAP2 SWAP1 POP JUMP JUMPDEST PUSH1 0x0 PUSH1 0x20 DUP3 ADD SWAP1 POP DUP2 DUP2 SUB PUSH1 0x0 DUP4 ADD MSTORE PUSH2 0x2679 DUP2 PUSH2 0x263D JUMP JUMPDEST SWAP1 POP SWAP2 SWAP1 POP JUMP JUMPDEST PUSH32 0x41206C697175696469747920706F6F6C2068617320616C726561647920626565 PUSH1 0x0 DUP3 ADD MSTORE PUSH32 0x6E20637265617465642E00000000000000000000000000000000000000000000 PUSH1 0x20 DUP3 ADD MSTORE POP JUMP JUMPDEST PUSH1 0x0 PUSH2 0x26DC PUSH1 0x2A DUP4 PUSH2 0x1EFE JUMP JUMPDEST SWAP2 POP PUSH2 0x26E7 DUP3 PUSH2 0x2680 JUMP JUMPDEST PUSH1 0x40 DUP3 ADD SWAP1 POP SWAP2 SWAP1 POP JUMP JUMPDEST PUSH1 0x0 PUSH1 0x20 DUP3 ADD SWAP1 POP DUP2 DUP2 SUB PUSH1 0x0 DUP4 ADD MSTORE PUSH2 0x270B DUP2 PUSH2 0x26CF JUMP JUMPDEST SWAP1 POP SWAP2 SWAP1 POP JUMP JUMPDEST PUSH32 0x4F6E6C7920746865206465706C6F796572206F662074686520636F6E74726163 PUSH1 0x0 DUP3 ADD MSTORE PUSH32 0x742063616E20637265617465206120706F6F6C2E000000000000000000000000 PUSH1 0x20 DUP3 ADD MSTORE POP JUMP JUMPDEST PUSH1 0x0 PUSH2 0x276E PUSH1 0x34 DUP4 PUSH2 0x1EFE JUMP JUMPDEST SWAP2 POP PUSH2 0x2779 DUP3 PUSH2 0x2712 JUMP JUMPDEST PUSH1 0x40 DUP3 ADD SWAP1 POP SWAP2 SWAP1 POP JUMP JUMPDEST PUSH1 0x0 PUSH1 0x20 DUP3 ADD SWAP1 POP DUP2 DUP2 SUB PUSH1 0x0 DUP4 ADD MSTORE PUSH2 0x279D DUP2 PUSH2 0x2761 JUMP JUMPDEST SWAP1 POP SWAP2 SWAP1 POP JUMP JUMPDEST PUSH1 0x0 PUSH1 0x40 DUP3 ADD SWAP1 POP PUSH2 0x27B9 PUSH1 0x0 DUP4 ADD DUP6 PUSH2 0x1C76 JUMP JUMPDEST PUSH2 0x27C6 PUSH1 0x20 DUP4 ADD DUP5 PUSH2 0x1C76 JUMP JUMPDEST SWAP4 SWAP3 POP POP POP JUMP JUMPDEST PUSH32 0x5468697320636F6E7472616374206E6565647320746F20666972737420626520 PUSH1 0x0 DUP3 ADD MSTORE PUSH32 0x617070726F76656420666F72207468652073706563696669656420746F6B656E PUSH1 0x20 DUP3 ADD MSTORE PUSH32 0x20616D6F756E742E000000000000000000000000000000000000000000000000 PUSH1 0x40 DUP3 ADD MSTORE POP JUMP JUMPDEST PUSH1 0x0 PUSH2 0x284F PUSH1 0x48 DUP4 PUSH2 0x1EFE JUMP JUMPDEST SWAP2 POP PUSH2 0x285A DUP3 PUSH2 0x27CD JUMP JUMPDEST PUSH1 0x60 DUP3 ADD SWAP1 POP SWAP2 SWAP1 POP JUMP JUMPDEST PUSH1 0x0 PUSH1 0x20 DUP3 ADD SWAP1 POP DUP2 DUP2 SUB PUSH1 0x0 DUP4 ADD MSTORE PUSH2 0x287E DUP2 PUSH2 0x2842 JUMP JUMPDEST SWAP1 POP SWAP2 SWAP1 POP JUMP JUMPDEST PUSH1 0x0 PUSH1 0x60 DUP3 ADD SWAP1 POP PUSH2 0x289A PUSH1 0x0 DUP4 ADD DUP7 PUSH2 0x1C76 JUMP JUMPDEST PUSH2 0x28A7 PUSH1 0x20 DUP4 ADD DUP6 PUSH2 0x1C76 JUMP JUMPDEST PUSH2 0x28B4 PUSH1 0x40 DUP4 ADD DUP5 PUSH2 0x1C85 JUMP JUMPDEST SWAP5 SWAP4 POP POP POP POP JUMP INVALID LOG2 PUSH5 0x6970667358 0x22 SLT KECCAK256 ADDMOD 0xE7 0xAA SWAP5 DUP3 JUMP 0xA6 CALLER SMOD LOG4 PC PUSH11 0x5623360869717C3DA56C19 ADDRESS STOP PUSH20 0xC913B460A96D64736F6C63430008120033000000 "
				},
				"gasEstimates": {
					"creation": {
						"codeDepositCost": "2096400",
						"executionCost": "75129",
						"totalCost": "2171529"
					},
					"external": {
						"addLiquidity()": "infinite",
						"createPool(uint256,uint256,uint256,address,address)": "infinite",
						"decimals()": "infinite",
						"erc20Address()": "2604",
						"etherLiquidityForAddress(address)": "2881",
						"etherPricer()": "2559",
						"feeDenominator()": "2497",
						"feeNumerator()": "2517",
						"feesEther()": "2496",
						"feesToken()": "2541",
						"getDEXinfo()": "infinite",
						"getEtherPrice()": "infinite",
						"getPoolLiquidityInUSDCents()": "infinite",
						"getTokenPrice()": "infinite",
						"i()": "2473",
						"k()": "2540",
						"onERC20Received(address,uint256,address)": "infinite",
						"removeLiquidity(uint256)": "infinite",
						"reset()": "230",
						"setEtherPricer(address)": "24832",
						"supportsInterface(bytes4)": "754",
						"symbol()": "infinite",
						"tokenLiquidityForAddress(address)": "2925",
						"x()": "2475",
						"y()": "2496"
					}
				},
				"methodIdentifiers": {
					"addLiquidity()": "e8078d94",
					"createPool(uint256,uint256,uint256,address,address)": "add010a5",
					"decimals()": "313ce567",
					"erc20Address()": "276184ae",
					"etherLiquidityForAddress(address)": "d3c51d91",
					"etherPricer()": "4f54a081",
					"feeDenominator()": "180b0d7e",
					"feeNumerator()": "e86dea4a",
					"feesEther()": "5dfd8773",
					"feesToken()": "2bfdf307",
					"getDEXinfo()": "9fed4ad8",
					"getEtherPrice()": "ca7c4dba",
					"getPoolLiquidityInUSDCents()": "b7c56525",
					"getTokenPrice()": "4b94f50e",
					"i()": "e5aa3d58",
					"k()": "b4f40c61",
					"onERC20Received(address,uint256,address)": "7ff879e3",
					"removeLiquidity(uint256)": "9c8f9f23",
					"reset()": "d826f88f",
					"setEtherPricer(address)": "feffe7e4",
					"supportsInterface(bytes4)": "01ffc9a7",
					"symbol()": "95d89b41",
					"tokenLiquidityForAddress(address)": "8d729abb",
					"x()": "0c55699c",
					"y()": "a56dfe4a"
				}
			},
			"storageLayout": {
				"storage": [
					{
						"astId": 30,
						"contract": "DEX.sol:DEX",
						"label": "poolCreated",
						"offset": 0,
						"slot": "0",
						"type": "t_bool"
					},
					{
						"astId": 32,
						"contract": "DEX.sol:DEX",
						"label": "deployer",
						"offset": 1,
						"slot": "0",
						"type": "t_address"
					},
					{
						"astId": 34,
						"contract": "DEX.sol:DEX",
						"label": "adjustingLiquidity",
						"offset": 21,
						"slot": "0",
						"type": "t_bool"
					},
					{
						"astId": 36,
						"contract": "DEX.sol:DEX",
						"label": "i",
						"offset": 0,
						"slot": "1",
						"type": "t_uint256"
					},
					{
						"astId": 39,
						"contract": "DEX.sol:DEX",
						"label": "k",
						"offset": 0,
						"slot": "2",
						"type": "t_uint256"
					},
					{
						"astId": 42,
						"contract": "DEX.sol:DEX",
						"label": "x",
						"offset": 0,
						"slot": "3",
						"type": "t_uint256"
					},
					{
						"astId": 45,
						"contract": "DEX.sol:DEX",
						"label": "y",
						"offset": 0,
						"slot": "4",
						"type": "t_uint256"
					},
					{
						"astId": 50,
						"contract": "DEX.sol:DEX",
						"label": "etherLiquidityForAddress",
						"offset": 0,
						"slot": "5",
						"type": "t_mapping(t_address,t_uint256)"
					},
					{
						"astId": 55,
						"contract": "DEX.sol:DEX",
						"label": "tokenLiquidityForAddress",
						"offset": 0,
						"slot": "6",
						"type": "t_mapping(t_address,t_uint256)"
					},
					{
						"astId": 58,
						"contract": "DEX.sol:DEX",
						"label": "feeNumerator",
						"offset": 0,
						"slot": "7",
						"type": "t_uint256"
					},
					{
						"astId": 61,
						"contract": "DEX.sol:DEX",
						"label": "feeDenominator",
						"offset": 0,
						"slot": "8",
						"type": "t_uint256"
					},
					{
						"astId": 64,
						"contract": "DEX.sol:DEX",
						"label": "feesEther",
						"offset": 0,
						"slot": "9",
						"type": "t_uint256"
					},
					{
						"astId": 67,
						"contract": "DEX.sol:DEX",
						"label": "feesToken",
						"offset": 0,
						"slot": "10",
						"type": "t_uint256"
					},
					{
						"astId": 70,
						"contract": "DEX.sol:DEX",
						"label": "etherPricer",
						"offset": 0,
						"slot": "11",
						"type": "t_address"
					},
					{
						"astId": 73,
						"contract": "DEX.sol:DEX",
						"label": "erc20Address",
						"offset": 0,
						"slot": "12",
						"type": "t_address"
					}
				],
				"types": {
					"t_address": {
						"encoding": "inplace",
						"label": "address",
						"numberOfBytes": "20"
					},
					"t_bool": {
						"encoding": "inplace",
						"label": "bool",
						"numberOfBytes": "1"
					},
					"t_mapping(t_address,t_uint256)": {
						"encoding": "mapping",
						"key": "t_address",
						"label": "mapping(address => uint256)",
						"numberOfBytes": "32",
						"value": "t_uint256"
					},
					"t_uint256": {
						"encoding": "inplace",
						"label": "uint256",
						"numberOfBytes": "32"
					}
				}
			},
			"userdoc": {
				"kind": "user",
				"methods": {},
				"version": 1
			}
		}
	}
}