{
	"Poll.sol": {
		"Poll": {
			"abi": [
				{
					"inputs": [],
					"stateMutability": "nonpayable",
					"type": "constructor"
				},
				{
					"anonymous": false,
					"inputs": [
						{
							"indexed": true,
							"internalType": "uint256",
							"name": "_id",
							"type": "uint256"
						}
					],
					"name": "choiceAddedEvent",
					"type": "event"
				},
				{
					"anonymous": false,
					"inputs": [
						{
							"indexed": true,
							"internalType": "uint256",
							"name": "_id",
							"type": "uint256"
						}
					],
					"name": "votedEvent",
					"type": "event"
				},
				{
					"inputs": [
						{
							"internalType": "string",
							"name": "_name",
							"type": "string"
						}
					],
					"name": "addChoice",
					"outputs": [],
					"stateMutability": "nonpayable",
					"type": "function"
				},
				{
					"inputs": [
						{
							"internalType": "uint256",
							"name": "i",
							"type": "uint256"
						}
					],
					"name": "choices",
					"outputs": [
						{
							"components": [
								{
									"internalType": "uint256",
									"name": "id",
									"type": "uint256"
								},
								{
									"internalType": "string",
									"name": "name",
									"type": "string"
								},
								{
									"internalType": "uint256",
									"name": "votes",
									"type": "uint256"
								}
							],
							"internalType": "struct IPoll.Choice",
							"name": "",
							"type": "tuple"
						}
					],
					"stateMutability": "view",
					"type": "function"
				},
				{
					"inputs": [],
					"name": "num_choices",
					"outputs": [
						{
							"internalType": "uint256",
							"name": "",
							"type": "uint256"
						}
					],
					"stateMutability": "view",
					"type": "function"
				},
				{
					"inputs": [],
					"name": "purpose",
					"outputs": [
						{
							"internalType": "string",
							"name": "",
							"type": "string"
						}
					],
					"stateMutability": "view",
					"type": "function"
				},
				{
					"inputs": [
						{
							"internalType": "bytes4",
							"name": "interfaceId",
							"type": "bytes4"
						}
					],
					"name": "supportsInterface",
					"outputs": [
						{
							"internalType": "bool",
							"name": "",
							"type": "bool"
						}
					],
					"stateMutability": "pure",
					"type": "function"
				},
				{
					"inputs": [],
					"name": "unnecessaryFunction",
					"outputs": [
						{
							"internalType": "string",
							"name": "",
							"type": "string"
						}
					],
					"stateMutability": "view",
					"type": "function"
				},
				{
					"inputs": [
						{
							"internalType": "uint256",
							"name": "_id",
							"type": "uint256"
						}
					],
					"name": "vote",
					"outputs": [],
					"stateMutability": "nonpayable",
					"type": "function"
				},
				{
					"inputs": [
						{
							"internalType": "address",
							"name": "",
							"type": "address"
						}
					],
					"name": "voted",
					"outputs": [
						{
							"internalType": "bool",
							"name": "",
							"type": "bool"
						}
					],
					"stateMutability": "view",
					"type": "function"
				}
			],
			"devdoc": {
				"kind": "dev",
				"methods": {},
				"version": 1
			},
			"evm": {
				"assembly": "    /* \"Poll.sol\":270:4366  contract Poll is IPoll {... */\n  mstore(0x40, 0x80)\n    /* \"Poll.sol\":2499:2795  constructor() {... */\n  callvalue\n  dup1\n  iszero\n  tag_1\n  jumpi\n  0x00\n  dup1\n  revert\ntag_1:\n  pop\n    /* \"Poll.sol\":2517:2537  addChoice(\"january\") */\n  tag_4\n  mload(0x40)\n  dup1\n  0x40\n  add\n  0x40\n  mstore\n  dup1\n  0x07\n  dup2\n  mstore\n  0x20\n  add\n  0x6a616e7561727900000000000000000000000000000000000000000000000000\n  dup2\n  mstore\n  pop\n    /* \"Poll.sol\":2517:2526  addChoice */\n  shl(0x20, tag_5)\n    /* \"Poll.sol\":2517:2537  addChoice(\"january\") */\n  0x20\n  shr\n  jump\t// in\ntag_4:\n    /* \"Poll.sol\":2541:2562  addChoice(\"february\") */\n  tag_6\n  mload(0x40)\n  dup1\n  0x40\n  add\n  0x40\n  mstore\n  dup1\n  0x08\n  dup2\n  mstore\n  0x20\n  add\n  0x6665627275617279000000000000000000000000000000000000000000000000\n  dup2\n  mstore\n  pop\n    /* \"Poll.sol\":2541:2550  addChoice */\n  shl(0x20, tag_5)\n    /* \"Poll.sol\":2541:2562  addChoice(\"february\") */\n  0x20\n  shr\n  jump\t// in\ntag_6:\n    /* \"Poll.sol\":2566:2584  addChoice(\"march\") */\n  tag_7\n  mload(0x40)\n  dup1\n  0x40\n  add\n  0x40\n  mstore\n  dup1\n  0x05\n  dup2\n  mstore\n  0x20\n  add\n  0x6d61726368000000000000000000000000000000000000000000000000000000\n  dup2\n  mstore\n  pop\n    /* \"Poll.sol\":2566:2575  addChoice */\n  shl(0x20, tag_5)\n    /* \"Poll.sol\":2566:2584  addChoice(\"march\") */\n  0x20\n  shr\n  jump\t// in\ntag_7:\n    /* \"Poll.sol\":2588:2606  addChoice(\"april\") */\n  tag_8\n  mload(0x40)\n  dup1\n  0x40\n  add\n  0x40\n  mstore\n  dup1\n  0x05\n  dup2\n  mstore\n  0x20\n  add\n  0x617072696c000000000000000000000000000000000000000000000000000000\n  dup2\n  mstore\n  pop\n    /* \"Poll.sol\":2588:2597  addChoice */\n  shl(0x20, tag_5)\n    /* \"Poll.sol\":2588:2606  addChoice(\"april\") */\n  0x20\n  shr\n  jump\t// in\ntag_8:\n    /* \"Poll.sol\":2610:2626  addChoice(\"may\") */\n  tag_9\n  mload(0x40)\n  dup1\n  0x40\n  add\n  0x40\n  mstore\n  dup1\n  0x03\n  dup2\n  mstore\n  0x20\n  add\n  0x6d61790000000000000000000000000000000000000000000000000000000000\n  dup2\n  mstore\n  pop\n    /* \"Poll.sol\":2610:2619  addChoice */\n  shl(0x20, tag_5)\n    /* \"Poll.sol\":2610:2626  addChoice(\"may\") */\n  0x20\n  shr\n  jump\t// in\ntag_9:\n    /* \"Poll.sol\":2630:2647  addChoice(\"june\") */\n  tag_10\n  mload(0x40)\n  dup1\n  0x40\n  add\n  0x40\n  mstore\n  dup1\n  0x04\n  dup2\n  mstore\n  0x20\n  add\n  0x6a756e6500000000000000000000000000000000000000000000000000000000\n  dup2\n  mstore\n  pop\n    /* \"Poll.sol\":2630:2639  addChoice */\n  shl(0x20, tag_5)\n    /* \"Poll.sol\":2630:2647  addChoice(\"june\") */\n  0x20\n  shr\n  jump\t// in\ntag_10:\n    /* \"Poll.sol\":2651:2668  addChoice(\"july\") */\n  tag_11\n  mload(0x40)\n  dup1\n  0x40\n  add\n  0x40\n  mstore\n  dup1\n  0x04\n  dup2\n  mstore\n  0x20\n  add\n  0x6a756c7900000000000000000000000000000000000000000000000000000000\n  dup2\n  mstore\n  pop\n    /* \"Poll.sol\":2651:2660  addChoice */\n  shl(0x20, tag_5)\n    /* \"Poll.sol\":2651:2668  addChoice(\"july\") */\n  0x20\n  shr\n  jump\t// in\ntag_11:\n    /* \"Poll.sol\":2672:2691  addChoice(\"august\") */\n  tag_12\n  mload(0x40)\n  dup1\n  0x40\n  add\n  0x40\n  mstore\n  dup1\n  0x06\n  dup2\n  mstore\n  0x20\n  add\n  0x6175677573740000000000000000000000000000000000000000000000000000\n  dup2\n  mstore\n  pop\n    /* \"Poll.sol\":2672:2681  addChoice */\n  shl(0x20, tag_5)\n    /* \"Poll.sol\":2672:2691  addChoice(\"august\") */\n  0x20\n  shr\n  jump\t// in\ntag_12:\n    /* \"Poll.sol\":2695:2717  addChoice(\"september\") */\n  tag_13\n  mload(0x40)\n  dup1\n  0x40\n  add\n  0x40\n  mstore\n  dup1\n  0x09\n  dup2\n  mstore\n  0x20\n  add\n  0x73657074656d6265720000000000000000000000000000000000000000000000\n  dup2\n  mstore\n  pop\n    /* \"Poll.sol\":2695:2704  addChoice */\n  shl(0x20, tag_5)\n    /* \"Poll.sol\":2695:2717  addChoice(\"september\") */\n  0x20\n  shr\n  jump\t// in\ntag_13:\n    /* \"Poll.sol\":2721:2741  addChoice(\"october\") */\n  tag_14\n  mload(0x40)\n  dup1\n  0x40\n  add\n  0x40\n  mstore\n  dup1\n  0x07\n  dup2\n  mstore\n  0x20\n  add\n  0x6f63746f62657200000000000000000000000000000000000000000000000000\n  dup2\n  mstore\n  pop\n    /* \"Poll.sol\":2721:2730  addChoice */\n  shl(0x20, tag_5)\n    /* \"Poll.sol\":2721:2741  addChoice(\"october\") */\n  0x20\n  shr\n  jump\t// in\ntag_14:\n    /* \"Poll.sol\":2745:2766  addChoice(\"november\") */\n  tag_15\n  mload(0x40)\n  dup1\n  0x40\n  add\n  0x40\n  mstore\n  dup1\n  0x08\n  dup2\n  mstore\n  0x20\n  add\n  0x6e6f76656d626572000000000000000000000000000000000000000000000000\n  dup2\n  mstore\n  pop\n    /* \"Poll.sol\":2745:2754  addChoice */\n  shl(0x20, tag_5)\n    /* \"Poll.sol\":2745:2766  addChoice(\"november\") */\n  0x20\n  shr\n  jump\t// in\ntag_15:\n    /* \"Poll.sol\":2770:2791  addChoice(\"december\") */\n  tag_16\n  mload(0x40)\n  dup1\n  0x40\n  add\n  0x40\n  mstore\n  dup1\n  0x08\n  dup2\n  mstore\n  0x20\n  add\n  0x646563656d626572000000000000000000000000000000000000000000000000\n  dup2\n  mstore\n  pop\n    /* \"Poll.sol\":2770:2779  addChoice */\n  shl(0x20, tag_5)\n    /* \"Poll.sol\":2770:2791  addChoice(\"december\") */\n  0x20\n  shr\n  jump\t// in\ntag_16:\n    /* \"Poll.sol\":270:4366  contract Poll is IPoll {... */\n  jump(tag_17)\n    /* \"Poll.sol\":2960:3133  function addChoice (string memory _name) public override {... */\ntag_5:\n    /* \"Poll.sol\":3045:3074  Choice(num_choices, _name, 0) */\n  mload(0x40)\n  dup1\n  0x60\n  add\n  0x40\n  mstore\n  dup1\n    /* \"Poll.sol\":3052:3063  num_choices */\n  sload(0x02)\n    /* \"Poll.sol\":3045:3074  Choice(num_choices, _name, 0) */\n  dup2\n  mstore\n  0x20\n  add\n    /* \"Poll.sol\":3065:3070  _name */\n  dup3\n    /* \"Poll.sol\":3045:3074  Choice(num_choices, _name, 0) */\n  dup2\n  mstore\n  0x20\n  add\n    /* \"Poll.sol\":3072:3073  0 */\n  0x00\n    /* \"Poll.sol\":3045:3074  Choice(num_choices, _name, 0) */\n  dup2\n  mstore\n  pop\n    /* \"Poll.sol\":3021:3029  _choices */\n  0x01\n    /* \"Poll.sol\":3021:3042  _choices[num_choices] */\n  0x00\n    /* \"Poll.sol\":3030:3041  num_choices */\n  sload(0x02)\n    /* \"Poll.sol\":3021:3042  _choices[num_choices] */\n  dup2\n  mstore\n  0x20\n  add\n  swap1\n  dup2\n  mstore\n  0x20\n  add\n  0x00\n  keccak256\n    /* \"Poll.sol\":3021:3074  _choices[num_choices] = Choice(num_choices, _name, 0) */\n  0x00\n  dup3\n  add\n  mload\n  dup2\n  0x00\n  add\n  sstore\n  0x20\n  dup3\n  add\n  mload\n  dup2\n  0x01\n  add\n  swap1\n  dup2\n  tag_19\n  swap2\n  swap1\n  tag_20\n  jump\t// in\ntag_19:\n  pop\n  0x40\n  dup3\n  add\n  mload\n  dup2\n  0x02\n  add\n  sstore\n  swap1\n  pop\n  pop\n    /* \"Poll.sol\":3100:3111  num_choices */\n  sload(0x02)\n    /* \"Poll.sol\":3083:3112  choiceAddedEvent(num_choices) */\n  0x8c289382d6fd42a02a06e885da5a69cb0f21294bbfc7acc91d5cf3ced61ca0c4\n  mload(0x40)\n  mload(0x40)\n  dup1\n  swap2\n  sub\n  swap1\n  log2\n    /* \"Poll.sol\":3116:3127  num_choices */\n  0x02\n  0x00\n    /* \"Poll.sol\":3116:3129  num_choices++ */\n  dup2\n  sload\n  dup1\n  swap3\n  swap2\n  swap1\n  tag_21\n  swap1\n  tag_22\n  jump\t// in\ntag_21:\n  swap2\n  swap1\n  pop\n  sstore\n  pop\n    /* \"Poll.sol\":2960:3133  function addChoice (string memory _name) public override {... */\n  pop\n  jump\t// out\n    /* \"#utility.yul\":7:106   */\ntag_23:\n    /* \"#utility.yul\":59:65   */\n  0x00\n    /* \"#utility.yul\":93:98   */\n  dup2\n    /* \"#utility.yul\":87:99   */\n  mload\n    /* \"#utility.yul\":77:99   */\n  swap1\n  pop\n    /* \"#utility.yul\":7:106   */\n  swap2\n  swap1\n  pop\n  jump\t// out\n    /* \"#utility.yul\":112:292   */\ntag_24:\n    /* \"#utility.yul\":160:237   */\n  0x4e487b7100000000000000000000000000000000000000000000000000000000\n    /* \"#utility.yul\":157:158   */\n  0x00\n    /* \"#utility.yul\":150:238   */\n  mstore\n    /* \"#utility.yul\":257:261   */\n  0x41\n    /* \"#utility.yul\":254:255   */\n  0x04\n    /* \"#utility.yul\":247:262   */\n  mstore\n    /* \"#utility.yul\":281:285   */\n  0x24\n    /* \"#utility.yul\":278:279   */\n  0x00\n    /* \"#utility.yul\":271:286   */\n  revert\n    /* \"#utility.yul\":298:478   */\ntag_25:\n    /* \"#utility.yul\":346:423   */\n  0x4e487b7100000000000000000000000000000000000000000000000000000000\n    /* \"#utility.yul\":343:344   */\n  0x00\n    /* \"#utility.yul\":336:424   */\n  mstore\n    /* \"#utility.yul\":443:447   */\n  0x22\n    /* \"#utility.yul\":440:441   */\n  0x04\n    /* \"#utility.yul\":433:448   */\n  mstore\n    /* \"#utility.yul\":467:471   */\n  0x24\n    /* \"#utility.yul\":464:465   */\n  0x00\n    /* \"#utility.yul\":457:472   */\n  revert\n    /* \"#utility.yul\":484:804   */\ntag_26:\n    /* \"#utility.yul\":528:534   */\n  0x00\n    /* \"#utility.yul\":565:566   */\n  0x02\n    /* \"#utility.yul\":559:563   */\n  dup3\n    /* \"#utility.yul\":555:567   */\n  div\n    /* \"#utility.yul\":545:567   */\n  swap1\n  pop\n    /* \"#utility.yul\":612:613   */\n  0x01\n    /* \"#utility.yul\":606:610   */\n  dup3\n    /* \"#utility.yul\":602:614   */\n  and\n    /* \"#utility.yul\":633:651   */\n  dup1\n    /* \"#utility.yul\":623:704   */\n  tag_49\n  jumpi\n    /* \"#utility.yul\":689:693   */\n  0x7f\n    /* \"#utility.yul\":681:687   */\n  dup3\n    /* \"#utility.yul\":677:694   */\n  and\n    /* \"#utility.yul\":667:694   */\n  swap2\n  pop\n    /* \"#utility.yul\":623:704   */\ntag_49:\n    /* \"#utility.yul\":751:753   */\n  0x20\n    /* \"#utility.yul\":743:749   */\n  dup3\n    /* \"#utility.yul\":740:754   */\n  lt\n    /* \"#utility.yul\":720:738   */\n  dup2\n    /* \"#utility.yul\":717:755   */\n  sub\n    /* \"#utility.yul\":714:798   */\n  tag_50\n  jumpi\n    /* \"#utility.yul\":770:788   */\n  tag_51\n  tag_25\n  jump\t// in\ntag_51:\n    /* \"#utility.yul\":714:798   */\ntag_50:\n    /* \"#utility.yul\":535:804   */\n  pop\n    /* \"#utility.yul\":484:804   */\n  swap2\n  swap1\n  pop\n  jump\t// out\n    /* \"#utility.yul\":810:951   */\ntag_27:\n    /* \"#utility.yul\":859:863   */\n  0x00\n    /* \"#utility.yul\":882:885   */\n  dup2\n    /* \"#utility.yul\":874:885   */\n  swap1\n  pop\n    /* \"#utility.yul\":905:908   */\n  dup2\n    /* \"#utility.yul\":902:903   */\n  0x00\n    /* \"#utility.yul\":895:909   */\n  mstore\n    /* \"#utility.yul\":939:943   */\n  0x20\n    /* \"#utility.yul\":936:937   */\n  0x00\n    /* \"#utility.yul\":926:944   */\n  keccak256\n    /* \"#utility.yul\":918:944   */\n  swap1\n  pop\n    /* \"#utility.yul\":810:951   */\n  swap2\n  swap1\n  pop\n  jump\t// out\n    /* \"#utility.yul\":957:1050   */\ntag_28:\n    /* \"#utility.yul\":994:1000   */\n  0x00\n    /* \"#utility.yul\":1041:1043   */\n  0x20\n    /* \"#utility.yul\":1036:1038   */\n  0x1f\n    /* \"#utility.yul\":1029:1034   */\n  dup4\n    /* \"#utility.yul\":1025:1039   */\n  add\n    /* \"#utility.yul\":1021:1044   */\n  div\n    /* \"#utility.yul\":1011:1044   */\n  swap1\n  pop\n    /* \"#utility.yul\":957:1050   */\n  swap2\n  swap1\n  pop\n  jump\t// out\n    /* \"#utility.yul\":1056:1163   */\ntag_29:\n    /* \"#utility.yul\":1100:1108   */\n  0x00\n    /* \"#utility.yul\":1150:1155   */\n  dup3\n    /* \"#utility.yul\":1144:1148   */\n  dup3\n    /* \"#utility.yul\":1140:1156   */\n  shl\n    /* \"#utility.yul\":1119:1156   */\n  swap1\n  pop\n    /* \"#utility.yul\":1056:1163   */\n  swap3\n  swap2\n  pop\n  pop\n  jump\t// out\n    /* \"#utility.yul\":1169:1562   */\ntag_30:\n    /* \"#utility.yul\":1238:1244   */\n  0x00\n    /* \"#utility.yul\":1288:1289   */\n  0x08\n    /* \"#utility.yul\":1276:1286   */\n  dup4\n    /* \"#utility.yul\":1272:1290   */\n  mul\n    /* \"#utility.yul\":1311:1408   */\n  tag_56\n    /* \"#utility.yul\":1341:1407   */\n  0xffffffffffffffffffffffffffffffffffffffffffffffffffffffffffffffff\n    /* \"#utility.yul\":1330:1339   */\n  dup3\n    /* \"#utility.yul\":1311:1408   */\n  tag_29\n  jump\t// in\ntag_56:\n    /* \"#utility.yul\":1429:1468   */\n  tag_57\n    /* \"#utility.yul\":1459:1467   */\n  dup7\n    /* \"#utility.yul\":1448:1457   */\n  dup4\n    /* \"#utility.yul\":1429:1468   */\n  tag_29\n  jump\t// in\ntag_57:\n    /* \"#utility.yul\":1417:1468   */\n  swap6\n  pop\n    /* \"#utility.yul\":1501:1505   */\n  dup1\n    /* \"#utility.yul\":1497:1506   */\n  not\n    /* \"#utility.yul\":1490:1495   */\n  dup5\n    /* \"#utility.yul\":1486:1507   */\n  and\n    /* \"#utility.yul\":1477:1507   */\n  swap4\n  pop\n    /* \"#utility.yul\":1550:1554   */\n  dup1\n    /* \"#utility.yul\":1540:1548   */\n  dup7\n    /* \"#utility.yul\":1536:1555   */\n  and\n    /* \"#utility.yul\":1529:1534   */\n  dup5\n    /* \"#utility.yul\":1526:1556   */\n  or\n    /* \"#utility.yul\":1516:1556   */\n  swap3\n  pop\n    /* \"#utility.yul\":1245:1562   */\n  pop\n  pop\n    /* \"#utility.yul\":1169:1562   */\n  swap4\n  swap3\n  pop\n  pop\n  pop\n  jump\t// out\n    /* \"#utility.yul\":1568:1645   */\ntag_31:\n    /* \"#utility.yul\":1605:1612   */\n  0x00\n    /* \"#utility.yul\":1634:1639   */\n  dup2\n    /* \"#utility.yul\":1623:1639   */\n  swap1\n  pop\n    /* \"#utility.yul\":1568:1645   */\n  swap2\n  swap1\n  pop\n  jump\t// out\n    /* \"#utility.yul\":1651:1711   */\ntag_32:\n    /* \"#utility.yul\":1679:1682   */\n  0x00\n    /* \"#utility.yul\":1700:1705   */\n  dup2\n    /* \"#utility.yul\":1693:1705   */\n  swap1\n  pop\n    /* \"#utility.yul\":1651:1711   */\n  swap2\n  swap1\n  pop\n  jump\t// out\n    /* \"#utility.yul\":1717:1859   */\ntag_33:\n    /* \"#utility.yul\":1767:1776   */\n  0x00\n    /* \"#utility.yul\":1800:1853   */\n  tag_61\n    /* \"#utility.yul\":1818:1852   */\n  tag_62\n    /* \"#utility.yul\":1827:1851   */\n  tag_63\n    /* \"#utility.yul\":1845:1850   */\n  dup5\n    /* \"#utility.yul\":1827:1851   */\n  tag_31\n  jump\t// in\ntag_63:\n    /* \"#utility.yul\":1818:1852   */\n  tag_32\n  jump\t// in\ntag_62:\n    /* \"#utility.yul\":1800:1853   */\n  tag_31\n  jump\t// in\ntag_61:\n    /* \"#utility.yul\":1787:1853   */\n  swap1\n  pop\n    /* \"#utility.yul\":1717:1859   */\n  swap2\n  swap1\n  pop\n  jump\t// out\n    /* \"#utility.yul\":1865:1940   */\ntag_34:\n    /* \"#utility.yul\":1908:1911   */\n  0x00\n    /* \"#utility.yul\":1929:1934   */\n  dup2\n    /* \"#utility.yul\":1922:1934   */\n  swap1\n  pop\n    /* \"#utility.yul\":1865:1940   */\n  swap2\n  swap1\n  pop\n  jump\t// out\n    /* \"#utility.yul\":1946:2215   */\ntag_35:\n    /* \"#utility.yul\":2056:2095   */\n  tag_66\n    /* \"#utility.yul\":2087:2094   */\n  dup4\n    /* \"#utility.yul\":2056:2095   */\n  tag_33\n  jump\t// in\ntag_66:\n    /* \"#utility.yul\":2117:2208   */\n  tag_67\n    /* \"#utility.yul\":2166:2207   */\n  tag_68\n    /* \"#utility.yul\":2190:2206   */\n  dup3\n    /* \"#utility.yul\":2166:2207   */\n  tag_34\n  jump\t// in\ntag_68:\n    /* \"#utility.yul\":2158:2164   */\n  dup5\n    /* \"#utility.yul\":2151:2155   */\n  dup5\n    /* \"#utility.yul\":2145:2156   */\n  sload\n    /* \"#utility.yul\":2117:2208   */\n  tag_30\n  jump\t// in\ntag_67:\n    /* \"#utility.yul\":2111:2115   */\n  dup3\n    /* \"#utility.yul\":2104:2209   */\n  sstore\n    /* \"#utility.yul\":2022:2215   */\n  pop\n    /* \"#utility.yul\":1946:2215   */\n  pop\n  pop\n  pop\n  jump\t// out\n    /* \"#utility.yul\":2221:2294   */\ntag_36:\n    /* \"#utility.yul\":2266:2269   */\n  0x00\n    /* \"#utility.yul\":2221:2294   */\n  swap1\n  jump\t// out\n    /* \"#utility.yul\":2300:2489   */\ntag_37:\n    /* \"#utility.yul\":2377:2409   */\n  tag_71\n  tag_36\n  jump\t// in\ntag_71:\n    /* \"#utility.yul\":2418:2483   */\n  tag_72\n    /* \"#utility.yul\":2476:2482   */\n  dup2\n    /* \"#utility.yul\":2468:2474   */\n  dup5\n    /* \"#utility.yul\":2462:2466   */\n  dup5\n    /* \"#utility.yul\":2418:2483   */\n  tag_35\n  jump\t// in\ntag_72:\n    /* \"#utility.yul\":2353:2489   */\n  pop\n    /* \"#utility.yul\":2300:2489   */\n  pop\n  pop\n  jump\t// out\n    /* \"#utility.yul\":2495:2681   */\ntag_38:\n    /* \"#utility.yul\":2555:2675   */\ntag_74:\n    /* \"#utility.yul\":2572:2575   */\n  dup2\n    /* \"#utility.yul\":2565:2570   */\n  dup2\n    /* \"#utility.yul\":2562:2576   */\n  lt\n    /* \"#utility.yul\":2555:2675   */\n  iszero\n  tag_76\n  jumpi\n    /* \"#utility.yul\":2626:2665   */\n  tag_77\n    /* \"#utility.yul\":2663:2664   */\n  0x00\n    /* \"#utility.yul\":2656:2661   */\n  dup3\n    /* \"#utility.yul\":2626:2665   */\n  tag_37\n  jump\t// in\ntag_77:\n    /* \"#utility.yul\":2599:2600   */\n  0x01\n    /* \"#utility.yul\":2592:2597   */\n  dup2\n    /* \"#utility.yul\":2588:2601   */\n  add\n    /* \"#utility.yul\":2579:2601   */\n  swap1\n  pop\n    /* \"#utility.yul\":2555:2675   */\n  jump(tag_74)\ntag_76:\n    /* \"#utility.yul\":2495:2681   */\n  pop\n  pop\n  jump\t// out\n    /* \"#utility.yul\":2687:3230   */\ntag_39:\n    /* \"#utility.yul\":2788:2790   */\n  0x1f\n    /* \"#utility.yul\":2783:2786   */\n  dup3\n    /* \"#utility.yul\":2780:2791   */\n  gt\n    /* \"#utility.yul\":2777:3223   */\n  iszero\n  tag_79\n  jumpi\n    /* \"#utility.yul\":2822:2860   */\n  tag_80\n    /* \"#utility.yul\":2854:2859   */\n  dup2\n    /* \"#utility.yul\":2822:2860   */\n  tag_27\n  jump\t// in\ntag_80:\n    /* \"#utility.yul\":2906:2935   */\n  tag_81\n    /* \"#utility.yul\":2924:2934   */\n  dup5\n    /* \"#utility.yul\":2906:2935   */\n  tag_28\n  jump\t// in\ntag_81:\n    /* \"#utility.yul\":2896:2904   */\n  dup2\n    /* \"#utility.yul\":2892:2936   */\n  add\n    /* \"#utility.yul\":3089:3091   */\n  0x20\n    /* \"#utility.yul\":3077:3087   */\n  dup6\n    /* \"#utility.yul\":3074:3092   */\n  lt\n    /* \"#utility.yul\":3071:3120   */\n  iszero\n  tag_82\n  jumpi\n    /* \"#utility.yul\":3110:3118   */\n  dup2\n    /* \"#utility.yul\":3095:3118   */\n  swap1\n  pop\n    /* \"#utility.yul\":3071:3120   */\ntag_82:\n    /* \"#utility.yul\":3133:3213   */\n  tag_83\n    /* \"#utility.yul\":3189:3211   */\n  tag_84\n    /* \"#utility.yul\":3207:3210   */\n  dup6\n    /* \"#utility.yul\":3189:3211   */\n  tag_28\n  jump\t// in\ntag_84:\n    /* \"#utility.yul\":3179:3187   */\n  dup4\n    /* \"#utility.yul\":3175:3212   */\n  add\n    /* \"#utility.yul\":3162:3173   */\n  dup3\n    /* \"#utility.yul\":3133:3213   */\n  tag_38\n  jump\t// in\ntag_83:\n    /* \"#utility.yul\":2792:3223   */\n  pop\n  pop\n    /* \"#utility.yul\":2777:3223   */\ntag_79:\n    /* \"#utility.yul\":2687:3230   */\n  pop\n  pop\n  pop\n  jump\t// out\n    /* \"#utility.yul\":3236:3353   */\ntag_40:\n    /* \"#utility.yul\":3290:3298   */\n  0x00\n    /* \"#utility.yul\":3340:3345   */\n  dup3\n    /* \"#utility.yul\":3334:3338   */\n  dup3\n    /* \"#utility.yul\":3330:3346   */\n  shr\n    /* \"#utility.yul\":3309:3346   */\n  swap1\n  pop\n    /* \"#utility.yul\":3236:3353   */\n  swap3\n  swap2\n  pop\n  pop\n  jump\t// out\n    /* \"#utility.yul\":3359:3528   */\ntag_41:\n    /* \"#utility.yul\":3403:3409   */\n  0x00\n    /* \"#utility.yul\":3436:3487   */\n  tag_87\n    /* \"#utility.yul\":3484:3485   */\n  0x00\n    /* \"#utility.yul\":3480:3486   */\n  not\n    /* \"#utility.yul\":3472:3477   */\n  dup5\n    /* \"#utility.yul\":3469:3470   */\n  0x08\n    /* \"#utility.yul\":3465:3478   */\n  mul\n    /* \"#utility.yul\":3436:3487   */\n  tag_40\n  jump\t// in\ntag_87:\n    /* \"#utility.yul\":3432:3488   */\n  not\n    /* \"#utility.yul\":3517:3521   */\n  dup1\n    /* \"#utility.yul\":3511:3515   */\n  dup4\n    /* \"#utility.yul\":3507:3522   */\n  and\n    /* \"#utility.yul\":3497:3522   */\n  swap2\n  pop\n    /* \"#utility.yul\":3410:3528   */\n  pop\n    /* \"#utility.yul\":3359:3528   */\n  swap3\n  swap2\n  pop\n  pop\n  jump\t// out\n    /* \"#utility.yul\":3533:3828   */\ntag_42:\n    /* \"#utility.yul\":3609:3613   */\n  0x00\n    /* \"#utility.yul\":3755:3784   */\n  tag_89\n    /* \"#utility.yul\":3780:3783   */\n  dup4\n    /* \"#utility.yul\":3774:3778   */\n  dup4\n    /* \"#utility.yul\":3755:3784   */\n  tag_41\n  jump\t// in\ntag_89:\n    /* \"#utility.yul\":3747:3784   */\n  swap2\n  pop\n    /* \"#utility.yul\":3817:3820   */\n  dup3\n    /* \"#utility.yul\":3814:3815   */\n  0x02\n    /* \"#utility.yul\":3810:3821   */\n  mul\n    /* \"#utility.yul\":3804:3808   */\n  dup3\n    /* \"#utility.yul\":3801:3822   */\n  or\n    /* \"#utility.yul\":3793:3822   */\n  swap1\n  pop\n    /* \"#utility.yul\":3533:3828   */\n  swap3\n  swap2\n  pop\n  pop\n  jump\t// out\n    /* \"#utility.yul\":3833:5228   */\ntag_20:\n    /* \"#utility.yul\":3950:3987   */\n  tag_91\n    /* \"#utility.yul\":3983:3986   */\n  dup3\n    /* \"#utility.yul\":3950:3987   */\n  tag_23\n  jump\t// in\ntag_91:\n    /* \"#utility.yul\":4052:4070   */\n  0xffffffffffffffff\n    /* \"#utility.yul\":4044:4050   */\n  dup2\n    /* \"#utility.yul\":4041:4071   */\n  gt\n    /* \"#utility.yul\":4038:4094   */\n  iszero\n  tag_92\n  jumpi\n    /* \"#utility.yul\":4074:4092   */\n  tag_93\n  tag_24\n  jump\t// in\ntag_93:\n    /* \"#utility.yul\":4038:4094   */\ntag_92:\n    /* \"#utility.yul\":4118:4156   */\n  tag_94\n    /* \"#utility.yul\":4150:4154   */\n  dup3\n    /* \"#utility.yul\":4144:4155   */\n  sload\n    /* \"#utility.yul\":4118:4156   */\n  tag_26\n  jump\t// in\ntag_94:\n    /* \"#utility.yul\":4203:4270   */\n  tag_95\n    /* \"#utility.yul\":4263:4269   */\n  dup3\n    /* \"#utility.yul\":4255:4261   */\n  dup3\n    /* \"#utility.yul\":4249:4253   */\n  dup6\n    /* \"#utility.yul\":4203:4270   */\n  tag_39\n  jump\t// in\ntag_95:\n    /* \"#utility.yul\":4297:4298   */\n  0x00\n    /* \"#utility.yul\":4321:4325   */\n  0x20\n    /* \"#utility.yul\":4308:4325   */\n  swap1\n  pop\n    /* \"#utility.yul\":4353:4355   */\n  0x1f\n    /* \"#utility.yul\":4345:4351   */\n  dup4\n    /* \"#utility.yul\":4342:4356   */\n  gt\n    /* \"#utility.yul\":4370:4371   */\n  0x01\n    /* \"#utility.yul\":4365:4983   */\n  dup2\n  eq\n  tag_97\n  jumpi\n    /* \"#utility.yul\":5027:5028   */\n  0x00\n    /* \"#utility.yul\":5044:5050   */\n  dup5\n    /* \"#utility.yul\":5041:5118   */\n  iszero\n  tag_98\n  jumpi\n    /* \"#utility.yul\":5093:5102   */\n  dup3\n    /* \"#utility.yul\":5088:5091   */\n  dup8\n    /* \"#utility.yul\":5084:5103   */\n  add\n    /* \"#utility.yul\":5078:5104   */\n  mload\n    /* \"#utility.yul\":5069:5104   */\n  swap1\n  pop\n    /* \"#utility.yul\":5041:5118   */\ntag_98:\n    /* \"#utility.yul\":5144:5211   */\n  tag_99\n    /* \"#utility.yul\":5204:5210   */\n  dup6\n    /* \"#utility.yul\":5197:5202   */\n  dup3\n    /* \"#utility.yul\":5144:5211   */\n  tag_42\n  jump\t// in\ntag_99:\n    /* \"#utility.yul\":5138:5142   */\n  dup7\n    /* \"#utility.yul\":5131:5212   */\n  sstore\n    /* \"#utility.yul\":5000:5222   */\n  pop\n    /* \"#utility.yul\":4335:5222   */\n  jump(tag_96)\n    /* \"#utility.yul\":4365:4983   */\ntag_97:\n    /* \"#utility.yul\":4417:4421   */\n  0x1f\n    /* \"#utility.yul\":4413:4422   */\n  not\n    /* \"#utility.yul\":4405:4411   */\n  dup5\n    /* \"#utility.yul\":4401:4423   */\n  and\n    /* \"#utility.yul\":4451:4488   */\n  tag_100\n    /* \"#utility.yul\":4483:4487   */\n  dup7\n    /* \"#utility.yul\":4451:4488   */\n  tag_27\n  jump\t// in\ntag_100:\n    /* \"#utility.yul\":4510:4511   */\n  0x00\n    /* \"#utility.yul\":4524:4732   */\ntag_101:\n    /* \"#utility.yul\":4538:4545   */\n  dup3\n    /* \"#utility.yul\":4535:4536   */\n  dup2\n    /* \"#utility.yul\":4532:4546   */\n  lt\n    /* \"#utility.yul\":4524:4732   */\n  iszero\n  tag_103\n  jumpi\n    /* \"#utility.yul\":4617:4626   */\n  dup5\n    /* \"#utility.yul\":4612:4615   */\n  dup10\n    /* \"#utility.yul\":4608:4627   */\n  add\n    /* \"#utility.yul\":4602:4628   */\n  mload\n    /* \"#utility.yul\":4594:4600   */\n  dup3\n    /* \"#utility.yul\":4587:4629   */\n  sstore\n    /* \"#utility.yul\":4668:4669   */\n  0x01\n    /* \"#utility.yul\":4660:4666   */\n  dup3\n    /* \"#utility.yul\":4656:4670   */\n  add\n    /* \"#utility.yul\":4646:4670   */\n  swap2\n  pop\n    /* \"#utility.yul\":4715:4717   */\n  0x20\n    /* \"#utility.yul\":4704:4713   */\n  dup6\n    /* \"#utility.yul\":4700:4718   */\n  add\n    /* \"#utility.yul\":4687:4718   */\n  swap5\n  pop\n    /* \"#utility.yul\":4561:4565   */\n  0x20\n    /* \"#utility.yul\":4558:4559   */\n  dup2\n    /* \"#utility.yul\":4554:4566   */\n  add\n    /* \"#utility.yul\":4549:4566   */\n  swap1\n  pop\n    /* \"#utility.yul\":4524:4732   */\n  jump(tag_101)\ntag_103:\n    /* \"#utility.yul\":4760:4766   */\n  dup7\n    /* \"#utility.yul\":4751:4758   */\n  dup4\n    /* \"#utility.yul\":4748:4767   */\n  lt\n    /* \"#utility.yul\":4745:4924   */\n  iszero\n  tag_104\n  jumpi\n    /* \"#utility.yul\":4818:4827   */\n  dup5\n    /* \"#utility.yul\":4813:4816   */\n  dup10\n    /* \"#utility.yul\":4809:4828   */\n  add\n    /* \"#utility.yul\":4803:4829   */\n  mload\n    /* \"#utility.yul\":4861:4909   */\n  tag_105\n    /* \"#utility.yul\":4903:4907   */\n  0x1f\n    /* \"#utility.yul\":4895:4901   */\n  dup10\n    /* \"#utility.yul\":4891:4908   */\n  and\n    /* \"#utility.yul\":4880:4889   */\n  dup3\n    /* \"#utility.yul\":4861:4909   */\n  tag_41\n  jump\t// in\ntag_105:\n    /* \"#utility.yul\":4853:4859   */\n  dup4\n    /* \"#utility.yul\":4846:4910   */\n  sstore\n    /* \"#utility.yul\":4768:4924   */\n  pop\n    /* \"#utility.yul\":4745:4924   */\ntag_104:\n    /* \"#utility.yul\":4970:4971   */\n  0x01\n    /* \"#utility.yul\":4966:4967   */\n  0x02\n    /* \"#utility.yul\":4958:4964   */\n  dup9\n    /* \"#utility.yul\":4954:4968   */\n  mul\n    /* \"#utility.yul\":4950:4972   */\n  add\n    /* \"#utility.yul\":4944:4948   */\n  dup9\n    /* \"#utility.yul\":4937:4973   */\n  sstore\n    /* \"#utility.yul\":4372:4983   */\n  pop\n  pop\n  pop\n    /* \"#utility.yul\":4335:5222   */\ntag_96:\n  pop\n    /* \"#utility.yul\":3925:5228   */\n  pop\n  pop\n  pop\n    /* \"#utility.yul\":3833:5228   */\n  pop\n  pop\n  jump\t// out\n    /* \"#utility.yul\":5234:5414   */\ntag_43:\n    /* \"#utility.yul\":5282:5359   */\n  0x4e487b7100000000000000000000000000000000000000000000000000000000\n    /* \"#utility.yul\":5279:5280   */\n  0x00\n    /* \"#utility.yul\":5272:5360   */\n  mstore\n    /* \"#utility.yul\":5379:5383   */\n  0x11\n    /* \"#utility.yul\":5376:5377   */\n  0x04\n    /* \"#utility.yul\":5369:5384   */\n  mstore\n    /* \"#utility.yul\":5403:5407   */\n  0x24\n    /* \"#utility.yul\":5400:5401   */\n  0x00\n    /* \"#utility.yul\":5393:5408   */\n  revert\n    /* \"#utility.yul\":5420:5653   */\ntag_22:\n    /* \"#utility.yul\":5459:5462   */\n  0x00\n    /* \"#utility.yul\":5482:5506   */\n  tag_108\n    /* \"#utility.yul\":5500:5505   */\n  dup3\n    /* \"#utility.yul\":5482:5506   */\n  tag_31\n  jump\t// in\ntag_108:\n    /* \"#utility.yul\":5473:5506   */\n  swap2\n  pop\n    /* \"#utility.yul\":5528:5594   */\n  0xffffffffffffffffffffffffffffffffffffffffffffffffffffffffffffffff\n    /* \"#utility.yul\":5521:5526   */\n  dup3\n    /* \"#utility.yul\":5518:5595   */\n  sub\n    /* \"#utility.yul\":5515:5618   */\n  tag_109\n  jumpi\n    /* \"#utility.yul\":5598:5616   */\n  tag_110\n  tag_43\n  jump\t// in\ntag_110:\n    /* \"#utility.yul\":5515:5618   */\ntag_109:\n    /* \"#utility.yul\":5645:5646   */\n  0x01\n    /* \"#utility.yul\":5638:5643   */\n  dup3\n    /* \"#utility.yul\":5634:5647   */\n  add\n    /* \"#utility.yul\":5627:5647   */\n  swap1\n  pop\n    /* \"#utility.yul\":5420:5653   */\n  swap2\n  swap1\n  pop\n  jump\t// out\n    /* \"Poll.sol\":270:4366  contract Poll is IPoll {... */\ntag_17:\n  dataSize(sub_0)\n  dup1\n  dataOffset(sub_0)\n  0x00\n  codecopy\n  0x00\n  return\nstop\n\nsub_0: assembly {\n        /* \"Poll.sol\":270:4366  contract Poll is IPoll {... */\n      mstore(0x40, 0x80)\n      callvalue\n      dup1\n      iszero\n      tag_1\n      jumpi\n      0x00\n      dup1\n      revert\n    tag_1:\n      pop\n      jumpi(tag_2, lt(calldatasize, 0x04))\n      shr(0xe0, calldataload(0x00))\n      dup1\n      0x70740aab\n      gt\n      tag_11\n      jumpi\n      dup1\n      0x70740aab\n      eq\n      tag_7\n      jumpi\n      dup1\n      0xaec2ccae\n      eq\n      tag_8\n      jumpi\n      dup1\n      0xdc899a07\n      eq\n      tag_9\n      jumpi\n      dup1\n      0xf6fd7fde\n      eq\n      tag_10\n      jumpi\n      jump(tag_2)\n    tag_11:\n      dup1\n      0x0121b93f\n      eq\n      tag_3\n      jumpi\n      dup1\n      0x01ffc9a7\n      eq\n      tag_4\n      jumpi\n      dup1\n      0x251760b7\n      eq\n      tag_5\n      jumpi\n      dup1\n      0x5fa520bb\n      eq\n      tag_6\n      jumpi\n    tag_2:\n      0x00\n      dup1\n      revert\n        /* \"Poll.sol\":3363:3612  function vote (uint _id) public override {... */\n    tag_3:\n      tag_12\n      0x04\n      dup1\n      calldatasize\n      sub\n      dup2\n      add\n      swap1\n      tag_13\n      swap2\n      swap1\n      tag_14\n      jump\t// in\n    tag_13:\n      tag_15\n      jump\t// in\n    tag_12:\n      stop\n        /* \"Poll.sol\":4196:4363  function supportsInterface(bytes4 interfaceId) external override pure returns (bool) {... */\n    tag_4:\n      tag_16\n      0x04\n      dup1\n      calldatasize\n      sub\n      dup2\n      add\n      swap1\n      tag_17\n      swap2\n      swap1\n      tag_18\n      jump\t// in\n    tag_17:\n      tag_19\n      jump\t// in\n    tag_16:\n      mload(0x40)\n      tag_20\n      swap2\n      swap1\n      tag_21\n      jump\t// in\n    tag_20:\n      mload(0x40)\n      dup1\n      swap2\n      sub\n      swap1\n      return\n        /* \"Poll.sol\":1951:1983  uint public override num_choices */\n    tag_5:\n      tag_22\n      tag_23\n      jump\t// in\n    tag_22:\n      mload(0x40)\n      tag_24\n      swap2\n      swap1\n      tag_25\n      jump\t// in\n    tag_24:\n      mload(0x40)\n      dup1\n      swap2\n      sub\n      swap1\n      return\n        /* \"Poll.sol\":2960:3133  function addChoice (string memory _name) public override {... */\n    tag_6:\n      tag_26\n      0x04\n      dup1\n      calldatasize\n      sub\n      dup2\n      add\n      swap1\n      tag_27\n      swap2\n      swap1\n      tag_28\n      jump\t// in\n    tag_27:\n      tag_29\n      jump\t// in\n    tag_26:\n      stop\n        /* \"Poll.sol\":2247:2318  string public override constant purpose = \"Vote on your favorite month\" */\n    tag_7:\n      tag_30\n      tag_31\n      jump\t// in\n    tag_30:\n      mload(0x40)\n      tag_32\n      swap2\n      swap1\n      tag_33\n      jump\t// in\n    tag_32:\n      mload(0x40)\n      dup1\n      swap2\n      sub\n      swap1\n      return\n        /* \"Poll.sol\":953:1000  mapping (address => bool) public override voted */\n    tag_8:\n      tag_34\n      0x04\n      dup1\n      calldatasize\n      sub\n      dup2\n      add\n      swap1\n      tag_35\n      swap2\n      swap1\n      tag_36\n      jump\t// in\n    tag_35:\n      tag_37\n      jump\t// in\n    tag_34:\n      mload(0x40)\n      tag_38\n      swap2\n      swap1\n      tag_21\n      jump\t// in\n    tag_38:\n      mload(0x40)\n      dup1\n      swap2\n      sub\n      swap1\n      return\n        /* \"Poll.sol\":3872:3970  function unnecessaryFunction() public view returns (string memory) {... */\n    tag_9:\n      tag_39\n      tag_40\n      jump\t// in\n    tag_39:\n      mload(0x40)\n      tag_41\n      swap2\n      swap1\n      tag_33\n      jump\t// in\n    tag_41:\n      mload(0x40)\n      dup1\n      swap2\n      sub\n      swap1\n      return\n        /* \"Poll.sol\":1609:1705  function choices(uint i) public view override returns (Choice memory) {... */\n    tag_10:\n      tag_42\n      0x04\n      dup1\n      calldatasize\n      sub\n      dup2\n      add\n      swap1\n      tag_43\n      swap2\n      swap1\n      tag_14\n      jump\t// in\n    tag_43:\n      tag_44\n      jump\t// in\n    tag_42:\n      mload(0x40)\n      tag_45\n      swap2\n      swap1\n      tag_46\n      jump\t// in\n    tag_45:\n      mload(0x40)\n      dup1\n      swap2\n      sub\n      swap1\n      return\n        /* \"Poll.sol\":3363:3612  function vote (uint _id) public override {... */\n    tag_15:\n        /* \"Poll.sol\":3417:3422  voted */\n      0x00\n        /* \"Poll.sol\":3417:3434  voted[msg.sender] */\n      dup1\n        /* \"Poll.sol\":3423:3433  msg.sender */\n      caller\n        /* \"Poll.sol\":3417:3434  voted[msg.sender] */\n      0xffffffffffffffffffffffffffffffffffffffff\n      and\n      0xffffffffffffffffffffffffffffffffffffffff\n      and\n      dup2\n      mstore\n      0x20\n      add\n      swap1\n      dup2\n      mstore\n      0x20\n      add\n      0x00\n      keccak256\n      0x00\n      swap1\n      sload\n      swap1\n      0x0100\n      exp\n      swap1\n      div\n      0xff\n      and\n        /* \"Poll.sol\":3416:3434  !voted[msg.sender] */\n      iszero\n        /* \"Poll.sol\":3408:3463  require(!voted[msg.sender], \"sender has already voted\") */\n      tag_48\n      jumpi\n      mload(0x40)\n      0x08c379a000000000000000000000000000000000000000000000000000000000\n      dup2\n      mstore\n      0x04\n      add\n      tag_49\n      swap1\n      tag_50\n      jump\t// in\n    tag_49:\n      mload(0x40)\n      dup1\n      swap2\n      sub\n      swap1\n      revert\n    tag_48:\n        /* \"Poll.sol\":3482:3483  0 */\n      0x00\n        /* \"Poll.sol\":3475:3478  _id */\n      dup2\n        /* \"Poll.sol\":3475:3483  _id >= 0 */\n      lt\n      iszero\n        /* \"Poll.sol\":3475:3504  _id >= 0 && _id < num_choices */\n      dup1\n      iszero\n      tag_51\n      jumpi\n      pop\n        /* \"Poll.sol\":3493:3504  num_choices */\n      sload(0x02)\n        /* \"Poll.sol\":3487:3490  _id */\n      dup2\n        /* \"Poll.sol\":3487:3504  _id < num_choices */\n      lt\n        /* \"Poll.sol\":3475:3504  _id >= 0 && _id < num_choices */\n    tag_51:\n        /* \"Poll.sol\":3467:3531  require(_id >= 0 && _id < num_choices, \"invalid vote selection\") */\n      tag_52\n      jumpi\n      mload(0x40)\n      0x08c379a000000000000000000000000000000000000000000000000000000000\n      dup2\n      mstore\n      0x04\n      add\n      tag_53\n      swap1\n      tag_54\n      jump\t// in\n    tag_53:\n      mload(0x40)\n      dup1\n      swap2\n      sub\n      swap1\n      revert\n    tag_52:\n        /* \"Poll.sol\":3555:3559  true */\n      0x01\n        /* \"Poll.sol\":3535:3540  voted */\n      0x00\n        /* \"Poll.sol\":3535:3552  voted[msg.sender] */\n      dup1\n        /* \"Poll.sol\":3541:3551  msg.sender */\n      caller\n        /* \"Poll.sol\":3535:3552  voted[msg.sender] */\n      0xffffffffffffffffffffffffffffffffffffffff\n      and\n      0xffffffffffffffffffffffffffffffffffffffff\n      and\n      dup2\n      mstore\n      0x20\n      add\n      swap1\n      dup2\n      mstore\n      0x20\n      add\n      0x00\n      keccak256\n      0x00\n        /* \"Poll.sol\":3535:3559  voted[msg.sender] = true */\n      0x0100\n      exp\n      dup2\n      sload\n      dup2\n      0xff\n      mul\n      not\n      and\n      swap1\n      dup4\n      iszero\n      iszero\n      mul\n      or\n      swap1\n      sstore\n      pop\n        /* \"Poll.sol\":3563:3571  _choices */\n      0x01\n        /* \"Poll.sol\":3563:3576  _choices[_id] */\n      0x00\n        /* \"Poll.sol\":3572:3575  _id */\n      dup3\n        /* \"Poll.sol\":3563:3576  _choices[_id] */\n      dup2\n      mstore\n      0x20\n      add\n      swap1\n      dup2\n      mstore\n      0x20\n      add\n      0x00\n      keccak256\n        /* \"Poll.sol\":3563:3582  _choices[_id].votes */\n      0x02\n      add\n      0x00\n        /* \"Poll.sol\":3563:3584  _choices[_id].votes++ */\n      dup2\n      sload\n      dup1\n      swap3\n      swap2\n      swap1\n      tag_55\n      swap1\n      tag_56\n      jump\t// in\n    tag_55:\n      swap2\n      swap1\n      pop\n      sstore\n      pop\n        /* \"Poll.sol\":3604:3607  _id */\n      dup1\n        /* \"Poll.sol\":3593:3608  votedEvent(_id) */\n      0xfff3c900d938d21d0990d786e819f29b8d05c1ef587b462b939609625b684b16\n      mload(0x40)\n      mload(0x40)\n      dup1\n      swap2\n      sub\n      swap1\n      log2\n        /* \"Poll.sol\":3363:3612  function vote (uint _id) public override {... */\n      pop\n      jump\t// out\n        /* \"Poll.sol\":4196:4363  function supportsInterface(bytes4 interfaceId) external override pure returns (bool) {... */\n    tag_19:\n        /* \"Poll.sol\":4275:4279  bool */\n      0x00\n        /* \"Poll.sol\":4307:4330  type(IPoll).interfaceId */\n      0x5227894f00000000000000000000000000000000000000000000000000000000\n        /* \"Poll.sol\":4292:4330  interfaceId == type(IPoll).interfaceId */\n      not(0xffffffffffffffffffffffffffffffffffffffffffffffffffffffff)\n      and\n        /* \"Poll.sol\":4292:4303  interfaceId */\n      dup3\n        /* \"Poll.sol\":4292:4330  interfaceId == type(IPoll).interfaceId */\n      not(0xffffffffffffffffffffffffffffffffffffffffffffffffffffffff)\n      and\n      eq\n        /* \"Poll.sol\":4292:4359  interfaceId == type(IPoll).interfaceId || interfaceId == 0x01ffc9a7 */\n      dup1\n      tag_58\n      jumpi\n      pop\n        /* \"Poll.sol\":4349:4359  0x01ffc9a7 */\n      0x01ffc9a7\n        /* \"Poll.sol\":4334:4359  interfaceId == 0x01ffc9a7 */\n      0xe0\n      shl\n        /* \"Poll.sol\":4334:4345  interfaceId */\n      dup3\n        /* \"Poll.sol\":4334:4359  interfaceId == 0x01ffc9a7 */\n      not(0xffffffffffffffffffffffffffffffffffffffffffffffffffffffff)\n      and\n      eq\n        /* \"Poll.sol\":4292:4359  interfaceId == type(IPoll).interfaceId || interfaceId == 0x01ffc9a7 */\n    tag_58:\n        /* \"Poll.sol\":4285:4359  return interfaceId == type(IPoll).interfaceId || interfaceId == 0x01ffc9a7 */\n      swap1\n      pop\n        /* \"Poll.sol\":4196:4363  function supportsInterface(bytes4 interfaceId) external override pure returns (bool) {... */\n      swap2\n      swap1\n      pop\n      jump\t// out\n        /* \"Poll.sol\":1951:1983  uint public override num_choices */\n    tag_23:\n      sload(0x02)\n      dup2\n      jump\t// out\n        /* \"Poll.sol\":2960:3133  function addChoice (string memory _name) public override {... */\n    tag_29:\n        /* \"Poll.sol\":3045:3074  Choice(num_choices, _name, 0) */\n      mload(0x40)\n      dup1\n      0x60\n      add\n      0x40\n      mstore\n      dup1\n        /* \"Poll.sol\":3052:3063  num_choices */\n      sload(0x02)\n        /* \"Poll.sol\":3045:3074  Choice(num_choices, _name, 0) */\n      dup2\n      mstore\n      0x20\n      add\n        /* \"Poll.sol\":3065:3070  _name */\n      dup3\n        /* \"Poll.sol\":3045:3074  Choice(num_choices, _name, 0) */\n      dup2\n      mstore\n      0x20\n      add\n        /* \"Poll.sol\":3072:3073  0 */\n      0x00\n        /* \"Poll.sol\":3045:3074  Choice(num_choices, _name, 0) */\n      dup2\n      mstore\n      pop\n        /* \"Poll.sol\":3021:3029  _choices */\n      0x01\n        /* \"Poll.sol\":3021:3042  _choices[num_choices] */\n      0x00\n        /* \"Poll.sol\":3030:3041  num_choices */\n      sload(0x02)\n        /* \"Poll.sol\":3021:3042  _choices[num_choices] */\n      dup2\n      mstore\n      0x20\n      add\n      swap1\n      dup2\n      mstore\n      0x20\n      add\n      0x00\n      keccak256\n        /* \"Poll.sol\":3021:3074  _choices[num_choices] = Choice(num_choices, _name, 0) */\n      0x00\n      dup3\n      add\n      mload\n      dup2\n      0x00\n      add\n      sstore\n      0x20\n      dup3\n      add\n      mload\n      dup2\n      0x01\n      add\n      swap1\n      dup2\n      tag_60\n      swap2\n      swap1\n      tag_61\n      jump\t// in\n    tag_60:\n      pop\n      0x40\n      dup3\n      add\n      mload\n      dup2\n      0x02\n      add\n      sstore\n      swap1\n      pop\n      pop\n        /* \"Poll.sol\":3100:3111  num_choices */\n      sload(0x02)\n        /* \"Poll.sol\":3083:3112  choiceAddedEvent(num_choices) */\n      0x8c289382d6fd42a02a06e885da5a69cb0f21294bbfc7acc91d5cf3ced61ca0c4\n      mload(0x40)\n      mload(0x40)\n      dup1\n      swap2\n      sub\n      swap1\n      log2\n        /* \"Poll.sol\":3116:3127  num_choices */\n      0x02\n      0x00\n        /* \"Poll.sol\":3116:3129  num_choices++ */\n      dup2\n      sload\n      dup1\n      swap3\n      swap2\n      swap1\n      tag_62\n      swap1\n      tag_56\n      jump\t// in\n    tag_62:\n      swap2\n      swap1\n      pop\n      sstore\n      pop\n        /* \"Poll.sol\":2960:3133  function addChoice (string memory _name) public override {... */\n      pop\n      jump\t// out\n        /* \"Poll.sol\":2247:2318  string public override constant purpose = \"Vote on your favorite month\" */\n    tag_31:\n      mload(0x40)\n      dup1\n      0x40\n      add\n      0x40\n      mstore\n      dup1\n      0x1b\n      dup2\n      mstore\n      0x20\n      add\n      0x566f7465206f6e20796f7572206661766f72697465206d6f6e74680000000000\n      dup2\n      mstore\n      pop\n      dup2\n      jump\t// out\n        /* \"Poll.sol\":953:1000  mapping (address => bool) public override voted */\n    tag_37:\n      mstore(0x20, 0x00)\n      dup1\n      0x00\n      mstore\n      keccak256(0x00, 0x40)\n      0x00\n      swap2\n      pop\n      sload\n      swap1\n      0x0100\n      exp\n      swap1\n      div\n      0xff\n      and\n      dup2\n      jump\t// out\n        /* \"Poll.sol\":3872:3970  function unnecessaryFunction() public view returns (string memory) {... */\n    tag_40:\n        /* \"Poll.sol\":3924:3937  string memory */\n      0x60\n        /* \"Poll.sol\":3950:3958  _choices */\n      0x01\n        /* \"Poll.sol\":3950:3961  _choices[0] */\n      0x00\n        /* \"Poll.sol\":3959:3960  0 */\n      dup1\n        /* \"Poll.sol\":3950:3961  _choices[0] */\n      dup2\n      mstore\n      0x20\n      add\n      swap1\n      dup2\n      mstore\n      0x20\n      add\n      0x00\n      keccak256\n        /* \"Poll.sol\":3950:3966  _choices[0].name */\n      0x01\n      add\n        /* \"Poll.sol\":3943:3966  return _choices[0].name */\n      dup1\n      sload\n      tag_64\n      swap1\n      tag_65\n      jump\t// in\n    tag_64:\n      dup1\n      0x1f\n      add\n      0x20\n      dup1\n      swap2\n      div\n      mul\n      0x20\n      add\n      mload(0x40)\n      swap1\n      dup2\n      add\n      0x40\n      mstore\n      dup1\n      swap3\n      swap2\n      swap1\n      dup2\n      dup2\n      mstore\n      0x20\n      add\n      dup3\n      dup1\n      sload\n      tag_66\n      swap1\n      tag_65\n      jump\t// in\n    tag_66:\n      dup1\n      iszero\n      tag_67\n      jumpi\n      dup1\n      0x1f\n      lt\n      tag_68\n      jumpi\n      0x0100\n      dup1\n      dup4\n      sload\n      div\n      mul\n      dup4\n      mstore\n      swap2\n      0x20\n      add\n      swap2\n      jump(tag_67)\n    tag_68:\n      dup3\n      add\n      swap2\n      swap1\n      0x00\n      mstore\n      keccak256(0x00, 0x20)\n      swap1\n    tag_69:\n      dup2\n      sload\n      dup2\n      mstore\n      swap1\n      0x01\n      add\n      swap1\n      0x20\n      add\n      dup1\n      dup4\n      gt\n      tag_69\n      jumpi\n      dup3\n      swap1\n      sub\n      0x1f\n      and\n      dup3\n      add\n      swap2\n    tag_67:\n      pop\n      pop\n      pop\n      pop\n      pop\n      swap1\n      pop\n        /* \"Poll.sol\":3872:3970  function unnecessaryFunction() public view returns (string memory) {... */\n      swap1\n      jump\t// out\n        /* \"Poll.sol\":1609:1705  function choices(uint i) public view override returns (Choice memory) {... */\n    tag_44:\n        /* \"Poll.sol\":1664:1677  Choice memory */\n      tag_70\n      tag_71\n      jump\t// in\n    tag_70:\n        /* \"Poll.sol\":1690:1698  _choices */\n      0x01\n        /* \"Poll.sol\":1690:1701  _choices[i] */\n      0x00\n        /* \"Poll.sol\":1699:1700  i */\n      dup4\n        /* \"Poll.sol\":1690:1701  _choices[i] */\n      dup2\n      mstore\n      0x20\n      add\n      swap1\n      dup2\n      mstore\n      0x20\n      add\n      0x00\n      keccak256\n        /* \"Poll.sol\":1683:1701  return _choices[i] */\n      mload(0x40)\n      dup1\n      0x60\n      add\n      0x40\n      mstore\n      swap1\n      dup2\n      0x00\n      dup3\n      add\n      sload\n      dup2\n      mstore\n      0x20\n      add\n      0x01\n      dup3\n      add\n      dup1\n      sload\n      tag_73\n      swap1\n      tag_65\n      jump\t// in\n    tag_73:\n      dup1\n      0x1f\n      add\n      0x20\n      dup1\n      swap2\n      div\n      mul\n      0x20\n      add\n      mload(0x40)\n      swap1\n      dup2\n      add\n      0x40\n      mstore\n      dup1\n      swap3\n      swap2\n      swap1\n      dup2\n      dup2\n      mstore\n      0x20\n      add\n      dup3\n      dup1\n      sload\n      tag_74\n      swap1\n      tag_65\n      jump\t// in\n    tag_74:\n      dup1\n      iszero\n      tag_75\n      jumpi\n      dup1\n      0x1f\n      lt\n      tag_76\n      jumpi\n      0x0100\n      dup1\n      dup4\n      sload\n      div\n      mul\n      dup4\n      mstore\n      swap2\n      0x20\n      add\n      swap2\n      jump(tag_75)\n    tag_76:\n      dup3\n      add\n      swap2\n      swap1\n      0x00\n      mstore\n      keccak256(0x00, 0x20)\n      swap1\n    tag_77:\n      dup2\n      sload\n      dup2\n      mstore\n      swap1\n      0x01\n      add\n      swap1\n      0x20\n      add\n      dup1\n      dup4\n      gt\n      tag_77\n      jumpi\n      dup3\n      swap1\n      sub\n      0x1f\n      and\n      dup3\n      add\n      swap2\n    tag_75:\n      pop\n      pop\n      pop\n      pop\n      pop\n      dup2\n      mstore\n      0x20\n      add\n      0x02\n      dup3\n      add\n      sload\n      dup2\n      mstore\n      pop\n      pop\n      swap1\n      pop\n        /* \"Poll.sol\":1609:1705  function choices(uint i) public view override returns (Choice memory) {... */\n      swap2\n      swap1\n      pop\n      jump\t// out\n    tag_71:\n      mload(0x40)\n      dup1\n      0x60\n      add\n      0x40\n      mstore\n      dup1\n      0x00\n      dup2\n      mstore\n      0x20\n      add\n      0x60\n      dup2\n      mstore\n      0x20\n      add\n      0x00\n      dup2\n      mstore\n      pop\n      swap1\n      jump\t// out\n        /* \"#utility.yul\":7:82   */\n    tag_78:\n        /* \"#utility.yul\":40:46   */\n      0x00\n        /* \"#utility.yul\":73:75   */\n      0x40\n        /* \"#utility.yul\":67:76   */\n      mload\n        /* \"#utility.yul\":57:76   */\n      swap1\n      pop\n        /* \"#utility.yul\":7:82   */\n      swap1\n      jump\t// out\n        /* \"#utility.yul\":88:205   */\n    tag_79:\n        /* \"#utility.yul\":197:198   */\n      0x00\n        /* \"#utility.yul\":194:195   */\n      dup1\n        /* \"#utility.yul\":187:199   */\n      revert\n        /* \"#utility.yul\":211:328   */\n    tag_80:\n        /* \"#utility.yul\":320:321   */\n      0x00\n        /* \"#utility.yul\":317:318   */\n      dup1\n        /* \"#utility.yul\":310:322   */\n      revert\n        /* \"#utility.yul\":334:411   */\n    tag_81:\n        /* \"#utility.yul\":371:378   */\n      0x00\n        /* \"#utility.yul\":400:405   */\n      dup2\n        /* \"#utility.yul\":389:405   */\n      swap1\n      pop\n        /* \"#utility.yul\":334:411   */\n      swap2\n      swap1\n      pop\n      jump\t// out\n        /* \"#utility.yul\":417:539   */\n    tag_82:\n        /* \"#utility.yul\":490:514   */\n      tag_139\n        /* \"#utility.yul\":508:513   */\n      dup2\n        /* \"#utility.yul\":490:514   */\n      tag_81\n      jump\t// in\n    tag_139:\n        /* \"#utility.yul\":483:488   */\n      dup2\n        /* \"#utility.yul\":480:515   */\n      eq\n        /* \"#utility.yul\":470:533   */\n      tag_140\n      jumpi\n        /* \"#utility.yul\":529:530   */\n      0x00\n        /* \"#utility.yul\":526:527   */\n      dup1\n        /* \"#utility.yul\":519:531   */\n      revert\n        /* \"#utility.yul\":470:533   */\n    tag_140:\n        /* \"#utility.yul\":417:539   */\n      pop\n      jump\t// out\n        /* \"#utility.yul\":545:684   */\n    tag_83:\n        /* \"#utility.yul\":591:596   */\n      0x00\n        /* \"#utility.yul\":629:635   */\n      dup2\n        /* \"#utility.yul\":616:636   */\n      calldataload\n        /* \"#utility.yul\":607:636   */\n      swap1\n      pop\n        /* \"#utility.yul\":645:678   */\n      tag_142\n        /* \"#utility.yul\":672:677   */\n      dup2\n        /* \"#utility.yul\":645:678   */\n      tag_82\n      jump\t// in\n    tag_142:\n        /* \"#utility.yul\":545:684   */\n      swap3\n      swap2\n      pop\n      pop\n      jump\t// out\n        /* \"#utility.yul\":690:1019   */\n    tag_14:\n        /* \"#utility.yul\":749:755   */\n      0x00\n        /* \"#utility.yul\":798:800   */\n      0x20\n        /* \"#utility.yul\":786:795   */\n      dup3\n        /* \"#utility.yul\":777:784   */\n      dup5\n        /* \"#utility.yul\":773:796   */\n      sub\n        /* \"#utility.yul\":769:801   */\n      slt\n        /* \"#utility.yul\":766:885   */\n      iszero\n      tag_144\n      jumpi\n        /* \"#utility.yul\":804:883   */\n      tag_145\n      tag_79\n      jump\t// in\n    tag_145:\n        /* \"#utility.yul\":766:885   */\n    tag_144:\n        /* \"#utility.yul\":924:925   */\n      0x00\n        /* \"#utility.yul\":949:1002   */\n      tag_146\n        /* \"#utility.yul\":994:1001   */\n      dup5\n        /* \"#utility.yul\":985:991   */\n      dup3\n        /* \"#utility.yul\":974:983   */\n      dup6\n        /* \"#utility.yul\":970:992   */\n      add\n        /* \"#utility.yul\":949:1002   */\n      tag_83\n      jump\t// in\n    tag_146:\n        /* \"#utility.yul\":939:1002   */\n      swap2\n      pop\n        /* \"#utility.yul\":895:1012   */\n      pop\n        /* \"#utility.yul\":690:1019   */\n      swap3\n      swap2\n      pop\n      pop\n      jump\t// out\n        /* \"#utility.yul\":1025:1174   */\n    tag_84:\n        /* \"#utility.yul\":1061:1068   */\n      0x00\n        /* \"#utility.yul\":1101:1167   */\n      0xffffffff00000000000000000000000000000000000000000000000000000000\n        /* \"#utility.yul\":1094:1099   */\n      dup3\n        /* \"#utility.yul\":1090:1168   */\n      and\n        /* \"#utility.yul\":1079:1168   */\n      swap1\n      pop\n        /* \"#utility.yul\":1025:1174   */\n      swap2\n      swap1\n      pop\n      jump\t// out\n        /* \"#utility.yul\":1180:1300   */\n    tag_85:\n        /* \"#utility.yul\":1252:1275   */\n      tag_149\n        /* \"#utility.yul\":1269:1274   */\n      dup2\n        /* \"#utility.yul\":1252:1275   */\n      tag_84\n      jump\t// in\n    tag_149:\n        /* \"#utility.yul\":1245:1250   */\n      dup2\n        /* \"#utility.yul\":1242:1276   */\n      eq\n        /* \"#utility.yul\":1232:1294   */\n      tag_150\n      jumpi\n        /* \"#utility.yul\":1290:1291   */\n      0x00\n        /* \"#utility.yul\":1287:1288   */\n      dup1\n        /* \"#utility.yul\":1280:1292   */\n      revert\n        /* \"#utility.yul\":1232:1294   */\n    tag_150:\n        /* \"#utility.yul\":1180:1300   */\n      pop\n      jump\t// out\n        /* \"#utility.yul\":1306:1443   */\n    tag_86:\n        /* \"#utility.yul\":1351:1356   */\n      0x00\n        /* \"#utility.yul\":1389:1395   */\n      dup2\n        /* \"#utility.yul\":1376:1396   */\n      calldataload\n        /* \"#utility.yul\":1367:1396   */\n      swap1\n      pop\n        /* \"#utility.yul\":1405:1437   */\n      tag_152\n        /* \"#utility.yul\":1431:1436   */\n      dup2\n        /* \"#utility.yul\":1405:1437   */\n      tag_85\n      jump\t// in\n    tag_152:\n        /* \"#utility.yul\":1306:1443   */\n      swap3\n      swap2\n      pop\n      pop\n      jump\t// out\n        /* \"#utility.yul\":1449:1776   */\n    tag_18:\n        /* \"#utility.yul\":1507:1513   */\n      0x00\n        /* \"#utility.yul\":1556:1558   */\n      0x20\n        /* \"#utility.yul\":1544:1553   */\n      dup3\n        /* \"#utility.yul\":1535:1542   */\n      dup5\n        /* \"#utility.yul\":1531:1554   */\n      sub\n        /* \"#utility.yul\":1527:1559   */\n      slt\n        /* \"#utility.yul\":1524:1643   */\n      iszero\n      tag_154\n      jumpi\n        /* \"#utility.yul\":1562:1641   */\n      tag_155\n      tag_79\n      jump\t// in\n    tag_155:\n        /* \"#utility.yul\":1524:1643   */\n    tag_154:\n        /* \"#utility.yul\":1682:1683   */\n      0x00\n        /* \"#utility.yul\":1707:1759   */\n      tag_156\n        /* \"#utility.yul\":1751:1758   */\n      dup5\n        /* \"#utility.yul\":1742:1748   */\n      dup3\n        /* \"#utility.yul\":1731:1740   */\n      dup6\n        /* \"#utility.yul\":1727:1749   */\n      add\n        /* \"#utility.yul\":1707:1759   */\n      tag_86\n      jump\t// in\n    tag_156:\n        /* \"#utility.yul\":1697:1759   */\n      swap2\n      pop\n        /* \"#utility.yul\":1653:1769   */\n      pop\n        /* \"#utility.yul\":1449:1776   */\n      swap3\n      swap2\n      pop\n      pop\n      jump\t// out\n        /* \"#utility.yul\":1782:1872   */\n    tag_87:\n        /* \"#utility.yul\":1816:1823   */\n      0x00\n        /* \"#utility.yul\":1859:1864   */\n      dup2\n        /* \"#utility.yul\":1852:1865   */\n      iszero\n        /* \"#utility.yul\":1845:1866   */\n      iszero\n        /* \"#utility.yul\":1834:1866   */\n      swap1\n      pop\n        /* \"#utility.yul\":1782:1872   */\n      swap2\n      swap1\n      pop\n      jump\t// out\n        /* \"#utility.yul\":1878:1987   */\n    tag_88:\n        /* \"#utility.yul\":1959:1980   */\n      tag_159\n        /* \"#utility.yul\":1974:1979   */\n      dup2\n        /* \"#utility.yul\":1959:1980   */\n      tag_87\n      jump\t// in\n    tag_159:\n        /* \"#utility.yul\":1954:1957   */\n      dup3\n        /* \"#utility.yul\":1947:1981   */\n      mstore\n        /* \"#utility.yul\":1878:1987   */\n      pop\n      pop\n      jump\t// out\n        /* \"#utility.yul\":1993:2203   */\n    tag_21:\n        /* \"#utility.yul\":2080:2084   */\n      0x00\n        /* \"#utility.yul\":2118:2120   */\n      0x20\n        /* \"#utility.yul\":2107:2116   */\n      dup3\n        /* \"#utility.yul\":2103:2121   */\n      add\n        /* \"#utility.yul\":2095:2121   */\n      swap1\n      pop\n        /* \"#utility.yul\":2131:2196   */\n      tag_161\n        /* \"#utility.yul\":2193:2194   */\n      0x00\n        /* \"#utility.yul\":2182:2191   */\n      dup4\n        /* \"#utility.yul\":2178:2195   */\n      add\n        /* \"#utility.yul\":2169:2175   */\n      dup5\n        /* \"#utility.yul\":2131:2196   */\n      tag_88\n      jump\t// in\n    tag_161:\n        /* \"#utility.yul\":1993:2203   */\n      swap3\n      swap2\n      pop\n      pop\n      jump\t// out\n        /* \"#utility.yul\":2209:2327   */\n    tag_89:\n        /* \"#utility.yul\":2296:2320   */\n      tag_163\n        /* \"#utility.yul\":2314:2319   */\n      dup2\n        /* \"#utility.yul\":2296:2320   */\n      tag_81\n      jump\t// in\n    tag_163:\n        /* \"#utility.yul\":2291:2294   */\n      dup3\n        /* \"#utility.yul\":2284:2321   */\n      mstore\n        /* \"#utility.yul\":2209:2327   */\n      pop\n      pop\n      jump\t// out\n        /* \"#utility.yul\":2333:2555   */\n    tag_25:\n        /* \"#utility.yul\":2426:2430   */\n      0x00\n        /* \"#utility.yul\":2464:2466   */\n      0x20\n        /* \"#utility.yul\":2453:2462   */\n      dup3\n        /* \"#utility.yul\":2449:2467   */\n      add\n        /* \"#utility.yul\":2441:2467   */\n      swap1\n      pop\n        /* \"#utility.yul\":2477:2548   */\n      tag_165\n        /* \"#utility.yul\":2545:2546   */\n      0x00\n        /* \"#utility.yul\":2534:2543   */\n      dup4\n        /* \"#utility.yul\":2530:2547   */\n      add\n        /* \"#utility.yul\":2521:2527   */\n      dup5\n        /* \"#utility.yul\":2477:2548   */\n      tag_89\n      jump\t// in\n    tag_165:\n        /* \"#utility.yul\":2333:2555   */\n      swap3\n      swap2\n      pop\n      pop\n      jump\t// out\n        /* \"#utility.yul\":2561:2678   */\n    tag_90:\n        /* \"#utility.yul\":2670:2671   */\n      0x00\n        /* \"#utility.yul\":2667:2668   */\n      dup1\n        /* \"#utility.yul\":2660:2672   */\n      revert\n        /* \"#utility.yul\":2684:2801   */\n    tag_91:\n        /* \"#utility.yul\":2793:2794   */\n      0x00\n        /* \"#utility.yul\":2790:2791   */\n      dup1\n        /* \"#utility.yul\":2783:2795   */\n      revert\n        /* \"#utility.yul\":2807:2909   */\n    tag_92:\n        /* \"#utility.yul\":2848:2854   */\n      0x00\n        /* \"#utility.yul\":2899:2901   */\n      0x1f\n        /* \"#utility.yul\":2895:2902   */\n      not\n        /* \"#utility.yul\":2890:2892   */\n      0x1f\n        /* \"#utility.yul\":2883:2888   */\n      dup4\n        /* \"#utility.yul\":2879:2893   */\n      add\n        /* \"#utility.yul\":2875:2903   */\n      and\n        /* \"#utility.yul\":2865:2903   */\n      swap1\n      pop\n        /* \"#utility.yul\":2807:2909   */\n      swap2\n      swap1\n      pop\n      jump\t// out\n        /* \"#utility.yul\":2915:3095   */\n    tag_93:\n        /* \"#utility.yul\":2963:3040   */\n      0x4e487b7100000000000000000000000000000000000000000000000000000000\n        /* \"#utility.yul\":2960:2961   */\n      0x00\n        /* \"#utility.yul\":2953:3041   */\n      mstore\n        /* \"#utility.yul\":3060:3064   */\n      0x41\n        /* \"#utility.yul\":3057:3058   */\n      0x04\n        /* \"#utility.yul\":3050:3065   */\n      mstore\n        /* \"#utility.yul\":3084:3088   */\n      0x24\n        /* \"#utility.yul\":3081:3082   */\n      0x00\n        /* \"#utility.yul\":3074:3089   */\n      revert\n        /* \"#utility.yul\":3101:3382   */\n    tag_94:\n        /* \"#utility.yul\":3184:3211   */\n      tag_171\n        /* \"#utility.yul\":3206:3210   */\n      dup3\n        /* \"#utility.yul\":3184:3211   */\n      tag_92\n      jump\t// in\n    tag_171:\n        /* \"#utility.yul\":3176:3182   */\n      dup2\n        /* \"#utility.yul\":3172:3212   */\n      add\n        /* \"#utility.yul\":3314:3320   */\n      dup2\n        /* \"#utility.yul\":3302:3312   */\n      dup2\n        /* \"#utility.yul\":3299:3321   */\n      lt\n        /* \"#utility.yul\":3278:3296   */\n      0xffffffffffffffff\n        /* \"#utility.yul\":3266:3276   */\n      dup3\n        /* \"#utility.yul\":3263:3297   */\n      gt\n        /* \"#utility.yul\":3260:3322   */\n      or\n        /* \"#utility.yul\":3257:3345   */\n      iszero\n      tag_172\n      jumpi\n        /* \"#utility.yul\":3325:3343   */\n      tag_173\n      tag_93\n      jump\t// in\n    tag_173:\n        /* \"#utility.yul\":3257:3345   */\n    tag_172:\n        /* \"#utility.yul\":3365:3375   */\n      dup1\n        /* \"#utility.yul\":3361:3363   */\n      0x40\n        /* \"#utility.yul\":3354:3376   */\n      mstore\n        /* \"#utility.yul\":3144:3382   */\n      pop\n        /* \"#utility.yul\":3101:3382   */\n      pop\n      pop\n      jump\t// out\n        /* \"#utility.yul\":3388:3517   */\n    tag_95:\n        /* \"#utility.yul\":3422:3428   */\n      0x00\n        /* \"#utility.yul\":3449:3469   */\n      tag_175\n      tag_78\n      jump\t// in\n    tag_175:\n        /* \"#utility.yul\":3439:3469   */\n      swap1\n      pop\n        /* \"#utility.yul\":3478:3511   */\n      tag_176\n        /* \"#utility.yul\":3506:3510   */\n      dup3\n        /* \"#utility.yul\":3498:3504   */\n      dup3\n        /* \"#utility.yul\":3478:3511   */\n      tag_94\n      jump\t// in\n    tag_176:\n        /* \"#utility.yul\":3388:3517   */\n      swap2\n      swap1\n      pop\n      jump\t// out\n        /* \"#utility.yul\":3523:3831   */\n    tag_96:\n        /* \"#utility.yul\":3585:3589   */\n      0x00\n        /* \"#utility.yul\":3675:3693   */\n      0xffffffffffffffff\n        /* \"#utility.yul\":3667:3673   */\n      dup3\n        /* \"#utility.yul\":3664:3694   */\n      gt\n        /* \"#utility.yul\":3661:3717   */\n      iszero\n      tag_178\n      jumpi\n        /* \"#utility.yul\":3697:3715   */\n      tag_179\n      tag_93\n      jump\t// in\n    tag_179:\n        /* \"#utility.yul\":3661:3717   */\n    tag_178:\n        /* \"#utility.yul\":3735:3764   */\n      tag_180\n        /* \"#utility.yul\":3757:3763   */\n      dup3\n        /* \"#utility.yul\":3735:3764   */\n      tag_92\n      jump\t// in\n    tag_180:\n        /* \"#utility.yul\":3727:3764   */\n      swap1\n      pop\n        /* \"#utility.yul\":3819:3823   */\n      0x20\n        /* \"#utility.yul\":3813:3817   */\n      dup2\n        /* \"#utility.yul\":3809:3824   */\n      add\n        /* \"#utility.yul\":3801:3824   */\n      swap1\n      pop\n        /* \"#utility.yul\":3523:3831   */\n      swap2\n      swap1\n      pop\n      jump\t// out\n        /* \"#utility.yul\":3837:3983   */\n    tag_97:\n        /* \"#utility.yul\":3934:3940   */\n      dup3\n        /* \"#utility.yul\":3929:3932   */\n      dup2\n        /* \"#utility.yul\":3924:3927   */\n      dup4\n        /* \"#utility.yul\":3911:3941   */\n      calldatacopy\n        /* \"#utility.yul\":3975:3976   */\n      0x00\n        /* \"#utility.yul\":3966:3972   */\n      dup4\n        /* \"#utility.yul\":3961:3964   */\n      dup4\n        /* \"#utility.yul\":3957:3973   */\n      add\n        /* \"#utility.yul\":3950:3977   */\n      mstore\n        /* \"#utility.yul\":3837:3983   */\n      pop\n      pop\n      pop\n      jump\t// out\n        /* \"#utility.yul\":3989:4414   */\n    tag_98:\n        /* \"#utility.yul\":4067:4072   */\n      0x00\n        /* \"#utility.yul\":4092:4158   */\n      tag_183\n        /* \"#utility.yul\":4108:4157   */\n      tag_184\n        /* \"#utility.yul\":4150:4156   */\n      dup5\n        /* \"#utility.yul\":4108:4157   */\n      tag_96\n      jump\t// in\n    tag_184:\n        /* \"#utility.yul\":4092:4158   */\n      tag_95\n      jump\t// in\n    tag_183:\n        /* \"#utility.yul\":4083:4158   */\n      swap1\n      pop\n        /* \"#utility.yul\":4181:4187   */\n      dup3\n        /* \"#utility.yul\":4174:4179   */\n      dup2\n        /* \"#utility.yul\":4167:4188   */\n      mstore\n        /* \"#utility.yul\":4219:4223   */\n      0x20\n        /* \"#utility.yul\":4212:4217   */\n      dup2\n        /* \"#utility.yul\":4208:4224   */\n      add\n        /* \"#utility.yul\":4257:4260   */\n      dup5\n        /* \"#utility.yul\":4248:4254   */\n      dup5\n        /* \"#utility.yul\":4243:4246   */\n      dup5\n        /* \"#utility.yul\":4239:4255   */\n      add\n        /* \"#utility.yul\":4236:4261   */\n      gt\n        /* \"#utility.yul\":4233:4345   */\n      iszero\n      tag_185\n      jumpi\n        /* \"#utility.yul\":4264:4343   */\n      tag_186\n      tag_91\n      jump\t// in\n    tag_186:\n        /* \"#utility.yul\":4233:4345   */\n    tag_185:\n        /* \"#utility.yul\":4354:4408   */\n      tag_187\n        /* \"#utility.yul\":4401:4407   */\n      dup5\n        /* \"#utility.yul\":4396:4399   */\n      dup3\n        /* \"#utility.yul\":4391:4394   */\n      dup6\n        /* \"#utility.yul\":4354:4408   */\n      tag_97\n      jump\t// in\n    tag_187:\n        /* \"#utility.yul\":4073:4414   */\n      pop\n        /* \"#utility.yul\":3989:4414   */\n      swap4\n      swap3\n      pop\n      pop\n      pop\n      jump\t// out\n        /* \"#utility.yul\":4434:4774   */\n    tag_99:\n        /* \"#utility.yul\":4490:4495   */\n      0x00\n        /* \"#utility.yul\":4539:4542   */\n      dup3\n        /* \"#utility.yul\":4532:4536   */\n      0x1f\n        /* \"#utility.yul\":4524:4530   */\n      dup4\n        /* \"#utility.yul\":4520:4537   */\n      add\n        /* \"#utility.yul\":4516:4543   */\n      slt\n        /* \"#utility.yul\":4506:4628   */\n      tag_189\n      jumpi\n        /* \"#utility.yul\":4547:4626   */\n      tag_190\n      tag_90\n      jump\t// in\n    tag_190:\n        /* \"#utility.yul\":4506:4628   */\n    tag_189:\n        /* \"#utility.yul\":4664:4670   */\n      dup2\n        /* \"#utility.yul\":4651:4671   */\n      calldataload\n        /* \"#utility.yul\":4689:4768   */\n      tag_191\n        /* \"#utility.yul\":4764:4767   */\n      dup5\n        /* \"#utility.yul\":4756:4762   */\n      dup3\n        /* \"#utility.yul\":4749:4753   */\n      0x20\n        /* \"#utility.yul\":4741:4747   */\n      dup7\n        /* \"#utility.yul\":4737:4754   */\n      add\n        /* \"#utility.yul\":4689:4768   */\n      tag_98\n      jump\t// in\n    tag_191:\n        /* \"#utility.yul\":4680:4768   */\n      swap2\n      pop\n        /* \"#utility.yul\":4496:4774   */\n      pop\n        /* \"#utility.yul\":4434:4774   */\n      swap3\n      swap2\n      pop\n      pop\n      jump\t// out\n        /* \"#utility.yul\":4780:5289   */\n    tag_28:\n        /* \"#utility.yul\":4849:4855   */\n      0x00\n        /* \"#utility.yul\":4898:4900   */\n      0x20\n        /* \"#utility.yul\":4886:4895   */\n      dup3\n        /* \"#utility.yul\":4877:4884   */\n      dup5\n        /* \"#utility.yul\":4873:4896   */\n      sub\n        /* \"#utility.yul\":4869:4901   */\n      slt\n        /* \"#utility.yul\":4866:4985   */\n      iszero\n      tag_193\n      jumpi\n        /* \"#utility.yul\":4904:4983   */\n      tag_194\n      tag_79\n      jump\t// in\n    tag_194:\n        /* \"#utility.yul\":4866:4985   */\n    tag_193:\n        /* \"#utility.yul\":5052:5053   */\n      0x00\n        /* \"#utility.yul\":5041:5050   */\n      dup3\n        /* \"#utility.yul\":5037:5054   */\n      add\n        /* \"#utility.yul\":5024:5055   */\n      calldataload\n        /* \"#utility.yul\":5082:5100   */\n      0xffffffffffffffff\n        /* \"#utility.yul\":5074:5080   */\n      dup2\n        /* \"#utility.yul\":5071:5101   */\n      gt\n        /* \"#utility.yul\":5068:5185   */\n      iszero\n      tag_195\n      jumpi\n        /* \"#utility.yul\":5104:5183   */\n      tag_196\n      tag_80\n      jump\t// in\n    tag_196:\n        /* \"#utility.yul\":5068:5185   */\n    tag_195:\n        /* \"#utility.yul\":5209:5272   */\n      tag_197\n        /* \"#utility.yul\":5264:5271   */\n      dup5\n        /* \"#utility.yul\":5255:5261   */\n      dup3\n        /* \"#utility.yul\":5244:5253   */\n      dup6\n        /* \"#utility.yul\":5240:5262   */\n      add\n        /* \"#utility.yul\":5209:5272   */\n      tag_99\n      jump\t// in\n    tag_197:\n        /* \"#utility.yul\":5199:5272   */\n      swap2\n      pop\n        /* \"#utility.yul\":4995:5282   */\n      pop\n        /* \"#utility.yul\":4780:5289   */\n      swap3\n      swap2\n      pop\n      pop\n      jump\t// out\n        /* \"#utility.yul\":5295:5394   */\n    tag_100:\n        /* \"#utility.yul\":5347:5353   */\n      0x00\n        /* \"#utility.yul\":5381:5386   */\n      dup2\n        /* \"#utility.yul\":5375:5387   */\n      mload\n        /* \"#utility.yul\":5365:5387   */\n      swap1\n      pop\n        /* \"#utility.yul\":5295:5394   */\n      swap2\n      swap1\n      pop\n      jump\t// out\n        /* \"#utility.yul\":5400:5569   */\n    tag_101:\n        /* \"#utility.yul\":5484:5495   */\n      0x00\n        /* \"#utility.yul\":5518:5524   */\n      dup3\n        /* \"#utility.yul\":5513:5516   */\n      dup3\n        /* \"#utility.yul\":5506:5525   */\n      mstore\n        /* \"#utility.yul\":5558:5562   */\n      0x20\n        /* \"#utility.yul\":5553:5556   */\n      dup3\n        /* \"#utility.yul\":5549:5563   */\n      add\n        /* \"#utility.yul\":5534:5563   */\n      swap1\n      pop\n        /* \"#utility.yul\":5400:5569   */\n      swap3\n      swap2\n      pop\n      pop\n      jump\t// out\n        /* \"#utility.yul\":5575:5821   */\n    tag_102:\n        /* \"#utility.yul\":5656:5657   */\n      0x00\n        /* \"#utility.yul\":5666:5779   */\n    tag_201:\n        /* \"#utility.yul\":5680:5686   */\n      dup4\n        /* \"#utility.yul\":5677:5678   */\n      dup2\n        /* \"#utility.yul\":5674:5687   */\n      lt\n        /* \"#utility.yul\":5666:5779   */\n      iszero\n      tag_203\n      jumpi\n        /* \"#utility.yul\":5765:5766   */\n      dup1\n        /* \"#utility.yul\":5760:5763   */\n      dup3\n        /* \"#utility.yul\":5756:5767   */\n      add\n        /* \"#utility.yul\":5750:5768   */\n      mload\n        /* \"#utility.yul\":5746:5747   */\n      dup2\n        /* \"#utility.yul\":5741:5744   */\n      dup5\n        /* \"#utility.yul\":5737:5748   */\n      add\n        /* \"#utility.yul\":5730:5769   */\n      mstore\n        /* \"#utility.yul\":5702:5704   */\n      0x20\n        /* \"#utility.yul\":5699:5700   */\n      dup2\n        /* \"#utility.yul\":5695:5705   */\n      add\n        /* \"#utility.yul\":5690:5705   */\n      swap1\n      pop\n        /* \"#utility.yul\":5666:5779   */\n      jump(tag_201)\n    tag_203:\n        /* \"#utility.yul\":5813:5814   */\n      0x00\n        /* \"#utility.yul\":5804:5810   */\n      dup5\n        /* \"#utility.yul\":5799:5802   */\n      dup5\n        /* \"#utility.yul\":5795:5811   */\n      add\n        /* \"#utility.yul\":5788:5815   */\n      mstore\n        /* \"#utility.yul\":5637:5821   */\n      pop\n        /* \"#utility.yul\":5575:5821   */\n      pop\n      pop\n      pop\n      jump\t// out\n        /* \"#utility.yul\":5827:6204   */\n    tag_103:\n        /* \"#utility.yul\":5915:5918   */\n      0x00\n        /* \"#utility.yul\":5943:5982   */\n      tag_205\n        /* \"#utility.yul\":5976:5981   */\n      dup3\n        /* \"#utility.yul\":5943:5982   */\n      tag_100\n      jump\t// in\n    tag_205:\n        /* \"#utility.yul\":5998:6069   */\n      tag_206\n        /* \"#utility.yul\":6062:6068   */\n      dup2\n        /* \"#utility.yul\":6057:6060   */\n      dup6\n        /* \"#utility.yul\":5998:6069   */\n      tag_101\n      jump\t// in\n    tag_206:\n        /* \"#utility.yul\":5991:6069   */\n      swap4\n      pop\n        /* \"#utility.yul\":6078:6143   */\n      tag_207\n        /* \"#utility.yul\":6136:6142   */\n      dup2\n        /* \"#utility.yul\":6131:6134   */\n      dup6\n        /* \"#utility.yul\":6124:6128   */\n      0x20\n        /* \"#utility.yul\":6117:6122   */\n      dup7\n        /* \"#utility.yul\":6113:6129   */\n      add\n        /* \"#utility.yul\":6078:6143   */\n      tag_102\n      jump\t// in\n    tag_207:\n        /* \"#utility.yul\":6168:6197   */\n      tag_208\n        /* \"#utility.yul\":6190:6196   */\n      dup2\n        /* \"#utility.yul\":6168:6197   */\n      tag_92\n      jump\t// in\n    tag_208:\n        /* \"#utility.yul\":6163:6166   */\n      dup5\n        /* \"#utility.yul\":6159:6198   */\n      add\n        /* \"#utility.yul\":6152:6198   */\n      swap2\n      pop\n        /* \"#utility.yul\":5919:6204   */\n      pop\n        /* \"#utility.yul\":5827:6204   */\n      swap3\n      swap2\n      pop\n      pop\n      jump\t// out\n        /* \"#utility.yul\":6210:6523   */\n    tag_33:\n        /* \"#utility.yul\":6323:6327   */\n      0x00\n        /* \"#utility.yul\":6361:6363   */\n      0x20\n        /* \"#utility.yul\":6350:6359   */\n      dup3\n        /* \"#utility.yul\":6346:6364   */\n      add\n        /* \"#utility.yul\":6338:6364   */\n      swap1\n      pop\n        /* \"#utility.yul\":6410:6419   */\n      dup2\n        /* \"#utility.yul\":6404:6408   */\n      dup2\n        /* \"#utility.yul\":6400:6420   */\n      sub\n        /* \"#utility.yul\":6396:6397   */\n      0x00\n        /* \"#utility.yul\":6385:6394   */\n      dup4\n        /* \"#utility.yul\":6381:6398   */\n      add\n        /* \"#utility.yul\":6374:6421   */\n      mstore\n        /* \"#utility.yul\":6438:6516   */\n      tag_210\n        /* \"#utility.yul\":6511:6515   */\n      dup2\n        /* \"#utility.yul\":6502:6508   */\n      dup5\n        /* \"#utility.yul\":6438:6516   */\n      tag_103\n      jump\t// in\n    tag_210:\n        /* \"#utility.yul\":6430:6516   */\n      swap1\n      pop\n        /* \"#utility.yul\":6210:6523   */\n      swap3\n      swap2\n      pop\n      pop\n      jump\t// out\n        /* \"#utility.yul\":6529:6655   */\n    tag_104:\n        /* \"#utility.yul\":6566:6573   */\n      0x00\n        /* \"#utility.yul\":6606:6648   */\n      0xffffffffffffffffffffffffffffffffffffffff\n        /* \"#utility.yul\":6599:6604   */\n      dup3\n        /* \"#utility.yul\":6595:6649   */\n      and\n        /* \"#utility.yul\":6584:6649   */\n      swap1\n      pop\n        /* \"#utility.yul\":6529:6655   */\n      swap2\n      swap1\n      pop\n      jump\t// out\n        /* \"#utility.yul\":6661:6757   */\n    tag_105:\n        /* \"#utility.yul\":6698:6705   */\n      0x00\n        /* \"#utility.yul\":6727:6751   */\n      tag_213\n        /* \"#utility.yul\":6745:6750   */\n      dup3\n        /* \"#utility.yul\":6727:6751   */\n      tag_104\n      jump\t// in\n    tag_213:\n        /* \"#utility.yul\":6716:6751   */\n      swap1\n      pop\n        /* \"#utility.yul\":6661:6757   */\n      swap2\n      swap1\n      pop\n      jump\t// out\n        /* \"#utility.yul\":6763:6885   */\n    tag_106:\n        /* \"#utility.yul\":6836:6860   */\n      tag_215\n        /* \"#utility.yul\":6854:6859   */\n      dup2\n        /* \"#utility.yul\":6836:6860   */\n      tag_105\n      jump\t// in\n    tag_215:\n        /* \"#utility.yul\":6829:6834   */\n      dup2\n        /* \"#utility.yul\":6826:6861   */\n      eq\n        /* \"#utility.yul\":6816:6879   */\n      tag_216\n      jumpi\n        /* \"#utility.yul\":6875:6876   */\n      0x00\n        /* \"#utility.yul\":6872:6873   */\n      dup1\n        /* \"#utility.yul\":6865:6877   */\n      revert\n        /* \"#utility.yul\":6816:6879   */\n    tag_216:\n        /* \"#utility.yul\":6763:6885   */\n      pop\n      jump\t// out\n        /* \"#utility.yul\":6891:7030   */\n    tag_107:\n        /* \"#utility.yul\":6937:6942   */\n      0x00\n        /* \"#utility.yul\":6975:6981   */\n      dup2\n        /* \"#utility.yul\":6962:6982   */\n      calldataload\n        /* \"#utility.yul\":6953:6982   */\n      swap1\n      pop\n        /* \"#utility.yul\":6991:7024   */\n      tag_218\n        /* \"#utility.yul\":7018:7023   */\n      dup2\n        /* \"#utility.yul\":6991:7024   */\n      tag_106\n      jump\t// in\n    tag_218:\n        /* \"#utility.yul\":6891:7030   */\n      swap3\n      swap2\n      pop\n      pop\n      jump\t// out\n        /* \"#utility.yul\":7036:7365   */\n    tag_36:\n        /* \"#utility.yul\":7095:7101   */\n      0x00\n        /* \"#utility.yul\":7144:7146   */\n      0x20\n        /* \"#utility.yul\":7132:7141   */\n      dup3\n        /* \"#utility.yul\":7123:7130   */\n      dup5\n        /* \"#utility.yul\":7119:7142   */\n      sub\n        /* \"#utility.yul\":7115:7147   */\n      slt\n        /* \"#utility.yul\":7112:7231   */\n      iszero\n      tag_220\n      jumpi\n        /* \"#utility.yul\":7150:7229   */\n      tag_221\n      tag_79\n      jump\t// in\n    tag_221:\n        /* \"#utility.yul\":7112:7231   */\n    tag_220:\n        /* \"#utility.yul\":7270:7271   */\n      0x00\n        /* \"#utility.yul\":7295:7348   */\n      tag_222\n        /* \"#utility.yul\":7340:7347   */\n      dup5\n        /* \"#utility.yul\":7331:7337   */\n      dup3\n        /* \"#utility.yul\":7320:7329   */\n      dup6\n        /* \"#utility.yul\":7316:7338   */\n      add\n        /* \"#utility.yul\":7295:7348   */\n      tag_107\n      jump\t// in\n    tag_222:\n        /* \"#utility.yul\":7285:7348   */\n      swap2\n      pop\n        /* \"#utility.yul\":7241:7358   */\n      pop\n        /* \"#utility.yul\":7036:7365   */\n      swap3\n      swap2\n      pop\n      pop\n      jump\t// out\n        /* \"#utility.yul\":7371:7479   */\n    tag_108:\n        /* \"#utility.yul\":7448:7472   */\n      tag_224\n        /* \"#utility.yul\":7466:7471   */\n      dup2\n        /* \"#utility.yul\":7448:7472   */\n      tag_81\n      jump\t// in\n    tag_224:\n        /* \"#utility.yul\":7443:7446   */\n      dup3\n        /* \"#utility.yul\":7436:7473   */\n      mstore\n        /* \"#utility.yul\":7371:7479   */\n      pop\n      pop\n      jump\t// out\n        /* \"#utility.yul\":7485:7644   */\n    tag_109:\n        /* \"#utility.yul\":7559:7570   */\n      0x00\n        /* \"#utility.yul\":7593:7599   */\n      dup3\n        /* \"#utility.yul\":7588:7591   */\n      dup3\n        /* \"#utility.yul\":7581:7600   */\n      mstore\n        /* \"#utility.yul\":7633:7637   */\n      0x20\n        /* \"#utility.yul\":7628:7631   */\n      dup3\n        /* \"#utility.yul\":7624:7638   */\n      add\n        /* \"#utility.yul\":7609:7638   */\n      swap1\n      pop\n        /* \"#utility.yul\":7485:7644   */\n      swap3\n      swap2\n      pop\n      pop\n      jump\t// out\n        /* \"#utility.yul\":7650:8007   */\n    tag_110:\n        /* \"#utility.yul\":7728:7731   */\n      0x00\n        /* \"#utility.yul\":7756:7795   */\n      tag_227\n        /* \"#utility.yul\":7789:7794   */\n      dup3\n        /* \"#utility.yul\":7756:7795   */\n      tag_100\n      jump\t// in\n    tag_227:\n        /* \"#utility.yul\":7811:7872   */\n      tag_228\n        /* \"#utility.yul\":7865:7871   */\n      dup2\n        /* \"#utility.yul\":7860:7863   */\n      dup6\n        /* \"#utility.yul\":7811:7872   */\n      tag_109\n      jump\t// in\n    tag_228:\n        /* \"#utility.yul\":7804:7872   */\n      swap4\n      pop\n        /* \"#utility.yul\":7881:7946   */\n      tag_229\n        /* \"#utility.yul\":7939:7945   */\n      dup2\n        /* \"#utility.yul\":7934:7937   */\n      dup6\n        /* \"#utility.yul\":7927:7931   */\n      0x20\n        /* \"#utility.yul\":7920:7925   */\n      dup7\n        /* \"#utility.yul\":7916:7932   */\n      add\n        /* \"#utility.yul\":7881:7946   */\n      tag_102\n      jump\t// in\n    tag_229:\n        /* \"#utility.yul\":7971:8000   */\n      tag_230\n        /* \"#utility.yul\":7993:7999   */\n      dup2\n        /* \"#utility.yul\":7971:8000   */\n      tag_92\n      jump\t// in\n    tag_230:\n        /* \"#utility.yul\":7966:7969   */\n      dup5\n        /* \"#utility.yul\":7962:8001   */\n      add\n        /* \"#utility.yul\":7955:8001   */\n      swap2\n      pop\n        /* \"#utility.yul\":7732:8007   */\n      pop\n        /* \"#utility.yul\":7650:8007   */\n      swap3\n      swap2\n      pop\n      pop\n      jump\t// out\n        /* \"#utility.yul\":8063:8834   */\n    tag_111:\n        /* \"#utility.yul\":8174:8177   */\n      0x00\n        /* \"#utility.yul\":8210:8214   */\n      0x60\n        /* \"#utility.yul\":8205:8208   */\n      dup4\n        /* \"#utility.yul\":8201:8215   */\n      add\n        /* \"#utility.yul\":8295:8299   */\n      0x00\n        /* \"#utility.yul\":8288:8293   */\n      dup4\n        /* \"#utility.yul\":8284:8300   */\n      add\n        /* \"#utility.yul\":8278:8301   */\n      mload\n        /* \"#utility.yul\":8314:8377   */\n      tag_232\n        /* \"#utility.yul\":8371:8375   */\n      0x00\n        /* \"#utility.yul\":8366:8369   */\n      dup7\n        /* \"#utility.yul\":8362:8376   */\n      add\n        /* \"#utility.yul\":8348:8360   */\n      dup3\n        /* \"#utility.yul\":8314:8377   */\n      tag_108\n      jump\t// in\n    tag_232:\n        /* \"#utility.yul\":8225:8387   */\n      pop\n        /* \"#utility.yul\":8469:8473   */\n      0x20\n        /* \"#utility.yul\":8462:8467   */\n      dup4\n        /* \"#utility.yul\":8458:8474   */\n      add\n        /* \"#utility.yul\":8452:8475   */\n      mload\n        /* \"#utility.yul\":8522:8525   */\n      dup5\n        /* \"#utility.yul\":8516:8520   */\n      dup3\n        /* \"#utility.yul\":8512:8526   */\n      sub\n        /* \"#utility.yul\":8505:8509   */\n      0x20\n        /* \"#utility.yul\":8500:8503   */\n      dup7\n        /* \"#utility.yul\":8496:8510   */\n      add\n        /* \"#utility.yul\":8489:8527   */\n      mstore\n        /* \"#utility.yul\":8548:8621   */\n      tag_233\n        /* \"#utility.yul\":8616:8620   */\n      dup3\n        /* \"#utility.yul\":8602:8614   */\n      dup3\n        /* \"#utility.yul\":8548:8621   */\n      tag_110\n      jump\t// in\n    tag_233:\n        /* \"#utility.yul\":8540:8621   */\n      swap2\n      pop\n        /* \"#utility.yul\":8397:8632   */\n      pop\n        /* \"#utility.yul\":8715:8719   */\n      0x40\n        /* \"#utility.yul\":8708:8713   */\n      dup4\n        /* \"#utility.yul\":8704:8720   */\n      add\n        /* \"#utility.yul\":8698:8721   */\n      mload\n        /* \"#utility.yul\":8734:8797   */\n      tag_234\n        /* \"#utility.yul\":8791:8795   */\n      0x40\n        /* \"#utility.yul\":8786:8789   */\n      dup7\n        /* \"#utility.yul\":8782:8796   */\n      add\n        /* \"#utility.yul\":8768:8780   */\n      dup3\n        /* \"#utility.yul\":8734:8797   */\n      tag_108\n      jump\t// in\n    tag_234:\n        /* \"#utility.yul\":8642:8807   */\n      pop\n        /* \"#utility.yul\":8824:8828   */\n      dup1\n        /* \"#utility.yul\":8817:8828   */\n      swap2\n      pop\n        /* \"#utility.yul\":8179:8834   */\n      pop\n        /* \"#utility.yul\":8063:8834   */\n      swap3\n      swap2\n      pop\n      pop\n      jump\t// out\n        /* \"#utility.yul\":8840:9197   */\n    tag_46:\n        /* \"#utility.yul\":8975:8979   */\n      0x00\n        /* \"#utility.yul\":9013:9015   */\n      0x20\n        /* \"#utility.yul\":9002:9011   */\n      dup3\n        /* \"#utility.yul\":8998:9016   */\n      add\n        /* \"#utility.yul\":8990:9016   */\n      swap1\n      pop\n        /* \"#utility.yul\":9062:9071   */\n      dup2\n        /* \"#utility.yul\":9056:9060   */\n      dup2\n        /* \"#utility.yul\":9052:9072   */\n      sub\n        /* \"#utility.yul\":9048:9049   */\n      0x00\n        /* \"#utility.yul\":9037:9046   */\n      dup4\n        /* \"#utility.yul\":9033:9050   */\n      add\n        /* \"#utility.yul\":9026:9073   */\n      mstore\n        /* \"#utility.yul\":9090:9190   */\n      tag_236\n        /* \"#utility.yul\":9185:9189   */\n      dup2\n        /* \"#utility.yul\":9176:9182   */\n      dup5\n        /* \"#utility.yul\":9090:9190   */\n      tag_111\n      jump\t// in\n    tag_236:\n        /* \"#utility.yul\":9082:9190   */\n      swap1\n      pop\n        /* \"#utility.yul\":8840:9197   */\n      swap3\n      swap2\n      pop\n      pop\n      jump\t// out\n        /* \"#utility.yul\":9203:9377   */\n    tag_112:\n        /* \"#utility.yul\":9343:9369   */\n      0x73656e6465722068617320616c726561647920766f7465640000000000000000\n        /* \"#utility.yul\":9339:9340   */\n      0x00\n        /* \"#utility.yul\":9331:9337   */\n      dup3\n        /* \"#utility.yul\":9327:9341   */\n      add\n        /* \"#utility.yul\":9320:9370   */\n      mstore\n        /* \"#utility.yul\":9203:9377   */\n      pop\n      jump\t// out\n        /* \"#utility.yul\":9383:9749   */\n    tag_113:\n        /* \"#utility.yul\":9525:9528   */\n      0x00\n        /* \"#utility.yul\":9546:9613   */\n      tag_239\n        /* \"#utility.yul\":9610:9612   */\n      0x18\n        /* \"#utility.yul\":9605:9608   */\n      dup4\n        /* \"#utility.yul\":9546:9613   */\n      tag_101\n      jump\t// in\n    tag_239:\n        /* \"#utility.yul\":9539:9613   */\n      swap2\n      pop\n        /* \"#utility.yul\":9622:9715   */\n      tag_240\n        /* \"#utility.yul\":9711:9714   */\n      dup3\n        /* \"#utility.yul\":9622:9715   */\n      tag_112\n      jump\t// in\n    tag_240:\n        /* \"#utility.yul\":9740:9742   */\n      0x20\n        /* \"#utility.yul\":9735:9738   */\n      dup3\n        /* \"#utility.yul\":9731:9743   */\n      add\n        /* \"#utility.yul\":9724:9743   */\n      swap1\n      pop\n        /* \"#utility.yul\":9383:9749   */\n      swap2\n      swap1\n      pop\n      jump\t// out\n        /* \"#utility.yul\":9755:10174   */\n    tag_50:\n        /* \"#utility.yul\":9921:9925   */\n      0x00\n        /* \"#utility.yul\":9959:9961   */\n      0x20\n        /* \"#utility.yul\":9948:9957   */\n      dup3\n        /* \"#utility.yul\":9944:9962   */\n      add\n        /* \"#utility.yul\":9936:9962   */\n      swap1\n      pop\n        /* \"#utility.yul\":10008:10017   */\n      dup2\n        /* \"#utility.yul\":10002:10006   */\n      dup2\n        /* \"#utility.yul\":9998:10018   */\n      sub\n        /* \"#utility.yul\":9994:9995   */\n      0x00\n        /* \"#utility.yul\":9983:9992   */\n      dup4\n        /* \"#utility.yul\":9979:9996   */\n      add\n        /* \"#utility.yul\":9972:10019   */\n      mstore\n        /* \"#utility.yul\":10036:10167   */\n      tag_242\n        /* \"#utility.yul\":10162:10166   */\n      dup2\n        /* \"#utility.yul\":10036:10167   */\n      tag_113\n      jump\t// in\n    tag_242:\n        /* \"#utility.yul\":10028:10167   */\n      swap1\n      pop\n        /* \"#utility.yul\":9755:10174   */\n      swap2\n      swap1\n      pop\n      jump\t// out\n        /* \"#utility.yul\":10180:10352   */\n    tag_114:\n        /* \"#utility.yul\":10320:10344   */\n      0x696e76616c696420766f74652073656c656374696f6e00000000000000000000\n        /* \"#utility.yul\":10316:10317   */\n      0x00\n        /* \"#utility.yul\":10308:10314   */\n      dup3\n        /* \"#utility.yul\":10304:10318   */\n      add\n        /* \"#utility.yul\":10297:10345   */\n      mstore\n        /* \"#utility.yul\":10180:10352   */\n      pop\n      jump\t// out\n        /* \"#utility.yul\":10358:10724   */\n    tag_115:\n        /* \"#utility.yul\":10500:10503   */\n      0x00\n        /* \"#utility.yul\":10521:10588   */\n      tag_245\n        /* \"#utility.yul\":10585:10587   */\n      0x16\n        /* \"#utility.yul\":10580:10583   */\n      dup4\n        /* \"#utility.yul\":10521:10588   */\n      tag_101\n      jump\t// in\n    tag_245:\n        /* \"#utility.yul\":10514:10588   */\n      swap2\n      pop\n        /* \"#utility.yul\":10597:10690   */\n      tag_246\n        /* \"#utility.yul\":10686:10689   */\n      dup3\n        /* \"#utility.yul\":10597:10690   */\n      tag_114\n      jump\t// in\n    tag_246:\n        /* \"#utility.yul\":10715:10717   */\n      0x20\n        /* \"#utility.yul\":10710:10713   */\n      dup3\n        /* \"#utility.yul\":10706:10718   */\n      add\n        /* \"#utility.yul\":10699:10718   */\n      swap1\n      pop\n        /* \"#utility.yul\":10358:10724   */\n      swap2\n      swap1\n      pop\n      jump\t// out\n        /* \"#utility.yul\":10730:11149   */\n    tag_54:\n        /* \"#utility.yul\":10896:10900   */\n      0x00\n        /* \"#utility.yul\":10934:10936   */\n      0x20\n        /* \"#utility.yul\":10923:10932   */\n      dup3\n        /* \"#utility.yul\":10919:10937   */\n      add\n        /* \"#utility.yul\":10911:10937   */\n      swap1\n      pop\n        /* \"#utility.yul\":10983:10992   */\n      dup2\n        /* \"#utility.yul\":10977:10981   */\n      dup2\n        /* \"#utility.yul\":10973:10993   */\n      sub\n        /* \"#utility.yul\":10969:10970   */\n      0x00\n        /* \"#utility.yul\":10958:10967   */\n      dup4\n        /* \"#utility.yul\":10954:10971   */\n      add\n        /* \"#utility.yul\":10947:10994   */\n      mstore\n        /* \"#utility.yul\":11011:11142   */\n      tag_248\n        /* \"#utility.yul\":11137:11141   */\n      dup2\n        /* \"#utility.yul\":11011:11142   */\n      tag_115\n      jump\t// in\n    tag_248:\n        /* \"#utility.yul\":11003:11142   */\n      swap1\n      pop\n        /* \"#utility.yul\":10730:11149   */\n      swap2\n      swap1\n      pop\n      jump\t// out\n        /* \"#utility.yul\":11155:11335   */\n    tag_116:\n        /* \"#utility.yul\":11203:11280   */\n      0x4e487b7100000000000000000000000000000000000000000000000000000000\n        /* \"#utility.yul\":11200:11201   */\n      0x00\n        /* \"#utility.yul\":11193:11281   */\n      mstore\n        /* \"#utility.yul\":11300:11304   */\n      0x11\n        /* \"#utility.yul\":11297:11298   */\n      0x04\n        /* \"#utility.yul\":11290:11305   */\n      mstore\n        /* \"#utility.yul\":11324:11328   */\n      0x24\n        /* \"#utility.yul\":11321:11322   */\n      0x00\n        /* \"#utility.yul\":11314:11329   */\n      revert\n        /* \"#utility.yul\":11341:11574   */\n    tag_56:\n        /* \"#utility.yul\":11380:11383   */\n      0x00\n        /* \"#utility.yul\":11403:11427   */\n      tag_251\n        /* \"#utility.yul\":11421:11426   */\n      dup3\n        /* \"#utility.yul\":11403:11427   */\n      tag_81\n      jump\t// in\n    tag_251:\n        /* \"#utility.yul\":11394:11427   */\n      swap2\n      pop\n        /* \"#utility.yul\":11449:11515   */\n      0xffffffffffffffffffffffffffffffffffffffffffffffffffffffffffffffff\n        /* \"#utility.yul\":11442:11447   */\n      dup3\n        /* \"#utility.yul\":11439:11516   */\n      sub\n        /* \"#utility.yul\":11436:11539   */\n      tag_252\n      jumpi\n        /* \"#utility.yul\":11519:11537   */\n      tag_253\n      tag_116\n      jump\t// in\n    tag_253:\n        /* \"#utility.yul\":11436:11539   */\n    tag_252:\n        /* \"#utility.yul\":11566:11567   */\n      0x01\n        /* \"#utility.yul\":11559:11564   */\n      dup3\n        /* \"#utility.yul\":11555:11568   */\n      add\n        /* \"#utility.yul\":11548:11568   */\n      swap1\n      pop\n        /* \"#utility.yul\":11341:11574   */\n      swap2\n      swap1\n      pop\n      jump\t// out\n        /* \"#utility.yul\":11580:11760   */\n    tag_117:\n        /* \"#utility.yul\":11628:11705   */\n      0x4e487b7100000000000000000000000000000000000000000000000000000000\n        /* \"#utility.yul\":11625:11626   */\n      0x00\n        /* \"#utility.yul\":11618:11706   */\n      mstore\n        /* \"#utility.yul\":11725:11729   */\n      0x22\n        /* \"#utility.yul\":11722:11723   */\n      0x04\n        /* \"#utility.yul\":11715:11730   */\n      mstore\n        /* \"#utility.yul\":11749:11753   */\n      0x24\n        /* \"#utility.yul\":11746:11747   */\n      0x00\n        /* \"#utility.yul\":11739:11754   */\n      revert\n        /* \"#utility.yul\":11766:12086   */\n    tag_65:\n        /* \"#utility.yul\":11810:11816   */\n      0x00\n        /* \"#utility.yul\":11847:11848   */\n      0x02\n        /* \"#utility.yul\":11841:11845   */\n      dup3\n        /* \"#utility.yul\":11837:11849   */\n      div\n        /* \"#utility.yul\":11827:11849   */\n      swap1\n      pop\n        /* \"#utility.yul\":11894:11895   */\n      0x01\n        /* \"#utility.yul\":11888:11892   */\n      dup3\n        /* \"#utility.yul\":11884:11896   */\n      and\n        /* \"#utility.yul\":11915:11933   */\n      dup1\n        /* \"#utility.yul\":11905:11986   */\n      tag_256\n      jumpi\n        /* \"#utility.yul\":11971:11975   */\n      0x7f\n        /* \"#utility.yul\":11963:11969   */\n      dup3\n        /* \"#utility.yul\":11959:11976   */\n      and\n        /* \"#utility.yul\":11949:11976   */\n      swap2\n      pop\n        /* \"#utility.yul\":11905:11986   */\n    tag_256:\n        /* \"#utility.yul\":12033:12035   */\n      0x20\n        /* \"#utility.yul\":12025:12031   */\n      dup3\n        /* \"#utility.yul\":12022:12036   */\n      lt\n        /* \"#utility.yul\":12002:12020   */\n      dup2\n        /* \"#utility.yul\":11999:12037   */\n      sub\n        /* \"#utility.yul\":11996:12080   */\n      tag_257\n      jumpi\n        /* \"#utility.yul\":12052:12070   */\n      tag_258\n      tag_117\n      jump\t// in\n    tag_258:\n        /* \"#utility.yul\":11996:12080   */\n    tag_257:\n        /* \"#utility.yul\":11817:12086   */\n      pop\n        /* \"#utility.yul\":11766:12086   */\n      swap2\n      swap1\n      pop\n      jump\t// out\n        /* \"#utility.yul\":12092:12233   */\n    tag_118:\n        /* \"#utility.yul\":12141:12145   */\n      0x00\n        /* \"#utility.yul\":12164:12167   */\n      dup2\n        /* \"#utility.yul\":12156:12167   */\n      swap1\n      pop\n        /* \"#utility.yul\":12187:12190   */\n      dup2\n        /* \"#utility.yul\":12184:12185   */\n      0x00\n        /* \"#utility.yul\":12177:12191   */\n      mstore\n        /* \"#utility.yul\":12221:12225   */\n      0x20\n        /* \"#utility.yul\":12218:12219   */\n      0x00\n        /* \"#utility.yul\":12208:12226   */\n      keccak256\n        /* \"#utility.yul\":12200:12226   */\n      swap1\n      pop\n        /* \"#utility.yul\":12092:12233   */\n      swap2\n      swap1\n      pop\n      jump\t// out\n        /* \"#utility.yul\":12239:12332   */\n    tag_119:\n        /* \"#utility.yul\":12276:12282   */\n      0x00\n        /* \"#utility.yul\":12323:12325   */\n      0x20\n        /* \"#utility.yul\":12318:12320   */\n      0x1f\n        /* \"#utility.yul\":12311:12316   */\n      dup4\n        /* \"#utility.yul\":12307:12321   */\n      add\n        /* \"#utility.yul\":12303:12326   */\n      div\n        /* \"#utility.yul\":12293:12326   */\n      swap1\n      pop\n        /* \"#utility.yul\":12239:12332   */\n      swap2\n      swap1\n      pop\n      jump\t// out\n        /* \"#utility.yul\":12338:12445   */\n    tag_120:\n        /* \"#utility.yul\":12382:12390   */\n      0x00\n        /* \"#utility.yul\":12432:12437   */\n      dup3\n        /* \"#utility.yul\":12426:12430   */\n      dup3\n        /* \"#utility.yul\":12422:12438   */\n      shl\n        /* \"#utility.yul\":12401:12438   */\n      swap1\n      pop\n        /* \"#utility.yul\":12338:12445   */\n      swap3\n      swap2\n      pop\n      pop\n      jump\t// out\n        /* \"#utility.yul\":12451:12844   */\n    tag_121:\n        /* \"#utility.yul\":12520:12526   */\n      0x00\n        /* \"#utility.yul\":12570:12571   */\n      0x08\n        /* \"#utility.yul\":12558:12568   */\n      dup4\n        /* \"#utility.yul\":12554:12572   */\n      mul\n        /* \"#utility.yul\":12593:12690   */\n      tag_263\n        /* \"#utility.yul\":12623:12689   */\n      0xffffffffffffffffffffffffffffffffffffffffffffffffffffffffffffffff\n        /* \"#utility.yul\":12612:12621   */\n      dup3\n        /* \"#utility.yul\":12593:12690   */\n      tag_120\n      jump\t// in\n    tag_263:\n        /* \"#utility.yul\":12711:12750   */\n      tag_264\n        /* \"#utility.yul\":12741:12749   */\n      dup7\n        /* \"#utility.yul\":12730:12739   */\n      dup4\n        /* \"#utility.yul\":12711:12750   */\n      tag_120\n      jump\t// in\n    tag_264:\n        /* \"#utility.yul\":12699:12750   */\n      swap6\n      pop\n        /* \"#utility.yul\":12783:12787   */\n      dup1\n        /* \"#utility.yul\":12779:12788   */\n      not\n        /* \"#utility.yul\":12772:12777   */\n      dup5\n        /* \"#utility.yul\":12768:12789   */\n      and\n        /* \"#utility.yul\":12759:12789   */\n      swap4\n      pop\n        /* \"#utility.yul\":12832:12836   */\n      dup1\n        /* \"#utility.yul\":12822:12830   */\n      dup7\n        /* \"#utility.yul\":12818:12837   */\n      and\n        /* \"#utility.yul\":12811:12816   */\n      dup5\n        /* \"#utility.yul\":12808:12838   */\n      or\n        /* \"#utility.yul\":12798:12838   */\n      swap3\n      pop\n        /* \"#utility.yul\":12527:12844   */\n      pop\n      pop\n        /* \"#utility.yul\":12451:12844   */\n      swap4\n      swap3\n      pop\n      pop\n      pop\n      jump\t// out\n        /* \"#utility.yul\":12850:12910   */\n    tag_122:\n        /* \"#utility.yul\":12878:12881   */\n      0x00\n        /* \"#utility.yul\":12899:12904   */\n      dup2\n        /* \"#utility.yul\":12892:12904   */\n      swap1\n      pop\n        /* \"#utility.yul\":12850:12910   */\n      swap2\n      swap1\n      pop\n      jump\t// out\n        /* \"#utility.yul\":12916:13058   */\n    tag_123:\n        /* \"#utility.yul\":12966:12975   */\n      0x00\n        /* \"#utility.yul\":12999:13052   */\n      tag_267\n        /* \"#utility.yul\":13017:13051   */\n      tag_268\n        /* \"#utility.yul\":13026:13050   */\n      tag_269\n        /* \"#utility.yul\":13044:13049   */\n      dup5\n        /* \"#utility.yul\":13026:13050   */\n      tag_81\n      jump\t// in\n    tag_269:\n        /* \"#utility.yul\":13017:13051   */\n      tag_122\n      jump\t// in\n    tag_268:\n        /* \"#utility.yul\":12999:13052   */\n      tag_81\n      jump\t// in\n    tag_267:\n        /* \"#utility.yul\":12986:13052   */\n      swap1\n      pop\n        /* \"#utility.yul\":12916:13058   */\n      swap2\n      swap1\n      pop\n      jump\t// out\n        /* \"#utility.yul\":13064:13139   */\n    tag_124:\n        /* \"#utility.yul\":13107:13110   */\n      0x00\n        /* \"#utility.yul\":13128:13133   */\n      dup2\n        /* \"#utility.yul\":13121:13133   */\n      swap1\n      pop\n        /* \"#utility.yul\":13064:13139   */\n      swap2\n      swap1\n      pop\n      jump\t// out\n        /* \"#utility.yul\":13145:13414   */\n    tag_125:\n        /* \"#utility.yul\":13255:13294   */\n      tag_272\n        /* \"#utility.yul\":13286:13293   */\n      dup4\n        /* \"#utility.yul\":13255:13294   */\n      tag_123\n      jump\t// in\n    tag_272:\n        /* \"#utility.yul\":13316:13407   */\n      tag_273\n        /* \"#utility.yul\":13365:13406   */\n      tag_274\n        /* \"#utility.yul\":13389:13405   */\n      dup3\n        /* \"#utility.yul\":13365:13406   */\n      tag_124\n      jump\t// in\n    tag_274:\n        /* \"#utility.yul\":13357:13363   */\n      dup5\n        /* \"#utility.yul\":13350:13354   */\n      dup5\n        /* \"#utility.yul\":13344:13355   */\n      sload\n        /* \"#utility.yul\":13316:13407   */\n      tag_121\n      jump\t// in\n    tag_273:\n        /* \"#utility.yul\":13310:13314   */\n      dup3\n        /* \"#utility.yul\":13303:13408   */\n      sstore\n        /* \"#utility.yul\":13221:13414   */\n      pop\n        /* \"#utility.yul\":13145:13414   */\n      pop\n      pop\n      pop\n      jump\t// out\n        /* \"#utility.yul\":13420:13493   */\n    tag_126:\n        /* \"#utility.yul\":13465:13468   */\n      0x00\n        /* \"#utility.yul\":13420:13493   */\n      swap1\n      jump\t// out\n        /* \"#utility.yul\":13499:13688   */\n    tag_127:\n        /* \"#utility.yul\":13576:13608   */\n      tag_277\n      tag_126\n      jump\t// in\n    tag_277:\n        /* \"#utility.yul\":13617:13682   */\n      tag_278\n        /* \"#utility.yul\":13675:13681   */\n      dup2\n        /* \"#utility.yul\":13667:13673   */\n      dup5\n        /* \"#utility.yul\":13661:13665   */\n      dup5\n        /* \"#utility.yul\":13617:13682   */\n      tag_125\n      jump\t// in\n    tag_278:\n        /* \"#utility.yul\":13552:13688   */\n      pop\n        /* \"#utility.yul\":13499:13688   */\n      pop\n      pop\n      jump\t// out\n        /* \"#utility.yul\":13694:13880   */\n    tag_128:\n        /* \"#utility.yul\":13754:13874   */\n    tag_280:\n        /* \"#utility.yul\":13771:13774   */\n      dup2\n        /* \"#utility.yul\":13764:13769   */\n      dup2\n        /* \"#utility.yul\":13761:13775   */\n      lt\n        /* \"#utility.yul\":13754:13874   */\n      iszero\n      tag_282\n      jumpi\n        /* \"#utility.yul\":13825:13864   */\n      tag_283\n        /* \"#utility.yul\":13862:13863   */\n      0x00\n        /* \"#utility.yul\":13855:13860   */\n      dup3\n        /* \"#utility.yul\":13825:13864   */\n      tag_127\n      jump\t// in\n    tag_283:\n        /* \"#utility.yul\":13798:13799   */\n      0x01\n        /* \"#utility.yul\":13791:13796   */\n      dup2\n        /* \"#utility.yul\":13787:13800   */\n      add\n        /* \"#utility.yul\":13778:13800   */\n      swap1\n      pop\n        /* \"#utility.yul\":13754:13874   */\n      jump(tag_280)\n    tag_282:\n        /* \"#utility.yul\":13694:13880   */\n      pop\n      pop\n      jump\t// out\n        /* \"#utility.yul\":13886:14429   */\n    tag_129:\n        /* \"#utility.yul\":13987:13989   */\n      0x1f\n        /* \"#utility.yul\":13982:13985   */\n      dup3\n        /* \"#utility.yul\":13979:13990   */\n      gt\n        /* \"#utility.yul\":13976:14422   */\n      iszero\n      tag_285\n      jumpi\n        /* \"#utility.yul\":14021:14059   */\n      tag_286\n        /* \"#utility.yul\":14053:14058   */\n      dup2\n        /* \"#utility.yul\":14021:14059   */\n      tag_118\n      jump\t// in\n    tag_286:\n        /* \"#utility.yul\":14105:14134   */\n      tag_287\n        /* \"#utility.yul\":14123:14133   */\n      dup5\n        /* \"#utility.yul\":14105:14134   */\n      tag_119\n      jump\t// in\n    tag_287:\n        /* \"#utility.yul\":14095:14103   */\n      dup2\n        /* \"#utility.yul\":14091:14135   */\n      add\n        /* \"#utility.yul\":14288:14290   */\n      0x20\n        /* \"#utility.yul\":14276:14286   */\n      dup6\n        /* \"#utility.yul\":14273:14291   */\n      lt\n        /* \"#utility.yul\":14270:14319   */\n      iszero\n      tag_288\n      jumpi\n        /* \"#utility.yul\":14309:14317   */\n      dup2\n        /* \"#utility.yul\":14294:14317   */\n      swap1\n      pop\n        /* \"#utility.yul\":14270:14319   */\n    tag_288:\n        /* \"#utility.yul\":14332:14412   */\n      tag_289\n        /* \"#utility.yul\":14388:14410   */\n      tag_290\n        /* \"#utility.yul\":14406:14409   */\n      dup6\n        /* \"#utility.yul\":14388:14410   */\n      tag_119\n      jump\t// in\n    tag_290:\n        /* \"#utility.yul\":14378:14386   */\n      dup4\n        /* \"#utility.yul\":14374:14411   */\n      add\n        /* \"#utility.yul\":14361:14372   */\n      dup3\n        /* \"#utility.yul\":14332:14412   */\n      tag_128\n      jump\t// in\n    tag_289:\n        /* \"#utility.yul\":13991:14422   */\n      pop\n      pop\n        /* \"#utility.yul\":13976:14422   */\n    tag_285:\n        /* \"#utility.yul\":13886:14429   */\n      pop\n      pop\n      pop\n      jump\t// out\n        /* \"#utility.yul\":14435:14552   */\n    tag_130:\n        /* \"#utility.yul\":14489:14497   */\n      0x00\n        /* \"#utility.yul\":14539:14544   */\n      dup3\n        /* \"#utility.yul\":14533:14537   */\n      dup3\n        /* \"#utility.yul\":14529:14545   */\n      shr\n        /* \"#utility.yul\":14508:14545   */\n      swap1\n      pop\n        /* \"#utility.yul\":14435:14552   */\n      swap3\n      swap2\n      pop\n      pop\n      jump\t// out\n        /* \"#utility.yul\":14558:14727   */\n    tag_131:\n        /* \"#utility.yul\":14602:14608   */\n      0x00\n        /* \"#utility.yul\":14635:14686   */\n      tag_293\n        /* \"#utility.yul\":14683:14684   */\n      0x00\n        /* \"#utility.yul\":14679:14685   */\n      not\n        /* \"#utility.yul\":14671:14676   */\n      dup5\n        /* \"#utility.yul\":14668:14669   */\n      0x08\n        /* \"#utility.yul\":14664:14677   */\n      mul\n        /* \"#utility.yul\":14635:14686   */\n      tag_130\n      jump\t// in\n    tag_293:\n        /* \"#utility.yul\":14631:14687   */\n      not\n        /* \"#utility.yul\":14716:14720   */\n      dup1\n        /* \"#utility.yul\":14710:14714   */\n      dup4\n        /* \"#utility.yul\":14706:14721   */\n      and\n        /* \"#utility.yul\":14696:14721   */\n      swap2\n      pop\n        /* \"#utility.yul\":14609:14727   */\n      pop\n        /* \"#utility.yul\":14558:14727   */\n      swap3\n      swap2\n      pop\n      pop\n      jump\t// out\n        /* \"#utility.yul\":14732:15027   */\n    tag_132:\n        /* \"#utility.yul\":14808:14812   */\n      0x00\n        /* \"#utility.yul\":14954:14983   */\n      tag_295\n        /* \"#utility.yul\":14979:14982   */\n      dup4\n        /* \"#utility.yul\":14973:14977   */\n      dup4\n        /* \"#utility.yul\":14954:14983   */\n      tag_131\n      jump\t// in\n    tag_295:\n        /* \"#utility.yul\":14946:14983   */\n      swap2\n      pop\n        /* \"#utility.yul\":15016:15019   */\n      dup3\n        /* \"#utility.yul\":15013:15014   */\n      0x02\n        /* \"#utility.yul\":15009:15020   */\n      mul\n        /* \"#utility.yul\":15003:15007   */\n      dup3\n        /* \"#utility.yul\":15000:15021   */\n      or\n        /* \"#utility.yul\":14992:15021   */\n      swap1\n      pop\n        /* \"#utility.yul\":14732:15027   */\n      swap3\n      swap2\n      pop\n      pop\n      jump\t// out\n        /* \"#utility.yul\":15032:16427   */\n    tag_61:\n        /* \"#utility.yul\":15149:15186   */\n      tag_297\n        /* \"#utility.yul\":15182:15185   */\n      dup3\n        /* \"#utility.yul\":15149:15186   */\n      tag_100\n      jump\t// in\n    tag_297:\n        /* \"#utility.yul\":15251:15269   */\n      0xffffffffffffffff\n        /* \"#utility.yul\":15243:15249   */\n      dup2\n        /* \"#utility.yul\":15240:15270   */\n      gt\n        /* \"#utility.yul\":15237:15293   */\n      iszero\n      tag_298\n      jumpi\n        /* \"#utility.yul\":15273:15291   */\n      tag_299\n      tag_93\n      jump\t// in\n    tag_299:\n        /* \"#utility.yul\":15237:15293   */\n    tag_298:\n        /* \"#utility.yul\":15317:15355   */\n      tag_300\n        /* \"#utility.yul\":15349:15353   */\n      dup3\n        /* \"#utility.yul\":15343:15354   */\n      sload\n        /* \"#utility.yul\":15317:15355   */\n      tag_65\n      jump\t// in\n    tag_300:\n        /* \"#utility.yul\":15402:15469   */\n      tag_301\n        /* \"#utility.yul\":15462:15468   */\n      dup3\n        /* \"#utility.yul\":15454:15460   */\n      dup3\n        /* \"#utility.yul\":15448:15452   */\n      dup6\n        /* \"#utility.yul\":15402:15469   */\n      tag_129\n      jump\t// in\n    tag_301:\n        /* \"#utility.yul\":15496:15497   */\n      0x00\n        /* \"#utility.yul\":15520:15524   */\n      0x20\n        /* \"#utility.yul\":15507:15524   */\n      swap1\n      pop\n        /* \"#utility.yul\":15552:15554   */\n      0x1f\n        /* \"#utility.yul\":15544:15550   */\n      dup4\n        /* \"#utility.yul\":15541:15555   */\n      gt\n        /* \"#utility.yul\":15569:15570   */\n      0x01\n        /* \"#utility.yul\":15564:16182   */\n      dup2\n      eq\n      tag_303\n      jumpi\n        /* \"#utility.yul\":16226:16227   */\n      0x00\n        /* \"#utility.yul\":16243:16249   */\n      dup5\n        /* \"#utility.yul\":16240:16317   */\n      iszero\n      tag_304\n      jumpi\n        /* \"#utility.yul\":16292:16301   */\n      dup3\n        /* \"#utility.yul\":16287:16290   */\n      dup8\n        /* \"#utility.yul\":16283:16302   */\n      add\n        /* \"#utility.yul\":16277:16303   */\n      mload\n        /* \"#utility.yul\":16268:16303   */\n      swap1\n      pop\n        /* \"#utility.yul\":16240:16317   */\n    tag_304:\n        /* \"#utility.yul\":16343:16410   */\n      tag_305\n        /* \"#utility.yul\":16403:16409   */\n      dup6\n        /* \"#utility.yul\":16396:16401   */\n      dup3\n        /* \"#utility.yul\":16343:16410   */\n      tag_132\n      jump\t// in\n    tag_305:\n        /* \"#utility.yul\":16337:16341   */\n      dup7\n        /* \"#utility.yul\":16330:16411   */\n      sstore\n        /* \"#utility.yul\":16199:16421   */\n      pop\n        /* \"#utility.yul\":15534:16421   */\n      jump(tag_302)\n        /* \"#utility.yul\":15564:16182   */\n    tag_303:\n        /* \"#utility.yul\":15616:15620   */\n      0x1f\n        /* \"#utility.yul\":15612:15621   */\n      not\n        /* \"#utility.yul\":15604:15610   */\n      dup5\n        /* \"#utility.yul\":15600:15622   */\n      and\n        /* \"#utility.yul\":15650:15687   */\n      tag_306\n        /* \"#utility.yul\":15682:15686   */\n      dup7\n        /* \"#utility.yul\":15650:15687   */\n      tag_118\n      jump\t// in\n    tag_306:\n        /* \"#utility.yul\":15709:15710   */\n      0x00\n        /* \"#utility.yul\":15723:15931   */\n    tag_307:\n        /* \"#utility.yul\":15737:15744   */\n      dup3\n        /* \"#utility.yul\":15734:15735   */\n      dup2\n        /* \"#utility.yul\":15731:15745   */\n      lt\n        /* \"#utility.yul\":15723:15931   */\n      iszero\n      tag_309\n      jumpi\n        /* \"#utility.yul\":15816:15825   */\n      dup5\n        /* \"#utility.yul\":15811:15814   */\n      dup10\n        /* \"#utility.yul\":15807:15826   */\n      add\n        /* \"#utility.yul\":15801:15827   */\n      mload\n        /* \"#utility.yul\":15793:15799   */\n      dup3\n        /* \"#utility.yul\":15786:15828   */\n      sstore\n        /* \"#utility.yul\":15867:15868   */\n      0x01\n        /* \"#utility.yul\":15859:15865   */\n      dup3\n        /* \"#utility.yul\":15855:15869   */\n      add\n        /* \"#utility.yul\":15845:15869   */\n      swap2\n      pop\n        /* \"#utility.yul\":15914:15916   */\n      0x20\n        /* \"#utility.yul\":15903:15912   */\n      dup6\n        /* \"#utility.yul\":15899:15917   */\n      add\n        /* \"#utility.yul\":15886:15917   */\n      swap5\n      pop\n        /* \"#utility.yul\":15760:15764   */\n      0x20\n        /* \"#utility.yul\":15757:15758   */\n      dup2\n        /* \"#utility.yul\":15753:15765   */\n      add\n        /* \"#utility.yul\":15748:15765   */\n      swap1\n      pop\n        /* \"#utility.yul\":15723:15931   */\n      jump(tag_307)\n    tag_309:\n        /* \"#utility.yul\":15959:15965   */\n      dup7\n        /* \"#utility.yul\":15950:15957   */\n      dup4\n        /* \"#utility.yul\":15947:15966   */\n      lt\n        /* \"#utility.yul\":15944:16123   */\n      iszero\n      tag_310\n      jumpi\n        /* \"#utility.yul\":16017:16026   */\n      dup5\n        /* \"#utility.yul\":16012:16015   */\n      dup10\n        /* \"#utility.yul\":16008:16027   */\n      add\n        /* \"#utility.yul\":16002:16028   */\n      mload\n        /* \"#utility.yul\":16060:16108   */\n      tag_311\n        /* \"#utility.yul\":16102:16106   */\n      0x1f\n        /* \"#utility.yul\":16094:16100   */\n      dup10\n        /* \"#utility.yul\":16090:16107   */\n      and\n        /* \"#utility.yul\":16079:16088   */\n      dup3\n        /* \"#utility.yul\":16060:16108   */\n      tag_131\n      jump\t// in\n    tag_311:\n        /* \"#utility.yul\":16052:16058   */\n      dup4\n        /* \"#utility.yul\":16045:16109   */\n      sstore\n        /* \"#utility.yul\":15967:16123   */\n      pop\n        /* \"#utility.yul\":15944:16123   */\n    tag_310:\n        /* \"#utility.yul\":16169:16170   */\n      0x01\n        /* \"#utility.yul\":16165:16166   */\n      0x02\n        /* \"#utility.yul\":16157:16163   */\n      dup9\n        /* \"#utility.yul\":16153:16167   */\n      mul\n        /* \"#utility.yul\":16149:16171   */\n      add\n        /* \"#utility.yul\":16143:16147   */\n      dup9\n        /* \"#utility.yul\":16136:16172   */\n      sstore\n        /* \"#utility.yul\":15571:16182   */\n      pop\n      pop\n      pop\n        /* \"#utility.yul\":15534:16421   */\n    tag_302:\n      pop\n        /* \"#utility.yul\":15124:16427   */\n      pop\n      pop\n      pop\n        /* \"#utility.yul\":15032:16427   */\n      pop\n      pop\n      jump\t// out\n\n    auxdata: 0xa264697066735822122035e130bbffcb9a1fd1502b513dc5334848b97b00419b3d82d77cddcd51c6632264736f6c63430008120033\n}\n",
				"bytecode": {
					"linkReferences": {},
					"object": "60806040523480156200001157600080fd5b50620000586040518060400160405280600781526020017f6a616e75617279000000000000000000000000000000000000000000000000008152506200036060201b60201c565b6200009e6040518060400160405280600881526020017f66656272756172790000000000000000000000000000000000000000000000008152506200036060201b60201c565b620000e46040518060400160405280600581526020017f6d617263680000000000000000000000000000000000000000000000000000008152506200036060201b60201c565b6200012a6040518060400160405280600581526020017f617072696c0000000000000000000000000000000000000000000000000000008152506200036060201b60201c565b620001706040518060400160405280600381526020017f6d617900000000000000000000000000000000000000000000000000000000008152506200036060201b60201c565b620001b66040518060400160405280600481526020017f6a756e65000000000000000000000000000000000000000000000000000000008152506200036060201b60201c565b620001fc6040518060400160405280600481526020017f6a756c79000000000000000000000000000000000000000000000000000000008152506200036060201b60201c565b620002426040518060400160405280600681526020017f61756775737400000000000000000000000000000000000000000000000000008152506200036060201b60201c565b620002886040518060400160405280600981526020017f73657074656d62657200000000000000000000000000000000000000000000008152506200036060201b60201c565b620002ce6040518060400160405280600781526020017f6f63746f626572000000000000000000000000000000000000000000000000008152506200036060201b60201c565b620003146040518060400160405280600881526020017f6e6f76656d6265720000000000000000000000000000000000000000000000008152506200036060201b60201c565b6200035a6040518060400160405280600881526020017f646563656d6265720000000000000000000000000000000000000000000000008152506200036060201b60201c565b620007eb565b604051806060016040528060025481526020018281526020016000815250600160006002548152602001908152602001600020600082015181600001556020820151816001019081620003b4919062000688565b50604082015181600201559050506002547f8c289382d6fd42a02a06e885da5a69cb0f21294bbfc7acc91d5cf3ced61ca0c460405160405180910390a26002600081548092919062000406906200079e565b919050555050565b600081519050919050565b7f4e487b7100000000000000000000000000000000000000000000000000000000600052604160045260246000fd5b7f4e487b7100000000000000000000000000000000000000000000000000000000600052602260045260246000fd5b600060028204905060018216806200049057607f821691505b602082108103620004a657620004a562000448565b5b50919050565b60008190508160005260206000209050919050565b60006020601f8301049050919050565b600082821b905092915050565b600060088302620005107fffffffffffffffffffffffffffffffffffffffffffffffffffffffffffffffff82620004d1565b6200051c8683620004d1565b95508019841693508086168417925050509392505050565b6000819050919050565b6000819050919050565b600062000569620005636200055d8462000534565b6200053e565b62000534565b9050919050565b6000819050919050565b620005858362000548565b6200059d620005948262000570565b848454620004de565b825550505050565b600090565b620005b4620005a5565b620005c18184846200057a565b505050565b5b81811015620005e957620005dd600082620005aa565b600181019050620005c7565b5050565b601f82111562000638576200060281620004ac565b6200060d84620004c1565b810160208510156200061d578190505b620006356200062c85620004c1565b830182620005c6565b50505b505050565b600082821c905092915050565b60006200065d600019846008026200063d565b1980831691505092915050565b60006200067883836200064a565b9150826002028217905092915050565b62000693826200040e565b67ffffffffffffffff811115620006af57620006ae62000419565b5b620006bb825462000477565b620006c8828285620005ed565b600060209050601f831160018114620007005760008415620006eb578287015190505b620006f785826200066a565b86555062000767565b601f1984166200071086620004ac565b60005b828110156200073a5784890151825560018201915060208501945060208101905062000713565b868310156200075a578489015162000756601f8916826200064a565b8355505b6001600288020188555050505b505050505050565b7f4e487b7100000000000000000000000000000000000000000000000000000000600052601160045260246000fd5b6000620007ab8262000534565b91507fffffffffffffffffffffffffffffffffffffffffffffffffffffffffffffffff8203620007e057620007df6200076f565b5b600182019050919050565b610fc180620007fb6000396000f3fe608060405234801561001057600080fd5b50600436106100885760003560e01c806370740aab1161005b57806370740aab14610113578063aec2ccae14610131578063dc899a0714610161578063f6fd7fde1461017f57610088565b80630121b93f1461008d57806301ffc9a7146100a9578063251760b7146100d95780635fa520bb146100f7575b600080fd5b6100a760048036038101906100a291906106c6565b6101af565b005b6100c360048036038101906100be919061074b565b61033f565b6040516100d09190610793565b60405180910390f35b6100e16103d9565b6040516100ee91906107bd565b60405180910390f35b610111600480360381019061010c919061091e565b6103df565b005b61011b610489565b60405161012891906109e6565b60405180910390f35b61014b60048036038101906101469190610a66565b6104c2565b6040516101589190610793565b60405180910390f35b6101696104e2565b60405161017691906109e6565b60405180910390f35b610199600480360381019061019491906106c6565b610588565b6040516101a69190610b3c565b60405180910390f35b6000803373ffffffffffffffffffffffffffffffffffffffff1673ffffffffffffffffffffffffffffffffffffffff16815260200190815260200160002060009054906101000a900460ff161561023b576040517f08c379a000000000000000000000000000000000000000000000000000000000815260040161023290610baa565b60405180910390fd5b6000811015801561024d575060025481105b61028c576040517f08c379a000000000000000000000000000000000000000000000000000000000815260040161028390610c16565b60405180910390fd5b60016000803373ffffffffffffffffffffffffffffffffffffffff1673ffffffffffffffffffffffffffffffffffffffff16815260200190815260200160002060006101000a81548160ff02191690831515021790555060016000828152602001908152602001600020600201600081548092919061030a90610c65565b9190505550807ffff3c900d938d21d0990d786e819f29b8d05c1ef587b462b939609625b684b1660405160405180910390a250565b60007f5227894f000000000000000000000000000000000000000000000000000000007bffffffffffffffffffffffffffffffffffffffffffffffffffffffff1916827bffffffffffffffffffffffffffffffffffffffffffffffffffffffff191614806103d257506301ffc9a760e01b827bffffffffffffffffffffffffffffffffffffffffffffffffffffffff1916145b9050919050565b60025481565b6040518060600160405280600254815260200182815260200160008152506001600060025481526020019081526020016000206000820151816000015560208201518160010190816104319190610eb9565b50604082015181600201559050506002547f8c289382d6fd42a02a06e885da5a69cb0f21294bbfc7acc91d5cf3ced61ca0c460405160405180910390a26002600081548092919061048190610c65565b919050555050565b6040518060400160405280601b81526020017f566f7465206f6e20796f7572206661766f72697465206d6f6e7468000000000081525081565b60006020528060005260406000206000915054906101000a900460ff1681565b606060016000808152602001908152602001600020600101805461050590610cdc565b80601f016020809104026020016040519081016040528092919081815260200182805461053190610cdc565b801561057e5780601f106105535761010080835404028352916020019161057e565b820191906000526020600020905b81548152906001019060200180831161056157829003601f168201915b5050505050905090565b61059061065b565b60016000838152602001908152602001600020604051806060016040529081600082015481526020016001820180546105c890610cdc565b80601f01602080910402602001604051908101604052809291908181526020018280546105f490610cdc565b80156106415780601f1061061657610100808354040283529160200191610641565b820191906000526020600020905b81548152906001019060200180831161062457829003601f168201915b505050505081526020016002820154815250509050919050565b60405180606001604052806000815260200160608152602001600081525090565b6000604051905090565b600080fd5b600080fd5b6000819050919050565b6106a381610690565b81146106ae57600080fd5b50565b6000813590506106c08161069a565b92915050565b6000602082840312156106dc576106db610686565b5b60006106ea848285016106b1565b91505092915050565b60007fffffffff0000000000000000000000000000000000000000000000000000000082169050919050565b610728816106f3565b811461073357600080fd5b50565b6000813590506107458161071f565b92915050565b60006020828403121561076157610760610686565b5b600061076f84828501610736565b91505092915050565b60008115159050919050565b61078d81610778565b82525050565b60006020820190506107a86000830184610784565b92915050565b6107b781610690565b82525050565b60006020820190506107d260008301846107ae565b92915050565b600080fd5b600080fd5b6000601f19601f8301169050919050565b7f4e487b7100000000000000000000000000000000000000000000000000000000600052604160045260246000fd5b61082b826107e2565b810181811067ffffffffffffffff8211171561084a576108496107f3565b5b80604052505050565b600061085d61067c565b90506108698282610822565b919050565b600067ffffffffffffffff821115610889576108886107f3565b5b610892826107e2565b9050602081019050919050565b82818337600083830152505050565b60006108c16108bc8461086e565b610853565b9050828152602081018484840111156108dd576108dc6107dd565b5b6108e884828561089f565b509392505050565b600082601f830112610905576109046107d8565b5b81356109158482602086016108ae565b91505092915050565b60006020828403121561093457610933610686565b5b600082013567ffffffffffffffff8111156109525761095161068b565b5b61095e848285016108f0565b91505092915050565b600081519050919050565b600082825260208201905092915050565b60005b838110156109a1578082015181840152602081019050610986565b60008484015250505050565b60006109b882610967565b6109c28185610972565b93506109d2818560208601610983565b6109db816107e2565b840191505092915050565b60006020820190508181036000830152610a0081846109ad565b905092915050565b600073ffffffffffffffffffffffffffffffffffffffff82169050919050565b6000610a3382610a08565b9050919050565b610a4381610a28565b8114610a4e57600080fd5b50565b600081359050610a6081610a3a565b92915050565b600060208284031215610a7c57610a7b610686565b5b6000610a8a84828501610a51565b91505092915050565b610a9c81610690565b82525050565b600082825260208201905092915050565b6000610abe82610967565b610ac88185610aa2565b9350610ad8818560208601610983565b610ae1816107e2565b840191505092915050565b6000606083016000830151610b046000860182610a93565b5060208301518482036020860152610b1c8282610ab3565b9150506040830151610b316040860182610a93565b508091505092915050565b60006020820190508181036000830152610b568184610aec565b905092915050565b7f73656e6465722068617320616c726561647920766f7465640000000000000000600082015250565b6000610b94601883610972565b9150610b9f82610b5e565b602082019050919050565b60006020820190508181036000830152610bc381610b87565b9050919050565b7f696e76616c696420766f74652073656c656374696f6e00000000000000000000600082015250565b6000610c00601683610972565b9150610c0b82610bca565b602082019050919050565b60006020820190508181036000830152610c2f81610bf3565b9050919050565b7f4e487b7100000000000000000000000000000000000000000000000000000000600052601160045260246000fd5b6000610c7082610690565b91507fffffffffffffffffffffffffffffffffffffffffffffffffffffffffffffffff8203610ca257610ca1610c36565b5b600182019050919050565b7f4e487b7100000000000000000000000000000000000000000000000000000000600052602260045260246000fd5b60006002820490506001821680610cf457607f821691505b602082108103610d0757610d06610cad565b5b50919050565b60008190508160005260206000209050919050565b60006020601f8301049050919050565b600082821b905092915050565b600060088302610d6f7fffffffffffffffffffffffffffffffffffffffffffffffffffffffffffffffff82610d32565b610d798683610d32565b95508019841693508086168417925050509392505050565b6000819050919050565b6000610db6610db1610dac84610690565b610d91565b610690565b9050919050565b6000819050919050565b610dd083610d9b565b610de4610ddc82610dbd565b848454610d3f565b825550505050565b600090565b610df9610dec565b610e04818484610dc7565b505050565b5b81811015610e2857610e1d600082610df1565b600181019050610e0a565b5050565b601f821115610e6d57610e3e81610d0d565b610e4784610d22565b81016020851015610e56578190505b610e6a610e6285610d22565b830182610e09565b50505b505050565b600082821c905092915050565b6000610e9060001984600802610e72565b1980831691505092915050565b6000610ea98383610e7f565b9150826002028217905092915050565b610ec282610967565b67ffffffffffffffff811115610edb57610eda6107f3565b5b610ee58254610cdc565b610ef0828285610e2c565b600060209050601f831160018114610f235760008415610f11578287015190505b610f1b8582610e9d565b865550610f83565b601f198416610f3186610d0d565b60005b82811015610f5957848901518255600182019150602085019450602081019050610f34565b86831015610f765784890151610f72601f891682610e7f565b8355505b6001600288020188555050505b50505050505056fea264697066735822122035e130bbffcb9a1fd1502b513dc5334848b97b00419b3d82d77cddcd51c6632264736f6c63430008120033",
					"opcodes": "PUSH1 0x80 PUSH1 0x40 MSTORE CALLVALUE DUP1 ISZERO PUSH3 0x11 JUMPI PUSH1 0x0 DUP1 REVERT JUMPDEST POP PUSH3 0x58 PUSH1 0x40 MLOAD DUP1 PUSH1 0x40 ADD PUSH1 0x40 MSTORE DUP1 PUSH1 0x7 DUP2 MSTORE PUSH1 0x20 ADD PUSH32 0x6A616E7561727900000000000000000000000000000000000000000000000000 DUP2 MSTORE POP PUSH3 0x360 PUSH1 0x20 SHL PUSH1 0x20 SHR JUMP JUMPDEST PUSH3 0x9E PUSH1 0x40 MLOAD DUP1 PUSH1 0x40 ADD PUSH1 0x40 MSTORE DUP1 PUSH1 0x8 DUP2 MSTORE PUSH1 0x20 ADD PUSH32 0x6665627275617279000000000000000000000000000000000000000000000000 DUP2 MSTORE POP PUSH3 0x360 PUSH1 0x20 SHL PUSH1 0x20 SHR JUMP JUMPDEST PUSH3 0xE4 PUSH1 0x40 MLOAD DUP1 PUSH1 0x40 ADD PUSH1 0x40 MSTORE DUP1 PUSH1 0x5 DUP2 MSTORE PUSH1 0x20 ADD PUSH32 0x6D61726368000000000000000000000000000000000000000000000000000000 DUP2 MSTORE POP PUSH3 0x360 PUSH1 0x20 SHL PUSH1 0x20 SHR JUMP JUMPDEST PUSH3 0x12A PUSH1 0x40 MLOAD DUP1 PUSH1 0x40 ADD PUSH1 0x40 MSTORE DUP1 PUSH1 0x5 DUP2 MSTORE PUSH1 0x20 ADD PUSH32 0x617072696C000000000000000000000000000000000000000000000000000000 DUP2 MSTORE POP PUSH3 0x360 PUSH1 0x20 SHL PUSH1 0x20 SHR JUMP JUMPDEST PUSH3 0x170 PUSH1 0x40 MLOAD DUP1 PUSH1 0x40 ADD PUSH1 0x40 MSTORE DUP1 PUSH1 0x3 DUP2 MSTORE PUSH1 0x20 ADD PUSH32 0x6D61790000000000000000000000000000000000000000000000000000000000 DUP2 MSTORE POP PUSH3 0x360 PUSH1 0x20 SHL PUSH1 0x20 SHR JUMP JUMPDEST PUSH3 0x1B6 PUSH1 0x40 MLOAD DUP1 PUSH1 0x40 ADD PUSH1 0x40 MSTORE DUP1 PUSH1 0x4 DUP2 MSTORE PUSH1 0x20 ADD PUSH32 0x6A756E6500000000000000000000000000000000000000000000000000000000 DUP2 MSTORE POP PUSH3 0x360 PUSH1 0x20 SHL PUSH1 0x20 SHR JUMP JUMPDEST PUSH3 0x1FC PUSH1 0x40 MLOAD DUP1 PUSH1 0x40 ADD PUSH1 0x40 MSTORE DUP1 PUSH1 0x4 DUP2 MSTORE PUSH1 0x20 ADD PUSH32 0x6A756C7900000000000000000000000000000000000000000000000000000000 DUP2 MSTORE POP PUSH3 0x360 PUSH1 0x20 SHL PUSH1 0x20 SHR JUMP JUMPDEST PUSH3 0x242 PUSH1 0x40 MLOAD DUP1 PUSH1 0x40 ADD PUSH1 0x40 MSTORE DUP1 PUSH1 0x6 DUP2 MSTORE PUSH1 0x20 ADD PUSH32 0x6175677573740000000000000000000000000000000000000000000000000000 DUP2 MSTORE POP PUSH3 0x360 PUSH1 0x20 SHL PUSH1 0x20 SHR JUMP JUMPDEST PUSH3 0x288 PUSH1 0x40 MLOAD DUP1 PUSH1 0x40 ADD PUSH1 0x40 MSTORE DUP1 PUSH1 0x9 DUP2 MSTORE PUSH1 0x20 ADD PUSH32 0x73657074656D6265720000000000000000000000000000000000000000000000 DUP2 MSTORE POP PUSH3 0x360 PUSH1 0x20 SHL PUSH1 0x20 SHR JUMP JUMPDEST PUSH3 0x2CE PUSH1 0x40 MLOAD DUP1 PUSH1 0x40 ADD PUSH1 0x40 MSTORE DUP1 PUSH1 0x7 DUP2 MSTORE PUSH1 0x20 ADD PUSH32 0x6F63746F62657200000000000000000000000000000000000000000000000000 DUP2 MSTORE POP PUSH3 0x360 PUSH1 0x20 SHL PUSH1 0x20 SHR JUMP JUMPDEST PUSH3 0x314 PUSH1 0x40 MLOAD DUP1 PUSH1 0x40 ADD PUSH1 0x40 MSTORE DUP1 PUSH1 0x8 DUP2 MSTORE PUSH1 0x20 ADD PUSH32 0x6E6F76656D626572000000000000000000000000000000000000000000000000 DUP2 MSTORE POP PUSH3 0x360 PUSH1 0x20 SHL PUSH1 0x20 SHR JUMP JUMPDEST PUSH3 0x35A PUSH1 0x40 MLOAD DUP1 PUSH1 0x40 ADD PUSH1 0x40 MSTORE DUP1 PUSH1 0x8 DUP2 MSTORE PUSH1 0x20 ADD PUSH32 0x646563656D626572000000000000000000000000000000000000000000000000 DUP2 MSTORE POP PUSH3 0x360 PUSH1 0x20 SHL PUSH1 0x20 SHR JUMP JUMPDEST PUSH3 0x7EB JUMP JUMPDEST PUSH1 0x40 MLOAD DUP1 PUSH1 0x60 ADD PUSH1 0x40 MSTORE DUP1 PUSH1 0x2 SLOAD DUP2 MSTORE PUSH1 0x20 ADD DUP3 DUP2 MSTORE PUSH1 0x20 ADD PUSH1 0x0 DUP2 MSTORE POP PUSH1 0x1 PUSH1 0x0 PUSH1 0x2 SLOAD DUP2 MSTORE PUSH1 0x20 ADD SWAP1 DUP2 MSTORE PUSH1 0x20 ADD PUSH1 0x0 KECCAK256 PUSH1 0x0 DUP3 ADD MLOAD DUP2 PUSH1 0x0 ADD SSTORE PUSH1 0x20 DUP3 ADD MLOAD DUP2 PUSH1 0x1 ADD SWAP1 DUP2 PUSH3 0x3B4 SWAP2 SWAP1 PUSH3 0x688 JUMP JUMPDEST POP PUSH1 0x40 DUP3 ADD MLOAD DUP2 PUSH1 0x2 ADD SSTORE SWAP1 POP POP PUSH1 0x2 SLOAD PUSH32 0x8C289382D6FD42A02A06E885DA5A69CB0F21294BBFC7ACC91D5CF3CED61CA0C4 PUSH1 0x40 MLOAD PUSH1 0x40 MLOAD DUP1 SWAP2 SUB SWAP1 LOG2 PUSH1 0x2 PUSH1 0x0 DUP2 SLOAD DUP1 SWAP3 SWAP2 SWAP1 PUSH3 0x406 SWAP1 PUSH3 0x79E JUMP JUMPDEST SWAP2 SWAP1 POP SSTORE POP POP JUMP JUMPDEST PUSH1 0x0 DUP2 MLOAD SWAP1 POP SWAP2 SWAP1 POP JUMP JUMPDEST PUSH32 0x4E487B7100000000000000000000000000000000000000000000000000000000 PUSH1 0x0 MSTORE PUSH1 0x41 PUSH1 0x4 MSTORE PUSH1 0x24 PUSH1 0x0 REVERT JUMPDEST PUSH32 0x4E487B7100000000000000000000000000000000000000000000000000000000 PUSH1 0x0 MSTORE PUSH1 0x22 PUSH1 0x4 MSTORE PUSH1 0x24 PUSH1 0x0 REVERT JUMPDEST PUSH1 0x0 PUSH1 0x2 DUP3 DIV SWAP1 POP PUSH1 0x1 DUP3 AND DUP1 PUSH3 0x490 JUMPI PUSH1 0x7F DUP3 AND SWAP2 POP JUMPDEST PUSH1 0x20 DUP3 LT DUP2 SUB PUSH3 0x4A6 JUMPI PUSH3 0x4A5 PUSH3 0x448 JUMP JUMPDEST JUMPDEST POP SWAP2 SWAP1 POP JUMP JUMPDEST PUSH1 0x0 DUP2 SWAP1 POP DUP2 PUSH1 0x0 MSTORE PUSH1 0x20 PUSH1 0x0 KECCAK256 SWAP1 POP SWAP2 SWAP1 POP JUMP JUMPDEST PUSH1 0x0 PUSH1 0x20 PUSH1 0x1F DUP4 ADD DIV SWAP1 POP SWAP2 SWAP1 POP JUMP JUMPDEST PUSH1 0x0 DUP3 DUP3 SHL SWAP1 POP SWAP3 SWAP2 POP POP JUMP JUMPDEST PUSH1 0x0 PUSH1 0x8 DUP4 MUL PUSH3 0x510 PUSH32 0xFFFFFFFFFFFFFFFFFFFFFFFFFFFFFFFFFFFFFFFFFFFFFFFFFFFFFFFFFFFFFFFF DUP3 PUSH3 0x4D1 JUMP JUMPDEST PUSH3 0x51C DUP7 DUP4 PUSH3 0x4D1 JUMP JUMPDEST SWAP6 POP DUP1 NOT DUP5 AND SWAP4 POP DUP1 DUP7 AND DUP5 OR SWAP3 POP POP POP SWAP4 SWAP3 POP POP POP JUMP JUMPDEST PUSH1 0x0 DUP2 SWAP1 POP SWAP2 SWAP1 POP JUMP JUMPDEST PUSH1 0x0 DUP2 SWAP1 POP SWAP2 SWAP1 POP JUMP JUMPDEST PUSH1 0x0 PUSH3 0x569 PUSH3 0x563 PUSH3 0x55D DUP5 PUSH3 0x534 JUMP JUMPDEST PUSH3 0x53E JUMP JUMPDEST PUSH3 0x534 JUMP JUMPDEST SWAP1 POP SWAP2 SWAP1 POP JUMP JUMPDEST PUSH1 0x0 DUP2 SWAP1 POP SWAP2 SWAP1 POP JUMP JUMPDEST PUSH3 0x585 DUP4 PUSH3 0x548 JUMP JUMPDEST PUSH3 0x59D PUSH3 0x594 DUP3 PUSH3 0x570 JUMP JUMPDEST DUP5 DUP5 SLOAD PUSH3 0x4DE JUMP JUMPDEST DUP3 SSTORE POP POP POP POP JUMP JUMPDEST PUSH1 0x0 SWAP1 JUMP JUMPDEST PUSH3 0x5B4 PUSH3 0x5A5 JUMP JUMPDEST PUSH3 0x5C1 DUP2 DUP5 DUP5 PUSH3 0x57A JUMP JUMPDEST POP POP POP JUMP JUMPDEST JUMPDEST DUP2 DUP2 LT ISZERO PUSH3 0x5E9 JUMPI PUSH3 0x5DD PUSH1 0x0 DUP3 PUSH3 0x5AA JUMP JUMPDEST PUSH1 0x1 DUP2 ADD SWAP1 POP PUSH3 0x5C7 JUMP JUMPDEST POP POP JUMP JUMPDEST PUSH1 0x1F DUP3 GT ISZERO PUSH3 0x638 JUMPI PUSH3 0x602 DUP2 PUSH3 0x4AC JUMP JUMPDEST PUSH3 0x60D DUP5 PUSH3 0x4C1 JUMP JUMPDEST DUP2 ADD PUSH1 0x20 DUP6 LT ISZERO PUSH3 0x61D JUMPI DUP2 SWAP1 POP JUMPDEST PUSH3 0x635 PUSH3 0x62C DUP6 PUSH3 0x4C1 JUMP JUMPDEST DUP4 ADD DUP3 PUSH3 0x5C6 JUMP JUMPDEST POP POP JUMPDEST POP POP POP JUMP JUMPDEST PUSH1 0x0 DUP3 DUP3 SHR SWAP1 POP SWAP3 SWAP2 POP POP JUMP JUMPDEST PUSH1 0x0 PUSH3 0x65D PUSH1 0x0 NOT DUP5 PUSH1 0x8 MUL PUSH3 0x63D JUMP JUMPDEST NOT DUP1 DUP4 AND SWAP2 POP POP SWAP3 SWAP2 POP POP JUMP JUMPDEST PUSH1 0x0 PUSH3 0x678 DUP4 DUP4 PUSH3 0x64A JUMP JUMPDEST SWAP2 POP DUP3 PUSH1 0x2 MUL DUP3 OR SWAP1 POP SWAP3 SWAP2 POP POP JUMP JUMPDEST PUSH3 0x693 DUP3 PUSH3 0x40E JUMP JUMPDEST PUSH8 0xFFFFFFFFFFFFFFFF DUP2 GT ISZERO PUSH3 0x6AF JUMPI PUSH3 0x6AE PUSH3 0x419 JUMP JUMPDEST JUMPDEST PUSH3 0x6BB DUP3 SLOAD PUSH3 0x477 JUMP JUMPDEST PUSH3 0x6C8 DUP3 DUP3 DUP6 PUSH3 0x5ED JUMP JUMPDEST PUSH1 0x0 PUSH1 0x20 SWAP1 POP PUSH1 0x1F DUP4 GT PUSH1 0x1 DUP2 EQ PUSH3 0x700 JUMPI PUSH1 0x0 DUP5 ISZERO PUSH3 0x6EB JUMPI DUP3 DUP8 ADD MLOAD SWAP1 POP JUMPDEST PUSH3 0x6F7 DUP6 DUP3 PUSH3 0x66A JUMP JUMPDEST DUP7 SSTORE POP PUSH3 0x767 JUMP JUMPDEST PUSH1 0x1F NOT DUP5 AND PUSH3 0x710 DUP7 PUSH3 0x4AC JUMP JUMPDEST PUSH1 0x0 JUMPDEST DUP3 DUP2 LT ISZERO PUSH3 0x73A JUMPI DUP5 DUP10 ADD MLOAD DUP3 SSTORE PUSH1 0x1 DUP3 ADD SWAP2 POP PUSH1 0x20 DUP6 ADD SWAP5 POP PUSH1 0x20 DUP2 ADD SWAP1 POP PUSH3 0x713 JUMP JUMPDEST DUP7 DUP4 LT ISZERO PUSH3 0x75A JUMPI DUP5 DUP10 ADD MLOAD PUSH3 0x756 PUSH1 0x1F DUP10 AND DUP3 PUSH3 0x64A JUMP JUMPDEST DUP4 SSTORE POP JUMPDEST PUSH1 0x1 PUSH1 0x2 DUP9 MUL ADD DUP9 SSTORE POP POP POP JUMPDEST POP POP POP POP POP POP JUMP JUMPDEST PUSH32 0x4E487B7100000000000000000000000000000000000000000000000000000000 PUSH1 0x0 MSTORE PUSH1 0x11 PUSH1 0x4 MSTORE PUSH1 0x24 PUSH1 0x0 REVERT JUMPDEST PUSH1 0x0 PUSH3 0x7AB DUP3 PUSH3 0x534 JUMP JUMPDEST SWAP2 POP PUSH32 0xFFFFFFFFFFFFFFFFFFFFFFFFFFFFFFFFFFFFFFFFFFFFFFFFFFFFFFFFFFFFFFFF DUP3 SUB PUSH3 0x7E0 JUMPI PUSH3 0x7DF PUSH3 0x76F JUMP JUMPDEST JUMPDEST PUSH1 0x1 DUP3 ADD SWAP1 POP SWAP2 SWAP1 POP JUMP JUMPDEST PUSH2 0xFC1 DUP1 PUSH3 0x7FB PUSH1 0x0 CODECOPY PUSH1 0x0 RETURN INVALID PUSH1 0x80 PUSH1 0x40 MSTORE CALLVALUE DUP1 ISZERO PUSH2 0x10 JUMPI PUSH1 0x0 DUP1 REVERT JUMPDEST POP PUSH1 0x4 CALLDATASIZE LT PUSH2 0x88 JUMPI PUSH1 0x0 CALLDATALOAD PUSH1 0xE0 SHR DUP1 PUSH4 0x70740AAB GT PUSH2 0x5B JUMPI DUP1 PUSH4 0x70740AAB EQ PUSH2 0x113 JUMPI DUP1 PUSH4 0xAEC2CCAE EQ PUSH2 0x131 JUMPI DUP1 PUSH4 0xDC899A07 EQ PUSH2 0x161 JUMPI DUP1 PUSH4 0xF6FD7FDE EQ PUSH2 0x17F JUMPI PUSH2 0x88 JUMP JUMPDEST DUP1 PUSH4 0x121B93F EQ PUSH2 0x8D JUMPI DUP1 PUSH4 0x1FFC9A7 EQ PUSH2 0xA9 JUMPI DUP1 PUSH4 0x251760B7 EQ PUSH2 0xD9 JUMPI DUP1 PUSH4 0x5FA520BB EQ PUSH2 0xF7 JUMPI JUMPDEST PUSH1 0x0 DUP1 REVERT JUMPDEST PUSH2 0xA7 PUSH1 0x4 DUP1 CALLDATASIZE SUB DUP2 ADD SWAP1 PUSH2 0xA2 SWAP2 SWAP1 PUSH2 0x6C6 JUMP JUMPDEST PUSH2 0x1AF JUMP JUMPDEST STOP JUMPDEST PUSH2 0xC3 PUSH1 0x4 DUP1 CALLDATASIZE SUB DUP2 ADD SWAP1 PUSH2 0xBE SWAP2 SWAP1 PUSH2 0x74B JUMP JUMPDEST PUSH2 0x33F JUMP JUMPDEST PUSH1 0x40 MLOAD PUSH2 0xD0 SWAP2 SWAP1 PUSH2 0x793 JUMP JUMPDEST PUSH1 0x40 MLOAD DUP1 SWAP2 SUB SWAP1 RETURN JUMPDEST PUSH2 0xE1 PUSH2 0x3D9 JUMP JUMPDEST PUSH1 0x40 MLOAD PUSH2 0xEE SWAP2 SWAP1 PUSH2 0x7BD JUMP JUMPDEST PUSH1 0x40 MLOAD DUP1 SWAP2 SUB SWAP1 RETURN JUMPDEST PUSH2 0x111 PUSH1 0x4 DUP1 CALLDATASIZE SUB DUP2 ADD SWAP1 PUSH2 0x10C SWAP2 SWAP1 PUSH2 0x91E JUMP JUMPDEST PUSH2 0x3DF JUMP JUMPDEST STOP JUMPDEST PUSH2 0x11B PUSH2 0x489 JUMP JUMPDEST PUSH1 0x40 MLOAD PUSH2 0x128 SWAP2 SWAP1 PUSH2 0x9E6 JUMP JUMPDEST PUSH1 0x40 MLOAD DUP1 SWAP2 SUB SWAP1 RETURN JUMPDEST PUSH2 0x14B PUSH1 0x4 DUP1 CALLDATASIZE SUB DUP2 ADD SWAP1 PUSH2 0x146 SWAP2 SWAP1 PUSH2 0xA66 JUMP JUMPDEST PUSH2 0x4C2 JUMP JUMPDEST PUSH1 0x40 MLOAD PUSH2 0x158 SWAP2 SWAP1 PUSH2 0x793 JUMP JUMPDEST PUSH1 0x40 MLOAD DUP1 SWAP2 SUB SWAP1 RETURN JUMPDEST PUSH2 0x169 PUSH2 0x4E2 JUMP JUMPDEST PUSH1 0x40 MLOAD PUSH2 0x176 SWAP2 SWAP1 PUSH2 0x9E6 JUMP JUMPDEST PUSH1 0x40 MLOAD DUP1 SWAP2 SUB SWAP1 RETURN JUMPDEST PUSH2 0x199 PUSH1 0x4 DUP1 CALLDATASIZE SUB DUP2 ADD SWAP1 PUSH2 0x194 SWAP2 SWAP1 PUSH2 0x6C6 JUMP JUMPDEST PUSH2 0x588 JUMP JUMPDEST PUSH1 0x40 MLOAD PUSH2 0x1A6 SWAP2 SWAP1 PUSH2 0xB3C JUMP JUMPDEST PUSH1 0x40 MLOAD DUP1 SWAP2 SUB SWAP1 RETURN JUMPDEST PUSH1 0x0 DUP1 CALLER PUSH20 0xFFFFFFFFFFFFFFFFFFFFFFFFFFFFFFFFFFFFFFFF AND PUSH20 0xFFFFFFFFFFFFFFFFFFFFFFFFFFFFFFFFFFFFFFFF AND DUP2 MSTORE PUSH1 0x20 ADD SWAP1 DUP2 MSTORE PUSH1 0x20 ADD PUSH1 0x0 KECCAK256 PUSH1 0x0 SWAP1 SLOAD SWAP1 PUSH2 0x100 EXP SWAP1 DIV PUSH1 0xFF AND ISZERO PUSH2 0x23B JUMPI PUSH1 0x40 MLOAD PUSH32 0x8C379A000000000000000000000000000000000000000000000000000000000 DUP2 MSTORE PUSH1 0x4 ADD PUSH2 0x232 SWAP1 PUSH2 0xBAA JUMP JUMPDEST PUSH1 0x40 MLOAD DUP1 SWAP2 SUB SWAP1 REVERT JUMPDEST PUSH1 0x0 DUP2 LT ISZERO DUP1 ISZERO PUSH2 0x24D JUMPI POP PUSH1 0x2 SLOAD DUP2 LT JUMPDEST PUSH2 0x28C JUMPI PUSH1 0x40 MLOAD PUSH32 0x8C379A000000000000000000000000000000000000000000000000000000000 DUP2 MSTORE PUSH1 0x4 ADD PUSH2 0x283 SWAP1 PUSH2 0xC16 JUMP JUMPDEST PUSH1 0x40 MLOAD DUP1 SWAP2 SUB SWAP1 REVERT JUMPDEST PUSH1 0x1 PUSH1 0x0 DUP1 CALLER PUSH20 0xFFFFFFFFFFFFFFFFFFFFFFFFFFFFFFFFFFFFFFFF AND PUSH20 0xFFFFFFFFFFFFFFFFFFFFFFFFFFFFFFFFFFFFFFFF AND DUP2 MSTORE PUSH1 0x20 ADD SWAP1 DUP2 MSTORE PUSH1 0x20 ADD PUSH1 0x0 KECCAK256 PUSH1 0x0 PUSH2 0x100 EXP DUP2 SLOAD DUP2 PUSH1 0xFF MUL NOT AND SWAP1 DUP4 ISZERO ISZERO MUL OR SWAP1 SSTORE POP PUSH1 0x1 PUSH1 0x0 DUP3 DUP2 MSTORE PUSH1 0x20 ADD SWAP1 DUP2 MSTORE PUSH1 0x20 ADD PUSH1 0x0 KECCAK256 PUSH1 0x2 ADD PUSH1 0x0 DUP2 SLOAD DUP1 SWAP3 SWAP2 SWAP1 PUSH2 0x30A SWAP1 PUSH2 0xC65 JUMP JUMPDEST SWAP2 SWAP1 POP SSTORE POP DUP1 PUSH32 0xFFF3C900D938D21D0990D786E819F29B8D05C1EF587B462B939609625B684B16 PUSH1 0x40 MLOAD PUSH1 0x40 MLOAD DUP1 SWAP2 SUB SWAP1 LOG2 POP JUMP JUMPDEST PUSH1 0x0 PUSH32 0x5227894F00000000000000000000000000000000000000000000000000000000 PUSH28 0xFFFFFFFFFFFFFFFFFFFFFFFFFFFFFFFFFFFFFFFFFFFFFFFFFFFFFFFF NOT AND DUP3 PUSH28 0xFFFFFFFFFFFFFFFFFFFFFFFFFFFFFFFFFFFFFFFFFFFFFFFFFFFFFFFF NOT AND EQ DUP1 PUSH2 0x3D2 JUMPI POP PUSH4 0x1FFC9A7 PUSH1 0xE0 SHL DUP3 PUSH28 0xFFFFFFFFFFFFFFFFFFFFFFFFFFFFFFFFFFFFFFFFFFFFFFFFFFFFFFFF NOT AND EQ JUMPDEST SWAP1 POP SWAP2 SWAP1 POP JUMP JUMPDEST PUSH1 0x2 SLOAD DUP2 JUMP JUMPDEST PUSH1 0x40 MLOAD DUP1 PUSH1 0x60 ADD PUSH1 0x40 MSTORE DUP1 PUSH1 0x2 SLOAD DUP2 MSTORE PUSH1 0x20 ADD DUP3 DUP2 MSTORE PUSH1 0x20 ADD PUSH1 0x0 DUP2 MSTORE POP PUSH1 0x1 PUSH1 0x0 PUSH1 0x2 SLOAD DUP2 MSTORE PUSH1 0x20 ADD SWAP1 DUP2 MSTORE PUSH1 0x20 ADD PUSH1 0x0 KECCAK256 PUSH1 0x0 DUP3 ADD MLOAD DUP2 PUSH1 0x0 ADD SSTORE PUSH1 0x20 DUP3 ADD MLOAD DUP2 PUSH1 0x1 ADD SWAP1 DUP2 PUSH2 0x431 SWAP2 SWAP1 PUSH2 0xEB9 JUMP JUMPDEST POP PUSH1 0x40 DUP3 ADD MLOAD DUP2 PUSH1 0x2 ADD SSTORE SWAP1 POP POP PUSH1 0x2 SLOAD PUSH32 0x8C289382D6FD42A02A06E885DA5A69CB0F21294BBFC7ACC91D5CF3CED61CA0C4 PUSH1 0x40 MLOAD PUSH1 0x40 MLOAD DUP1 SWAP2 SUB SWAP1 LOG2 PUSH1 0x2 PUSH1 0x0 DUP2 SLOAD DUP1 SWAP3 SWAP2 SWAP1 PUSH2 0x481 SWAP1 PUSH2 0xC65 JUMP JUMPDEST SWAP2 SWAP1 POP SSTORE POP POP JUMP JUMPDEST PUSH1 0x40 MLOAD DUP1 PUSH1 0x40 ADD PUSH1 0x40 MSTORE DUP1 PUSH1 0x1B DUP2 MSTORE PUSH1 0x20 ADD PUSH32 0x566F7465206F6E20796F7572206661766F72697465206D6F6E74680000000000 DUP2 MSTORE POP DUP2 JUMP JUMPDEST PUSH1 0x0 PUSH1 0x20 MSTORE DUP1 PUSH1 0x0 MSTORE PUSH1 0x40 PUSH1 0x0 KECCAK256 PUSH1 0x0 SWAP2 POP SLOAD SWAP1 PUSH2 0x100 EXP SWAP1 DIV PUSH1 0xFF AND DUP2 JUMP JUMPDEST PUSH1 0x60 PUSH1 0x1 PUSH1 0x0 DUP1 DUP2 MSTORE PUSH1 0x20 ADD SWAP1 DUP2 MSTORE PUSH1 0x20 ADD PUSH1 0x0 KECCAK256 PUSH1 0x1 ADD DUP1 SLOAD PUSH2 0x505 SWAP1 PUSH2 0xCDC JUMP JUMPDEST DUP1 PUSH1 0x1F ADD PUSH1 0x20 DUP1 SWAP2 DIV MUL PUSH1 0x20 ADD PUSH1 0x40 MLOAD SWAP1 DUP2 ADD PUSH1 0x40 MSTORE DUP1 SWAP3 SWAP2 SWAP1 DUP2 DUP2 MSTORE PUSH1 0x20 ADD DUP3 DUP1 SLOAD PUSH2 0x531 SWAP1 PUSH2 0xCDC JUMP JUMPDEST DUP1 ISZERO PUSH2 0x57E JUMPI DUP1 PUSH1 0x1F LT PUSH2 0x553 JUMPI PUSH2 0x100 DUP1 DUP4 SLOAD DIV MUL DUP4 MSTORE SWAP2 PUSH1 0x20 ADD SWAP2 PUSH2 0x57E JUMP JUMPDEST DUP3 ADD SWAP2 SWAP1 PUSH1 0x0 MSTORE PUSH1 0x20 PUSH1 0x0 KECCAK256 SWAP1 JUMPDEST DUP2 SLOAD DUP2 MSTORE SWAP1 PUSH1 0x1 ADD SWAP1 PUSH1 0x20 ADD DUP1 DUP4 GT PUSH2 0x561 JUMPI DUP3 SWAP1 SUB PUSH1 0x1F AND DUP3 ADD SWAP2 JUMPDEST POP POP POP POP POP SWAP1 POP SWAP1 JUMP JUMPDEST PUSH2 0x590 PUSH2 0x65B JUMP JUMPDEST PUSH1 0x1 PUSH1 0x0 DUP4 DUP2 MSTORE PUSH1 0x20 ADD SWAP1 DUP2 MSTORE PUSH1 0x20 ADD PUSH1 0x0 KECCAK256 PUSH1 0x40 MLOAD DUP1 PUSH1 0x60 ADD PUSH1 0x40 MSTORE SWAP1 DUP2 PUSH1 0x0 DUP3 ADD SLOAD DUP2 MSTORE PUSH1 0x20 ADD PUSH1 0x1 DUP3 ADD DUP1 SLOAD PUSH2 0x5C8 SWAP1 PUSH2 0xCDC JUMP JUMPDEST DUP1 PUSH1 0x1F ADD PUSH1 0x20 DUP1 SWAP2 DIV MUL PUSH1 0x20 ADD PUSH1 0x40 MLOAD SWAP1 DUP2 ADD PUSH1 0x40 MSTORE DUP1 SWAP3 SWAP2 SWAP1 DUP2 DUP2 MSTORE PUSH1 0x20 ADD DUP3 DUP1 SLOAD PUSH2 0x5F4 SWAP1 PUSH2 0xCDC JUMP JUMPDEST DUP1 ISZERO PUSH2 0x641 JUMPI DUP1 PUSH1 0x1F LT PUSH2 0x616 JUMPI PUSH2 0x100 DUP1 DUP4 SLOAD DIV MUL DUP4 MSTORE SWAP2 PUSH1 0x20 ADD SWAP2 PUSH2 0x641 JUMP JUMPDEST DUP3 ADD SWAP2 SWAP1 PUSH1 0x0 MSTORE PUSH1 0x20 PUSH1 0x0 KECCAK256 SWAP1 JUMPDEST DUP2 SLOAD DUP2 MSTORE SWAP1 PUSH1 0x1 ADD SWAP1 PUSH1 0x20 ADD DUP1 DUP4 GT PUSH2 0x624 JUMPI DUP3 SWAP1 SUB PUSH1 0x1F AND DUP3 ADD SWAP2 JUMPDEST POP POP POP POP POP DUP2 MSTORE PUSH1 0x20 ADD PUSH1 0x2 DUP3 ADD SLOAD DUP2 MSTORE POP POP SWAP1 POP SWAP2 SWAP1 POP JUMP JUMPDEST PUSH1 0x40 MLOAD DUP1 PUSH1 0x60 ADD PUSH1 0x40 MSTORE DUP1 PUSH1 0x0 DUP2 MSTORE PUSH1 0x20 ADD PUSH1 0x60 DUP2 MSTORE PUSH1 0x20 ADD PUSH1 0x0 DUP2 MSTORE POP SWAP1 JUMP JUMPDEST PUSH1 0x0 PUSH1 0x40 MLOAD SWAP1 POP SWAP1 JUMP JUMPDEST PUSH1 0x0 DUP1 REVERT JUMPDEST PUSH1 0x0 DUP1 REVERT JUMPDEST PUSH1 0x0 DUP2 SWAP1 POP SWAP2 SWAP1 POP JUMP JUMPDEST PUSH2 0x6A3 DUP2 PUSH2 0x690 JUMP JUMPDEST DUP2 EQ PUSH2 0x6AE JUMPI PUSH1 0x0 DUP1 REVERT JUMPDEST POP JUMP JUMPDEST PUSH1 0x0 DUP2 CALLDATALOAD SWAP1 POP PUSH2 0x6C0 DUP2 PUSH2 0x69A JUMP JUMPDEST SWAP3 SWAP2 POP POP JUMP JUMPDEST PUSH1 0x0 PUSH1 0x20 DUP3 DUP5 SUB SLT ISZERO PUSH2 0x6DC JUMPI PUSH2 0x6DB PUSH2 0x686 JUMP JUMPDEST JUMPDEST PUSH1 0x0 PUSH2 0x6EA DUP5 DUP3 DUP6 ADD PUSH2 0x6B1 JUMP JUMPDEST SWAP2 POP POP SWAP3 SWAP2 POP POP JUMP JUMPDEST PUSH1 0x0 PUSH32 0xFFFFFFFF00000000000000000000000000000000000000000000000000000000 DUP3 AND SWAP1 POP SWAP2 SWAP1 POP JUMP JUMPDEST PUSH2 0x728 DUP2 PUSH2 0x6F3 JUMP JUMPDEST DUP2 EQ PUSH2 0x733 JUMPI PUSH1 0x0 DUP1 REVERT JUMPDEST POP JUMP JUMPDEST PUSH1 0x0 DUP2 CALLDATALOAD SWAP1 POP PUSH2 0x745 DUP2 PUSH2 0x71F JUMP JUMPDEST SWAP3 SWAP2 POP POP JUMP JUMPDEST PUSH1 0x0 PUSH1 0x20 DUP3 DUP5 SUB SLT ISZERO PUSH2 0x761 JUMPI PUSH2 0x760 PUSH2 0x686 JUMP JUMPDEST JUMPDEST PUSH1 0x0 PUSH2 0x76F DUP5 DUP3 DUP6 ADD PUSH2 0x736 JUMP JUMPDEST SWAP2 POP POP SWAP3 SWAP2 POP POP JUMP JUMPDEST PUSH1 0x0 DUP2 ISZERO ISZERO SWAP1 POP SWAP2 SWAP1 POP JUMP JUMPDEST PUSH2 0x78D DUP2 PUSH2 0x778 JUMP JUMPDEST DUP3 MSTORE POP POP JUMP JUMPDEST PUSH1 0x0 PUSH1 0x20 DUP3 ADD SWAP1 POP PUSH2 0x7A8 PUSH1 0x0 DUP4 ADD DUP5 PUSH2 0x784 JUMP JUMPDEST SWAP3 SWAP2 POP POP JUMP JUMPDEST PUSH2 0x7B7 DUP2 PUSH2 0x690 JUMP JUMPDEST DUP3 MSTORE POP POP JUMP JUMPDEST PUSH1 0x0 PUSH1 0x20 DUP3 ADD SWAP1 POP PUSH2 0x7D2 PUSH1 0x0 DUP4 ADD DUP5 PUSH2 0x7AE JUMP JUMPDEST SWAP3 SWAP2 POP POP JUMP JUMPDEST PUSH1 0x0 DUP1 REVERT JUMPDEST PUSH1 0x0 DUP1 REVERT JUMPDEST PUSH1 0x0 PUSH1 0x1F NOT PUSH1 0x1F DUP4 ADD AND SWAP1 POP SWAP2 SWAP1 POP JUMP JUMPDEST PUSH32 0x4E487B7100000000000000000000000000000000000000000000000000000000 PUSH1 0x0 MSTORE PUSH1 0x41 PUSH1 0x4 MSTORE PUSH1 0x24 PUSH1 0x0 REVERT JUMPDEST PUSH2 0x82B DUP3 PUSH2 0x7E2 JUMP JUMPDEST DUP2 ADD DUP2 DUP2 LT PUSH8 0xFFFFFFFFFFFFFFFF DUP3 GT OR ISZERO PUSH2 0x84A JUMPI PUSH2 0x849 PUSH2 0x7F3 JUMP JUMPDEST JUMPDEST DUP1 PUSH1 0x40 MSTORE POP POP POP JUMP JUMPDEST PUSH1 0x0 PUSH2 0x85D PUSH2 0x67C JUMP JUMPDEST SWAP1 POP PUSH2 0x869 DUP3 DUP3 PUSH2 0x822 JUMP JUMPDEST SWAP2 SWAP1 POP JUMP JUMPDEST PUSH1 0x0 PUSH8 0xFFFFFFFFFFFFFFFF DUP3 GT ISZERO PUSH2 0x889 JUMPI PUSH2 0x888 PUSH2 0x7F3 JUMP JUMPDEST JUMPDEST PUSH2 0x892 DUP3 PUSH2 0x7E2 JUMP JUMPDEST SWAP1 POP PUSH1 0x20 DUP2 ADD SWAP1 POP SWAP2 SWAP1 POP JUMP JUMPDEST DUP3 DUP2 DUP4 CALLDATACOPY PUSH1 0x0 DUP4 DUP4 ADD MSTORE POP POP POP JUMP JUMPDEST PUSH1 0x0 PUSH2 0x8C1 PUSH2 0x8BC DUP5 PUSH2 0x86E JUMP JUMPDEST PUSH2 0x853 JUMP JUMPDEST SWAP1 POP DUP3 DUP2 MSTORE PUSH1 0x20 DUP2 ADD DUP5 DUP5 DUP5 ADD GT ISZERO PUSH2 0x8DD JUMPI PUSH2 0x8DC PUSH2 0x7DD JUMP JUMPDEST JUMPDEST PUSH2 0x8E8 DUP5 DUP3 DUP6 PUSH2 0x89F JUMP JUMPDEST POP SWAP4 SWAP3 POP POP POP JUMP JUMPDEST PUSH1 0x0 DUP3 PUSH1 0x1F DUP4 ADD SLT PUSH2 0x905 JUMPI PUSH2 0x904 PUSH2 0x7D8 JUMP JUMPDEST JUMPDEST DUP2 CALLDATALOAD PUSH2 0x915 DUP5 DUP3 PUSH1 0x20 DUP7 ADD PUSH2 0x8AE JUMP JUMPDEST SWAP2 POP POP SWAP3 SWAP2 POP POP JUMP JUMPDEST PUSH1 0x0 PUSH1 0x20 DUP3 DUP5 SUB SLT ISZERO PUSH2 0x934 JUMPI PUSH2 0x933 PUSH2 0x686 JUMP JUMPDEST JUMPDEST PUSH1 0x0 DUP3 ADD CALLDATALOAD PUSH8 0xFFFFFFFFFFFFFFFF DUP2 GT ISZERO PUSH2 0x952 JUMPI PUSH2 0x951 PUSH2 0x68B JUMP JUMPDEST JUMPDEST PUSH2 0x95E DUP5 DUP3 DUP6 ADD PUSH2 0x8F0 JUMP JUMPDEST SWAP2 POP POP SWAP3 SWAP2 POP POP JUMP JUMPDEST PUSH1 0x0 DUP2 MLOAD SWAP1 POP SWAP2 SWAP1 POP JUMP JUMPDEST PUSH1 0x0 DUP3 DUP3 MSTORE PUSH1 0x20 DUP3 ADD SWAP1 POP SWAP3 SWAP2 POP POP JUMP JUMPDEST PUSH1 0x0 JUMPDEST DUP4 DUP2 LT ISZERO PUSH2 0x9A1 JUMPI DUP1 DUP3 ADD MLOAD DUP2 DUP5 ADD MSTORE PUSH1 0x20 DUP2 ADD SWAP1 POP PUSH2 0x986 JUMP JUMPDEST PUSH1 0x0 DUP5 DUP5 ADD MSTORE POP POP POP POP JUMP JUMPDEST PUSH1 0x0 PUSH2 0x9B8 DUP3 PUSH2 0x967 JUMP JUMPDEST PUSH2 0x9C2 DUP2 DUP6 PUSH2 0x972 JUMP JUMPDEST SWAP4 POP PUSH2 0x9D2 DUP2 DUP6 PUSH1 0x20 DUP7 ADD PUSH2 0x983 JUMP JUMPDEST PUSH2 0x9DB DUP2 PUSH2 0x7E2 JUMP JUMPDEST DUP5 ADD SWAP2 POP POP SWAP3 SWAP2 POP POP JUMP JUMPDEST PUSH1 0x0 PUSH1 0x20 DUP3 ADD SWAP1 POP DUP2 DUP2 SUB PUSH1 0x0 DUP4 ADD MSTORE PUSH2 0xA00 DUP2 DUP5 PUSH2 0x9AD JUMP JUMPDEST SWAP1 POP SWAP3 SWAP2 POP POP JUMP JUMPDEST PUSH1 0x0 PUSH20 0xFFFFFFFFFFFFFFFFFFFFFFFFFFFFFFFFFFFFFFFF DUP3 AND SWAP1 POP SWAP2 SWAP1 POP JUMP JUMPDEST PUSH1 0x0 PUSH2 0xA33 DUP3 PUSH2 0xA08 JUMP JUMPDEST SWAP1 POP SWAP2 SWAP1 POP JUMP JUMPDEST PUSH2 0xA43 DUP2 PUSH2 0xA28 JUMP JUMPDEST DUP2 EQ PUSH2 0xA4E JUMPI PUSH1 0x0 DUP1 REVERT JUMPDEST POP JUMP JUMPDEST PUSH1 0x0 DUP2 CALLDATALOAD SWAP1 POP PUSH2 0xA60 DUP2 PUSH2 0xA3A JUMP JUMPDEST SWAP3 SWAP2 POP POP JUMP JUMPDEST PUSH1 0x0 PUSH1 0x20 DUP3 DUP5 SUB SLT ISZERO PUSH2 0xA7C JUMPI PUSH2 0xA7B PUSH2 0x686 JUMP JUMPDEST JUMPDEST PUSH1 0x0 PUSH2 0xA8A DUP5 DUP3 DUP6 ADD PUSH2 0xA51 JUMP JUMPDEST SWAP2 POP POP SWAP3 SWAP2 POP POP JUMP JUMPDEST PUSH2 0xA9C DUP2 PUSH2 0x690 JUMP JUMPDEST DUP3 MSTORE POP POP JUMP JUMPDEST PUSH1 0x0 DUP3 DUP3 MSTORE PUSH1 0x20 DUP3 ADD SWAP1 POP SWAP3 SWAP2 POP POP JUMP JUMPDEST PUSH1 0x0 PUSH2 0xABE DUP3 PUSH2 0x967 JUMP JUMPDEST PUSH2 0xAC8 DUP2 DUP6 PUSH2 0xAA2 JUMP JUMPDEST SWAP4 POP PUSH2 0xAD8 DUP2 DUP6 PUSH1 0x20 DUP7 ADD PUSH2 0x983 JUMP JUMPDEST PUSH2 0xAE1 DUP2 PUSH2 0x7E2 JUMP JUMPDEST DUP5 ADD SWAP2 POP POP SWAP3 SWAP2 POP POP JUMP JUMPDEST PUSH1 0x0 PUSH1 0x60 DUP4 ADD PUSH1 0x0 DUP4 ADD MLOAD PUSH2 0xB04 PUSH1 0x0 DUP7 ADD DUP3 PUSH2 0xA93 JUMP JUMPDEST POP PUSH1 0x20 DUP4 ADD MLOAD DUP5 DUP3 SUB PUSH1 0x20 DUP7 ADD MSTORE PUSH2 0xB1C DUP3 DUP3 PUSH2 0xAB3 JUMP JUMPDEST SWAP2 POP POP PUSH1 0x40 DUP4 ADD MLOAD PUSH2 0xB31 PUSH1 0x40 DUP7 ADD DUP3 PUSH2 0xA93 JUMP JUMPDEST POP DUP1 SWAP2 POP POP SWAP3 SWAP2 POP POP JUMP JUMPDEST PUSH1 0x0 PUSH1 0x20 DUP3 ADD SWAP1 POP DUP2 DUP2 SUB PUSH1 0x0 DUP4 ADD MSTORE PUSH2 0xB56 DUP2 DUP5 PUSH2 0xAEC JUMP JUMPDEST SWAP1 POP SWAP3 SWAP2 POP POP JUMP JUMPDEST PUSH32 0x73656E6465722068617320616C726561647920766F7465640000000000000000 PUSH1 0x0 DUP3 ADD MSTORE POP JUMP JUMPDEST PUSH1 0x0 PUSH2 0xB94 PUSH1 0x18 DUP4 PUSH2 0x972 JUMP JUMPDEST SWAP2 POP PUSH2 0xB9F DUP3 PUSH2 0xB5E JUMP JUMPDEST PUSH1 0x20 DUP3 ADD SWAP1 POP SWAP2 SWAP1 POP JUMP JUMPDEST PUSH1 0x0 PUSH1 0x20 DUP3 ADD SWAP1 POP DUP2 DUP2 SUB PUSH1 0x0 DUP4 ADD MSTORE PUSH2 0xBC3 DUP2 PUSH2 0xB87 JUMP JUMPDEST SWAP1 POP SWAP2 SWAP1 POP JUMP JUMPDEST PUSH32 0x696E76616C696420766F74652073656C656374696F6E00000000000000000000 PUSH1 0x0 DUP3 ADD MSTORE POP JUMP JUMPDEST PUSH1 0x0 PUSH2 0xC00 PUSH1 0x16 DUP4 PUSH2 0x972 JUMP JUMPDEST SWAP2 POP PUSH2 0xC0B DUP3 PUSH2 0xBCA JUMP JUMPDEST PUSH1 0x20 DUP3 ADD SWAP1 POP SWAP2 SWAP1 POP JUMP JUMPDEST PUSH1 0x0 PUSH1 0x20 DUP3 ADD SWAP1 POP DUP2 DUP2 SUB PUSH1 0x0 DUP4 ADD MSTORE PUSH2 0xC2F DUP2 PUSH2 0xBF3 JUMP JUMPDEST SWAP1 POP SWAP2 SWAP1 POP JUMP JUMPDEST PUSH32 0x4E487B7100000000000000000000000000000000000000000000000000000000 PUSH1 0x0 MSTORE PUSH1 0x11 PUSH1 0x4 MSTORE PUSH1 0x24 PUSH1 0x0 REVERT JUMPDEST PUSH1 0x0 PUSH2 0xC70 DUP3 PUSH2 0x690 JUMP JUMPDEST SWAP2 POP PUSH32 0xFFFFFFFFFFFFFFFFFFFFFFFFFFFFFFFFFFFFFFFFFFFFFFFFFFFFFFFFFFFFFFFF DUP3 SUB PUSH2 0xCA2 JUMPI PUSH2 0xCA1 PUSH2 0xC36 JUMP JUMPDEST JUMPDEST PUSH1 0x1 DUP3 ADD SWAP1 POP SWAP2 SWAP1 POP JUMP JUMPDEST PUSH32 0x4E487B7100000000000000000000000000000000000000000000000000000000 PUSH1 0x0 MSTORE PUSH1 0x22 PUSH1 0x4 MSTORE PUSH1 0x24 PUSH1 0x0 REVERT JUMPDEST PUSH1 0x0 PUSH1 0x2 DUP3 DIV SWAP1 POP PUSH1 0x1 DUP3 AND DUP1 PUSH2 0xCF4 JUMPI PUSH1 0x7F DUP3 AND SWAP2 POP JUMPDEST PUSH1 0x20 DUP3 LT DUP2 SUB PUSH2 0xD07 JUMPI PUSH2 0xD06 PUSH2 0xCAD JUMP JUMPDEST JUMPDEST POP SWAP2 SWAP1 POP JUMP JUMPDEST PUSH1 0x0 DUP2 SWAP1 POP DUP2 PUSH1 0x0 MSTORE PUSH1 0x20 PUSH1 0x0 KECCAK256 SWAP1 POP SWAP2 SWAP1 POP JUMP JUMPDEST PUSH1 0x0 PUSH1 0x20 PUSH1 0x1F DUP4 ADD DIV SWAP1 POP SWAP2 SWAP1 POP JUMP JUMPDEST PUSH1 0x0 DUP3 DUP3 SHL SWAP1 POP SWAP3 SWAP2 POP POP JUMP JUMPDEST PUSH1 0x0 PUSH1 0x8 DUP4 MUL PUSH2 0xD6F PUSH32 0xFFFFFFFFFFFFFFFFFFFFFFFFFFFFFFFFFFFFFFFFFFFFFFFFFFFFFFFFFFFFFFFF DUP3 PUSH2 0xD32 JUMP JUMPDEST PUSH2 0xD79 DUP7 DUP4 PUSH2 0xD32 JUMP JUMPDEST SWAP6 POP DUP1 NOT DUP5 AND SWAP4 POP DUP1 DUP7 AND DUP5 OR SWAP3 POP POP POP SWAP4 SWAP3 POP POP POP JUMP JUMPDEST PUSH1 0x0 DUP2 SWAP1 POP SWAP2 SWAP1 POP JUMP JUMPDEST PUSH1 0x0 PUSH2 0xDB6 PUSH2 0xDB1 PUSH2 0xDAC DUP5 PUSH2 0x690 JUMP JUMPDEST PUSH2 0xD91 JUMP JUMPDEST PUSH2 0x690 JUMP JUMPDEST SWAP1 POP SWAP2 SWAP1 POP JUMP JUMPDEST PUSH1 0x0 DUP2 SWAP1 POP SWAP2 SWAP1 POP JUMP JUMPDEST PUSH2 0xDD0 DUP4 PUSH2 0xD9B JUMP JUMPDEST PUSH2 0xDE4 PUSH2 0xDDC DUP3 PUSH2 0xDBD JUMP JUMPDEST DUP5 DUP5 SLOAD PUSH2 0xD3F JUMP JUMPDEST DUP3 SSTORE POP POP POP POP JUMP JUMPDEST PUSH1 0x0 SWAP1 JUMP JUMPDEST PUSH2 0xDF9 PUSH2 0xDEC JUMP JUMPDEST PUSH2 0xE04 DUP2 DUP5 DUP5 PUSH2 0xDC7 JUMP JUMPDEST POP POP POP JUMP JUMPDEST JUMPDEST DUP2 DUP2 LT ISZERO PUSH2 0xE28 JUMPI PUSH2 0xE1D PUSH1 0x0 DUP3 PUSH2 0xDF1 JUMP JUMPDEST PUSH1 0x1 DUP2 ADD SWAP1 POP PUSH2 0xE0A JUMP JUMPDEST POP POP JUMP JUMPDEST PUSH1 0x1F DUP3 GT ISZERO PUSH2 0xE6D JUMPI PUSH2 0xE3E DUP2 PUSH2 0xD0D JUMP JUMPDEST PUSH2 0xE47 DUP5 PUSH2 0xD22 JUMP JUMPDEST DUP2 ADD PUSH1 0x20 DUP6 LT ISZERO PUSH2 0xE56 JUMPI DUP2 SWAP1 POP JUMPDEST PUSH2 0xE6A PUSH2 0xE62 DUP6 PUSH2 0xD22 JUMP JUMPDEST DUP4 ADD DUP3 PUSH2 0xE09 JUMP JUMPDEST POP POP JUMPDEST POP POP POP JUMP JUMPDEST PUSH1 0x0 DUP3 DUP3 SHR SWAP1 POP SWAP3 SWAP2 POP POP JUMP JUMPDEST PUSH1 0x0 PUSH2 0xE90 PUSH1 0x0 NOT DUP5 PUSH1 0x8 MUL PUSH2 0xE72 JUMP JUMPDEST NOT DUP1 DUP4 AND SWAP2 POP POP SWAP3 SWAP2 POP POP JUMP JUMPDEST PUSH1 0x0 PUSH2 0xEA9 DUP4 DUP4 PUSH2 0xE7F JUMP JUMPDEST SWAP2 POP DUP3 PUSH1 0x2 MUL DUP3 OR SWAP1 POP SWAP3 SWAP2 POP POP JUMP JUMPDEST PUSH2 0xEC2 DUP3 PUSH2 0x967 JUMP JUMPDEST PUSH8 0xFFFFFFFFFFFFFFFF DUP2 GT ISZERO PUSH2 0xEDB JUMPI PUSH2 0xEDA PUSH2 0x7F3 JUMP JUMPDEST JUMPDEST PUSH2 0xEE5 DUP3 SLOAD PUSH2 0xCDC JUMP JUMPDEST PUSH2 0xEF0 DUP3 DUP3 DUP6 PUSH2 0xE2C JUMP JUMPDEST PUSH1 0x0 PUSH1 0x20 SWAP1 POP PUSH1 0x1F DUP4 GT PUSH1 0x1 DUP2 EQ PUSH2 0xF23 JUMPI PUSH1 0x0 DUP5 ISZERO PUSH2 0xF11 JUMPI DUP3 DUP8 ADD MLOAD SWAP1 POP JUMPDEST PUSH2 0xF1B DUP6 DUP3 PUSH2 0xE9D JUMP JUMPDEST DUP7 SSTORE POP PUSH2 0xF83 JUMP JUMPDEST PUSH1 0x1F NOT DUP5 AND PUSH2 0xF31 DUP7 PUSH2 0xD0D JUMP JUMPDEST PUSH1 0x0 JUMPDEST DUP3 DUP2 LT ISZERO PUSH2 0xF59 JUMPI DUP5 DUP10 ADD MLOAD DUP3 SSTORE PUSH1 0x1 DUP3 ADD SWAP2 POP PUSH1 0x20 DUP6 ADD SWAP5 POP PUSH1 0x20 DUP2 ADD SWAP1 POP PUSH2 0xF34 JUMP JUMPDEST DUP7 DUP4 LT ISZERO PUSH2 0xF76 JUMPI DUP5 DUP10 ADD MLOAD PUSH2 0xF72 PUSH1 0x1F DUP10 AND DUP3 PUSH2 0xE7F JUMP JUMPDEST DUP4 SSTORE POP JUMPDEST PUSH1 0x1 PUSH1 0x2 DUP9 MUL ADD DUP9 SSTORE POP POP POP JUMPDEST POP POP POP POP POP POP JUMP INVALID LOG2 PUSH5 0x6970667358 0x22 SLT KECCAK256 CALLDATALOAD 0xE1 ADDRESS 0xBB SELFDESTRUCT 0xCB SWAP11 0x1F 0xD1 POP 0x2B MLOAD RETURNDATASIZE 0xC5 CALLER BASEFEE BASEFEE 0xB9 PUSH28 0x419B3D82D77CDDCD51C6632264736F6C6343000812003300000000 "
				},
				"gasEstimates": {
					"creation": {
						"codeDepositCost": "806600",
						"executionCost": "infinite",
						"totalCost": "infinite"
					},
					"external": {
						"addChoice(string)": "infinite",
						"choices(uint256)": "infinite",
						"num_choices()": "2474",
						"purpose()": "infinite",
						"supportsInterface(bytes4)": "704",
						"unnecessaryFunction()": "infinite",
						"vote(uint256)": "infinite",
						"voted(address)": "2867"
					}
				},
				"methodIdentifiers": {
					"addChoice(string)": "5fa520bb",
					"choices(uint256)": "f6fd7fde",
					"num_choices()": "251760b7",
					"purpose()": "70740aab",
					"supportsInterface(bytes4)": "01ffc9a7",
					"unnecessaryFunction()": "dc899a07",
					"vote(uint256)": "0121b93f",
					"voted(address)": "aec2ccae"
				}
			},
			"storageLayout": {
				"storage": [
					{
						"astId": 69,
						"contract": "Poll.sol:Poll",
						"label": "voted",
						"offset": 0,
						"slot": "0",
						"type": "t_mapping(t_address,t_bool)"
					},
					{
						"astId": 74,
						"contract": "Poll.sol:Poll",
						"label": "_choices",
						"offset": 0,
						"slot": "1",
						"type": "t_mapping(t_uint256,t_struct(Choice)8_storage)"
					},
					{
						"astId": 91,
						"contract": "Poll.sol:Poll",
						"label": "num_choices",
						"offset": 0,
						"slot": "2",
						"type": "t_uint256"
					}
				],
				"types": {
					"t_address": {
						"encoding": "inplace",
						"label": "address",
						"numberOfBytes": "20"
					},
					"t_bool": {
						"encoding": "inplace",
						"label": "bool",
						"numberOfBytes": "1"
					},
					"t_mapping(t_address,t_bool)": {
						"encoding": "mapping",
						"key": "t_address",
						"label": "mapping(address => bool)",
						"numberOfBytes": "32",
						"value": "t_bool"
					},
					"t_mapping(t_uint256,t_struct(Choice)8_storage)": {
						"encoding": "mapping",
						"key": "t_uint256",
						"label": "mapping(uint256 => struct IPoll.Choice)",
						"numberOfBytes": "32",
						"value": "t_struct(Choice)8_storage"
					},
					"t_string_storage": {
						"encoding": "bytes",
						"label": "string",
						"numberOfBytes": "32"
					},
					"t_struct(Choice)8_storage": {
						"encoding": "inplace",
						"label": "struct IPoll.Choice",
						"members": [
							{
								"astId": 3,
								"contract": "Poll.sol:Poll",
								"label": "id",
								"offset": 0,
								"slot": "0",
								"type": "t_uint256"
							},
							{
								"astId": 5,
								"contract": "Poll.sol:Poll",
								"label": "name",
								"offset": 0,
								"slot": "1",
								"type": "t_string_storage"
							},
							{
								"astId": 7,
								"contract": "Poll.sol:Poll",
								"label": "votes",
								"offset": 0,
								"slot": "2",
								"type": "t_uint256"
							}
						],
						"numberOfBytes": "96"
					},
					"t_uint256": {
						"encoding": "inplace",
						"label": "uint256",
						"numberOfBytes": "32"
					}
				}
			},
			"userdoc": {
				"kind": "user",
				"methods": {},
				"version": 1
			}
		}
	}
}